:020000040800F2
:10000000F0FF01203D840508A5840508414304084C
:10001000A5840508A5840508A5840508000000003E
:10002000000000000000000000000000A58405089A
:10003000A584050800000000A58405081D14040817
:10004000A5840508A5840508A5840508A5840508D8
:10005000A5840508A5840508B9440408B14404082A
:10006000A9440408A144040899440408F56A050851
:10007000E56A0508D56A0508C56A0508B16A050874
:100080009D6A0508896A0508A5840508A5840508F0
:100090006DC80008A5840508A584050891440408D6
:1000A000A95705087958050899570508A158050862
:1000B000695805085958050849580508F97405088C
:1000C00005750508E1740508ED740508A5840508A3
:1000D000A5840508991404088D14040881140408E3
:1000E00089440408A5840508A5840508A584050895
:1000F000C9570508A5840508B9570508A58405084A
:10010000A5840508A584050839580508A5840508AF
:100110007514040869140408CD57050831C0000897
:10012000616A05084D6A0508396A0508256A0508E7
:10013000116A0508A5840508A5840508A584050895
:10014000A5840508A5840508A5840508A5840508D7
:10015000A5840508A5840508A5840508A5840508C7
:10016000A5840508A5840508A5840508A5840508B7
:10017000A5840508A5840508A5840508A5840508A7
:1001800089570508A5840508B1740508BD740508DC
:10019000A584050800000000A5840508A5840508BD
:1001A000A5840508A5840508A5840508A584050877
:1001B000C9740508D5740508A5840508A584050833
:1001C000756A0508FD690508E9690508D569050826
:0801D000A5840508A5840508BB
:0801D8005C7F0500010000003E
:08280000082800080040000850
:04400000FFFFFFFFC0
:10600000037830B4FBB10246C0F10105531912F810
:10601000014FDBB2002CF9D101335B000B4C0B803C
:10602000032223706270017859B1022300255A1CA3
:10603000D2B2E154A55410F8011F0233DBB200299B
:10604000F5D130BC70470223E8E700BFB030002034
:10605000826D136A5B681B78FF2B08D090F8D030F4
:10606000013BDBB280F8D0301BB10120704700202B
:106070007047126A526802201370704770B4C308E8
:106080000D4CE25C00F00706B24004EBD004D2B243
:106090000020C6F108038B4228BF0B46C3F1080558
:1060A0002A419840C91A40EA02004FF0000614F84D
:1060B000012FEED170BC7047F031002030B5EFF306
:1060C0001181802383F312880A4AD2F8D431D2F89E
:1060D000D841D2F8D401D2F8D851CAB282F311888B
:1060E000013BA84294BF4FF4006000201B1B1844E2
:1060F00030BD00BFB0300020012380F85130704720
:10610000014BD3F8DC017047B0300020012070470C
:10611000014BC3E978217047B0300020014BC3E93F
:106120007A217047B030002070477047212838B579
:1061300005D0222827D020280FD0002038BD0029E4
:10614000FBD0072AF9D1174B1C6818795A799B792B
:106150000C6008714A718B71EFE70029EDD0072AB6
:10616000EBD111480F4B0C79D0F8E4214D791C711B
:106170008C7909685D719C711960002ADDD0D0F8B6
:10618000E0019047D9E70029D7D0022AD5D1064AA5
:10619000D2F8EC31002BD0D00988D2F8E80198472A
:1061A000CBE700BF00000020B03000200020704787
:1061B0000A230380004870470800002064230380FE
:1061C0000048704714000020012901D000207047CA
:1061D000014BD3F89030184700000020012901D06E
:1061E00008F044BE014BD3F88C3018470000002063
:1061F000014BD3F8883018470000002010B40B780A
:1062000003F00303012B0A46044605D0022B0BD0F2
:1062100000205DF8044B70478B8843B92046114637
:106220005DF8044B0DF0DABA8B88832BF6D0034B64
:106230005DF8044BD3F88030184700BF0000002001
:1062400038B5054B0446DB6F0D4698472946204676
:106250000AF0E8FD002038BD0000002038B5054BED
:1062600004469B6F0D469847294620460AF00CFECF
:10627000002038BD000000200023F0B452004F1C65
:106280001E46B0F1204F4FEA107404F130052ABFCA
:106290003734CD54CC54FE5402339A424FEA0010A6
:1062A000EFD1F0BC704700BF08B50248FFF7A8FE69
:1062B000014808BD64310608B030002008B5024826
:1062C000FFF79EFE014808BD74310608B03000207B
:1062D0000B4A0C4B10681B681A22C0180A8001D1A7
:1062E0000948704710B5094B09491C680822FFF797
:1062F000C3FF204607490422FFF7BEFF024810BD36
:106300009075FF1F9875FF1FB00000209475FF1F48
:10631000B2000020C200002008B50248FFF770FE5E
:10632000014808BD80310608B030002008B5024899
:10633000FFF766FE014808BD8C310608B03000202A
:10634000042301480B807047CC000020A0B1826874
:106350000D4B12B107229A7070471978DA60032941
:106360004FF004000CBF80214FF48071C3E901118C
:106370001A611A7598707047034B41F2E47101225B
:106380005A545A70704700BF0C9900200378022BB2
:1063900010D0006908B9012070470C4B1B78032B03
:1063A0000EBF0B4B80B24FF6F773984294BF00209C
:1063B000012070470549436841F650028A58B3EB03
:1063C000422F2CBF01200020704700BF0C990020F5
:1063D000F7FFFF0F0378022B14D030B4104A436844
:1063E000006941F6480402F5C2511559096841F6A1
:1063F0003C042B4012595B0A023801FB0030104468
:1064000030BC7047064B426841F6340141F630001B
:106410005958185800EB410000EB5220704700BF5C
:106420000C99002000487047D8310020034B93F8A6
:106430002401032894BF002001207047B0300020C1
:10644000836D1B6A5B681B78FF2B0AD190F8D030F4
:10645000002B03F1FF3380F8D03014BF012002205D
:1064600070470020704700BF034B93F824010038A9
:1064700018BF0120704700BFB03000202DE9F8435D
:10648000884600294FD04718284C07F1FF39461E8F
:106490008025EFF3118185F31288D4F8D421D4F844
:1064A000D801D4F8D431D4F8D8C1C9B281F3118855
:1064B000634594BF4FF400630023121A1344012B69
:1064C0001AD101203AF034FFEFF3118185F31288DD
:1064D000D4F8D421D4F8D801D4F8D431D4F8D87170
:1064E000C9B281F31188BB4294BF4FF4006300230B
:1064F000121A1344012BE4D0EFF3118285F31288B2
:10650000D4F8D83116F8011F2344D2B283F8F01121
:10651000D4F8D8310133C3F30A03C4F8D83182F375
:1065200011884E45B5D14046BDE8F883B030002013
:10653000F8B590F85050002380F85030D5B10F4E88
:1065400096F8642C032A17D1D6F89C7C00F13C0401
:1065500029462046FFF792FFD6F89C3CDB1B322BE6
:10656000A5EB0005044401D8002DF1D1B5FA85F062
:106570004009F8BD0120FCE71846FAE7B0300020DA
:10658000002280F85120D3E790F85020531C024499
:10659000DBB280F8503082F83C1090F851200AB1FC
:1065A000132B00D9C4E77047F8B50C4E96F8643C3D
:1065B000032B0D4614460FD1D6F89C7C002C0BDD26
:1065C00021462846FFF75AFFD6F89C3CDB1B322BAE
:1065D000A4EB00040544F1D9F8BD00BFB0300020A1
:1065E00010B5134A134B8CB00821069302F5AC701A
:1065F000002382F8D0110DF1070401226944CDE98E
:106600000733CDE9034202938DF8143009930B93BD
:106610008DF828203EF046FB07483EF083FD9DF8AC
:106620000700A0F1FF00B0FA80F040090CB010BDE7
:10663000B030002051600008083200202DE9F04100
:1066400003792C4C002B14BF012200228AB084F85D
:10665000502104D184F824310AB0BDE8F081054608
:1066600004F5AC7795F9001038463EF03BFCAD7868
:106670009DBB214B2148C4F860514FF00108C4F87C
:10668000CC3184F864813EF06FFC1D4E03464FF41C
:106690007A70A4F85C313AF04BFED4F860013DF01A
:1066A0006FFD0FCE6D460FC50FCE0FC596E80300E8
:1066B00085E80300694638463EF0F4FA38463EF075
:1066C00031FDD4F89C2C84F824810023C4F81421D3
:1066D00084F818310AB0BDE8F08128463DF098FCF6
:1066E000054608B12023C3800D2128463DF000FD5A
:1066F000BFE700BFB0300020B0310020801A060094
:10670000B8BB050870B592B00B0E0D0C40F04006FA
:10671000952204468DF80810080A01A98DF8053065
:106720008DF80650002306258DF807008DF8092006
:106730000DF103000122039115498DF80460CDE9A4
:106740000733CDE90D33CDE9090204938DF81830F4
:106750008DF82C300F93119305958DF840200C91F6
:10676000FFF73EFF00B984B90A4C082304F5AC706A
:1067700003A984F8D0313EF095FA04F5AC703EF0F0
:10678000D1FC9DF8030012B070BDFF2012B070BDA7
:1067900041640008B030002030B5114A114B8DB073
:1067A00002F5AC74014606932046002382F8D0110E
:1067B0000DF10705012202A9CDE90733CDE9035206
:1067C00002938DF8143009930B938DF828203EF036
:1067D00069FA20463EF0A6FC9DF807000DB030BDDA
:1067E000B03000204164000870B51D4D90B0002409
:1067F000FD2201260DF1030301A905F5AC708DF80A
:1068000003200693CDE90144CDE90A44CDE90C44C7
:10681000C5F820418DF81040059407948DF8244068
:106820000F94039608968DF838603EF03BFA05F514
:10683000AC703EF077FC3046FFF7AEFFFF2809D082
:10684000D5F89C3CC5F814312046092385F824313D
:1068500010B070BD0423022085F8243110B070BD43
:10686000B030002070B5064690B008200D46FFF706
:1068700093FFFF2823D0FE2802D0022010B070BD65
:1068800000240222012301A90E4808928DF8383015
:10689000CDE90544CDE90A44CDE90C4402960395BF
:1068A00001948DF8104007948DF824400F943EF029
:1068B000F9F904483EF036FC204610B070BD0120C6
:1068C00010B070BD08320020444B98422DE9F041D1
:1068D00010D003F568530833984255D0404B002040
:1068E000A3F8080DA3F8140DC3F80C0DC3F8100D90
:1068F000BDE8F0813A4C3B4FDFF8F0800223C4F84A
:10690000A03C04F6A4460025D7F8D030AB42294677
:1069100005F1010503D0D4F8240D4BF001FE94F8E5
:10692000283DD4F8242D86F8243032623046414682
:106930004BF02CFFD4F8A03C9D4206F13006E3DB7F
:10694000002384F8163DD4F8A01CB4F8A82CD4F881
:10695000B03CD4F8AC0CB4F8B45CC4F8343D12FBD1
:1069600001F203FB01F3A4F8082DB4F8AA1C1E4A97
:10697000C4F80C0DC4F8103DA4F8145DA4F80A1D69
:10698000C4F8042D0120B3E7154C164FDFF86080E2
:106990000223C4F8A03C04F6A4460025D7F8D03062
:1069A000AB42294605F1010503D0D4F8240D4BF084
:1069B000B7FD94F8283DD4F8242D86F824303262AF
:1069C000304641464BF044FDD4F8A03C9D4206F1D0
:1069D0003006E3DB012384F8163DB4E71971EF00BC
:1069E000B030002000000020E0BB05081940EF0097
:1069F00021AAEF000F4B07B5D3F8D4205208B2FB01
:106A0000F1F3B3F5803F02D3012AF7D8F9E799B241
:106A100001904FF0A7F80849084A019841F2A453A1
:106A2000CA5001F5AD510022043103B05DF804EB0A
:106A30004EF07CBF00000020B030002085E9010846
:106A400010B5074C04F5AC703EF06CFB0A203AF030
:106A500063FCD4F86001BDE810403DF091BB00BF7D
:106A6000B03000202DE9F8431B4C94F82461042E2B
:106A70000546894690461F4608D0082E02D00020C1
:106A8000BDE8F883FFF7B0FE0228F8D1D4F8600122
:106A90003DF070FB94F81A31A3B969021120FFF799
:106AA00031FEA8B9D4F89C3CC4F800910522C4E991
:106AB0004387C4F8045184F82421C4F81431012018
:106AC000BDE8F88329461120FFF71CFE0028E9D015
:106AD000FFF7B6FFD3E700BFB030002010B50C467B
:106AE0004BF09CFB58B9084B93F8B434012B4FF092
:106AF00012030BBF054806482380238010BD1223D4
:106B00000448238010BD00BFA841002000010020E0
:106B1000EC000020D800002010B50CF06DFD104CEA
:106B200058B194F82431032B13D894F81831013359
:106B3000DBB2072B84F8183103D9002384F8243101
:106B400010BDD4F89C3CC4F81431012384F82431DE
:106B500010BD04483EF008FAA4F85C01E5E700BF68
:106B6000B0300020801A060070B51E4C94F8243115
:106B7000042B06460D4609D0082B23D1D4F81C312E
:106B800083422DD0FFF730FE02281BD1D4F86001DC
:106B90003DF0F0FA00213720FFF7B4FD2946172019
:106BA000FFF7B0FDB0B994F81A316BB97102192032
:106BB000FFF7A8FD70B90823C4E9476584F82431BC
:106BC000022070BD012070BD31461920FFF79AFDEB
:106BD0000028F0D0FFF734FFFFF79EFF032070BDC1
:106BE000022070BDB03000202DE9F8432A4C054644
:106BF000884617461E4694F82401042831D00828F8
:106C000007D1D4F81C31AB4206D0FFF7EDFD0228C6
:106C1000F1D00120BDE8F883FC22204BDFF88490FE
:106C20001F4883F8B824C9F83C813EF06BF800286F
:106C300014BF4FF400734FF480731948C9F84431FE
:106C400009F58A713EF02EF801220623C4E9408539
:106C5000C4E9437684F8082184F824310020BDE893
:106C6000F883D4F860013DF085FA94F81A3153B9ED
:106C700069021820FFF746FD38B994F82431082B33
:106C8000CAD0FE22C9E72946F3E7FFF7D9FEFFF78E
:106C900043FF0320BEE700BFB0300020A841002022
:106CA00008320020000000202DE9F047D04C94F875
:106CB000506194B0002E00F0958194F8242104F5E1
:106CC000AC7704F5A078531E082B00F2A480DFE80F
:106CD00013F0390062002E01A2009000B4001B00E6
:106CE000A2000900FFF77CFC002840F04282D4F8A3
:106CF0001431D4F89C2CFA33934280F08980FFF74A
:106D00000BFF94F82421DEE7FFF76AFC0028EED0A1
:106D1000D4F820310022012B84F8182140F240825F
:106D2000D4F81C21013B511CC4E94713082284F804
:106D30002421A2F10806B6FA86F67609304614B088
:106D4000BDE8F087D4F860013DF014FA0021084650
:106D5000FFF7D8FC0546FFF773FE012D58D1D4F894
:106D600060014FF0000984F819913DF003FA40F2F8
:106D7000AB110820FFF7C6FC052800F07A81012836
:106D800000F03C81FFF75CFE94F81921002ACED078
:106D9000022384F82431D4F860013DF0EBF994F833
:106DA0001931022B0CBF4FF0804500250021372000
:106DB000FFF7A8FC29462920FFF7A4FC0546FFF7AA
:106DC0003FFE2DBB94F81931022B00F0818184F82D
:106DD0001A51D4F860013DF0CDF900210920FFF7E8
:106DE00091FC002872D0FFF72BFE94F82421531E4B
:106DF00011E0D4F800014FF40071FFF733FD0128D2
:106E000000F01B81022800F02081002800F04C8156
:106E100094F82421531EDBB2022B0AD8D4F89C3CF0
:106E2000D4F814115B1AC82B83D9FFF775FE94F8B8
:106E30002421042A7FF47DAF80E7D4F858316D48CF
:106E40001D6A3DF05FFF002800F01681B5FA85F558
:106E50006D09002DDCD004A900250DF10F030222DD
:106E60004FF001090591384605A9CDE90B39079284
:106E7000CDE90955CDE90E55CDE91055ADF81050C5
:106E800006958DF820508DF8345013958DF8489064
:106E90003DF008FF38463EF045F99DF80F3003F00D
:106EA0001F03052B00F06E81FFF736FED4F80CA10E
:106EB000BAF1000F00F0DA802A46D4F81031D4F885
:106EC00004114846D04794F82421FCE6102140469E
:106ED000FFF7C8FC0546002885D101217F20FFF778
:106EE000CDF8012881467FF47EAF28460221FFF7C6
:106EF000C5F8002800F01E8101287FF474AF162128
:106F00003A20FFF7BBF801308002C4F82801FFF7F0
:106F100097FDD4F860013DF02DF900210A20FFF71C
:106F2000F1FB002840F0FF80032384F82431102176
:106F300005A8FFF797FC00287FF46AAF9DF8213081
:106F40009DF822109DF81C209DF815509DF8160004
:106F50001B01DBB243EA111303F5FA63A4F83A31DB
:106F6000DDF81D3001F00F0184F83C111BBA110946
:106F700002F00F0240EA052084F8381184F8392124
:106F80009DF814109DF81720C4F83431069BC4F8FE
:106F90003031A4F82C0184F82E1184F82F21FFF74A
:106FA0004FFD94F81A3173B9D4F860013DF0E2F85E
:106FB0004FF400711020FFF7A5FB0546FFF740FDD9
:106FC000002D7FF49CAE0C483DF0CEFF0022042340
:106FD000A4F85C013046C4F8202184F8243114B0B0
:106FE000BDE8F087304684F8246114B0BDE8F0872E
:106FF000B03000200832002040787D01042304AA2C
:107000008DF8340005A96E4807930692CDE90999D9
:10701000CDE90B99CDF814908DF82090CDF83890EB
:107020003DF040FE66483EF07DF89DF81330AB2BF6
:1070300004BF022384F81931A4E6D4F81431D4F83B
:107040009C2C64339342BFF4E3AEFFF7F9FCFFF7E7
:1070500063FDD4F80C514DB100221046D4F8103124
:10706000D4F80411A84794F824212CE694F824219C
:1070700029E684F8195185E6D4F8003194F808110E
:10708000024603EB012138464FF480733EF030F89E
:1070900094F808310133DBB2A3F10205B5FA85F5A6
:1070A00084F808316D09D4E60190FFF7C9FCD4F8E3
:1070B0000C51019884F81801042384F82431002D20
:1070C0003FF43CAED4E94021D4F81031A8479FE604
:1070D000D4F860013DF04EF829463A20FFF712FB44
:1070E00004A90422814601230691384605A9CDE969
:1070F0000955CDE90B5505958DF820500E95079251
:107100008DF834303DF0CEFD38463EF00BF8B9F145
:10711000000F08D1FFF794FC049B1BBAC3F38073E4
:1071200084F81A3155E6FFF78BFCFFF7F5FC94F86D
:107130002421C8E504212C20FEF7A0FF03210546E9
:107140004E20FEF79BFF0C2182463620FEF796FF6D
:107150000AF1020A431C03FA0AF309FA05F0A3FB39
:107160000001430A43EAC153C4F82831FFF768FC21
:10717000CFE60190FFF764FC01980423064684F8EB
:107180002431DBE5D4F80C51D4F89C3CC4F814311C
:10719000072284F82421002D3FF4CBAD484691E727
:1071A00008D0042384F82431FFF74AFC94F8242102
:1071B000531E30E6FFF718FB02287FF429AE12E6D3
:1071C000083200204309012200F01F00013B86B075
:1071D00002FA00F0042B0CD8DFE803F0161F280396
:1071E0000D00174BDA6D0243DA65DA6D104001903D
:1071F000019B06B07047124B9A6C02439A649A6CDA
:1072000010400590059BF4E70D4BDA6C0243DA64FD
:10721000DA6C10400490049BEBE7094B1A6E0243B2
:107220001A661A6E10400390039BE2E7044B9A6DB6
:1072300002439A659A6D10400290029BD9E700BF05
:107240000010024070B5214DD5F8BC3493F82620CB
:10725000DAB11B699847E0B1D5F8BC3493F8242023
:107260008AB105F5986600241A19E0B29B6992F874
:107270002C10B6EC010A9847D5F8BC3493F82420BA
:1072800001349442F0DB5B69984795F8D034332B96
:1072900000D070BD95F8D134002BFAD0D5F8BC34AD
:1072A00093F82430042B1E46A8BF0426002BF0D0F0
:1072B0000024074D234618464EF09EFE0134E3B2EB
:1072C0009E4245F8040BF6D870BD00BFA8410020CF
:1072D0007C460020F0B5D0F800C0134CDCF8045018
:1072E00085B0254045EA01040A9F039344F0004419
:1072F00044F490341546CCF8044019463A46064604
:107300000EF0F8FA68B93168039B8D620246009767
:10731000304640210EF01EFB003818BF012005B09A
:10732000F0BD012005B0F0BD009800FCF8B5144F89
:1073300004460D460AE09B69DB0602D50EF098FA7A
:10734000D8B9D7F8F4345B1B0A2B09D823689E6997
:10735000B6062A464FF00A012046ECD50020F8BDBB
:10736000636C202100220B43636484F8402084F87E
:10737000411084F842200120F8BD0120F8BD00BF73
:10738000A8410020164BDB68C3F3022310B4C3F1FD
:1073900007041A1D042C28BF0424062A4FF0FF32CC
:1073A00002FA04F28CBF033B002321EA0201002809
:1073B00001FA03F10ADB00F1604000F561400901C8
:1073C000C9B280F800135DF8044B7047054B00F01C
:1073D0000F0009010344C9B219765DF8044B7047E8
:1073E00000ED00E0FCEC00E0284B294AD3F8D43053
:1073F000284910B5A2FB0323274CDB0C82B00022E6
:10740000013BC4F8F81404F59F6041F28731C4F8D9
:10741000FC34C4F80415C4F80825C4F800250DF0A0
:10742000C1FB1E4B9A6D42F020029A659B6D03F0E2
:107430002003019306213720019BFFF7A3FF184982
:10744000D4F8F834174A4FF400004860D96841F086
:107450000101D96099680A40062A06D0B2F5803F3A
:1074600003D01A6842F001021A600F4B0F49D3F89B
:10747000802C002003F5F874C2E98114C2F81002D0
:10748000C3F8EC01C3F8E40102B010BD0000002015
:1074900083DE1B4300140040A8410020001002407E
:1074A00000E100E007000100B0300020E0460020CD
:1074B000F0B589B00D4604463CF0DCFF031E1CDB32
:1074C000164A174E1A4406EB830392F86070C3F80D
:1074D000385D20463CF0F4FF3E44A588114A206800
:1074E000002303A9CDE905330793CDE903520EF03C
:1074F000ADFA96F8783DF02B01D809B0F0BD0A4BF3
:107500000321D8570190F02386F8783DFFF73AFF22
:1075100001980FF055FA09B0F0BD00BFB8BB0508DF
:10752000A841002000001110003206082DE9F043A8
:10753000774D784ED5F8CC3D1F78012F85B01AD104
:1075400096F87521013A1A7196F8764105F6CC58ED
:10755000002C08BF682440464FF000093B460DF15F
:107560000502752185F8D04D8DF805903DF0A0FEFF
:10757000044600284AD1D5F8CC3D02221A7096F86C
:10758000733123B90024204605B0BDE8F08396F896
:10759000721161483DF0A6FC04460028F2D096F82E
:1075A00073013CF035FD96F87031C5F8D40D013308
:1075B000DBB210B12422C37182710D213CF098FD21
:1075C000D5F8D40D3CF0DCFD96F8740100284AD1C2
:1075D000524AD2F89C3C632BFBD95148DFF84881D2
:1075E000504FDFF834913DF0BFFCA5F8D00D02E01C
:1075F00058F8047F5FB34846B84703460028F7D0E1
:10760000454885F8783E3DF093FDBCE740463DF0A7
:107610008FFD3B46494640460DF106023DF048FECF
:107620009DF8063003F07E038DF8063008B1682B14
:107630002DD09DF8053003F07E03682B8DF80530C2
:1076400028D0702B9FD1042385F8783E9BE796F8CD
:1076500073013DF021FB96F87401002892D03DF0B3
:107660001BFB3C468FE73CF0D3FC96F87031C5F825
:10767000440E0133DBB210B15A22C37182710D2165
:107680003CF036FDD5F8440E3CF07AFDA0E785F8D5
:10769000787E78E7062302261F4885F8786E19461B
:1076A00002AA3DF005FED8B19DF80D309DF80B20E3
:1076B0009DF80910B3405200324003F00403134315
:1076C00001F0010213430BD0012B1DD0022B17D068
:1076D00003F00303032B13D003203CF0B9FE52E761
:1076E0000D4801230DF107020C213DF0E1FD0028BA
:1076F000F2D09DF8073013F00F03EDD0042B03D028
:10770000012385F8793E3EE7002385F8793E3AE784
:10771000A8410020A0520020744F0020B03000206B
:1077200040420F00A714050828BC0508B0B10C4959
:10773000D1F88031102B03D1052100203CF068BE28
:1077400003EB43020A4482F88401202082F8850179
:107750000120034482F88601C1F88031704700BFE0
:10776000A05200208078E1E700B583B001460123F4
:1077700005480DF107023DF09BFD08B19DF807009B
:1077800003B05DF804FB00BF744F00202DE9F04FFB
:10779000DFF8BCB089B06C2200210BF5DA7054F030
:1077A00057F823490BF5087040F24C4253F0EEF8BD
:1077B0009BF86C361BB19BF86D368BF8B4319BF897
:1077C0006E361BB19BF86F368BF8C0319BF8703664
:1077D0001BB19BF871368BF8CC319BF872361BB11C
:1077E0009BF873368BF8D8319BF874361BB19BF835
:1077F00075368BF8E4319BF876361BB19BF87736FB
:107800008BF8F0310B4A0C4B0C491B881288098805
:107810000B4DCBF888260B4C0B4ECBF884169A1ADE
:1078200000270A4B93FBF2F3CBF88C3617E000BF2E
:107830004CBC0508A875FF1FCA75FF1FAA75FF1F5E
:10784000000021C3B8BB0508545400208038010053
:10785000A05200200137092F06F10C0628D0062F70
:1078600000F04C81072F00F0708130780028F1D0B3
:10787000BA4A00230133312BECD012F80C1F884296
:10788000F8D103EB430CB64904EB8C0C00220868DA
:10789000DC3128B19CF8E1041041C00700F11183EC
:1078A0000132052AF3D10137092F06F10C06D6D192
:1078B000AC4CDFF8DC82DFF8DCA2DFF8DC92AA4F08
:1078C000AA4E002554F8083C002B00F0AF80D4F8F5
:1078D000D020002A00F0AA80DC2202FB05B223603F
:1078E000D2F8841241F00201C2F884129A6812F0B0
:1078F000040F9A6840F05C81110700F15981DA6841
:1079000042F40012DA6020460FF068F8002800F018
:10791000FD81236896495A68DFF880C202EA0802AE
:107920005A6040F2FF721A609A6822F0A0429A6090
:107930009A6842F000529A60DA6802EA0A02DA6053
:10794000DA6842F00042DA601A6902EA08021A6153
:107950005A6902F080425A619A6902F078429A614B
:107960001A6A02F0F0221A625A6A02F0FF225A6280
:107970009A6A02F0FF229A621A6B02EA09021A63FB
:107980005A6B3A405A639A6B3A409A63DA6B22F424
:10799000FB6222F00702DA631A6E0A401A665A6E18
:1079A0000A405A669A6E0A409A66DA6E1140D966A3
:1079B000D3F8A02002EA0C02C3F8A020D3F8A42038
:1079C00002EA0C02C3F8A420D3F8B02002EA0C02A9
:1079D000C3F8B020D3F8B420B3F1A04F22F07F1247
:1079E000C3F8B420634A00F05982934200F06182E8
:1079F000614B6249624A9B68896892680B431343F2
:107A0000DB0704D45F4B9A685F490A409A60DC2226
:107A100002FB05B20023C2F88832C4E91933C2F868
:107A2000843284F85830002840F096800135052DC6
:107A300004F1DC047FF446AF4FF00009DFF860A1E9
:107A40004F465AF8743C23B1DAF86430002B40F00A
:107A5000D6800137052F0AF1DC0AF2D10026404D0D
:107A6000DFF84081494F34462B68002B00F0F98144
:107A7000D5F8D820002A00F0F481A968B1F1A04F10
:107A800000F01582DFF8ECC0384B3E48614518BF66
:107A900003469B68886840072FD495F8600001284A
:107AA0002BD003F01F030120092B85F8600000F2A2
:107AB000728340F22120D840C00740F16C8388686F
:107AC00010F0010040F04581D1F808E0DFF8D8C09F
:107AD0001EEA0C0F00F02181DC2303FB04B4D4F870
:107AE000843284F8800243F01003C4F88432D4F85E
:107AF000883243F00103C4F88832FEE700210A46C9
:107B00004FF4803CAE46DC2303FB02B23078D2F85F
:107B1000F832717043EA0C0301214FF0070CC6F8EC
:107B200004E0C2F8F83286F80AC0717200283FF407
:107B300091AE3CF06DFAFB1DDBB210B100228371F7
:107B4000C27103213CF0D4FA84E60021DFF85CE046
:107B50000A464FF4802CD6E7FEE700BF98C0050820
:107B6000C0540020C8540020200882E000030050C8
:107B700000F0FF0300010050000400500005005019
:107B80000006005000070050E01000FEC0FFFF7F1D
:107B900000F8FFFF04000080300882E00000F8FFDA
:107BA00034550020FEF0FFFF3F000080000084CB32
:107BB000DA68920105D5A18B40F20112914200F0E2
:107BC000D4829A68520703D59A68900740F10B84D3
:107BD0009A68120703D59A68910740F1BD820C217B
:107BE000BE48D0F8F4C406E0D0F8F424A2EB0C02AE
:107BF000052A00F23F819A680A42F5D17FE61AF819
:107C0000700CFFF7DFFADAF864305AF8742C4AF88F
:107C10006C2C99085A0801F0333102F077320A448B
:107C2000D9089B1A01F011329B1A03EB131303F0CE
:107C30000F33FF22B3FBF2F2C2EB02229B1A0022A7
:107C40004AE919224AE910224FF40020DC214AF8BF
:107C50004C3C4AF8680C01234AF85C2C0AF8502C7A
:107C60000AF8482C0AF82C2C059201FB07B10820D1
:107C70004FF480524AF8583C0AF84F3C0AF8343C1A
:107C80004AF8540C4AF8302CD1F88432002B00F01A
:107C900089825AF86C3C9A68940005D59A6822F05B
:107CA000204222F03F029A609A68D00016D49A6867
:107CB0008B498C48D1F8D410B1FBF0F122F010427E
:107CC00022F03F0242F080529A600591059A2AB153
:107CD000059A013A0592059A002AF9D19A68D100CD
:107CE00040F12A8200249A68520740F10D81DC237A
:107CF00003FB07B3D3F88432DC2303FB07B3D3F8C9
:107D0000842242F01002C3F88422FEE7DC2303FB46
:107D100005B30122C3F88422FBE58868DFF8BCC103
:107D2000384040F001008860DCF8F4E40EE0886838
:107D3000C00704D48868384040F001008860DCF84F
:107D4000F404A0EB0E00022800F239840868C00792
:107D5000EDD54FF0DC0C0CFB04BCDFF8A8E1DCF83F
:107D6000840200EA080040F480707145CCF8840277
:107D700000F01D825C48814200F01982DC2303FB85
:107D800004B3D3F8840220F48010C3F88402DC2307
:107D900003FB04B34FEA920ED3F8840210F4805030
:107DA0001CBFD3F8880220F00600C3F88802E86DF3
:107DB0004E4BC3624E4B03634E4B43631C230B601D
:107DC000D1F804C053080EF0333E03F07733734408
:107DD0004FF000094CF0100E4FEAD20C85F860907D
:107DE000D31AC1F804E00CF01132D1F80CE09B1A60
:107DF00003EB1313404A03F00F334EF0010E4FF024
:107E0000FF0CB3FBFCFCCCEB0C2CA3EB0C03C1F87C
:107E10000CE002EB460240310EF06AFCAA6893685F
:107E20003B4043F004039360002840F0C683D5F83C
:107E3000D830324A5908980800F0333001F07731D1
:107E40000144D8085B1A00F011315B1A03EB1313DD
:107E500003F00F33A2FB0312D209C2EB02229B1ADA
:107E60001E440134052C05F1DC057FF4FDAD09B09D
:107E7000BDE8F08FDC2202FB05B20120D2F88412AB
:107E800041F01001C2F88412D2F888120143C2F8FE
:107E90008812DA6842F40012DA603AE59B68926868
:107EA0001343DB073FF5B3ADB2683346ACE5144B83
:107EB000EFE54FF0A04292689B681343DA07F3D5D1
:107EC000A5E50C2101FB03434FF0010C93F8E814E6
:107ED000D3F8E4E40CFA01FC51B214E6A841002006
:107EE00000000020400D030000050050C9F100080B
:107EF000C5F10008B1F10008209401208180808044
:107F00000003005000010050DC2202FB07B2D2F84F
:107F10008412CD063FF5F0AED2F8841221F48171BF
:107F200041F00201C2F884129A68D6071AD4B3F15C
:107F3000A04F00F06B82A04A934200F070829F48ED
:107F40009F4902F5407292688068896802430A433B
:107F5000D50707D49B4882685AF8681C22F47C1223
:107F60000A4382605AE919105AF8302C02430A4336
:107F70001AF84F0C1AF8481C42EA4032012942EA2A
:107F8000014204D15AF8441C013942EA41425AF8EC
:107F9000401C29B15AF83C0C01F4787101430A43A2
:107FA000DD6889495AF8380C29400A43DA601A69B1
:107FB00022F0406202431A6199689A6801F0040154
:107FC00002F008020A4327D1D9681AF8342C1AF8AB
:107FD000505C5AF85C0C21F48041520021F00201FF
:107FE00042EA85320A43DA601A69002840F0C58205
:107FF00022F480321A61D3F8C02022F47F5222F09A
:108000003F02C3F8C0201AF82C2C012A00F0C282CB
:108010001A6922F001021A615AF8582C012A00F05C
:1080200085821A6B22F00F021A63DC2505FB07B567
:1080300005F52176D5F8843223F0030343F00103DC
:10804000C5F88432002C40F086811AF8143C06945E
:10805000012B00F07F81AAF16C03039318460123E2
:108060000AF8143C0EF0BAFC002840F06D81D5F8F7
:108070008432564923F4885323F0020343F0020369
:10808000C5F884325AF86C2C936823F0404323F0EF
:108090003F0343F0004393609368002BC0F23082AB
:1080A000DC2202FB07B20021D2F88432DFF82CC1B7
:1080B00023F0030343F00103C2F88432444B0AF86F
:1080C000141C6C330293A3F16C00012604E0029BA4
:1080D0000C30834200F04081437A002BF7D090F9B6
:1080E0000130BB42F3D13B4B80F8089003EB860292
:1080F0001AF8143CD2F82C5742684FF0000809F1E6
:108100000101012B0191CDF81C8006F1010612D06E
:108110005AF86C3C996801240AF8144C4C075FD556
:10812000DC2303FB07B3D3F8842283F8808242F078
:108130002002C3F88422FEE7DC2202FB07B20124FE
:10814000D2F8841241F01001C2F88412D2F88812D9
:108150002143C2F88812C6E59A6822F0004222F054
:108160003F0242F020029A6039E51A68500607D4AF
:10817000194A02E0013A3FF47DAE19684906F9D583
:1081800040221A609A68500703D59A68910740F117
:108190003481042124E5DC2303FB04B4002384F8A8
:1081A0008032AAE4C1F888320AF8143C71E5002B49
:1081B0007FF4EDADE2E500BF000100500005005086
:1081C00000060050000700500740F0FF01DE0400E9
:1081D00054540020B8BB0508000040A30003005021
:1081E0004FEA951808F00C0803F1300E05F01F0552
:1081F00058F80E901F24AC40C2F3846101FA05F5D3
:1082000029EA04042C4348F80E409D689C6805F058
:10821000040504F008042C4356D14FEAD25E03F162
:1082200014050EF0040EC2F304595EF8058007240D
:1082300004FA09F444EA08044EF805405C6924F0A5
:1082400000445C61DC681C6E1C6EC2F31205C4F352
:108250008464002D00F03C8192FAA2F1B1FA81F120
:108260008C4200F02881596E596E03F16004C1F30D
:10827000846103F1640592FAA2FEBEFA8EFE8E4579
:1082800003D1296821F000412960A168A16804F1A7
:108290000805C1F3846192FAA2FEBEFA8EFE8E45F5
:1082A00003D1296821F000412960E168E5680C34B8
:1082B000C5F3846592FAA2F1B1FA81F1A94203D122
:1082C000216821F0004121609968C90707D4D3F8DB
:1082D000B010C2F3120421EA0401C3F8B010C2497D
:1082E0000A422BD0B3F1A04F00F0E180BF49C04C4F
:1082F0008B4208BF64462146BE4D8C68AA4204F0FA
:10830000E07100F0B080BC4DAA4200F0AC80BB4DE3
:10831000AA4240F08F80E50110D4B3F1A04F00F0E5
:108320008780B24AB24C934208BF644622469368A3
:1083300023F0E0730B4343F0807393600023DDF878
:1083400004900AF8143CC2E6336885F8804243F092
:1083500010033360FEE7D8E4A94B3B44FDB293F928
:108360001320294602203CF05FF946680446304657
:108370003CF0C8FAA34A2421431E01FB032386468E
:1083800093F8801100297FF472AD01354FF0060C8F
:1083900083F8815183F880C100283FF468ADA36859
:1083A000CAF8043080232022CAF810304FF48075B8
:1083B0004FF480534FF48064CAE90723CAE90211DD
:1083C000CAE90554CAF800604DF02CFF50460EF083
:1083D000EBF950460EF05CFA039B4AF818ACCAF869
:1083E0002830FFF736BB9A6822F0004222F03F02A5
:1083F00042F010029A60FFF7EBBB9A6822F000424D
:1084000022F03F0242F010029A60C2E677499A6871
:1084100089680A43D1073FF5A5AD7B489BE54FF03E
:10842000A04291689A680A43D2073FF59BADF4E7F2
:1084300062467CE7754DAA4280D164023FF57EAF6B
:108440006A4A93423FF47AAF02F5C062B3F1A04F9B
:1084500008BF62461346926822F0E0720A4342F473
:1084600080029A606AE724023FF568AFB3F1A04F3B
:108470001FD0674A93427FF461AF5D4CA368614AA5
:10848000644DD2F8D420B2FBF5F223F0E0730B4335
:108490000C2143F4000301FB02F2A360079202E007
:1084A000079B013B0793079B002BF9D146E76146E9
:1084B00022E76446E2E7196E1C4621F0004144F8C9
:1084C000601F596E596E03F16405C1F38461D2E6F1
:1084D000A14245D05C6E5D6E03F16004C5F3846516
:1084E00003F1640EA9422AD0A568A568C5F3846586
:1084F0008D4230D0E568E5680C34C5F38465DDE66F
:10850000069B01330693069B8B427FF6C5ADDC23A9
:1085100003FB07B30021D3F8842283F8801222F0F2
:10852000120242F01002C3F8842213E7196B5AF8C2
:108530004C2C21F00F01013A0A431A6375E5DEF86D
:10854000005025F00045CEF80050A568A568C5F399
:108550008465A942CED1A56825F00045A560C9E78C
:108560001D6E1C4625F0004544F8605F5D6E5D6E33
:1085700003F1640EC5F38465B4E742F480321A61F6
:10858000D3F8C02022F47F5222F03F020243C3F806
:10859000C02038E55AE90A211D695AF8200C25F453
:1085A000FF650A4325F004055AF81C1C2A430243C0
:1085B0000A4342F001021A612EE5FFF79EBADC235E
:1085C00003FB04B40022D4F8843284F8802243F000
:1085D0001003C4F88432D4F8883243F00103C4F89D
:1085E0008832FFF78ABA00BF0000088000010050FF
:1085F00000070050000021C31000C090000052C7C7
:108600000C5900200000002000030050000084CB23
:1086100000060050400D0300F0B5D0F800C0134C28
:10862000DCF8045085B0254045EA01040A9F039315
:1086300044F0014444F490341546CCF80440194603
:108640003A4606460DF056F968B93168039B8D62CB
:1086500002460097304680210DF07CF9003818BFA3
:10866000012005B0F0BD012005B0F0BD009800FC70
:108670000128B5EEC00A10D0F1EE10FA0BDD9FED27
:10868000177ADFED177AE0EE077AFCEEE77A17EE5D
:10869000903A98B2704700207047F1EE10FA0BDD67
:1086A0009FED107ADFED107AE0EE077AFCEEE77AC4
:1086B00017EE903A98B27047EDD5F7EE007A30EEAB
:1086C000270A9FED0A7ADFED0A7AE0EE077AFCEEE0
:1086D000E77A17EE903A98B2704700BF00E0F9448D
:1086E0000000404200C079440000834400C079C4C7
:1086F00000E0824470B5464E96F8904604EB840341
:1087000006EB8303A50093F89436032B6ED8DFE8BD
:1087100003F059291E02254406EB8505D5F8980675
:10872000002870D196F8E4369C425FD0013404F002
:108730000302934286F8902658D002EB820406EB9F
:1087400084040223C4F8980684F8943670BD2B196B
:1087500006EB8303D3F8982672B1013AC3F8982642
:10876000002070BD2B1906EB8303D3F89826002A4E
:10877000F3D1022283F89426254406EB850595F86B
:10878000A036013BDBB285F8A0368BBB214B96F8B7
:10879000E466D3F8A413D5F89C06621C02F0030229
:1087A0004B1E0324B242034485F89446B3FBF1F018
:1087B000C5F898061AD0994218D80138C5F8980615
:1087C000012070BD3DF08AF980B1124B2C44D3F8E2
:1087D000A42306EB8404012102F51C5384F89416AB
:1087E0000F33B3FBF2F3C4F8983670BD012070BDAF
:1087F000084BD3F8A423012002F2E733B3FBF2F3D2
:10880000C5F8983670BD0138C5F89806002070BDCF
:10881000A05200200000002038B590F83C30012B19
:1088200000F0AA800D4602230121044680F83C1086
:1088300080F83D30142A1ED8DFE802F0241D1D1DEB
:108840003C1D1D1D551D1D1D6D1D1D1D861D1D1D48
:108850000B00006829460BF0A9FE23682869196DF2
:1088600041F400611965196D21F4806119651A6D73
:1088700042EA00221A650123002084F83D3084F882
:108880003C0038BD006829460BF0FAFF23682869D0
:10889000996941F008019961996921F00401996190
:1088A0009A6902439A610020012384F83D3084F8DC
:1088B0003C00E6E7006829460BF090FF2368286932
:1088C000996941F400619961996921F48061996124
:1088D0009A6942EA00229A610020012384F83D301F
:1088E00084F83C00CDE7006829460BF025FF23689B
:1088F0002869D96941F00801D961D96921F00401D9
:10890000D961DA690243DA610020012384F83D303D
:1089100084F83C00B5E7006829460BF0BBFE2368ED
:108920002869D96941F40061D961D96921F480616C
:10893000D961DA6942EA0022DA610020012384F871
:108940003D3084F83C009CE7006829460BF068FE47
:1089500023682869196D41F008011965196D21F026
:10896000040119651A6D02431A650020012384F879
:108970003D3084F83C0084E7022038BD03689B0A40
:10898000A3F58013542B00D970470D4A134493F874
:1089900048370B2BF8D830B50A4C427985B00029FE
:1089A00014BF0025022504EB83106946002301242F
:1089B000CDE90054CDE902330BF0A4FF05B030BD82
:1089C000B8BB0508885900200D4BD3F8D42010B54A
:1089D000520804464FF6FF714DF0C4F820460021BE
:1089E000FFF7CCFF0749084A41F2A8532046CA5076
:1089F00001F5AD51BDE81040002208314CF096BFA2
:108A000000000020B03000204FA701080F4B104A93
:108A1000D3F8D430A2FB03239B09013BB3F1807F41
:108A200011D210B50B4A0C49536000240723F020E3
:108A300081F8230094600F214FF0FF301360FEF7A0
:108A4000A1FC204610BD0120704700BF000000209F
:108A5000D34D621010E000E000ED00E0F0B5324CC4
:108A6000324BD4F8402A12695168994283B054D0ED
:108A7000A3F57843994252D003F58063994250D0D0
:108A800003F58033994214BF4FF0FF31032128488A
:108A9000013100F1B4073CF025FAD4F8403A2548FA
:108AA000D3F88830C4F84C3A07F11003C4F8B43A4C
:108AB000C4F8B07A3CF058FA00260546314601AABF
:108AC0000223A7F1B400A4F8485AADF804603CF0C2
:108AD000AFFA052038F02CFC01AA3146A7F1B4000A
:108AE0000223ADF804603CF0A3FA054620B19DF8DE
:108AF00005301E2B03D03546284603B0F0BD0E4A84
:108B00000E4BC4F82C2A0121A7F1B40084F8181BDD
:108B1000C4F8303A3CF00CFBEEE70021B7E7012146
:108B2000B5E70221B3E700BFA052002000300140AA
:108B3000E45C0020809698003D0F0508D9010508E7
:108B4000F8B5184F97F8783E122B01D00020F8BDE9
:108B500007F6CC55BC21144E28463CF01DFA284699
:108B600001223C213CF070FAD6F89C4CE4B201E0C2
:108B7000820708D4BC2128463CF00EFAD6F89C3C6B
:108B8000E31A312BF4D94307E0D408490848094ACD
:108B9000094BC1F8C800C7F8BC2DC7F8C03D01207B
:108BA000F8BD00BFA8410020B0300020284F0020B1
:108BB00000007A3DF50F0508311F05080368187895
:108BC000012801D000207047074A93F9043064213E
:108BD00001FB032393F8752B202AF4D1D3F8343BFF
:108BE0009869C0F3C0307047A052002010B50C4CFB
:108BF000D4F8AC3C1B78022B10D1D4F8B40C3BF069
:108C0000BFFAD4F8B40C08B12323C38001213BF090
:108C10006FFA04483CF0A8F9A4F8B00C10BD00BFEE
:108C2000A052002080969800054BD3F8AC2C127807
:108C3000022A03D1D3F8B40C3CF00EB8704700BF41
:108C4000A052002030B583B00D46012301460DF13E
:108C50000702044607483CF02BFB9DF8072035EA45
:108C6000020304D003482A4321463CF0F5FD03B03B
:108C700030BD00BF4C5F002038B505460A460C46A3
:108C8000064829463CF0E0F945F0800103483CF0F5
:108C900083F9231A5842584138BD00BF4C5F002069
:108CA00070B50D4CD4F8AC5C2E78022E134607D06C
:108CB0000A46014604F6AC40BDE870403CF0F8BA04
:108CC0002A6A0AB1002070BD0A46014604F6AC408B
:108CD0003CF08AF9012070BDA052002003681B7887
:108CE000022B4FF0010201D03CF010BD3CF0D4B992
:108CF00013B53B4C0023D4F8642D8DF8073013785E
:108D000003F0FD01012905D194F8681D11B90C216A
:108D100084F8681D022B1ED0032B2ED001220B21BC
:108D200030484AF025FD042038F002FB2D4801238D
:108D30000DF1070200214AF03DFD00283AD09DF8D0
:108D40000730482B36D1284BC4F8583D274BC4F880
:108D50005C3D02B010BDD4F86C0D3BF011FAD4F8B4
:108D60006C0D08B13623C38001213BF0C1F92048C6
:108D70003CF0FAF8A4F8680DD0E741F2F41350681B
:108D8000E35846F2A8111961002380F868301222D6
:108D900037214AF0C1FCD4F8643D0D2258682421E3
:108DA0004AF0BAFCD4F8643D302258686A214AF08F
:108DB000B3FCB3E7D4F8643D1A78022A03D0032A3F
:108DC00007D00020C5E7D4F86C0D3BF045FF00202C
:108DD000BFE75868102237214AF09EFCF1E700BF38
:108DE000A0520020046000201338050895380508BB
:108DF0008096980010B58CB000234CF20502044612
:108E000001A9CDE90633CDE90833ADF800208DF88E
:108E1000023003220B930123CDE903128DF81430A5
:108E20008DF82830CDF808D03CF07CF9204602A916
:108E30003BF038FF20463CF075F99DF806000CB079
:108E400010BD00BF0848002302461178022902F134
:108E5000060204D00133062BF7D10020704703EB44
:108E6000430300EB43007047146700202DE9F041F5
:108E7000614C82B0242204F55F70002152F0E8FCBE
:108E800094F8A5730023C4F8A033002F3CD15B4EA7
:108E9000D6F8043D63B39B6A53B359489847836837
:108EA00033B303885748013B9BB2844606460025EE
:108EB0003178032906F106061ED00135062DF7D1BB
:108EC00000220178022900F1060000F08E800132B4
:108ED000062AF6D1D4F8A013052909D0481C02FBB4
:108EE00001C2C4F8A00302200021938010705180B9
:108EF000384602B0BDE8F081062303FB0545B5F80E
:108F00007E33013B9BB2DBE794F8A40304F56B735B
:108F1000C4F8A83310B9394E0027B9E73BF078F808
:108F2000C4F8B40318B183790BB1422BF3D136489E
:108F300039463BF0D7FF80460028ECD0D4F8A83360
:108F40002F4A98685A6708B12223C3800D213BF04D
:108F5000CFF8D4F8A833294E98683BF011F92B4884
:108F6000D4F8A8533CF000F80123A8803220C6F8BA
:108F7000245D86F8283D38F0DBF90423D4F8A803F3
:108F800000250DEB03029F2101953CF02DF89DF883
:108F900005509DF804309DF806102D0245EA034562
:108FA0000D43294606F6045049F0F0FB08BB28465D
:108FB000FDF78AFCE8B99DF806509DF805209DF85C
:108FC00007302D0245EA02451D43294606F60450A6
:108FD00049F03EFA68B92846FDF776FC074640B9E5
:108FE00094F8A4033BF058FE52E7062101FB02C2AD
:108FF00079E747464CE700BF98630020B030002077
:10900000B43D00201467002044670020404B4C0012
:10901000114BD3F8981C91F8280201281AD00A683D
:10902000B2F858306FEA43436FEA53439BB210B42F
:10903000A2F85830B2F840309BB243F43F430024CA
:1090400043F08003A2F8403081F8284220465DF8C2
:10905000044B7047704700BFB0300020F0B5744C2F
:10906000744E94F84D56744BC4F8243406F51F62C0
:10907000022104F224470820C4F89426002289B073
:10908000C6F8987CC4F82804C4F82C14C4F8341426
:10909000C4F83824C4F83C24C4F84024C4F8442458
:1090A000002D73D0032184F84D16B3F8405044F2DC
:1090B0007F0129401646A3F84010002215464FF0C4
:1090C000010C04EB4211971C81F84C24A1F85A249E
:1090D000013204EB4717D2B2904281F84DC481F8B7
:1090E0004F54C1F85C54C1F86054C7F82454E8D810
:1090F0000022154604EB421102F10A0781F84C25C3
:10910000013204EB4717D2B2904281F84D5581F8F5
:109110004F55C1F85C55C1F86055C7F82454E9D8DB
:1091200000210120A3F84000A3F84010A3F8441048
:10913000A3F85010B3F8402092B242F43F4242F0FC
:1091400080028642A3F8402084F8481484F84D0633
:109150005BD01423002054259421D422A4F8523546
:109160004FF48A7384F8580584F8580484F8780416
:1091700084F8780584F89804A4F85254A4F872147A
:10918000A4F87225A4F8923409B0F0BD05F0FF06EA
:109190002A4D0796EB6C84F84C6643F00103EB64B0
:1091A000EB6C049103F00103029303274FF4C053C7
:1091B00003A94FF09040029A0596039306970CF08E
:1091C00045FCAB6D43F40003AB65AB6D03F40003EA
:1091D000019306211420019BFEF7D4F8184AD4F815
:1091E0002434D4F828044FF48011116084F84D76AB
:1091F000B3F84010D4F8406444F27F020A40A3F868
:10920000402000287FF459AF8AE784F88416B3F829
:109210005420C4F88C6692B242F00102A3F85420A4
:10922000B3F8542092B242F00202A3F8542090E71F
:1092300098630020B0300020005C00400010024025
:1092400000E100E010B5194C94F8990690B9184B5C
:1092500083F85101C3F8540194F89C36012B20D0B7
:10926000D4F8A0360BB313495B68BDE81040A1F1F8
:109270000C0018473AF0CCFE94F89B260C49003AB3
:1092800018BF012281F85121C1F854010028E3D010
:109290002122C28020213AF02BFF94F89C36012B2A
:1092A000DED1054BC4F8A036DDE710BD9863002081
:1092B000B03000203C6A0020A803002099B10A6B5E
:1092C000824216D9154BD3F8E426914221D35C395A
:1092D00091421ED30B6B9842F9D38B6B9842F6D810
:1092E0000B46184670470D4BD3F8E4160A6B9042B4
:1092F00012D30B680BB9F4E70A6B90420B4602D30A
:109300008A6B9042EDD951F85C3F002BF4D118469E
:1093100070470023184670470A46D8E79863002034
:109320002DE9F047CC0143D10346224A43F8082BEC
:109330004FF0FF324260022418467E26DFF8788024
:10934000D8F8E8962644013E051D49466FF070475F
:109350004FF0010A08E0A3421CD0631C45F8043C0E
:10936000321B1C460435CAB10B6BA34202D88B6B6F
:10937000A34204D22046FFF7A1FF014690B10A792B
:109380004B6B002AE7D1A34204D0E6D245F8042C67
:10939000631CE5E745F8047C631CE1E7C8F8E816C0
:1093A000BDE8F08745F804AC321B631C4946D8E79A
:1093B0008026C3E7F8FFFF0F986300200E4A10B520
:1093C0000E4CC2F804470E4CC2F8FC4600230D4C6C
:1093D000C2F8F006A2F8F416C2F8F836A2F8F6368B
:1093E000C2F8004782F80837282202FB03F403532F
:1093F00001339942F9D110BD9863002040420F001B
:1094000020A10700A01CE9FF2DE9F047164D0746F3
:10941000002095F9119705F5E36684B007EB010884
:1094200005F6B81504464FF0B60A3368ABB193F8A9
:109430003830142B11D019F1020F01D04B450CD14B
:10944000002269463046CDE90244CDE90078ADF806
:1094500008A08DF80D402EF065FCE036B542E4D151
:1094600004B0BDE8F08700BF9863002090B10B4BBB
:10947000B0F5167F93ED007AF2EE047AA8BF4FF4B0
:10948000167027EE277A07EE900AF8EEE77A87EE55
:10949000270A70479FED020A704700BF506D0020F9
:1094A000000000002DE9F04FA34AA44CB2F8841D3F
:1094B000B2F8823DA24E2DED068B07EE901A0AEE11
:1094C000103A14F88B3CDFED9FAAF8EE679A07EE8E
:1094D000903A34F88A3CF8EEE77AF2EE046A0A2B06
:1094E00087EEA67AB8BF0A23A6F6984A91460022CC
:1094F00085B0CAF8A82CA4F1580707EE903A34F8C2
:10950000883C86ED007A08EE103AF8EEE78AB8EE6D
:10951000C88AB6EE009AF4EE488A29EE890AF1EE7E
:1095200010FAC8BFB0EE688A14F88C3CC6ED018A08
:10953000B4EEC80AF1EE10FAD8BFB0EE408A082B9C
:10954000A8BF0823B1F57A7F38BF134680EE080A1A
:10955000CAF8A43C86ED028A4FF0EAFDB7EE007A25
:10956000B4EE470AF1EE10FA48BFB0EE470AFDEE3E
:10957000C07AB8EE4AAAF8EEE76A17EE905A44EDC0
:10958000217ACAEE297A67EEA67A87EE276A89EEF3
:10959000A67ADFED6D7A04ED206AC7EE279A88EE91
:1095A000A90A44ED1F9A4FF061FE0228B8BF0220BD
:1095B00088EE290A804644F8780C4FF057FE23289D
:1095C000A8BF2320B8F1230FA8BF4FF023084045C0
:1095D00044F8740CB8BF4046A0EB0801012D54EDCF
:1095E0001C7A9FED5A8A8346B8BF01250131F5EEFA
:1095F000407AF1EE10FA2CD1554A9FED56AA01950A
:10960000002302971D46174607EE905AF8EEE79A98
:10961000039169EEAA9A0135B0EE690A44F084F824
:10962000F0EE408AB0EE690A44F06AF8A8EE880AC3
:10963000242D039920EE0A0A68EE8A8A87ED000A33
:10964000C7ED018A07F10807DED1DDE90157DFED3B
:10965000427A91FBF5F2002347E9053847F8082CD8
:1096600047F80CBC47F8045C3A460133482BA2EC9F
:10967000018AFAD13948D0F800C0406807F59073E4
:1096800000220132242AC3F800C0586003F1080305
:10969000F7D1334B07F515779F42A8D1DFF8C88083
:1096A000DFED308A44ED1C7A00257019C34600278F
:1096B000DAF8A43C9F4200F1240430DA07EE907AF5
:1096C00096ED016AF8EEE76AD6ED027A36EE897A0F
:1096D00077EEC67A743067EE877A07EE103AB8EE06
:1096E000C77AB9F8823D87EE870A0421013700EE78
:1096F000903A30EE060AF8EE600AABEC010A96EDFD
:10970000001A84ED178AA6EEA81A84ED168A84ED55
:10971000158A84ED148A44F039F92046C8E705F526
:109720009075B5F5587F08F12008BED105B0BDECA5
:10973000068BBDE8F08F00BFA84100209074002088
:1097400030700020C3B8B23D00009042000000001D
:10975000207B002072F97F3FBC297E3F58C305085B
:10976000347B0020CDCC4C3E447000202DE9F04FDE
:109770002DED028BDFF8A081DFF8A0A19FED628ABA
:1097800085B008F13004A8F5F6690127FEB218F893
:10979000010B3246592135F0B3FF0546002800F091
:1097A00098800068A5600123B0F1804F04F8283C40
:1097B00004D0564BC31AB3FA83F35B0904F8273C71
:1097C0004BF0ECFE14F8273C07EE900A002BF8EE65
:1097D000677A4FF0000314BF01214FF480714FF4FA
:1097E0000052286844F8083C44E9062344F8101C59
:1097F00044ED087A4BF0D2FEAAFB0030C3080122E8
:1098000018F8010C44F80C3C04ED098A24F81C2CCF
:1098100024F81A2C3AF0FCFBE06010B15923C67111
:10982000837199F8B437012B6CD0022B0CBF422105
:1098300002216A7A3AF03AFC28684BF0AFFE002128
:10984000024628464CF08EF914F8273C002B4BD0EA
:1098500021462F4B41F8043D002228464CF066F883
:1098600028684CF0D9F98346A0B101230022019366
:109870000423CDE9022399F8B517914214BF13468A
:10988000022369466A7900930BF03CF869795846DF
:109890000BF006F9A26854F8103C126899F8980881
:1098A000013E591EF6B29162012300214FF0FF3CA8
:1098B0004FF40055B042C2F82CC0536144E9065140
:1098C00024F81C3C24F81A3C44F8081C01D135F05B
:1098D00067FD0137052F04F138047FF457AF05B059
:1098E000BDEC028BBDE8F08F0A48DFF834C044F8C5
:1098F000040C63602246211F2846C4F800C04CF0C7
:1099000015F8ADE7222194E700000000000C0040AC
:1099100005EB030839EC0308407C00201F85EB5160
:10992000C5F303080C480D4BD0F8B41810B40C4C18
:10993000C0F8A4388A1E2231B0F8C0381B01A4FB3D
:1099400003C3DB08A3F5B06322F8023F9142F3D1D1
:109950005DF8044B704700BF90740020CD090208E9
:10996000CDCCCCCCF0B5274C85B004F50D630546C5
:10997000C4F8B438FFF7D6FF234A244BC4F8A8280C
:109980001A21402084F89E18C4F8AC3830F0E6FF65
:10999000002835D094F80D3994F80E7994F80F69B1
:1099A00090F904001A4A002D14BF4FF4E1314FF42E
:1099B000E121002B14BF02230023002F14BF302508
:1099C0000025002E18BF43F001032B430325CDE9EA
:1099D000015300910023402131F01DF8C4F82409FF
:1099E00048B10C480EF0C0F894F8293984F82809D9
:1099F0000BB984F82959D4F82409003818BF01207C
:109A000005B0F0BD907400209D530208351D02087A
:109A100089120208B50E020870B5084C251D2E46A5
:109A200014F8010B2EF09CFB28B1037905F8013BDB
:109A3000B442F5D170BDFF23F8E700BFBC7D002024
:109A40002DE9F0471D4F012607F10805B2464FF0FA
:109A50003D094FF0000817F8010B3AF0D9FA044617
:109A600090B180F80690C671FB7803F07F02012A5E
:109A700018D013F0800F20460DD185F804803AF0FD
:109A800079FB85F805802C600136052E05F1080567
:109A9000E1D1BDE8F08785F804A03AF071FB85F8C4
:109AA00005A0F0E71B0605D4012120463AF020FB73
:109AB000FB78DEE73AF064FBF6E700BFC47D0020E8
:109AC000354BB3F8823D07EE103A2DE9F041BAEE7E
:109AD000EF7A2DED048BB4EEC70AF1EE10FADFED4C
:109AE0002F8AB0EE408AF0EE607AF0EE419A06DD01
:109AF000F4EEC70AF1EE10FA45D5B0EE478AB5EE9E
:109B0000C08AF1EE10FA43DDF5EEC07AF1EE10FAFC
:109B10003EDD27EE887A67EEE77AE8EE087A87EE90
:109B2000279A1F4E1F4FDFF8848000F10C0400F1CC
:109B30009C0544E9028744F80C6CB5EEC08AF1EE4E
:109B400010FA19DDB5EEC09AF1EE10FA14DD164BDD
:109B500044F8083CC4ED038AC4ED028AC4ED018ACE
:109B6000C4ED008A0421B0EE491AF0EE690AB0EEA5
:109B7000480A204643F00AFF3034AC42D9D1BDEC4C
:109B8000048BBDE8F081B0EE688AB0EE689AC8E751
:109B90009FED029AC5E700BFA84100200000000029
:109BA000897D0408E57C0408397D0408817D04086A
:109BB0000A44914215D030B441F2210511F8014B0D
:109BC000082380EA042010F4004F85EA40040ABF0D
:109BD0004000A0B280B2013BF5D18A42EED130BC48
:109BE000704770471249134AD1F8F40405E0D1F8E0
:109BF000F4341B1AB3F57A7F0FD81369DB03F6D45C
:109C000013694CF2FA310B4009D1106910F00100D0
:109C100004D001211846116170470320704706489F
:109C2000D0F8D0131943C0F8D01301201361704746
:109C3000A841002000200240000000202DE9F04152
:109C4000204D95F8633985F85C3905F5166705F6FA
:109C5000641600244FF0050817F8010B20BB306094
:109C60000134032C06F10406F6D195F85C19D5F8F9
:109C70006409C94301F001013AF002FB95F85C194F
:109C8000D5F8680981F00201C1F340013AF0F8FA11
:109C900095F85C19D5F86C0981F00401BDE8F04134
:109CA000C1F380013AF0ECBA3AF0B2F90134012183
:109CB0003060E3B210B180F80680C37130683AF0CA
:109CC00017FACEE790740020F0B5284CB4F8745918
:109CD000A4F8765983B0EDB994F870093AF098F980
:109CE00094F87129C4F87809003A18BF012284F861
:109CF0007C2948B194F872192D22002914BF112132
:109D00000121C2803AF0F4F9002003B0BDE8F04030
:109D10003AF0BEBA94F87079002238462D2135F019
:109D2000EFFC064638463AF073F9E8B1E6B12D2269
:109D3000C4F89409C280727A02213AF0B7F9002778
:109D40000B4AB2FBF5F3C3F34F0000909BB23146D0
:109D5000019704F51860A4F898592DF05FFAD4F82B
:109D600080391F6084F8917903B0F0BD90740020B1
:109D700040420F002DE9F84F254C94F8A43984F89F
:109D80009A3904F69B17002604F6B8145FFA86FB8E
:109D90000BF101085FFA88F8012117F8010F42461C
:109DA0000E448A4635F0ACFC4FF00009054648B336
:109DB000387804F80E9C04F80D9C04F80FBC04F8E5
:109DC00010AC44F8045C3AF023F9022118B180F891
:109DD00006A080F807806A7A3AF068F90D4A0021F7
:109DE00028464BF0BFFE0C4B23600C4B221D214636
:109DF0002846C4E901394BF099FD697928684A463B
:109E00002DF0C0F9082E04F11C04BFD1BDE8F88F75
:109E10009074002040420F00C5710308813403088C
:109E200070B52D4C2D4B94F8D00AC4F8C83A0022D6
:109E30000221C4F8882AC4F88C2AC4F8902AC4F8ED
:109E4000C42AA4F8CC2A35F05BFC002837D0066879
:109E5000054604F6D42304F634315A7C12B15A680C
:109E600096422DD018338B42F7D1002394F8D00AB4
:109E7000C4F8B45984F8A8393AF0CAF808B10223F2
:109E8000C3806A7A02213AF011F92846144A002167
:109E90004BF068FE134A1449C4F8B8190026111F84
:109EA0002846124BC4F8BC39C4F8C0694BF03EFDDB
:109EB000697928683246BDE870402DF063B970BDFD
:109EC00030464BF06BFBB36A094A0133B0FBF3F049
:109ED00082F8EC03C9E700BF9074002000FFFF0088
:109EE00040420F004C7E0020A93403084536030889
:109EF000000000202DE9F04FDFF838822DED068BB1
:109F000098F8C64BA1B0032C0490A4F1050300F20D
:109F1000968079490122032B81F8102A00F2BE8035
:109F200098F8CF3B88F8F42B012B00F0AD81022B81
:109F300000F0A781714B724E0B931D460FCE0FC5DB
:109F40000FCE0FC598F8CE7B33686E492B603B1E51
:109F500018BF01236C4A0391072C81F8D134C8F84B
:109F6000742B00F2A382042C0ED998F8CD3B674ADB
:109F7000C8F8FC2B012B05D0022B06BFB7FA87F3DC
:109F80005B09002388F8003C614B0593DFF8A8B11A
:109F9000FD3306934FF0000A049B534540F36B8456
:109FA0005FFA8AF309935D1C069B13F8016B069315
:109FB000EDB22A463046032135F0A2FB04460028C4
:109FC00035D030463AF024F8059B586110B1032390
:109FD000C571837198F8C63B07932046277A3AF0FB
:109FE00003FB98F8003C0646002800F0BB8208936B
:109FF000002B40F0BA82D0F80490B9F1000F16D0CF
:10A0000048463AF07FFC434A0A90431E242101FB54
:10A01000032393F8802152B90322B16883F8815158
:10A0200083F880210A9B0C91002B40F0C5823A4BAB
:10A030003A4AC8F8783BC8F87C2B00237BE1DAB2B7
:10A04000042A7FF666AF2C490022032B81F8102AE0
:10A050003FD8012388F8F43B2A4B0393039BD3F8A2
:10A06000BC34002B3AD0049883F82400012100224C
:10A0700083F8251083F826209A62014648B12C33D4
:10A080001944274A084612F8011B03F8011B98429D
:10A09000F9D121B0BDEC068BBDE8F08F214E224DE9
:10A0A00098F8CC7B0FCE0FC50FCE0FC533682B6051
:10A0B000002388F8F43B092C42D8DFE814F0400173
:10A0C0004100F403EF034100410041004100410021
:10A0D00040010C4B88F8F42B0393BFE7134D144C4D
:10A0E0000FCD0FC40FCD0FC42B6844F82039039B4C
:10A0F000C3F8BC44CDE700BF88850020F47F002072
:10A1000040C40508A84100208D5D050839E5030815
:10A11000647F002000000020A5E40308A1E40308F8
:10A120005880002088C40508248000201CC405082D
:10A13000B48B002090740020548600206F120339E5
:10A140005FED028AF0EE689AC74AC849C84BC8F862
:10A15000AC1B002FC749C8F8A41B16BF134600222A
:10A160000122069239EEA87AF5EE006A86EE87AAF9
:10A17000C8F8A83BC04BFD330593A3F1FD044FF095
:10A180000009DFEDBE7A9FEDBE9A68EEA78A049BB8
:10A190004B456FDD059B09F1010B13F8017B05931E
:10A1A0005FFA8BF52A463846032135F0A9FA0646B0
:10A1B000002800F02E85384639F02AFF606110B182
:10A1C0000323C5718371727A022139F06FFF069BF8
:10A1D000002B00F0EF80B8F8C43B306807EE903AEF
:10A1E000F8EEE77AFCEEE77A17EE907A4BF0D6F9C4
:10A1F000B0FBF7F303F57F43FF331B0CB0FBF3F326
:10A200000393B3FBF7F3DDED037A98F8C62BF8EE72
:10A21000677A092A67EEA86A29EE667AC4ED026AAF
:10A22000A7EEA97A84ED037A00F0DB800020CDE967
:10A230000000039A9BB2314620462CF0EFFFB9F1A3
:10A24000000F00F0B28061688B4B02E09C4200F08E
:10A25000AC805A688A4203F11803F7D1012383F0D6
:10A2600001030122BBF1040F23746274D94604F187
:10A2700018048CD1DFF82CB2824B0393C3F8BCB422
:10A28000ECE6082C00F014837F4A804E7D4B82F868
:10A290005C4603930FCE7E4D98F8CECB794CDFF819
:10A2A00008920FC50FCE0FC500212F46326847F820
:10A2B0008029BCEB0103049E7648C8F8F86B18BFF0
:10A2C00001234FF44C7284F8D13488F8F61B0E4603
:10A2D00051F0BEFA7D35D8F8F83BB34263DD15F88E
:10A2E000014B204635F096FA8246204639F090FE22
:10A2F0009AF808B0039B0BF0010A93F8D1340AF1E5
:10A30000010A044688F8F5AB0BB18BF0010B002C69
:10A3100000F0B382A37903B3422B1ED05E4B5549A4
:10A32000514AC8F84C3B012388F8F63BC8F8441B57
:10A33000C8F8482B0023039AC2F8BC348EE64D4B74
:10A34000DFED4E8A494AC8F8A43B01230693C8F8BA
:10A35000AC2B454BF0EE689A04E720463AF08AF8B9
:10A360004FEA4A1A01364AF001014FF00303C9F8D7
:10A370001410C9F80400C9F80C4089F810B0E6714F
:10A38000A371204639F0B4FE1BF0010F20460ED019
:10A3900039F0F0FED9F80C307B61042E09F1200968
:10A3A00007F1180797D13A4BC5E7002357E739F073
:10A3B000E7FEEFE7B0EE4A0A4EF02CFE3068B0EE52
:10A3C000408A4BF0EBF8FCEEC87A4FF6FF7317EEBD
:10A3D000902AB0FBF2F21A44120CB0FBF2F2039294
:10A3E00011E701210022CDE900219BB2039A3146F9
:10A3F00020462CF013FF3368184608EE103A1D462D
:10A400004BF00AFC079000283FF419AF1E4AD2F81F
:10A41000A835002B7FF413AF28464BF011FC1F4FDB
:10A4200009960C25824608941D4E01E0BE4244D098
:10A4300073783078194603360028F7D0002BF5D012
:10A4400035F006F804460028F0D000684BF0F8FB21
:10A450008245EBD16379AB42E8D1043D15F0FF05AD
:10A46000E2D1089CEBE600BFA5E40308C13903086C
:10A47000C9360308A9E40308647F00206F12833AF9
:10A4800000007A44A84100208885002064C40508A3
:10A49000C47F0020E88B0020A1E40308B38B0020D8
:10A4A000748B002024800020188F0020082C7FF45B
:10A4B0006BAD474BC8F8FC3B66E5AA46454D089C8A
:10A4C000099EC5F8A84573792268980818EE107A95
:10A4D00085F8E805079812680068C5F8B425343790
:10A4E00005F2B4513D461F445346EB18394D2160E7
:10A4F000C5F8A475039DC16A1292192707FB05F7D9
:10A50000079D354A95F83CC0324DB7FBF2F2891AE7
:10A510004FF480770022C5F8A035C5F8AC150223AA
:10A520004FF40071BCF1010FCDE91422119216977E
:10A530001393179100F0E8810799012281F83D30CB
:10A54000AAF1040381F83C20082B00F2D681DFE851
:10A5500013F08302D401D401D4017F02D401D401C9
:10A56000D401D101002B3FF462ADD4F81490B9F1BD
:10A57000000F3FF45CAD48463AF0C4F9A269174BAE
:10A580000C92451E242202FB05350A9095F8806145
:10A590003A2E00F0A48120684BF052FBC0B2002E8E
:10A5A0007FF445AD3A2385F880310A9B85F8810117
:10A5B000002B3FF43CAD089698F8016C25680848DC
:10A5C000CBF82891002E00F05382002203460DE0C4
:10A5D00009E503088885002040420F0000000020A4
:10A5E000948000200132B24200F0428219688D420C
:10A5F00003F1B803F6D1D6B2B82306FB0303099AD8
:10A60000CBF82C3198F8013C8BF8B520013B207930
:10A61000099339F0FDFC039B93F8D12407F0010363
:10A62000591C0AB187F00107490141F00E01CBF82E
:10A63000B810CBF80840627A39F038FD099B9E4289
:10A6400000F09C82079B063B0D930023CBE93F3330
:10A65000CBE94133CBE94333CBF814310BF1F803A9
:10A6600008EE103A17F002034FF060020E934FEA23
:10A670004703CBF8F82003F002034FF0010200F08B
:10A680001982CBF80C31CBF8002100274FF480332E
:10A69000CBE947370A220223CBF80471CBF8182103
:10A6A000CBF8243163790C2B00F2F081B14A98F891
:10A6B000001C02EB8302D2F81478CBF8E870002972
:10A6C00000F0B082DBF82C31C3F8A890CBF82891C9
:10A6D000089B002B00F035820BF1BC000F9009F0B5
:10A6E00093FD98F8003C0F98002B00F01882A24AC6
:10A6F00021684FF4907303FB0623DBF82C2101F54E
:10A700007871C2F8B030CBF8C0300C9BCBF8E03099
:10A71000CBF8BC10079B082B0CBF06231223CBF8E9
:10A72000DC300023CBE932334FF400731022CBF836
:10A73000D4304FF40053CBF8C420CBF8E43080225F
:10A74000089BCBF8D0204FF40062CBF8D820002B28
:10A7500000F0D1819DF83430CBF82891022B00F223
:10A760009081844A02EB8303079AD3F80838082AB9
:10A77000824AB2FBF3F303F12303CBF8F0300CBFB2
:10A780005F221322DBF82C3158469A804BF06AFA8C
:10A7900098F8003C002B00F06381089B002B00F030
:10A7A0005F8118EE102A3946284609F0FDFA012F7C
:10A7B00000F08D81042F00F0D981102F00F03E822F
:10A7C000402F00F05082B7F5807F00F05A82B7F535
:10A7D000806F00F05E82B7F5805F00F06282B7F5AF
:10A7E000804F00F06682B7F5803F00F081822B6DCC
:10A7F00043F400632B6505F1180009236049614AA1
:10A80000C95C12F803C00B58042202FA0CF223EAC6
:10A8100002030B502B6843F001032B600E9B002BAF
:10A8200000F051812B6A43EA87072F62099B9E4201
:10A830000BD16B6C43F400436B642B6843F08003D3
:10A840002B602B6843F001032B60039B93F8D134FA
:10A85000002B40F04981059A01230AF1010A8BF887
:10A860000F305374BAF1040F02F118030BF59A7B01
:10A8700005937FF491AB0B9B5DE5204639F0FAFD23
:10A880004FEA4A1A4AF001010136C9F81410C9F812
:10A890000400C9F80C4089F810B072E5DFED3A8A7F
:10A8A000DFED3A9A50E4DFED3A8AF0EE689A4BE435
:10A8B000384B394D0B931C460FCD0FC40FCD0FC431
:10A8C00098F8CE6B35492A68354B0391003E18BF86
:10A8D0000126226081F8D164C8F8743BE9E520685C
:10A8E0004BF0AEF995F8813183427FF4A0AB0123A0
:10A8F000089361E611A909F0CDFE07990122002312
:10A9000081F83D2081F83C3035460FCD18AF0FC798
:10A9100095E80F0087E80F002249DFF890C0C1F8E2
:10A9200000C0002218A8A1F29C538DF865A04AF03F
:10A93000FDFF316800231C4A52F83320914200F099
:10A94000778101330C2BF6D1002040B20121039016
:10A95000FCF718FD03980CF033F89DF865200C2ADD
:10A9600026D8DFE802F067252525602525256E25F8
:10A9700025255900B8BB05084097012000D01213C7
:10A98000F8C40508ECC40508ACC5A737ACC5A736A4
:10A9900028293038F47F002040C40508A841002051
:10A9A0008D5D0508248B002060C30508D53703089A
:10A9B000079B1B68186A02F01F0101228A4020EAE7
:10A9C00002001862186ABF4902438B421A6200F003
:10A9D0008680BD4A934200F0828002F54062934235
:10A9E0007DD002F58062934279D002F58062934275
:10A9F00075D002F50062934271D09968B34A0A405B
:10AA0000062A3FF41CACB2F5803F3FF418AC1A683C
:10AA100042F001021A6012E4079B1B68D96841F0FA
:10AA20001001D960C6E7079B1B68D96841F0040193
:10AA3000D960BFE7079B1B68D96841F00201D96064
:10AA4000B8E7079B1B68D96841F00801D960B1E7F6
:10AA500011A909F071FE50E711A909F0BFFE4CE7FA
:10AA60000A989BF8B5309A4990224BF0BFFB98E6C4
:10AA7000B82202FB0682731CC2F8045C88F8013C11
:10AA8000BAE58D23CBF8F03013227BE698F8003C32
:10AA9000CBF8E870002B7FF415AE1F461946DBF8A3
:10AAA0002C21ABF80C10B2F8B43023EA0103A2F861
:10AAB000B4300DE6CBF808314FF48073CBF8FC20AE
:10AAC000CBF81031E1E52B6A1F432F62AEE6AB698C
:10AAD00043F00803AB6105F1180000238EE65A6CC1
:10AAE00042F400425A6488E72368627934334FF6AF
:10AAF000FF719950AFE65FFA89F30246A3F10801AE
:10AB000029F0FF001423B1FBF3F1013109F08AFBB6
:10AB1000D9F8003043F00203C9F800301AE66D4A54
:10AB20000C9BCBF8E030582303FB0A23CBF83031E1
:10AB3000CBF8C0302368627934331344CBF8BC308F
:10AB4000E8E5D9F800305FFA89F123F00103142217
:10AB5000C9F8003029F0FF000839B1FBF2F10131EA
:10AB600009F09EFB0A984BF05DFBB5E5AB6943F03D
:10AB70000803AB6105F1180001233FE600234FF005
:10AB8000FF32ADF8603019931B938DF870301A9234
:10AB9000514A52F8332095426DD001330C2BF7D136
:10ABA0000020FCF70FFB2B6823F001032B60079BB1
:10ABB00028469A1F0D924AF0F1FC9DF8343007EEBA
:10ABC000900A022BF8EE677A40D8444ADFED446AD7
:10ABD00002EB830303F6080292ED007AB8EE477A9F
:10ABE00087EE870A30EE260A4EF040FB079B0138BD
:10ABF000082BADF8600014BF13225F22002318A9B0
:10AC000028461A921B938DF87030199309F09AFA1E
:10AC10001BE5344A344BC8F8AC2B8346C8F8A83B34
:10AC2000FFF72ABB2D4A02EB4303B3F8481836E777
:10AC30002A4A02EBC30393F8AD0786E6AB6943F4F7
:10AC40000063AB6105F118000223D7E59FED277A79
:10AC50009FED230AA7EE870A4EF008FB0138ADF8F6
:10AC600060001322CAE7AB6943F00803AB6105F14A
:10AC700018000323C2E5194A02EBC30393F8AC079B
:10AC80008FE7EB6943F00803EB6105F1180004233B
:10AC9000B4E5EB6943F00803EB6105F11800052307
:10ACA000ACE5EB6943F40063EB6105F118000623A2
:10ACB000A4E5EB6943F00803EB6105F118000723F5
:10ACC0009CE500BF002C014000340140070001005A
:10ACD0001943050840A0012060C30508B8BB05085A
:10ACE0000AD7233CD1370308A5E40308FCF4B234A7
:10ACF0002B6D43F008032B6505F1180008237DE553
:10AD0000F8B5534E96F81B0996F81C5939F080F99E
:10AD100060B12F23C3802021044639F0E9F90A20CD
:10AD200036F0FAFA204639F09BFB20B9494FD7F8A4
:10AD3000143ADA0000D5F8BD013D092DFBD896F88C
:10AD40001A49CCB940202FF009FE0028F3D090F921
:10AD5000043096F89D18092BC8BF143B3B440A29C0
:10AD600093F8184A67D093F8243A96F80E29002AE7
:10AD700008BF1C46002CDED0204639F049F90546B4
:10AD800008B12F23C3800121284639F0B1F90121F0
:10AD9000084639F0BBFA0121284639F071FA3C2007
:10ADA00036F0C6FA0021012039F0B0FA96F81C39C5
:10ADB0001BB300240021084639F0A8FA0021022024
:10ADC00039F0A4FA0021284639F05AFA782036F0F2
:10ADD000A3FA0121002039F099FA0121022039F06B
:10ADE00095FA0121284639F04BFA782036F094FA8A
:10ADF00096F81C3901349C42DCDB96F81A3993B979
:10AE000096F81B39002B96D196F81D39012B92D15B
:10AE1000D7F8143A13F080538DD186F81C39BDE869
:10AE2000F84043F0B7B9322036F082FA28460021C4
:10AE300039F05EF9E4E7D7F83C3A5B057FF57BAF84
:10AE400011F060FA00287FF476AF002C94D172E7FD
:10AE5000907400208885002048400822430010F0AC
:10AE6000800F08BF400083F0D50314BFD8B2C0B232
:10AE7000013AF3D1704700BF30B405688D424FF0FE
:10AE8000000211D011F8013B08245A40530012F07F
:10AE9000800F08BF520083F0D50314BFDAB2D2B2DC
:10AEA000013CF3D18D42EDD16B1C03602A7030BCA4
:10AEB000704700BF82B00346019000F14802D3ED15
:10AEC000024A93ED044A93ED037A93ED055AD3EDCC
:10AED000087AD3ED075A93ED066AE4EE004A24336C
:10AEE000F0EE406AA5EE267A67EEE47AA4EEE57A03
:10AEF000E6EE267A03ED077A43ED067A9342B0EE4A
:10AF0000640ADCD102B0704770B4344890F8403A1B
:10AF1000A3F13001092957D800F52464224600F630
:10AF20004F2012F8015FA5F13001092904D88242AF
:10AF3000F7D1002070BC7047141B022C4ADD284852
:10AF4000002101E010F8013B01EB810103EB41031B
:10AF5000161A303B022E044603F0FF01F2DC214BAF
:10AF600003FB01F1A2424FF000030DD903EB830371
:10AF700014F8016B5B00303B3344A24203F0FF0343
:10AF8000F4D1194800FB03F32E2D06D01748A0FB7F
:10AF9000032301EB930070BC7047013204200024AE
:10AFA000157804EB8404303D6400092D00F1FF3076
:10AFB000A4B202D82C44A4B2013210F0FF00EFD1A9
:10AFC000642202FB0433E1E700211D4600F5246200
:10AFD0000B46D9E7064C0021C4E700BF8885002056
:10AFE000C98F00208096980040420F00ABAAAAAA01
:10AFF000C88F002038B5041E0D4611DB092C24DC57
:10B0000008461A4B1A49A3FB0423DB0803EB83030E
:10B01000A4EB43030022CB5C03704270284638BD8A
:10B0200064422D23092C01F8013B16D80F4B104820
:10B03000A3FB0423DB0803EB8303A4EB43030022FD
:10B04000C35C0B704A70284638BD0848A0FB04302A
:10B050000A22C0083DF074FAD3E70448A0FB04308C
:10B06000C0080A223DF06CFA0146DFE7CDCCCCCC1B
:10B07000A431060883B50C46164605462FF03AFC67
:10B0800020462FF037FC0021204B0846002E08BF39
:10B090001E4639F03BF90021012039F037F92846E6
:10B0A00036F01CFAB0B10121002039F02FF9284602
:10B0B00036F00CFA0746204636F00CFA0028FAD093
:10B0C0003946204636F030FA3846B0470021084667
:10B0D00039F01CF9204636F001FA0028DFD00121B2
:10B0E000002039F013F9204636F0F0F901462846E1
:10B0F000019136F0EFF901990028F8D0284636F092
:10B1000013FA0021084639F001F9C8E7818A0308DB
:10B11000F0B50023C1E90033C1E902330B61D0E986
:10B1200000258DB007AEDFF898E0C2F3056C374616
:10B130004CFA03F0C0073C4604D513F80E0004F89F
:10B14000010B27460133062BF2D11B4CDFF874E0CC
:10B15000C2F303200023205C3B708DF82400C2F36F
:10B16000073C0DF125074CFA03F0C0073C4604D517
:10B1700013F80E0004F8010B27460133082BF2D117
:10B1800000233B70C5F3435CC5F3434409AB084659
:10B19000C5F34F05C2F30351CDE902150193CDE983
:10B1A000044C02F00F0305490096C2F3031241F06C
:10B1B00093FD0DB0F0BD00BFF0310608CC3106089C
:10B1C000F8310608E431060870B5094CD4F8502A65
:10B1D000054662B10026D4F8500A2D2101363AF016
:10B1E00053FCAE42F7DBBDE870403CF091BF70BD50
:10B1F000888500202DE9F04FCDB2002185B00746AB
:10B200000846164639F082F80021012039F07EF810
:10B2100038F008FE022E09D0042E44F6C01918BFDB
:10B220004FF49649032D06D900200BE0FF2D4FF473
:10B230001649F7D10326C34C94F8543A2BB9002091
:10B24000C4F8580A05B0BDE8F08F032E15D0BE49EA
:10B250000D44002295F8D10B032134F051FA002857
:10B26000EDD0BA4DC5F87C0D037A9A07E7D4006893
:10B270004AF0D2FC41F28853E850B44D94F8540A95
:10B2800041F29F530022EE54032134F039FA05F5C0
:10B290008C58C8F800000028D1D000684AF0BCFCE7
:10B2A00041F284534FF48062E850A94BC5F8383D11
:10B2B000C5F8442D0323C5F8482D41F29052A5F856
:10B2C0003C3D0023AB5441F28C524FF0010A25F86B
:10B2D00002A041F2985205F55861AB5041F29C52E0
:10B2E000C5F84C1DAB5241F29E5201F20441032EAF
:10B2F000AB54C5F8409DC5F8643DC5F8583DC5F848
:10B30000543DC5F8501DC5F8603DC5F85C3D05F6D7
:10B31000385B0FD0D5F87C3D0093187938F078FE73
:10B32000009BC5F8780D184613F0D7FA51465846D9
:10B3300013F0E2FA322035F0FBFF012E09D1D8F8E4
:10B3400000004946FBF756FBD5F87C0DFDF73CFBAA
:10B350000AE0022E3AD1D5F87C0D13F0B2FAD8F8F3
:10B3600000004946FBF746FBC4F858BA022E12D03B
:10B37000D4F8580A36F0B2F868B10121002038F04C
:10B38000C5FFD4F8580A36F0A9F80146002840F065
:10B39000868038F0BBFF384636F0A0F880B1012136
:10B3A000084638F0B3FF4FF0050B4FF00009384660
:10B3B00036F094F8014600287AD1012038F0A6FF33
:10B3C000042ED5D0052035F0B3FFCFE7032E5ED194
:10B3D000604B61484FF0000A83F800A051462022DC
:10B3E00050F036FA5B4B8DF80FA0DFF85CA10093AC
:10B3F0009DF80F20032A09D95848012113F07CFA3F
:10B40000D8F800004946FBF7F5FAADE79DF80F20A4
:10B4100002EB42020AEBC20292F8E52A82B39DF8DF
:10B420000F2002EB42020AEBC202D2F8E82A3AB33A
:10B430009DF80F20524492F8D10B08B3002203214B
:10B4400034F05EF90190D8B113F03BFA009B9DF8FF
:10B450000F201878019902EB42020AEBC20204EBBA
:10B46000C00CD2F8E82ACCF85C2A0A7AD307009BF1
:10B4700048BF012200F1010048BF8CF8602A187013
:10B480009DF80F200132D2B28DF80F20B0E7042EC4
:10B490007FF46AAFD5F87C0D13F013FA4FE7D4F8B8
:10B4A000580A36F013F80146384636F03DF868E79A
:10B4B000384636F00BF894F88A3A01468BB92428BE
:10B4C00003D14FF0010384F88A3A012E04D13846A3
:10B4D000009136F029F80099D4F8580A36F024F88B
:10B4E00065E7012B06D14D280CBF0223002384F809
:10B4F0008A3AEAE7022B06D13C280CBF032300233B
:10B5000084F88A3AE1E7032B10D10A2802D984F89B
:10B510008A9ADAE7042384F87D0A84F87C9A84F80E
:10B520007F9A84F87E0A84F88A3ACEE7042B17D1F2
:10B5300094F87E3A84F88B0A434084F87E3A84F883
:10B540008ABAC2E78885002090740020B0300020BD
:10B55000ACC4050850460020E48F0020E83D0020E0
:10B56000052BB2D194F87C3A94F87DAA94F87E0A1F
:10B57000534509D25A1C2344484084F87E0A84F873
:10B580007C2A83F8801AA0E78842C0D14FF00603D6
:10B5900084F88A3A94F88B3AF42B96D1BAF1000FDA
:10B5A00093D12421384684F88AAA35F0BDFF4D2175
:10B5B000384635F0B9FF3E21384635F0B5FF5146E3
:10B5C000384635F0B1FFF421384635F0ADFFF421AF
:10B5D000384635F0A9FF032E12D0D5F87C4D204611
:10B5E0004AF066F9514620464AF07AF9207920213E
:10B5F00013F056F9D5F87C0D524651464AF096F9AB
:10B600000022D8F8000011464AF090F9012019E60E
:10B6100010B5036804469B6801219847FF23012267
:10B62000A373627310BD00BF70B51D4C0968D4F8D8
:10B63000905A1C4ED4F88C4AD6EDFC7ADFED1A6A8B
:10B64000491B00EE901A0168F8EEE00A091B60EE53
:10B65000A70A00EE101A20EEA07AB8EEC00A1C4627
:10B66000A0EE007AB1EE400AF1EEC77A67EEA67A54
:10B67000FCEEE77AC2ED007A41F0A6FF9FED0B7A6F
:10B68000DFED0B7AE0EE077AFDEEE77A17EE902A0F
:10B69000002ABCBF02F50C42A032226070BD00BF80
:10B6A00088850020000000202C7D8E3FA00CB34533
:10B6B00000A00C4638B50F4C94F8AB1A01F03F01CE
:10B6C0008B1C024601F10A0584F8A93A84F8A65AAF
:10B6D00004F6A42084F8A72A08311BF049FC25446D
:10B6E00085F8A20A94F8A63A1C44000A84F8A30A32
:10B6F00038BD00BF888500202DE9F04FCB4DCC4CE4
:10B70000DFF83C938DB04FF00008009005F6583BF1
:10B7100054F80B0C002800F0FC8035F0DFFE0646E4
:10B72000002800F0BD81D9F89C3C44F8073CE02695
:10B730000023C04F04F8033CA4F10B0A06FB08F6F3
:10B7400054F80B0C35F0CAFE002800F0E28054F8E3
:10B750000B0C35F0BBFE14F8023C5A1E01460B2AB6
:10B760000DD8DFE812F01F003A00450052008200B9
:10B770009900E10012012F013A016F01850124298E
:10B780000CD0009A3AB995F83A2B8A4240F076816B
:10B79000012204F8032C0D2BD2D184E0012304F8FC
:10B7A000023CCDE700234D29C4F8C53084F8CD30E4
:10B7B00084F8CE3004D0582908D004F8023CBFE702
:10B7C000022204F8022C84F8C430B9E7032304F8F9
:10B7D000023C022384F8C430B2E704233C2904F875
:10B7E000023C0AD03E290CD0002304F8023CA7E713
:10B7F0000A233C2904F8023CF4D1002304F8013C5C
:10B800009EE7012304F8013C9AE7D4F8C500BB1970
:10B810000344421CC4F8C52083F8231794F8CD00D4
:10B82000022A81EA000184F8CD1089D12378C02B47
:10B83000DAD86278FF2A08D1052BD5D9012384F8FC
:10B84000C430072304F8023C7AE7A4F8C1200022A0
:10B850009342C4F8C93014BF0523062384F8C320DB
:10B86000C4F8C52004F8023C6AE7D4F8C500BB1947
:10B870000344421CC4F8C52083F8231794F8CD0074
:10B88000D4F8C93041409A4284F8CD107FF458AFC3
:10B89000062304F8023C53E794F8CD308B42A3D141
:10B8A0000D2304F8023C14F8017C002F40F0EC80DA
:10B8B000614B08940FCB04AE86E80F00D4F8C93072
:10B8C000D4F8D100ADF82A7023440993B4F8C130FC
:10B8D000ADF8283094F8C3308DF82C3001238DF862
