:020000040800F2
:10000000F0FF0010BD8B0608D10001086DAD04089B
:100010005D8C06085D8C06085D8C060800000000FB
:10002000000000000000000000000000CD000108FA
:10003000C900010800000000C5000108F9E004083B
:100040005D8C06085D8C06085D8C06085D8C0608D4
:100050005D8C06085D8C060811F10408D9F00408CF
:10006000A1F0040869F0040831F0040815690608D5
:1000700005690608F5680608E5680608D1680608F7
:10008000BD680608A96806085D8C06085D8C060830
:100090005D8C06085D8C06085D8C0608F9EF040887
:1000A00069CC0408F1CC040859CC040819CD040823
:1000B000E1CC0408D1CC0408C1CC04087579060849
:1000C0007D79060869790608717906085D8C06084D
:1000D0005D8C0608F5E404083DE4040885E30408A3
:1000E000C1EF04085D8C06088919010849CC040891
:1000F00079CC040839CC0408A1CC0408956806081A
:100100005D8C0608652C0608B1CC04085D8C0608D9
:10011000CDE2040815E204085D8C06085D8C060833
:10012000816806086D68060859680608456806086B
:10013000316806085D8C06085D8C06085D8C060833
:100140005D8C06085D8C06085D8C060859FA00086F
:100150001D68060809680608F56706085DE10408D9
:100160005D790608657906085D8C06085D8C0608D1
:100170005D8C06085D8C06085D8C06085D8C0608A3
:080180005D8C06085D8C060889
:08280000082800080040000850
:04400000FFFFFFFFC0
:10800000F0B401292A4C2B4D23684FF0000694BF91
:1080100000270127EE626662A6626763676B47EA24
:1080200042076763EE63EC6B002A38D144F4957421
:10803000EC631C6824F001041C601C68E407FCD499
:10804000490289085960D8601968EAB921F04001ED
:10805000196019498B421DD018494FF47410C8603B
:10806000196841F01E011960596941F08001596198
:10807000196841F00101196022B90E4AD36A43F030
:108080000803D362F0BC704741F0400119600A490F
:108090008B42E1D14FF0746041F8500CE0E744F0BE
:1080A0001A04EC63EC6A44F00804EC62C1E700BF18
:1080B000B0310020002C01405864024000640240AE
:1080C000F0B5076887B001390026044689B2384602
:1080D00002911546ADF80C6001968DF80E605CF0CB
:1080E00019FE3C4AA2FB00239B0C013B384601A928
:1080F000ADF804300EF024FF237AADF8086060225A
:1081000001929A07CDE90466276866793AD5DB00C3
:1081100003F008030422ADF81230ADF8082001AADC
:1081200031463846039544F003FC0C2E10D8DFE8A6
:1081300006F0360F0F0F3F0F0F0F480F0F0F0700FE
:10814000BB8B23F400631B041B0C43F40063BB8351
:1081500022682148B2F844306FEA43436FEA534340
:108160009BB2A2F84430138811469BB243F001033E
:1081700021F8343B6379C263CC1800228463CA506F
:1081800007B0F0BD5B0003F002030122ADF8103030
:108190004FF48073ADF80620ADF81430BFE73B8B89
:1081A00023F008031B041B0C43F008033B83CFE7B9
:1081B0003B8B23F400631B041B0C43F400633B83E1
:1081C000C6E7BB8B23F008031B041B0C43F008031A
:1081D000BB83BDE783DE1B43B0310020084AD2E9F0
:1081E0001431994209D0D118013391F85810017017
:1081F000C3F30A031365012070470020704700BFD6
:10820000B0310020044BD3E91430C01AC0F30A0087
:10821000C0F50060704700BFB0310020012380F836
:108220005130704707B501A8FFF7D8FF0028FAD0F2
:108230009DF8040003B05DF804FB034BD3E9143050
:10824000C01AC0F30A007047B03100200120704707
:10825000024BC3F85828C3F85C187047B0310020AF
:10826000024BC3F86028C3F864187047B03100208F
:108270007047704730B4114DD5E914239A1AC2F3F0
:108280000A020A44B2F5006F12D8A1B101444A1E95
:10829000013810F8014FE918824203F1010381F817
:1082A0005840C3F30A03F4D16B65002030BC70471B
:1082B000022030BC70470846F8E700BFB03100200C
:1082C000212838B50C4605D022282ED0202813D0DE
:1082D000002038BD0029FBD0072AF9D11A4BD3F86A
:1082E000680893F86C1893F86D2893F86E3820603E
:1082F00021716271A371EBE70029E9D0072AE7D168
:10830000114DD5F85C381BB10968D5F85808984765
:10831000206821796279A379C5F8680885F86C1816
:1083200085F86D2885F86E38D2E70029D0D0022A6A
:10833000CED1054AD2F86438002BC9D00988D2F8CA
:1083400060089847C4E700BFB0310020024B00200E
:10835000C3F87008704700BFB0310020044B002004
:108360000522C3F87028C3F86408C3F85C08704796
:10837000B0310020704700BF704700BF704700BF9A
:10838000704700BF704700BF704700BF704700BF15
:10839000042301480B8070478801002010B4074A6D
:1083A000074B92F87408122403F114020C80012880
:1083B0000CBF184610465DF8044B7047B0310020E2
:1083C0008C01002000487047503A0020034B93F87E
:1083D0009C08032894BF002001207047B031002082
:1083E000034B93F89C08003818BF0120704700BF6A
:1083F000B0310020A0B182680D4B12B107229A70F3
:1084000070471978DA6003294FF004000CBF80210F
:108410004FF48071C3E901111A611A7598707047A1
:10842000034B41F2E47101225A545A70704700BF65
:1084300024A100200378022B10D0006908B9012084
:1084400070470C4B1B78032B0EBF0B4B80B24FF6C3
:10845000F773984294BF0020012070470549436894
:1084600041F650028A58B3EB422F2CBF0120002066
:10847000704700BF24A10020F7FFFF0F0378022BF5
:1084800014D030B4104A4368006941F6480402F53C
:10849000C2511559096841F63C042B4012595B0A38
:1084A000023801FB0030104430BC7047064B426874
:1084B00041F6340141F630005958185800EB41009C
:1084C00000EB5220704700BF24A1002070B5144C6F
:1084D00094F86C39002BFBD1F9B101444E1E451EB6
:1084E00002E0012045F068FDD4F87039D4F8742911
:1084F0000133C3F30A039342F3D0D4F87029D4F8BC
:10850000703915F8011F22440133C3F30A03B54241
:1085100082F87819C4F87039E6D1002070BD00BF28
:10852000B031002010B590F85010002380F8503082
:1085300089B10C4CD4F870287AB1D4F87028052A87
:108540000DD1094C3C30D4F88030FFF7BFFFD4F890
:108550008030012010BD0120FCE71046FAE71846E4
:10856000F8E700BFB0310020A8420020002280F8C8
:108570005120D7E790F85020531C0244DBB280F81A
:10858000503082F83C1090F851200AB1132B00D9DA
:10859000C8E770470A4B0846D3F8701810B569B1A0
:1085A000D3F87038052B09D1064C002AD4F8803056
:1085B00004DD1146FFF78AFFD4F8803010BD00BFFC
:1085C000B0310020A842002070B505682B6A92B037
:1085D00013B1002012B070BD0DF10702CDE90633D2
:1085E00003938DF814300B930E9310930123802680
:1085F00008910292022104938DF828308DF83C30C6
:1086000000220023CDE90C2304468DF80760099170
:10861000EFF31186102383F3128803681B6A03B3F8
:10862000049B02A802461BB1D3691432002BFBD174
:108630002B6AF3B1996839B9934209D0196829B105
:108640005B6899680029F7D01433F3E7C3E9004069
:10865000F6B286F311882268136A002BFCD1012040
:10866000B8E702ABF6B22B6286F311885EF00CFA23
:10867000F1E71C60FFDE00BF404B98422DE9F0415E
:108680000ED003F56853083398424ED03C4B00207F
:10869000C3E93C00A3F8EC00A3F8F800BDE8F081C2
:1086A000374C384FDFF8E4800223C4F8843004F1FB
:1086B00088060025FB6AAB42294605F1010503D077
:1086C000D4F8080153F062FB94F80C31D4F8082177
:1086D00086F824303262304641465AF035F8D4F8F4
:1086E00084309D4206F13006E4DB002384F8FA3042
:1086F000D4E92403D4F88410B4F88C20B4F898504A
:10870000C4F8183112FB01F203FB01F3A4F8EC20CA
:10871000B4F88E101C4AA4F8F850C4E93C03A4F83D
:10872000EE10C4F8E8200120B8E7154C154FDFF82B
:1087300060800223C4F8843004F188060025FB6AB7
:10874000AB42294605F1010503D0D4F8080153F0E6
:108750001DFB94F80C31D4F8082186F824303262DD
:108760003046414653F0AAFAD4F884309D4206F1CF
:108770003006E4DB012384F8FA30B9E71971EF0021
:10878000A842002088010020F4B706081940EF0035
:1087900021AAEF002DE9F04F284DDFF8C8A0DFF83F
:1087A000C8B006460FCD54462DED048B0FC40FCD37
:1087B0000FC49BF81E312A6822608DB0022B9BF8F3
:1087C0002421059600F07882032B00F06E82002BA6
:1087D00000F07782DFED1A7AF0EE678A002A1949F5
:1087E000194ACAF810201948194BCAF818000EBFC8
:1087F000002201220B46029238EEA77AF5EE006ABB
:10880000C6EE879A134A144E0192CAF8143002F148
:1088100023074FF000099FED118A9FED119A27EE73
:10882000888A059B4B4540F3BB81019B13F8014BA4
:108830000193002C00F0D58100231AE02CB8060823
:108840006F12033905B5040809B5040805C003080B
:1088500081BC0308D1430020280100106F12833A25
:1088600000007A44F8000010A8420020152B00F008
:10887000B88103EB43024FEA4308B95CA14203F11C
:108880000103F3D15A4492F84D11002900F02782D8
:10889000204644F049FC0546284644F063FD017833
:1088A000002940F09E81D84409F10103039303227B
:1088B000DBB288F88D3188F88C21002D00F0918191
:1088C0004FEA141808F1FF38B8F1050F04F00F0C47
:1088D00000F2CB81CC4C04EB4801B1F85C0040FACB
:1088E0000CF111F0010100F0C081012101FA0CFC32
:1088F0000CF1FF3C0CEA0000A04404935FF0A6FFDB
:1089000098F868C0DFF814E3049B60440EEBC00CD9
:1089100003228CF807308CF806205EF83000C6F889
:1089200014C000F13F4303F57E0304EB93240121BF
:1089300094F870306A7A03F01F045B09032B01FA84
:1089400004F100F0AB81042B00F0A381022B00F0B6
:108950009B81BCF80440B4FA84F3C3F11F03C3F352
:10896000CC0100EB810103F00703D1F820C09B008C
:108970004FF00F0E0EFA03FE2CEA0E0CC1F820C0C9
:10898000D1F820C002FA03F343EA0C0307AA0B62F2
:10899000114602230492CDE907430EF02DFD049AFF
:1089A000029B002B00F04081BBF81C3100EE103A16
:1089B000B8EEC00AFCEEC07A17EE90EA2C68934B32
:1089C0009C4200F01881A3F580639C4200F0138163
:1089D00003F580439C4200F00E8103F580639C42C6
:1089E00000F0098103F580639C4200F00481DBF80C
:1089F000B8044108B1FBFEF303F57F43FF334FEAB0
:108A0000134C029BB1FBFCFC002B00F02481BCFB4F
:108A1000FEF1013989B207EE90CAB8EE677A7B4B56
:108A200067EE086A9C4269EE667AC6ED026AE7EE76
:108A3000287AC6ED037A00F01181A3F580639C4289
:108A400000F00C8103F580439C4200F0118103F596
:108A500080639C4200F00C8103F580639C4200F02F
:108A6000078123884008B0FBFCF0013880B29BB23C
:108A7000B4F1804F0BD0DFF8A8C1644507D00CF5E6
:108A8000806C644503D00CF5806C644502D123F002
:108A900070039BB2DFF88CC1644500F0B0800CF528
:108AA000806C644500F0AB8023F440730CF56C4C93
:108AB0009BB264452380E162208540F0E080002382
:108AC00023860120A0822B7A95F805800021CDE92C
:108AD00009114FF0600CADF820100B919907CDF8FB
:108AE0001CC040F1AC80DB0003F008030421ADF8AA
:108AF0002A30ADF820104146204643F019FFB8F166
:108B00000C0F10D8DFE808F0640F0F0F5B0F0F0F8A
:108B1000520F0F0F0700A38B23F400631B041B0CE1
:108B200043F40063A3832B68B3F844206FEA424206
:108B30006FEA524292B2A3F844201A88194692B2C0
:108B400042F0010221F8342B687973600C1800227E
:108B500034600A50B9F1000F00F0A580DAF8341043
:108B60008B4200F0A780B9F1010F00F09C80DAF889
:108B70004C108B4200F09E80B9F1030F40F09380BF
:108B8000DAF86420D31A18BF0123DDF80C9033748F
:108B90000122B9F1040F727406F118067FF441AE98
:108BA0001B480DB0BDEC048BBDE8F08FA38B23F008
:108BB00008031B041B0C43F00803A383B3E7238BB8
:108BC00023F400631B041B0C43F400632383AAE714
:108BD000238B23F008031B041B0C43F0080323839F
:108BE000A1E70C4A0C4B0020CAE905320DB0BDECE0
:108BF000048BBDE8F08FDBF8B8140846FAE6238052
:108C0000E16220855DE700BFF4B70608000401407B
:108C1000F800001005BE030805B5040860440020F4
:108C20000004004000100040B0EE690A049260F0B9
:108C30001DF8FCEEC07A049A17EE90EABEE65B00DF
:108C400003F002034FF48071ADF82830ADF81E0038
:108C5000ADF82C104FE74FF6FE71DCE62388B0FB31
:108C6000FCF0013880B29BB211E7716107AA97E668
:108C70002388B0FBFCF0013880B29BB2F8E6194BB8
:108C80009C423FF41CAF1CE7174B5C6C21435964BA
:108C90005FE6154B1C6B214319635AE6124B1C6CA3
:108CA0002143196455E601236FE7DFED107ADFED0C
:108CB000108A93E5134668E7DFED0E7AF0EE678AD7
:108CC0008CE50D4BDFED0D7A0D4ACAF8103001230B
:108CD0000293CAF818200B4BF0EE678A8CE50D461C
:108CE000DAE500BF0004014000380240ACC5A737F8
:108CF000ACC5A7362829303809B504086F12833A65
:108D000005C0030805B50408F8B5104ED6F8B844F8
:108D1000054600680F4664080EF072FAB4FBF7F1DE
:108D2000B1F5803F03D3012CFAD96408F6E7224657
:108D3000284689B244F07AF8054BC6F8203D28460B
:108D40000449BDE8F840002243F0EEBFA8420020ED
:108D50000DF80108C84F00201E4B93F8502293EDE8
:108D6000260A1AB91C4B83ED000A704793F8522269
:108D70003AB1052A0DD093EDA90A174B83ED000AED
:108D8000704783EDA90A83EDAD0A134B83ED000A0A
:108D90007047124AD3F85402D2F88010D3F86422F4
:108DA000D3EDA95A091A07EE901A0132F8EEE76AD4
:108DB00007EE902AB8EEE77AF7EE007A86EE876A39
:108DC00077EEC67A67EEA57AE0EE067AB0EE670A2D
:108DD000C8E700BFF80000104C050010A8420020B2
:108DE00010B5044C04480A4621460DF08DF8204683
:108DF00010BD00BFD04F00209854070810B5044C98
:108E000004480A4621460DF07FF8204610BD00BFF9
:108E1000D04F0020A854070810B5044C04480A4657
:108E200021460DF071F8204610BD00BFD04F002044
:108E3000B454070810B5044C04480A4621460DF006
:108E400063F8204610BD00BFD04F0020C054070873
:108E500010B5044C04480A4621460DF055F820464A
:108E600010BD00BFD04F0020CC54070810B50D4CEA
:108E700094F86A290023C4F8983812B10A4AC2F853
:108E8000283E5BF071FC20B10423022084F89C385A
:108E900010BD054BD3F88030C4F88C38092384F812
:108EA0009C3810BDB0310020A842002070B50F4D95
:108EB00095F89C38042B04460E460BD0082B07D19E
:108EC000D5F8943883420ED0FFF7D0FF022801D0A6
:108ED000012070BD0823C5F89868C5F8944885F846
:108EE0009C38022070BD022070BD00BFB031002050
:108EF00070B50379234C002B14BF0123002384F8A1
:108F0000C83803D1002384F89C3870BD1E4D002161
:108F100095F92F2E032045F05BFB0028F2D0466820
:108F2000304645F043FB84F869090028EAD095F8FB
:108F30002D3E003B18BF0123304684F86A395CF0AF
:108F400023FB0CF07BFC38B994F8903884F89C082B
:108F5000013384F8903870BD5BF0F0FC40B194F8B8
:108F600090380022013384F8903884F89C2870BD32
:108F7000D5F88030C4F88C38012384F8900884F840
:108F80009C3870BDB0310020A842002010B55BF0C5
:108F9000D5FC58B10C4C94F890380133DBB2072B58
:108FA00084F8903803D9002384F89C3810BD0CF065
:108FB00045FC0028F7D0054A0123D2F88020C4F8E8
:108FC0008C2884F89C3810BDB0310020A8420020C5
:108FD0002DE9F041904C94F8C858002D00F009811B
:108FE00094F89C288D4E0227531E082B45D8DFE8A5
:108FF00003F03B3DAF447556164405005BF0B4FBEF
:10900000002840F0FD80D4F88C38D6F88020FA3360
:1090100093422FD2FFF7BAFF94F89C28E4E75BF065
:10902000A3FB0028EFD0D4F898380022012B84F855
:10903000902840F2E980D4F8941894F86A09013B2A
:109040000131C4F89838C4F8941810B1734BC3F8C0
:10905000282E082284F89C28A2F10805B5FA85F587
:109060006D092846BDE8F08184F89C785BF07CFBB4
:1090700000284ED194F89C28531EDBB2022B0BD84B
:10908000664BD4F88C18D3F880305B1AC82BE3D920
:10909000FFF77CFF94F89C28042ADDD1E1E7236BDD
:1090A000002BD9D15D4BD4F88468D3F88030C4F854
:1090B0008C38072284F89C28002ECDD0D4F888382C
:1090C000D4F87828D4F87C180120B047D2E7D4F837
:1090D0008C38D6F8801064338B42BDD2D4F82C8003
:1090E000B8F1000FF3D15BF03FFB002894D0D4F827
:1090F000846884F89088042384F89C38002E7DD0FE
:10910000D4F88838D4F87828D4F87C184046B0478A
:10911000B0E75BF03FF90028ACD196F8313E002B68
:10912000A3F10203B3FA83F314BF022201225B0905
:1091300084F8912884F892385BF02CF900287FF4A9
:1091400069AF374A0323926CC4F8A02884F89C388E
:109150005BF020F900288DD1304BC4F8980893F8C3
:10916000646EB3F8660ED3F868EED3F868CED3F821
:10917000687ED3F8682E84F8A66893F86C1EA4F86D
:10918000A40893F86D6E84F8AA2893F86D0ED3F8AE
:10919000702EC4F8AC28B3F8768EB3F8762E84F827
:1091A000AB18B3F8761EC2F30B1343EA182303F08F
:1091B0000F0301F00F024FEA1E6E4FEA1C4C3F0AEC
:1091C000360900F00F0003F5FA63042184F8B108B2
:1091D00084F8A7E884F8A8C884F8A97884F8B06867
:1091E000A4F8B23884F8B42884F89C182846BDE85E
:1091F000F08184F89C582846BDE8F081054630E7A8
:10920000042384F89C382CE7FAD1FFF72FFE94F85A
:109210009C28531E31E700BFB0310020A842002037
:10922000E050002070B5214DD5F89C3593F82620EC
:10923000DAB11B699847E0B1D5F89C3593F8242042
:109240008AB105F5B46600241A19E0B29B6992F858
:109250002C10B6EC010A9847D5F89C3593F82420D9
:1092600001349442F0DB5B69984795F8B035332BB5
:1092700000D070BD95F8B435002BFAD0D5F89C35E8
:1092800093F82430042B1E46A8BF0426002BF0D0F0
:109290000024074D234618465BF0EEFF0134E3B28D
:1092A0009E4245F8040BF6D870BD00BFF8000010D0
:1092B000B00600102DE9F04FC74C94F8901E83B013
:1092C0000546C1F34001D4F8980E45F011FE94F81C
:1092D000901ED4F8940EC94301F001016F1E45F0B1
:1092E00007FEFBB20193002D00F0E580DFF8F48269
:1092F000BA4EBB4DD4F8983E33B11A689B88516979
:109300000B4214BF53831383D4F8943E33B11A68CD
:109310009B8851690B4214BF53831383B4F8A03E5A
:10932000002B40F0618194F8A21ED4F8A40E45F001
:10933000DFFDFA204FF0100C4FF47A714FF0010E60
:109340007368C3F30803002B40F01981EFF3118316
:10935000002B40F01481D4F88020D5F80890D4F880
:1093600080309A42F7D1D4F8B03E9945F3D8D4F87A
:10937000AC7E01FB07F3A3EB0903B3FBF7F301FB9F
:1093800002327368C3F30803002B40F0B680EFF39A
:109390001183002B40F0B180D4F88030D5F808B0AC
:1093A000D4F88070BB42F7D1D4F8B07EBB45F3D877
:1093B000D4F8AC7E01FB07F9A9EB0B09B9FBF7F96F
:1093C00001FB03939B1AB3F57A7FDAD30138B7D147
:1093D000D4F8983E33B11A689B8851690B4214BF88
:1093E00053831383D4F8943E33B11A689B88516930
:1093F0000B4214BF53831383B4F8A03E002B40F0FC
:10940000DF8094F8A21ED4F8A40E81F0010145F08B
:109410006FFDFA204FF0100C4FF47A714FF0010EEF
:109420007368C3F30803002B40F08880EFF31183C7
:10943000002B40F08380D4F88020D5F80890D4F831
:1094400080309A42F7D1D4F8B03E9945F3D8D4F899
:10945000ACAE01FB0AF3A3EB0903B3FBFAF301FB88
:1094600002327368C3F3080343BBEFF311832BBBD2
:10947000D4F88030D5F808B0D4F88070BB42F7D16A
:10948000D4F8B07EBB45F3D8D4F8ACAE01FB0AF9F2
:10949000A9EB0B09B9FBFAF901FB03939B1AB3F58E
:1094A0007A7FDED30138BBD1019B5F1EFBB2FF2B5D
:1094B00001937FF41FAF03B0BDE8F08FEFF3118A83
:1094C0008CF31288AF682B68DB0344BFC4F8A8EEA6
:1094D000AF68D4F88030D4F8A89E5FFA8AFA8AF38D
:1094E0001188D4F8ACAE4B4401FB0AF9A9EB07098B
:1094F000B9FBFAF901FB0393D0E7EFF3118A8CF380
:109500001288D5F808B02B68DF0344BFC4F8A8EE72
:10951000D5F808B0D4F88030D4F8A89E5FFA8AFA5B
:109520008AF31188D4F8AC7E4B4401FB07F9A9EB10
:109530000B09B9FBF7F901FB039343E7EFF311893B
:109540008CF31288D5F808A02B68DA0344BFC4F85E
:10955000A8EED5F808A0D4F88030D4F8A82E5FFA89
:1095600089F989F31188D4F8AC9E1A4401FB09F3F8
:10957000A3EB0A03B3FBF9F301FB023271E7EFF34C
:1095800011898CF31288D5F808A02B68DB0344BF3F
:10959000C4F8A8EED5F808A0D4F88030D4F8A82EE6
:1095A0005FFA89F989F31188D4F8AC7E1A4401FB7B
:1095B00007F3A3EB0A03B3FBF7F301FB0232E0E688
:1095C000D8F84C30002B3FF424AFD8F838200023D3
:1095D000136088F849301CE7A842002000ED00E045
:1095E00010E000E0B0310020D8F84C30002B3FF400
:1095F000A0AE44F0A1FD9CE62DE9F04FC94CDFF888
:10960000308394F8901ED4F8980EC74FC74D83B09E
:10961000C1F3400145F06CFC94F8901ED4F8940E10
:10962000C94301F0010145F063FC05230193D4F81F
:10963000983E33B11A689B8851690B4214BF53831B
:109640001383D4F8943E33B11A689B8851690B4256
:1096500014BF53831383B4F8A03E002B40F059810C
:1096600094F8A21ED4F8A40E45F042FC32204FF02C
:10967000100C4FF47A7101267B68C3F30803002BAA
:1096800040F01A81EFF31183002B40F01581D4F8DC
:109690008020D5F80890D4F880309A42F7D1D4F8D9
:1096A000B03E9945F3D8D4F8ACAE01FB0AF3A3EB76
:1096B0000903B3FBFAF301FB02327B68C3F308032F
:1096C000002B40F0B780EFF31183002B40F0B28005
:1096D000D4F88030D5F808B0D4F880904B45F7D155
:1096E000D4F8B09ECB45F3D8D4F8ACAE01FB0AF960
:1096F000A9EB0B09B9FBFAF901FB03939B1AB3F52C
:109700007A7FDAD30138B7D1D4F8983E33B11A68EA
:109710009B8851690B4214BF53831383D4F8943E42
:1097200033B11A689B8851690B4214BF538313836A
:10973000B4F8A03E002B40F0E08094F8A21ED4F8CC
:10974000A40E81F0010145F0D3FB32204FF0100C44
:109750004FF47A7101267B68C3F30803002B40F0B5
:109760008A80EFF31183002B40F08580D4F88020AD
:10977000D5F80890D4F880309A42F7D1D4F8B03EAA
:109780009945F3D8D4F8ACAE01FB0AF3A3EB090377
:10979000B3FBFAF301FB02327B68C3F3080343BB5C
:1097A000EFF311832BBBD4F88030D5F808B0D4F890
:1097B00080904B45F7D1D4F8B09ECB45F3D8D4F880
:1097C000ACAE01FB0AF9A9EB0B09B9FBFAF901FBF5
:1097D00003939B1AB3F57A7FDED30138BBD1019B8B
:1097E0005E1E16F0FF0301937FF421AF03B0BDE8C6
:1097F000F08FEFF3118A8CF31288D5F808B02B683C
:10980000DB0344BFC4F8A86ED5F808B0D4F88030A4
:10981000D4F8A89E5FFA8AFA8AF31188D4F8ACAE1D
:109820004B4401FB0AF9A9EB0B09B9FBFAF901FB5F
:109830000393CEE7EFF3118A8CF31288D5F808B0C2
:109840002B68DB0344BFC4F8A86ED5F808B0D4F881
:109850008030D4F8A89E5FFA8AFA8AF31188D4F887
:10986000ACAE4B4401FB0AF9A9EB0B09B9FBFAF9C1
:1098700001FB039342E7EFF311898CF31288D5F8CB
:1098800008A02B68DA0344BFC4F8A86ED5F808A076
:10989000D4F88030D4F8A82E5FFA89F989F31188BA
:1098A000D4F8AC9E1A4401FB09F3A3EB0A03B3FB03
:1098B000F9F301FB02326FE7EFF311898CF31288A1
:1098C000D5F808A02B68DA0344BFC4F8A86ED5F811
:1098D00008A0D4F88030D4F8A82E5FFA89F989F36B
:1098E0001188D4F8AC9E1A4401FB09F3A3EB0A03D8
:1098F000B3FBF9F301FB0232DFE6D8F84C30002B62
:109900003FF423AFD8F838200023136088F849309B
:109910001BE7D8F84C30002B3FF4A8AE44F00CFC09
:10992000A4E600BFA842002000ED00E010E000E047
:10993000B03100200E4B30B4DB68427801780D4C1A
:10994000DB43C3F30223C3F10403DBB202FA03F3E4
:1099500060181B0101F01F050122490903F0F00303
:10996000AA4080F8003344F8212030BC704700BF83
:1099700000ED00E000E100E010B5854A0368934285
:1099800082B000F0C580A2F58062934200F0C080F2
:1099900002F58042934200F08D8002F5806293428E
:1099A00000F0888002F58062934200F0838079485D
:1099B0001A88D0F8B8044008B0FBF1F1013989B237
:1099C00092B2B3F1804F0AD07348834207D000F5BA
:1099D0008060834203D000F58060834202D122F090
:1099E000700292B26D48834200F09C8000F5806066
:1099F000834200F0A38022F4407200F56C4092B2E2
:109A00004FF6FF7483421A80DC62198540F09C8017
:109A100000221A8601229A821A88614992B242F083
:109A200001028B421A8000F09B80B3F1804F00F05E
:109A30009980594A934200F0978002F580629342E0
:109A400000F0948002F58062934200F0918002F56C
:109A50008062934200F08E8002F58062934200F0B3
:109A60008B8002F57042934200F0888002F57052BC
:109A7000934200F0858002F58062934200F082807C
:109A800002F5806293427FD0A2F5983293427DD056
:109A900002F58062934217D002F58062934208BFBC
:109AA0000D2212D04FF0012301A80193FFF742FFCE
:109AB00002B010BD37481A88D0F8B804B0FBF1F1F5
:109AC000013989B292B27CE70C22364B03EBC20318
:109AD00001A893F87D408DF8044001224FF4807373
:109AE0008DF80520ADF80630FFF724FF1B2C06D1BA
:109AF0002D4B019301A8FFF71DFF02B010BD2E2CC6
:109B0000D6D12A4B019301A8FFF714FF02B010BD74
:109B100020481A88D0F8B804B0FBF1F1013989B2B5
:109B200092B25CE701204FF6FF741A80DC6219855F
:109B300098821A8892B202431A807AE74FF6FF7031
:109B40001A80D862198565E7114A93423FF460AFE5
:109B500001229A821A8892B242F001021A8064E7C6
:109B60000022B2E70122B0E70222AEE70322ACE70F
:109B70000422AAE70522A8E70622A6E70722A4E70F
:109B80000822A2E70922A0E70A229EE70B229CE70F
:109B900000040140A84200200004004000100040E2
:109BA00000000140F4B70608190100012C01000172
:109BB00000F01F0240090123032803FA02F304D036
:109BC00004280CD0022805D07047074A116C0B43BB
:109BD00013647047044A516C0B4353647047024A44
:109BE000116B0B43136370470038024000285FD0AD
:109BF0000368374A2DE9F04103F13F4404F57E0440
:109C000002EB9422012492F8702002F01F05520901
:109C1000032A04FA05F456D0042A4FD0022A48D069
:109C20008588B5FA85F0C0F11F00C0F3CC0603EBC0
:109C3000860600F0070082000F24306A944020EA74
:109C400004003062306A01FA02F2024300213262FB
:109C50004FF0010E0A464FF0030C02270EFA02F8ED
:109C600038EA050002F101021CD118680CFA01F46F
:109C700020EA04001860186807FA01F606431E601F
:109C80009E6826EA04069E6098689860586820EAF4
:109C90000800586058685860D86820EA0400D86006
:109CA000D868D860102A01F10201D7D1BDE8F0814F
:109CB0007047084A556C2C435464B1E7054A156B4C
:109CC0002C431463ACE7034A156C2C431464A7E7D8
:109CD000F4B7060800380240F0B5374DD5F8B47E29
:109CE0003E78012E95B004460B4606D0022E01D1D7
:109CF000396A69B1002015B0F0BD97F9040095F8F4
:109D0000B81E0093134622465DF0F2FC15B0F0BD7C
:109D100060F07F00CDE90A320DF10F048DF80F00DD
:109D2000002201200023CDE90811CDE90E23059181
:109D30008DF81C100D9110911291049406908DF8DD
:109D400030008DF84400EFF31180102383F3128864
:109D5000D5F8B43E1B6A13B3069B04AC22461BB174
:109D6000D3691432002BFBD13B6A13B3996839B91C
:109D700093420AD0196829B15B6899680029F7D025
:109D80001433F3E70D4AC3E90024C0B280F311880D
:109D9000D5F8B42E136A002BFCD10120ABE704AB3D
:109DA000C0B23B6280F3118805F6B4605CF06CFED3
:109DB000EEE7024A1A60FFDEA84200205C51002054
:109DC000002877D0F0B58388B3FA83F3202B83B0D3
:109DD0000446C3F11F0258D0374D384E15444FF09A
:109DE000004006EB820230FA03F395F8E850C2F81F
:109DF000801F05D0324A116821EA030111605361C6
:109E00002046002143F0D2FCA38822682C49B3FAF3
:109E100083F7C7F11F0404F0FC0000F1804000F557
:109E20009C3004F00304A40002F13F434FF00F0CF8
:109E300082680CFA04FC22EA0C02826003F57E03BD
:109E40008268C3F38723A340134383600A681D48D5
:109E50004FF00043FB4022EA03020A604A6822EA0C
:109E600003024A600A681A430A608A6822EA030207
:109E70008A60CA6822EA0302CA6002682E44134359
:109E8000036096F8C03FF02B01D803B0F0BD0E4B35
:109E90005B5D8DF80430F02103224FF4807301A83C
:109EA00086F8C01F8DF80520ADF80630FFF742FD9B
:109EB00003B0F0BD704700BFF4B70608A842002009
:109EC000003C0140083C014050550708034BD3F8C3
:109ED000D028136A002BFCD1704700BFB03100209E
:109EE000B0B10C49D1F8C83F102B03D10521002097
:109EF00043F0FCBD03EB43020A4482F8CC0F202060
:109F000082F8CD0F0120034482F8CE0FC1F8C83F7C
:109F1000704700BFA84200202DE9F04F2DED028BC5
:109F2000AD4DAE4C95B005F6FC701E22002161F0DF
:109F3000ADFA14F8DC3C1BB114F8DB3C85F8FC3FAF
:109F400014F8DA3C23B141F2010314F8D92CEA5495
:109F500014F8D83C23B141F2060314F8D72CEA5484
:109F600014F8D63C23B141F20B0314F8D52CEA5473
:109F700014F8D43C23B141F2100314F8D32CEA5462
:109F800014F8D23C23B141F2150314F8D12CEA5451
:109F900014F8CA3C0393013B5FB2DBB202937B1C13
:109FA00000F0B0808E4B8F4E53F83720019203EBB8
:109FB000C7034FF0000A1B7908EE103AB146D046AD
:109FC000D34699F800503946284645B346F0A6F9DD
:109FD000034628461D4613B344F0FCFB0BF1070370
:109FE0001321DBB220B14FF0000C837180F807C061
:109FF00043F0DCFB99F8000046F0C6F908F10103D4
:10A0000089F802805FFA83F84FF0070389F804307B
:10A010004FF0010389F80100AA4689F803300BF1DB
:10A02000010BBBF1060F09F10509CAD118EE100AA0
:10A03000FFF7BEFD6C4A6D4B51680B4043F4403353
:10A04000536017B9BAF1000F0BD1694D4820FFF7E3
:10A05000AFFD284602215DF0A3FCAB6843F001038D
:10A06000AB606149624B4A6834F8D00C42F400029C
:10A070004A605A6822F480525A609A6B22F4401265
:10A0800042F480129A63DA6842F46002DA609D6BEF
:10A0900085F44012C2F3015202EB82021F2101FA41
:10A0A00002FC25EA0C054FF0110C0CFA02F22A43CF
:10A0B0009A63DA6842F4E012DA609D6BC5F30152EC
:10A0C000C2F10402D2B202EB820291404FF0100CB6
:10A0D00025EA01050CFA02F22A439A63E8B134F842
:10A0E000CE2C44F8C40CAAB134F8CC3C44F8C02CB3
:10A0F0006BB140499B1A91FBF3F344F8BC3CBAF1B5
:10A10000000F0DD115B0BDEC028BBDE8F08F3A4BBE
:10A110001B88EEE7394B1A88E6E7394B1888DEE7EB
:10A12000019D414628465DF03BFC06F11E0E0121D3
:10A1300017E0EB6823EA0B031A43EA604B1E03EBBC
:10A1400083031F22062902FA03F90CFA03F329D824
:10A150006A6B22EA0902134301466B6305367645B2
:10A1600050D0F378481CC0B2002BF7D096F801C04D
:10A170003379ACF10A0202EB42024FF0070A0CEB12
:10A180004C09BCF1090F0AFA02FB03FA02F20AFABF
:10A1900009FACED82A6903FA09F322EA0A0213431C
:10A1A0002B61CBE7CA1FA1F10D0302EB82024FF036
:10A1B0001F0A03EB83030C290AFA02F90AFA03F1D6
:10A1C0000CFA02F200F286802B6B23EA09031A4391
:10A1D00001462A63C2E700BFA8420020A053002026
:10A1E000ECB80608A452002000230140E030FCFF38
:10A1F00000200140803801002E7AFF1F2C7AFF1FBB
:10A200002A7AFF1F019A0299936843F400739360BE
:10A21000936843F48073936093683C4443F0010374
:10A2200093601746022014F9C92C44F0D1F9044672
:10A2300000283FF467AF4668304644F0B7F92A4A31
:10A24000431E242101FB032393F84C50002D7FF47F
:10A2500059AF039983F84D10062283F84C2000284B
:10A260003FF450AF304644F0A1F95BF0B9F86068B4
:10A270000CF020FF05A80CF0DFFEB8F1010F8CBF39
:10A280004FF480630023A2680B933B461748019765
:10A290004C3305924FF400674FF480720693079099
:10A2A0004FF4003360680A9505A94FF40056CDE9D4
:10A2B0000E23CDE90C76CDE908580CF0CFFE62688C
:10A2C000019F136843F001031360BB6843F08043B0
:10A2D000BB6017E7EA6A0CFA03F322EA01021343B0
:10A2E0000146EB623AE700BF88010020E8520020F7
:10A2F0002DE9F84F2E4F00EB800407EBC40454F80F
:10A30000A86C2EB1054614F8930C00F0FF0820B19C
:10A310004FF000084046BDE8F88F89469A469346BC
:10A3200043F01EFE4FEA49010123C9B204F8921C12
:10A3300004F891BC04F88F3C04F88E8C04F8903C2F
:10A3400004F8933C04F8948CB28844F88CAC9105E2
:10A35000814644F888AC1DD43388DA0510D442F223
:10A360000F7405E043F0FCFDA0EB0903A34215DCEC
:10A3700033889B05F6D433889BB243F480733380D3
:10A38000B3889BB243F440734FF00108B38040465A
:10A39000BDE8F88F98464046BDE8F88F37F8343C62
:10A3A00001339BB2284627F8343C5CF021FFB1E72B
:10A3B000A05300200128B5EEC00A10D0F1EE10FA2B
:10A3C0000BDD9FED177ADFED177AE0EE077AFCEEF2
:10A3D000E77A17EE903A98B2704700207047F1EE96
:10A3E00010FA0BDD9FED107ADFED107AE0EE077AC0
:10A3F000FCEEE77A17EE903A98B27047EDD5F7EE9B
:10A40000007A30EE270A9FED0A7ADFED0A7AE0EE55
:10A41000077AFCEEE77A17EE903A98B2704700BFE1
:10A4200000E0F9440000404200C079440000834449
:10A4300000C079C400E0824470B5464E16F8324C34
:10A4400004EB840306EB8303A50013F8303C032BD5
:10A450006ED8DFE803F059291E02254406EB850576
:10A4600055F82C0C002870D196F820309C425FD013
:10A47000013404F00302934206F8322C58D002EB68
:10A48000820406EB8404022344F82C0C04F8303CCC
:10A4900070BD2B1906EB830353F82C2C72B1013AD3
:10A4A00043F82C2C002070BD2B1906EB830353F8C6
:10A4B0002C2C002AF3D1022203F8302C254406EB81
:10A4C000850515F8243C013BDBB205F8243C8BBB29
:10A4D000214B96F82060D3F8701255F8280C621CB6
:10A4E00002F003024B1E0324B242034405F8304C31
:10A4F000B3FBF1F045F82C0C1AD0994218D801386A
:10A5000045F82C0C012070BD45F090FD80B1124B38
:10A510002C44D3F8702206EB8404012102F51C536D
:10A5200004F8301C0F33B3FBF2F344F82C3C70BD3D
:10A53000012070BD084BD3F87022012002F2E733EE
:10A54000B3FBF2F345F82C3C70BD013845F82C0CF8
:10A55000002070BDA0530020880100202DE9F84F95
:10A560003249DFF8D4B091F8311E012402290746A0
:10A5700019461046CBF82C404FF000022C4C1D46DB
:10A5800018BF7F02FDF73CFD2A4B63626B02A3629A
:10A59000E36A40F2FF5943F093034FF400704FF425
:10A5A0008A62E3620121C4F83890A0601020E26062
:10A5B0005AF03CF8012D40F251434E46C4F8389011
:10A5C000CA4640F252488EBF4FF0120998464FF0EB
:10A5D00011090A25C4F838A00121A7604846C4F82B
:10A5E0000C805AF023F803464FF0000C40F27742FB
:10A5F00001213720A6632BB900231846CBF8283059
:10A60000BDE8F88FA663C4F808C0E2605AF00EF8FF
:10A61000013DA6630028EFD015F0FF05DAD103460F
:10A62000CBF82C50CBF82830BDE8F88FA84200209A
:10A63000002C014000E1F505B03100202DE9F84380
:10A64000DFF8788098F89C58042D04468946174610
:10A650001E4608D0082D02D00020BDE8F883FEF782
:10A6600005FC0228F8D101234A4620460021FFF7C5
:10A6700075FF68B1FEF78AFCD8F88448002CEBD04F
:10A680000022D8F88838D8F87C181046A047E3E7AD
:10A69000094BC8F87898D3F88020C8F87C4805237F
:10A6A000C8F88478C8F88868C8F88C2888F89C3876
:10A6B0000120BDE8F88300BFA8420020B03100208F
:10A6C0002DE9F84F2F49DFF8C49091F8311E1E464E
:10A6D00002292D4B07464FF0010418BF4702012EF7
:10A6E00040F259481C6398BF4FF48B683B46934631
:10A6F000474640F2FF55B0468CBF4FF0190A4FF065
:10A70000180A0A241E4640F2FF53C9F838300121C6
:10A71000C9F808605046C9F80C7059F087FF034625
:10A720004FF0000C40F2774201213720C9F8385031
:10A73000A3B9584641460122FDF762FC4646134A3A
:10A74000134B536276029662D36A43F09103D3624D
:10A750000D4B002108469962BDE8F88FC9F83850C2
:10A76000C9F808C0C9F80C2059F060FF013CC9F8CD
:10A7700038500028DDD014F0FF04C4D1024B1C6314
:10A78000BDE8F88FA8420020B0310020002C014025
:10A7900000E1F5052DE9F0473C4C82B005460E4638
:10A7A0001746984694F89C0804280DD0082807D12D
:10A7B000D4F89438AB4207D0FEF758FB0228F1D00A
:10A7C000012002B0BDE8F087DFF8C8A0C4F87868BF
:10A7D000DAF8289EC4F87C58C9F34F210F294FEAB4
:10A7E000592223D8D4F898380193FBB194F86A0918
:10A7F000E0B1B9F5005F13D0254831464FF400723F
:10A8000048445FF0E9FE09F50072C2F34F211029B8
:10A81000CAF8282E4FEA522202D0019B012B25D1E3
:10A8200092B2013A1A4EAD1A0B4600E001233246AD
:10A830002846062601250021C4F88478C4F88888B3
:10A8400084F8805884F89C68FFF73AFF0028B8D055
:10A85000FEF79CFBD4F88468AEB12846D4F888385B
:10A86000D4F87C180022B0470320AAE7D4F8942833
:10A87000013B01320421C4F89838C4F8942884F8C4
:10A880009C1802209DE703209BE700BFB031002009
:10A8900024710020A8420020F0B52C4C2C4BD4F899
:10A8A000F02512695168994283B04AD0A3F57843E4
:10A8B000994248D003F58063994214BF4FF0FF31AD
:10A8C000022101312348244F45F00CF8D4F8F0352B
:10A8D0002248D3F8A830C4F8FC3507F1240207F168
:10A8E0003403C4F88026C4F8843645F037F80026CF
:10A8F000034601A91748A4F8F835ADF80460FDF740
:10A9000063FE052043F058FB1248ADF8046001A92E
:10A91000FDF75AFE054620B19DF805301E2B03D0E9
:10A920003546284603B0F0BD0D4A0E4B0948C4F821
:10A93000DC25012187F84410C4F8E03545F02AFAF7
:10A94000EFE70021BDE70121BBE700BFF8000010E1
:10A9500000300140EC060010A053002080969800C3
:10A96000C11506081923060803681A78012A01D0C0
:10A970000020704793F90430044A03EB830302EB91
:10A98000C30313F8930CC0B2704700BFA05300205C
:10A9900010B50C4CD4F8B43E1B78022B10D1D4F86F
:10A9A000BC0E44F09FFAD4F8BC0E08B12323C38038
:10A9B000012142F0FBFE044844F0D0FFA4F8B80E99
:10A9C00010BD00BFA842002080969800054BD3F828
:10A9D000B42E1278022A03D1D3F8BC0E44F0DEBDA7
:10A9E000704700BFA842002030B583B00D46012358
:10A9F00001460DF107020446074845F04FFA9DF85D
:10AA0000072035EA020304D003482A43214645F0D3
:10AA1000D3FA03B030BD00BF5C51002038B5054605
:10AA20000A460C460648294645F0C4F845F0800120
:10AA3000034844F0BDFF231A5842584138BD00BFB7
:10AA40005C510020F0B5374DD5F8B47E3E78022E2B
:10AA500095B004460B460FD0012E02D0002015B051
:10AA6000F0BD97F9040095F8B81E009313462246EE
:10AA70005CF03EFE15B0F0BD396A0029EED1CDE99B
:10AA80000A320DF10F068DF80F000022012000237D
:10AA9000CDE90811CDE90E2305918DF81C100D911B
:10AAA00010911291049606908DF830008DF84400B4
:10AAB000EFF31180102383F31288D5F8B43E1B6A9C
:10AAC00013B3069B04AC22461BB1D3691432002B8E
:10AAD000FBD13B6A13B3996839B993420AD019681C
:10AAE00029B15B6899680029F7D01433F3E70E4A5F
:10AAF000C3E90024C0B280F31188D5F8B42E136ADC
:10AB0000002BFCD10120AAE704ABC0B23B6280F36A
:10AB1000118805F6B4605BF0B7FFEEE7024A1A60F1
:10AB2000FFDE00BFA84200205C51002070B5036822
:10AB30001D78022D14D0012D01D0002070BD0446D7
:10AB400093F904000A4B421C83F84550F5D00228C3
:10AB5000F3DC0A4645332179BDE87040FFF7C8BBF6
:10AB60001B6A002BE9D1012245F024F8012070BDB9
:10AB7000A053002013B5364C0023626D8DF80730CA
:10AB8000137803F0FD01012905D194F8581011B98B
:10AB90000C2184F85810022B1CD0032B2AD0012240
:10ABA0000B212C4857F0A6FE042043F005FA294853
:10ABB00001230DF10702002157F0BEFE002833D01B
:10ABC0009DF80730482B2FD1234BA364234BE3641C
:10ABD00002B010BDE06D44F085F9E06D08B1362398
:10ABE000C380012142F0E2FD1D4844F0B7FEA4F805
:10ABF0005800D4E7D4F80435506846F2A81119611A
:10AC0000002380F888301222372157F047FE636D09
:10AC10000D225868242157F041FE636D3022586898
:10AC20006A2157F03BFEBAE7636D1A78022A03D017
:10AC3000032A06D00020CBE7E06D44F0AFFC0020F3
:10AC4000C6E758681022372157F028FEF2E700BF08
:10AC5000A0530020F453002097290608192A06085B
:10AC60008096980010B58CB000234CF20502044683
:10AC700001A9CDE90633CDE90833ADF800208DF800
:10AC8000023003220B930123CDE903128DF8143017
:10AC90008DF82830CDF808D045F076F8204602A986
:10ACA00044F0A2FC204645F06FF89DF806000CB079
:10ACB00010BD00BF0848002302461178022902F1A6
:10ACC000060204D00133062BF7D10020704703EBB6
:10ACD000430300EB43007047645B00202DE9F04123
:10ACE000614C82B0242204F2C470002160F0CEFBDB
:10ACF00094F8ED770023C4F8E837002F3CD15B4E81
:10AD0000D6F8E83063B39B6A53B3594898478368D1
:10AD100033B303885748013B9BB28446064600255F
:10AD20003178032906F106061ED00135062DF7D12C
:10AD300000220178022900F1060000F08F80013224
:10AD4000062AF6D1D4F8E817052909D0481C02FBD9
:10AD500001C2C4F8E80702200021938010705180DE
:10AD6000384602B0BDE8F081062303FB0545B5F87F
:10AD7000C637013B9BB2DBE794F8EC0704F2F473AF
:10AD8000C4F8F03710B9394E0027B9E743F022FD77
:10AD9000C4F8FC0718B183790BB1422BF3D13648C4
:10ADA000394644F09FFD80460028ECD0D4F8F037B7
:10ADB0002F4A9868C3F8942008B12223C380092140
:10ADC00042F0F4FCD4F8F037284E986844F08AF842
:10ADD0002A48D4F8F05744F0C1FD0123A88032205E
:10ADE000C6F8085186F80C3143F0E6F80423D4F88D
:10ADF000F00700250DEB03029F21019544F086FE2C
:10AE00009DF805509DF804309DF806102D0245EA86
:10AE100003450D43294606F1E80057F095FC08BBB1
:10AE20002846FDF729FCE8B99DF806509DF8052055
:10AE30009DF807302D0245EA02451D43294606F1DB
:10AE4000E80050F03BFF68B92846FDF715FC0746BF
:10AE500040B994F8EC0744F0C1FB51E7062101FB2F
:10AE600002C278E747464BE7A0530020A8420020E3
:10AE700090430020645B0020945B0020404B4C001A
:10AE8000F0B40D6800240CE0BCF1050F18D8A0F157
:10AE900037030A2B14D104EB840415F8010B03EBE0
:10AEA0004404A0F13003DEB2092EA0F16107A0F145
:10AEB000410CF0D9052FE7D8A0F157030A2BEAD0AF
:10AEC0000D601460F0BC70472DE9F041C54BC64ED3
:10AED000C64DC74C0822C3F88820336B82B043F0BC
:10AEE0000103336307464FF4C052284640F2023351
:10AEF00088466946CDE900230CF07EFA6B6AC4F8F7
:10AF0000708E23F470436B626B6AC4F8787E43F4EE
:10AF100020436B626B6AB749C4F8741E23F4702334
:10AF20006B626B6AB448C4F88C0843F420236B62EC
:10AF3000736CB249C4F8901843F480437364736B24
:10AF4000AF48B049C4F89C0843F0800302257363FE
:10AF5000AD4F84F89458AD4EAD4DC4F8E0184FF0A5
:10AF6000A043C4F89838AB4AC4F8A87803F5346312
:10AF7000A1F5D071C4F8E458C4F8AC68C4F8E83856
:10AF8000C4F8B0180123DFF8BCC2C4F8A4C807F5A0
:10AF90001077A5F5E465A6F5A066A1F58C61C4F867
:10AFA000EC78C4F8A058C4F8586984F8973805F5C7
:10AFB000A075536106F5B076C4F81C1984F89E3963
:10AFC0001946954B954AC4F82459A7F5BC67A03596
:10AFD000C4F83069924EC4F82C79C4F8343907F5B6
:10AFE000D45703F56953C4F838594FF05025002061
:10AFF000DFF854E2C4F85C29ACF5687C02F5A042A5
:10B00000C4F86079C4F8646907F5A04706F5A0465E
:10B01000C4F86839C4F86C59A3F5485304F68C0594
:10B02000C4F87029C4F87869C4F89839C4F820E9DC
:10B03000C4F828C90246C4F874792B4684F8A009DC
:10B04000402683F81C21A3F822210132042AC3E9F7
:10B05000496083F81D1183F81F01C3F8300103F123
:10B060002803EED1002211462B46402083F874239A
:10B07000A3F87A230132042AC3E9DF0183F87513A8
:10B0800083F87713C3F8881303F12803EED14FF048
:10B09000A04364489A6822F001029A60DA6842F09C
:10B0A0004002DA600BF066FA94F89538002221210C
:10B0B00061F317420BB142F4801294F88F18D4F860
:10B0C000983801299A6300F0E480DA68D4F8986926
:10B0D000D4F89C08C2F3076121F0600141F04001FF
:10B0E00061F31F620021DA603160026861F3CC22F3
:10B0F000026094F89728012A00F0B88010214A488D
:10B100000BF08AFD48480BF06DFDD4F89C0894F8CC
:10B110008D3800224FF0FF31026142618161C261CE
:10B1200053B305F11407414E114607EB83074FEA6D
:10B13000830C4FF0FF0E56F8042F1368002BACBFA2
:10B1400000234FF09043B74213601161C2F808E04A
:10B15000F1D105F15003364963440027FF2651F829
:10B16000042F1568002DACBF00254FF09045994283
:10B17000156017619660F2D1036994F88F1843F453
:10B1800080730129036161D0D4F8982829480023ED
:10B19000936100294FF0FF336FF08041516153609C
:10B1A000516114BF00231023906143F47013906920
:10B1B000D4F8741E43F4605343F0080303439361CF
:10B1C0009368096843F00103936088471A4B1B4A50
:10B1D000DA6068461A4B0093FEF7ACFB02B0BDE89C
:10B1E000F08100BF00E100E00038024000000240B2
:10B1F000A0530020FC03002008040100400040018F
:10B2000000080050000B0050200900504009005079
:10B21000200B0050003C0140C005005000100050C1
:10B2200000300050385C00202C5C0020405C002086
:10B230007C5C00200008008000ED00E00005FA05BD
:10B24000430200010009005020050050D4F898285E
:10B25000144B03636FF08041134D00234FF0FF3018
:10B26000936151615060516195619EE701680F4A99
:10B270000F4E41F003010160802159629E62C3F8C4
:10B280000421E022C3F80821C0F24002C3F80C21D7
:10B2900034E79A6822F03E0141F02A0161F3070287
:10B2A0009A6012E70301810000080080A0004000BE
:10B2B0008000200010B51A4C94F8810EC0B9194BCB
:10B2C00083F8C908C3F8CC0894F8843E012B05D054
:10B2D000022B21D0D4F8883E1BB910BD124BC4F804
:10B2E000883E12495B68BDE81040A1F10C00184788
:10B2F00043F070FA94F8832E0A49003A18BF0122ED
:10B3000081F8C928C1F8CC080028DDD02122C280EC
:10B31000202142F04BFAD7E7054BC4F8883EE0E71E
:10B32000A0530020B03100203C0400202C620020FB
:10B330001804002099B10A6B824216D9154BD3F834
:10B34000CC2E914221D35C3991421ED30B6B984293
:10B35000F9D38B6B9842F6D80B46184670470D4BC5
:10B36000D3F8CC1E0A6B904212D30B680BB9F4E7EA
:10B370000A6B90420B4602D38A6B9042EDD951F88A
:10B380005C3F002BF4D118467047002318467047E5
:10B390000A46D8E7A05300202DE9F047CC0143D15D
:10B3A0000346224A43F8082B4FF0FF324260022442
:10B3B00018467E26DFF87880D8F8D09E2644013ED5
:10B3C000051D49466FF070474FF0010A08E0A3429F
:10B3D0001CD0631C45F8043C321B1C460435CAB122
:10B3E0000B6BA34202D88B6BA34204D22046FFF71B
:10B3F000A1FF014690B10A794B6B002AE7D1A34225
:10B4000004D0E6D245F8042C631CE5E745F8047C3B
:10B41000631CE1E7C8F8D01EBDE8F08745F804AC2E
:10B42000321B631C4946D8E78026C3E7F8FFFF0FAD
:10B43000A053002070B4447941BB03684FF400521C
:10B440004FF40076202502213CBB1A8C22F0010229
:10B450001204120C1A841A8B188C22F0F30280B298
:10B46000120420F00A00120C014342F0010241F0E4
:10B4700001011A8319841A8B22F00C021204120C97
:10B480001A831A8B92B270BC1A8370470022036829
:10B49000164615461146002CD7D0042C21D0082C76
:10B4A00038D0198C21F480510904090C19849C8B23
:10B4B0001D8C45F6FF7040F6FF41284021400243B5
:10B4C00042F4805241F4807199831A849A8B22F459
:10B4D00040621204120C9A839A8B92B270BC9A83C7
:10B4E00070471A8C22F010021204120C1A84188B66
:10B4F000198C89B240F6FF4221F0A00102400D43B1
:10B5000042F4807245F010051A831D841A8B22F4D0
:10B510004062B3E71A8C22F480721204120C1A846F
:10B52000998B1A8C21F0F30192B2090422F4206263
:10B53000090C324342F4807241F0010199831A846C
:10B540009A8B22F00C02C4E738B50E4D0446006811
:10B550000BF056FED5F8B824204652084FF6FF717E
:10B5600041F064FC20460021FFF764FF064BC5F85C
:10B57000243D05F6245120460022BDE8384041F024
:10B58000D3BB00BFA842002035B301080E4A10B556
:10B590000E4CC2F8EC4E0E4CC2F8E44E00230D4C9B
:10B5A000C2F8D80EA2F8DC1EC2F8E03EA2F8DE3ED9
:10B5B000C2F8E84E82F8F03E282202FB03F403535F
:10B5C00001339942F9D110BDA053002040420F0031
:10B5D00020A10700A01CE9FF036870B55E6A26B1D0
:10B5E00033462522BDE87040184704460D4601F158
:10B5F000250600E023689B68204698470028F9D07C
:10B60000236815F8011B1B6820469847B542F1D105
:10B6100070BD00BF036870B55E6A26B1334619225B
:10B62000BDE87040184704460D4601F1190600E0D8
:10B6300023689B68204698470028F9D0236815F8AE
:10B64000011B1B6820469847B542F1D170BD00BF71
:10B650002DE9F047164D0746002095F9F99E05F5AE
:10B66000706684B007EB010805F58D5504464FF070
:10B67000B60A3368ABB193F83830142B11D019F1F6
:10B68000020F01D04B450CD1002269463046CDE96E
:10B690000244CDE90078ADF808A08DF80D4032F0F5
:10B6A00091FFE036B542E4D104B0BDE8F08700BFB9
:10B6B000A0530020B5EE400AF1EE10FA04D0F5EEEA
:10B6C000400AF1EE10FA07D1074B0849084A826098
:10B6D000C0E900310C301847064B0749044A826024
:10B6E000C0E90031F6E700BF5941050855300508AB
:10B6F000B92F0508153905080D30050890B10B4B19
:10B70000B0F5167F93EDAF7AF2EE047AA8BF4FF44E
:10B71000167027EE277A07EE900AF8EEE77A87EEA2
:10B72000270A70479FED020A704700BFF80000101B
:10B73000000000009FED737A9FED736A60EE877AD8
:10B74000F4EEC07AF1EE10FA98BFB0EE670A60EE40
:10B75000067AC7EEA06AFDEEE67A17EE903A20333D
:10B76000402B00F2C080DFED697AF4EEE76AF1EE7B
:10B7700010FAF0EE667A0ADDDFED655AB0EE677A10
:10B78000B4EEE57AF1EE10FA77EEC67AF6DC9FEDCC
:10B79000617AF4EEC77AF1EE10FA0CD5DFED5A5A61
:10B7A0009FED5D6AB0EE677AB4EEC67AF1EE10FAFC
:10B7B00077EEA57AF6D49FED597AF4EEC77AF1EEDA
:10B7C00010FA00F388809FED567AF4EEC77AF1EE16
:10B7D00010FA44BF9FED4F7A77EE677A67EEA75A6B
:10B7E0009FED505A9FED507A9FED506AA5EE857AF5
:10B7F00027EEA55AA5EE876AB6EE007AE5EE067A40
:10B8000027EE877A9FED456A76EE867AFDEEE75A57
:10B8100015EE903A2033402B62D8F4EEC66AF1EE72
:10B8200010FA0CDDDFED385A9FED396AF0EE676AE9
:10B83000F4EEC66AF1EE10FA77EEE57AF6DCDFEDAB
:10B84000356AF4EEE67AF1EE10FA0CD5DFED2E5AF9
:10B850009FED316AF0EE676AF4EEC66AF1EE10FA17
:10B8600077EEA57AF6D4DFED2D6AF4EEE67AF1EE06
:10B8700010FA3BDDDFED256A76EEE77A67EEA75A30
:10B880009FED285A9FED286ADFED286AA5EE856AAC
:10B8900027EEA55AE5EE866AB8EE006AE5EE267A4E
:10B8A00067EE867AC7EE016AB7EE006A76EE865AD0
:10B8B00076EE666A86EE257A67EE277A66EE876A06
:10B8C000C0ED057AC0ED077A80ED047A80ED067A46
:10B8D000C0ED086A70479FED0D7A77EE677A7DE7D5
:10B8E000DFED137ADEE79FED127A8BE7DFED0C6A6E
:10B8F000F4EEE67AF1EE10FA44BFDFED066A76EE7A
:10B90000E77ABBE73333F33EDB0FC940DB0F494037
:10B91000E4CB1641DB0F49C0E4CB16C1DB0FC93FB6
:10B92000DB0FC9BF92E741B99730083C15A82ABE82
:10B93000000000002DE9F04FA24FA34AB7F8CC1643
:10B94000B7F8CA36A14C2DED068B07EE901A0AEE19
:10B95000103A92F8A930DFED9EAAF8EE679A07EE4A
:10B96000903AB2F8AA30F8EEE77AF2EE046A0A2BBF
:10B9700087EEA67AB8BF0A2385B007F5576804F1A9
:10B98000780604F2747B07EE903AB2F8AC3088ED9A
:10B99000007A08EE103AF8EEE78AB8EEC88AB6EEFA
:10B9A000009AF4EE488A29EE890AF1EE10FAC8BF2F
:10B9B000B0EE688A92F8A830C8ED018AB4EEC80AE1
:10B9C000F1EE10FAD8BFB0EE408A082BA8BF0823CA
:10B9D0000022B1F57A7F38BF134680EE080AC7F817
:10B9E000802DC7F87C3D88ED028A5DF0CDF9B7EE79
:10B9F000007AB4EE470AF1EE10FA48BFB0EE470AFB
:10BA0000FDEEC07AB8EE4AAAF8EEE76A17EE905A51
:10BA1000C4ED137ACAEE297A67EEA67A87EE276A12
:10BA200089EEA67ADFED6B7A84ED146AC7EE279A69
:10BA300088EEA90AC4ED159A5DF044FA0228B8BF51
:10BA4000022088EE290A8146A0655DF03BFA232892
:10BA5000A8BF2320B9F1230FA8BF4FF02309484501
:10BA6000E065B8BF4846A0EB0902012DD4ED187A75
:10BA70009FED598A8246B8BF01250132F5EE407A22
:10BA8000F1EE10FA2AD155499FED55AA002307EE91
:10BA9000903AF8EEE79ACDE9021269EEAA9A01937C
:10BAA000B0EE690A4DF076FCF0EE408AB0EE690A1D
:10BAB0004DF0FCFBA8EE880A019B0299039A20EE48
:10BAC0000A0A68EE8A8A0133242B81ED000AC1ED4F
:10BAD000018A01F10801DAD1DFED427A92FBF5F13A
:10BAE000002346E9053946F8081C46F80CAC46F830
:10BAF000045C31460133482BA1EC018AFAD13A4863
:10BB0000D0F810C1D0F8140106F59073002101316E
:10BB10002429C3F800C0586003F10803F7D106F5E3
:10BB200015765E45AAD1DFF8C890DFED308AC4ED06
:10BB3000187A002508EB0500CA460026D7F87C3D98
:10BB40009E4200F1240430DA07EE906A98ED016A13
:10BB5000F8EEE76AD8ED027A36EE897A77EEC67AA1
:10BB6000743067EE877A07EE103AB8EEC77AB7F806
:10BB7000CA3687EE870A0421013600EE903A30EE8D
:10BB8000060AF8EE600AAAEC010A98ED001A84EDA4
:10BB9000178AA6EEA81A84ED168A84ED158A84ED1C
:10BBA000148A4DF01DFD2046C8E705F59075B5F5E2
:10BBB000587F09F12009BDD105B0BDEC068BBDE869
:10BBC000F08F00BFF800001098640020F011001002
:10BBD000C3B8B23D000090420000000050190010B0
:10BBE00072F97F3FBC297E3FF4B70608CDCC4C3EAE
:10BBF0007C0E00102DE9F04F2DED028BDFF8B8819F
:10BC0000674CDFF8B8A19FED678A85B0A8F1B0094D
:10BC10000127FEB218F8010B3246592141F0D8FB3A
:10BC20000546002800F09280D0F800B0A060012303
:10BC3000BBF1804F04F8283C00F093805A4B9B45A1
:10BC400000F08F800023584604F8273C59F062F832
:10BC500007EE900AF8EE677A4FF4807344ED087AA5
:10BC600000224FF40051584644E9061244F8103CB3
:10BC700044F8082C59F04EF8AAFB0030C308012202
:10BC800018F8010C44F80C3C04ED098A24F81C2C2B
:10BC900024F81A2C42F09EFDE06010B15923C671C1
:10BCA000837199F8B430012B77D0022B0CBF42215D
:10BCB00002216A7A42F07AFE286859F02BF8014690
:10BCC0002846FDF759FE14F8273C002B57D0214693
:10BCD000364B41F8043D0022284641F025F899F8FA
:10BCE000B5302868002B4FF0010B14BF002302234E
:10BCF000CDF808B0ADF8063004236A79ADF8042019
:10BD00000DEB0301ADF80C300BF070F854F8103C5B
:10BD1000A2682749126891F86019013E013B9BB265
:10BD2000F6B213854FF0FF3500234FF40050B142B7
:10BD3000D562A2F814B044E9060324F81CBC24F828
:10BD40001ABC44F8083C01D13FF056F90137052FE1
:10BD500004F138047FF45DAF05B0BDEC028BBDE8A3
:10BD6000F08F0123584604F8273C58F0D3FF07EE24
:10BD7000900AF8EE677A012344ED087A70E70D48DF
:10BD8000DFF83CC044F8040C2246211F28466360BB
:10BD9000C4F800C040F0C8FFA1E7222189E700BF36
:10BDA000981A001000000000000C0040015F040819
:10BDB000F011001035600408486500201F85EB5124
:10BDC0001DB004080C480D4BD0F8D01010B40C4C2A
:10BDD000C0F8C0308A1E2231B0F8DC301B01A4FB51
:10BDE00003C3DB08A3F5B06322F8023F9142F3D10D
:10BDF0005DF8044B704700BF98640020418D020835
:10BE0000CDCCCCCCF0B5264C85B004F1EC03054686
:10BE1000C4F8D030FFF7D6FF224A234B1A21402026
:10BE2000C4E9312384F8BA103CF0B4F8002835D0C6
:10BE300094F8293194F82A7194F82B6190F9040050
:10BE40001A4A002D14BF4FF4E1314FF4E121002BC9
:10BE500014BF02230023002F14BF30250025002E1D
:10BE600018BF43F001032B430325CDE90153009193
:10BE7000002340213CF0EFF8C4F8400148B10C48E1
:10BE80000CF042FB94F8453184F844010BB984F876
:10BE90004551D4F84001003818BF012005B0F0BD6D
:10BEA0009864002025920208BDDC02084D96020825
:10BEB000C5DD020870B5084C251D2E4614F8010B8F
:10BEC00032F06AFD28B1037905F8013BB442F5D19F
:10BED00070BDFF23F8E700BFE06500202DE9F047C3
:10BEE0001D4F012607F10805B2464FF03D094FF0FE
:10BEF000000817F8010B42F06DFC044690B180F881
:10BF00000690C671FB7803F07F02012A18D013F067
:10BF1000800F20460DD185F8048042F0DDFF85F8C2
:10BF200005802C600136052E05F10805E1D1BDE83C
:10BF3000F08785F804A042F0D5FF85F805A0F0E76A
:10BF40001B0605D40121204641F030FCFB78DEE7DA
:10BF500042F0C8FFF6E700BFE86500202DE9F04F8A
:10BF60000C68BB4D013BAC4283B09BB200F07A81C0
:10BF7000A5F58065AC4200F0758105F58045AC42C1
:10BF80005BD005F58065AC4257D005F58065AC42C5
:10BF900053D0B04E2588D6F8B8747F08B7FBF2F6B8
:10BFA000013EB6B2AAB2B4F1804F0AD0AA4DAC425B
:10BFB00007D005F58065AC4203D005F58065AC423D
:10BFC00002D122F0700292B2A44DAC4200F02B815B
:10BFD00005F58065AC4200F0268122F4407205F53B
:10BFE0006C4592B2AC422280E362268540F04481E7
:10BFF000002323860125A5820B7A4A7913F00206D5
:10C0000000F015810027DB0003F00803B846019714
:10C010003946BC46BE463D464FF480664FF0400A66
:10C020004FF0040B0C2A12D8DFE802F0CA111111EC
:10C030009A111111221111116A00864E2588D6F825
:10C04000B864B6FBF2F6013EB6B2AAB2ABE70C2A70
:10C050003ED8DFE812F0DF003D003D003D00AC00BF
:10C060003D003D003D003D003D003D003D007C00A9
:10C07000218C7B4F21F480710904090C2184218CCF
:10C08000B4F80490A58B89B225F0730521F40071F2
:10C090002D044CEA01012D0CBC4241EA0E211FFA8D
:10C0A00089F945F0600500F0EC8007F58067BC4237
:10C0B00000F0E7800023A4F80490A583E3632184C3
:10C0C000A38B23F008031B041B0C43F00803A3837A
:10C0D000B4F844306FEA43436FEA53439BB2A4F889
:10C0E0004430238821469BB243F0010321F8343BBE
:10C0F00000238D18C0E900548B5003B0BDE8F08FC9
:10C10000238C574923F480531B041B0C2384238C5A
:10C11000B4F804C0A68B9BB226F4E64623F4005381
:10C12000360448EA0305360C8C4245EA0E3346F4E1
:10C13000C0461FFA8CF500F0B08001F580618C429A
:10C1400000F0AB800021A580A68321642384A38B0B
:10C1500023F400631B041B0C43F40063A383B7E7C1
:10C16000258C3F4E25F010052D042D0C2584B4F8A8
:10C1700020C0A788258B1FFA8CFC25F4E6452CF0FF
:10C18000200C2D0441EA0C012D0CB44241EA0E11A1
:10C19000BFB245F4C04500F08F8006F58066B4421A
:10C1A00000F08A800023A7802583A3632184238B4A
:10C1B00023F400631B041B0C43F40063238387E711
:10C1C000218C274F21F001010904090C2184268CC0
:10C1D000B4F80480B4F8189026F0020629F0730928
:10C1E00036044FEA09494EEA0501360C4FEA19496F
:10C1F000BC4241EA06011FFA88F849F0600950D0B4
:10C20000134DAC424DD00023A4F80480A4F818903C
:10C2100063632184238B23F008031B041B0C43F06E
:10C220000803238354E72280E3622685E2E65B006D
:10C230004FF4806103F0020E0191B2463346B346DB
:10C240004FF480474FF4805810214FF4807CE9E68A
:10C2500000040140A84200200004004000100040FB
:10C26000000001401B4E2588D6F8B864B6FBF2F6F4
:10C27000013EB6B2AAB2A4E6174B9C423FF4B8AE58
:10C28000B8E621F4006141EA032323F4806129F434
:10C290004059314349EA08090CE725F480453D43FC
:10C2A00050E74FF6F3760E4028F44078334348EADF
:10C2B0000C0843EA0B01A6E721F0800141EA0313D1
:10C2C00023F04001019B27F4406741EA0A011F4324
:10C2D00068E700BFA8420020000401402F4B9FEDFB
:10C2E000304AB3F8CA3607EE103ABAEEEF7AF0EEFB
:10C2F000607AB4EEC70AF1EE10FA70B5F0EE404A7B
:10C30000F0EE410A06DDF4EEC77AF1EE10FA3CD504
:10C31000F0EE474AF5EEC04AF1EE10FA3ADDF5EEDE
:10C32000C07AF1EE10FA35DD27EEA47A67EEE77AEF
:10C33000E4EEA47A87EE271A1A4C1B4D1B4E00F12F
:10C340000C0200F19C0142E9026542F80C4CF5EE4A
:10C35000C04AF1EE10FA14DDB5EEC01AF1EE10FA93
:10C360000FDD134B42F8083C82ED034A82ED024A8E
:10C3700082ED014A82ED004AB0EE640A1046FFF7F2
:10C38000D9F930328A42DED170BDF0EE444AB0EEC7
:10C39000441AD1E79FED021ACEE700BFF800001063
:10C3A0000000000059410508B92F0508553005085F
:10C3B0000D3005080A44914215D030B441F22105F0
:10C3C00011F8014B082380EA042010F4004F85EA9D
:10C3D00040040ABF4000A0B280B2013BF5D18A42BE
:10C3E000EED130BC704770472DE9F041214E224F0D
:10C3F00096F87B3187F8903E06F5BC7607F6946593
:10C4000000244FF0050816F8010B20BB286001340A
:10C41000032C05F10405F6D197F8901ED7F8940E79
:10C42000C94301F0010142F063FD97F8901ED7F86F
:10C43000980E81F00201C1F3400142F059FD97F8D6
:10C44000901ED7F89C0E81F00401BDE8F041C1F3C5
:10C45000800142F04DBD42F0BDF901340121286058
:10C46000E3B210B180F80680C371286841F09EF9EC
:10C47000CEE700BF98640020A8420020F8B5244C05
:10C48000244EB4F88051A6F8A05EE5B994F87C017A
:10C4900042F0A0F994F87D21C6F8A40E003A18BF26
:10C4A000012286F8A22E48B194F87E112D2200298F
:10C4B00014BF11210121C28041F078F9BDE8F84094
:10C4C000002042F01DBD94F87C71002238462D21D9
:10C4D00040F07EFF0646384642F07CF9B8B1B6B16E
:10C4E0000D4F2D22F864C280717AFDF77FFB0B4956
:10C4F000B1FBF5F13046C1F34F0289B2A4F8825185
:10C50000FBF7DEFDBA6B0023136087F84930F8BDF6
:10C5100098640020A8420020B031002040420F0063
:10C520002DE9F84F244C94F8903184F8843104F2CA
:10C530008717002604F5D2745FFA86FB0BF1010819
:10C540005FFA88F8012117F8010F42460E448A4627
:10C5500040F03EFF4FF00009054638B3387804F844
:10C560000E9C04F80D9C04F80FBC04F810AC44F8C1
:10C57000045C42F02FF918B180F806A080F807801B
:10C58000697AFDF733FB0D492846FDF7F5F90C4BA9
:10C5900023600C4B221D21462846C4E9013940F096
:10C5A000C3FB697928684A4630F04AFD082E04F139
:10C5B0001C04C1D1BDE8F88F9864002040420F00F0
:10C5C00079D0030839BA030870B52B4C2B4B94F87B
:10C5D000BC02C4F8B43200220221C4E99D22C4F88E
:10C5E0007C22C4F8B022A4F8B82240F0F1FE002862
:10C5F00034D0234B0668054603F160015A7C12B122
:10C600005A6896422BD018338B42F7D1002394F806
:10C61000BC02C4F8A05184F8943142F0DBF808B1B0
:10C620000223C380697AFDF7E1FA28461549FDF730
:10C63000A3F9154A1549C4F8A4110026111F28466C
:10C64000134BC4F8A831C4F8AC6140F06DFB6979B4
:10C6500028683246BDE8704030F0F2BC70BD30460C
:10C6600058F058FB328D0B4992B2531CB0FBF3F0DB
:10C6700081F8D802CAE700BF9864002000FFFF00DD
:10C680002801001040420F004066002061BA0308F4
:10C69000FDBB0308880100202DE9F04FC14D95F83E
:10C6A0001E71032F85B08346A7F105032DD8DFF84F
:10C6B00000830124032B88F8544A33D900235846B9
:10C6C00088F8C439FCF766F8B74EC6F89C05D6F86A
:10C6D0009C35002B00F095800022012183F824B0C6
:10C6E00083F8251083F826209A62BBF1000F09D049
:10C6F0002C33AE4A03EB0B0012F8011B03F8011BAD
:10C700009842F9D105B0BDE8F08FDAB2032ACED94C
:10C71000A74A0021032B82F8541A6DD9A24E82F841
:10C72000C419D4E795F8273188F8C449012B00F0E3
:10C730008F80022B71D09F4BDFF8A4C203931C465D
:10C74000BCE80F000FC4BCE80F000FC495F826E149
:10C75000DCF80020944E2260BEF1000218BF0122D6
:10C76000954B86F8B425072FC8F8A43900F2FB8052
:10C77000042F00F23B81914BDFF868920093002474
:10C7800002965FFA84FA0AF10107FFB2A3453A461E
:10C790004FF0030104F1010429DD009810F8013B7A
:10C7A00000901846019340F013FE019B0646184680
:10C7B000002E00F0DF8042F00DF80346514630466F
:10C7C000C9F814301BB14FF003029A71DF71337A4C
:10C7D00095F81E2158F0BCFF002800F0CB804FF0E8
:10C7E0000103042C89F8113009F11809C9D1DDE9D8
:10C7F0000263C6F89C356AE701236B4E82F8C439A0
:10C8000065E76F4D6F4C0FCD0FC40FCD0FC42B6874
:10C8100044F82039C6F89C4574E795F82631002B7A
:10C8200089D0082F14D1DFF8B8C15F4EBCE80F00E3
:10C8300008F6941703970FC7BCE80F000FC7DCF882
:10C8400000205D4B3A6086F8B445C8F8A4398DE005
:10C85000DFF894C15C4C95F82651534EC8F8C8B91E
:10C86000BCE80F000FC4BCE80F000FC400216D1A14
:10C87000564ADCF8003044F8503B18BF012586F8D2
:10C88000B455154602F53D704FF44C7285F8F072C0
:10C8900085F8BE120F465EF0F9FD484B06F13009EF
:10C8A000CDE9003BBB46D8F8C8395B4554DD009B59
:10C8B00013F8015B0093284640F010FE824628469C
:10C8C00041F088FF9AF80870404B96F8B41507F0CD
:10C8D000010A0AF1010A054683F8BDA209B187F0F1
:10C8E0000107002D4FD0A97991B1422910D0384AC3
:10C8F000C8F87C29374A384BC8F87829334AC8F831
:10C900007439012382F8BE32DDF804B0002370E7E9
:10C91000284642F04BFB4FEA4A110BF1010B41F064
:10C9200009014FF0030361616060E560277485F8D9
:10C9300007B0AB71284640F039FFFB0728460FD5FA
:10C9400042F0CAFAE368C9F81430BBF1040F04F1ED
:10C95000200409F11809A6D1DDF804B01A4B48E704
:10C9600042F0C0FAEEE7082F7FF405AF1B4BC8F882
:10C97000CC3900E7174B164AC8F8A839029EC8F808
:10C98000AC29002335E7284642F010FB4FEA4A1A4B
:10C990004AF009010BF1010B61616060E5602774E9
:10C9A000C8E700BFA8420020F8000010C8430020DC
:10C9B000F0110010841B0010FD340608D143002044
:10C9C0000CB9060858670020541B0010986400201A
:10C9D00001B5040805B5040809B504086DB50408D7
:10C9E00030B906082801001054B9060895F8253119
:10C9F000064AC8F8CC29012B05D0022B06BFBEFA87
:10CA00008EF35B09002388F8D039B4E69DB504089D
:10CA1000F8B56E4F97F8370197F8385141F0DAFEC4
:10CA200060B12F23C3802021044640F0BFFE0A20BE
:10CA300041F0A4F9204642F0AFFA18B9D7F82436ED
:10CA4000DA0000D5F8BD013D092DFBD897F8364135
:10CA5000D4B940203BF09EFA0028F3D090F904307E
:10CA600097F8B910092BC8BF143B3B440A2993F827
:10CA7000284600F09D8093F8343697F82A21002A42
:10CA800008BF1C46002CDDD0204641F0A3FE054621
:10CA9000002800F085802F23C380012140F086FE0E
:10CAA0000121084642F05EFA2B68AA881A833C20CE
:10CAB00041F082FA0021012042F054FA97F838310F
:10CAC000002B4CD0424C00261FE02B68AA885A83CA
:10CAD00041F054F994F8901ED4F8940E01F001013D
:10CAE00042F006FA94F8901ED4F89C0EC1F380012F
:10CAF00042F0FEF92B68AA881A83782041F03EF9AB
:10CB000097F8383101369E4229DA94F8901ED4F80D
:10CB1000940EC94301F0010142F0EAF994F8901E25
:10CB2000D4F89C0E81F00401C1F3800142F0E0F9D9
:10CB30007820002DC9D1782041F020F994F8901E7A
:10CB4000D4F8940E01F0010142F0D2F994F8901E4D
:10CB5000D4F89C0EC1F3800142F0CAF9CDE797F8F2
:10CB60003631ABB997F83731002B7FF46BAF97F8BC
:10CB70003931012B7FF466AFD7F8243613F0805398
:10CB80007FF460AF87F83831BDE8F8404DF084BDE0
:10CB9000322041F011FA2846002140F007FEE1E77B
:10CBA000012140F003FE0121084642F0DBF97EE757
:10CBB000D7F84C365B057FF545AF0FF09BFF00289B
:10CBC0007FF440AF002C7FF45FAF3BE79864002018
:10CBD000A842002048400822430010F0800F08BF00
:10CBE000400083F0D50314BFD8B2C0B2013AF3D1EC
:10CBF000704700BF30B405688D424FF0000211D07D
:10CC000011F8013B08245A40530012F0800F08BF6E
:10CC1000520083F0D50314BFDAB2D2B2013CF3D193
:10CC20008D42EDD16B1C03602A7030BC704700BF91
:10CC300070B4344890F85036A3F13001092957D820
:10CC400000F5CA64224600F25F6012F8015FA5F1A8
:10CC50003001092904D88242F7D1002070BC704706
:10CC6000141B022C4ADD2848002101E010F8013B8A
:10CC700001EB810103EB4103161A303B022E0446FF
:10CC800003F0FF01F2DC214B03FB01F1A2424FF064
:10CC900000030DD903EB830314F8016B5B00303BF9
:10CCA0003344A24203F0FF03F4D1194800FB03F31D
:10CCB0002E2D06D01748A0FB032301EB930070BC78
:10CCC0007047013204200024157804EB8404303DC1
:10CCD0006400092D00F1FF30A4B202D82C44A4B2A4
:10CCE000013210F0FF00EFD1642202FB0433E1E7D0
:10CCF00000211D4600F5CA620B46D9E7064C00210B
:10CD0000C4E700BF98640020E96A0020809698007C
:10CD100040420F00ABAAAAAAE86A00202DE9F0471A
:10CD2000041E0D4612DB092C26DC824A0B46824883
:10CD3000A0FB0410C00800EB8000A4EB4000002121
:10CD4000125C1A7059702846BDE8F08764422D23A2
:10CD5000092C01F8013B24D8764A774BA3FB040346
:10CD6000DB0803EB8303A4EB43030020D35C487090
:10CD70000B702846BDE8F0876F4B632CA3FB04269D
:10CD80004FEAD60621DC6B4A0B466B49A1FB060134
:10CD9000C90801EB8101A6EB4101515C03F8011BBD
:10CDA000C5E7654A632CA2FB04364FEAD60637D89E
:10CDB000604A614BA3FB0603DB0803EB8303A6EB8E
:10CDC0004303D35C01F8013BC7E7A3FB0627B4F597
:10CDD0007A7F4FEAD7070DD2564A0B465649A1FB38
:10CDE0000701C90801EB8101A7EB4101515C03F880
:10CDF000011BCAE7A3FB072842F20F7294424FEAD5
:10CE0000D80836D84B4A0B464B49A1FB0801C90844
:10CE100001EB8101A8EB4101515C03F8011BDDE747
:10CE2000A2FB0637B4F57A7F4FEAD7070CD2414A06
:10CE3000414BA3FB0703DB0803EB8303A7EB43038F
:10CE4000D35C01F8013BB4E7A2FB073842F20F7351
:10CE50009C424FEAD80821D8364A374BA3FB080337
:10CE6000DB0803EB8303A8EB4303D35C01F8013B2E
:10CE7000DEE7324AA3FB080994424FEAD90921D8D8
:10CE80002C4A0B462C49A1FB0901C90801EB810181
:10CE9000A9EB4101515C03F8011BB5E7274BA2FB4D
:10CEA00008099C424FEAD90921D8224A224BA3FB08
:10CEB0000903DB0803EB8303A9EB4303D35C01F80D
:10CEC000013BCAE71E4AA3FB090394424FEAD30A77
:10CED00021D80B461849174AA1FB0A01C90801EBE2
:10CEE0008101AAEB4101515C03F8011BCAE7144B15
:10CEF000A2FB09029C424FEAD20A13D80E4B0D4AFC
:10CF0000A3FB0A03DB0803EB8303AAEB4303D35C15
:10CF100001F8013BCAE70A22BAFBF2F049F0EAF94C
:10CF20000346D7E70A22BAFBF2F049F0E3F90146DB
:10CF3000E4E700BFE4540708CDCCCCCC9F860100C9
:10CF40003F420F0083B50C46164605463AF0EEFF09
:10CF500020463AF0EBFF0021204B0846002E08BF88
:10CF60001E4641F0FFFF0021012041F0FBFF284653
:10CF700041F0E4FBB0B10121002041F0F3FF28466D
:10CF800041F0D4FB0746204641F0D4FB0028FAD0FC
:10CF90003946204641F0D6FB3846B04700210846C6
:10CFA00041F0E0FF204641F0C9FB0028DFD001211D
:10CFB000002041F0D7FF204641F0B8FB014628464B
:10CFC000019141F0B7FB01990028F8D0284641F0C3
:10CFD000B9FB0021084641F0C5FFC8E71924040841
:10CFE000F0B50023C1E90033C1E902330B61D0E998
:10CFF00000258DB007AEDFF898E0C2F3056C374628
:10D000004CFA03F0C0073C4604D513F80E0004F8B0
:10D01000010B27460133062BF2D11B4CDFF874E0DD
:10D02000C2F303200023205C3B708DF82400C2F380
:10D03000073C0DF125074CFA03F0C0073C4604D528
:10D0400013F80E0004F8010B27460133082BF2D128
:10D0500000233B70C5F3435CC5F3434409AB08466A
:10D06000C5F34F05C2F30351CDE902150193CDE994
:10D07000044C02F00F0305490096C2F303124BF073
:10D080003FFE0DB0F0BD00BF405507080C55070826
:10D09000485507083455070870B5094CD4F8602680
:10D0A000054662B10026D4F860062D21013642F013
:10D0B000A9FFAE42F7DBBDE8704048F0D7BC70BDB9
:10D0C000986400202DE9F04F5FFA81F9002185B0C6
:10D0D00007460846164641F045FF0021012041F071
:10D0E00041FF41F059FB022E0AD0042E44F6C0182D
:10D0F00018BF4FF49648B9F1030F07D900200CE090
:10D10000B9F1FF0F4FF41648F5D10326CD4D95F830
:10D1100064362BB90020C5F8680605B0BDE8F08F6D
:10D12000032EC94C0DD0A144002299F829010321F6
:10D1300040F04EF90028EDD0C4F80005037A9A07B4
:10D14000E8D495F8640684F81B6D0022032140F0B2
:10D150003FF9C4F804090028DCD0BC4ABC4BC4F831
:10D16000BC3402F1480003234FF48061A4F8C034BA
:10D17000C4F8D004002302F24C404FF0010A032E01
:10D18000C4F8C484C4F8E834C4F8C814C4F8DC345F
:10D19000C4F8D834C4F8D404C4F8CC14C4F8E434C3
:10D1A000C4F8E03484F80C3DA4F808ADC4F8143D8C
:10D1B000A4F8183D84F81A3D91460ED0D4F800B575
:10D1C0009BF8040041F006FBC4F8FC04584612F03A
:10D1D0002FFA5146484612F03FFA322040F0ECFE5A
:10D1E000002E5FD1D4F80489D8F800000AF008F8BE
:10D1F0004046984A22213FF019FE974B9749C4F8C0
:10D20000203D324640463FF08FFDD4F80085D8F8E7
:10D21000000009F0F5FF8F4A4FF6FF7140463FF0DE
:10D2200005FE31464046FEF705F98D4B8D49C4F8A1
:10D23000243D324640463FF077FDC5F868964FF0F2
:10D24000060A022E12D0D5F8680641F077FA68B1C6
:10D250000121002041F086FED5F8680641F06EFA03
:10D260000146002840F09A8041F07CFE384641F0AB
:10D2700065FA88B10121084641F074FE4FF0050BB4
:10D280004FF00008384641F059FA0146002840F0B6
:10D290008E80012041F066FE042ED4D0052040F09F
:10D2A0008BFECEE7012E09D1D4F804094146FBF7E5
:10D2B0002BFDD4F80005FEF747F9BEE7022E09D191
:10D2C000D4F8000512F0A3F9D4F804094146FBF79D
:10D2D0001BFDB2E7032E59D14FF0000A51466248B8
:10D2E00084F81CAD20225EF0D1F88DF80FA0DFF895
:10D2F0007CA19DF80F30032B09D95448012112F06D
:10D30000ABF9D4F804094146FBF7FEFC95E79DF81C
:10D310000F3003EB43030AEBC30393F8413073B3BD
:10D320009DF80F3003EB43030AEBC3035B6C33B38D
:10D330009DF80F30234493F8290100B30022032104
:10D3400040F046F88346D0B112F061F99DF80F30F5
:10D3500094F81C2D03EB43030AEBC30305EBC20156
:10D360005B6CC1F86C369BF80830DB0748BF0123C3
:10D3700002F1010248BF81F8703684F81C2D9DF837
:10D380000F300133DBB28DF80F30B2E7042E7FF49B
:10D3900054AFD4F8000512F03AF985E7D5F86806DD
:10D3A00041F0C4F90146384641F0CCF954E738461B
:10D3B00041F0BCF995F89A3601468BB9242803D17F
:10D3C0004FF0010385F89A36012E04D138460191B9
:10D3D00041F0B8F90199D5F8680641F0B3F951E781
:10D3E000012B06D14D280CBF0223002385F89A3665
:10D3F000EAE7022B06D13C280CBF0323002385F863
:10D400009A36E1E7032B10D10A2802D985F89A86CB
:10D41000DAE7042385F88D0685F88C8685F88F86F3
:10D4200085F88E0685F89A36CEE7042B20D195F83C
:10D430008E3685F89B06434085F88E3685F89AB679
:10D44000C2E700BF98640020A84200206447002083
:10D4500078B9060840420F00E5F60108C84F0020E1
:10D4600053B20108CC4F0020046B0020F8000010DC
:10D47000052BA9D195F88C3695F88D9695F88E06E2
:10D480004B4509D25A1C2B44484085F88E0685F836
:10D490008C2683F8901697E78842B7D195F89B368B
:10D4A00085F89AA6F42B8FD1B9F1000F8CD12421E5
:10D4B000384685F89A9641F045F94D21384641F0B5
:10D4C00041F93E21384641F03DF94946384641F0A0
:10D4D00039F9F421384641F035F9F421384641F064
:10D4E00031F9032E1BD0D4F80005437901689D085B
:10D4F0000223AB40DB439BB20B828D892B408B8197
:10D500000079202112F072F8D4F800054A46494605
:10D510003FF00AFCD4F80035186809F071FE0022CB
:10D52000D4F8040911463FF0FFFBD4F80439186819
:10D5300009F066FE0120F0E510B5036804469B681B
:10D5400001219847FF230122A373627310BD00BF1E
:10D5500070B51D4C0968D4F8A0561C4ED4F89C46F2
:10D56000D6EDB77ADFED1A6A491B00EE901A016812
:10D57000F8EEE00A091B60EEA70A00EE101A20EE92
:10D58000A07AB8EEC00A1C46A0EE007AB1EE400ABE
:10D59000F1EEC77A67EEA67AFCEEE77AC2ED007A82
:10D5A0004BF016FE9FED0B7ADFED0B7AE0EE077A7B
:10D5B000FDEEE77A17EE902A002ABCBF02F50C4276
:10D5C000A032226070BD00BF986400208801002056
:10D5D0002C7D8E3FA00CB34500A00C4638B50F4CF7
:10D5E00094F8BB1601F03F018B1C024601F10A05BD
:10D5F00084F8B93684F8B65604F2B46084F8B726D5
:10D60000083120F0ABFC254485F8B20694F8B63614
:10D610001C44000A84F8B30638BD00BF986400209B
:10D620002DE9F04FCB4DCC4CDFF83C938DB04FF053
:10D630000008009005F5ED6B54F80B0C002800F085
:10D64000FC8041F07BF80646002800F0BD81D9F847
:10D65000803044F8073CE0260023C04F04F8033C28
:10D66000A4F10B0A06FB08F654F80B0C41F066F81F
:10D67000002800F0E28054F80B0C41F057F814F841
:10D68000023C5A1E01460B2A0DD8DFE812F01F009B
:10D690003A004500520082009900E10012012F017A
:10D6A0003A016F01850124290CD0009A3AB995F806
:10D6B0004A278A4240F07681012204F8032C0D2B80
:10D6C000D2D184E0012304F8023CCDE700234D29A8
:10D6D000C4F8C53084F8CD3084F8CE3004D0582951
:10D6E00008D004F8023CBFE7022204F8022C84F8B8
:10D6F000C430B9E7032304F8023C022384F8C430A1
:10D70000B2E704233C2904F8023C0AD03E290CD09D
:10D71000002304F8023CA7E70A233C2904F8023C52
:10D72000F4D1002304F8013C9EE7012304F8013CF6
:10D730009AE7D4F8C500BB190344421CC4F8C520BD
:10D7400083F80B1F94F8CD00022A81EA000184F8C7
:10D75000CD1089D12378C02BDAD86278FF2A08D17E
:10D76000052BD5D9012384F8C430072304F8023CE3
:10D770007AE7A4F8C12000229342C4F8C93014BF4C
:10D780000523062384F8C320C4F8C52004F8023C0E
:10D790006AE7D4F8C500BB190344421CC4F8C5208D
:10D7A00083F80B1F94F8CD00D4F8C93041409A4259
:10D7B00084F8CD107FF458AF062304F8023C53E7F9
:10D7C00094F8CD308B42A3D10D2304F8023C14F819
:10D7D000017C002F40F0EC80614B08940FCB04AE2D
:10D7E00086E80F00D4F8C930D4F8D100ADF82A701B
:10D7F00023440993B4F8C130ADF8283094F8C3300D
:10D800008DF82C3001238DF82D30324603AB08A95A
:10D81000039731F0D5F848B1049B059394F8C420E0
:10D82000504B04933146504630F0CCFE039E00230B
:10D8300004F8023C002E40F0BF8008F10108B8F166
:10D84000030F04F1E0047FF4F7AE0DB0BDE8F08FF4
:10D85000D4F8C500BA190244431CC4F8C53082F894
:10D860000B1F94F8CD2094F8CE0001934A4084F821
:10D87000CD20FFF7AFF9019B84F8CE00072B7FF492
:10D88000F3AEB4F80530C02B3FF642AFB4F8032036
:10D89000A4F8C120A27884F8C32000229342C4F8DF
:10D8A000C93014BF08230923C4F8C52004F8023C7A
:10D8B000DAE694F8CE00FFF78DF994F8CD3084F8CD
:10D8C000CE004B40D4F8C50084F8CD30BB190344DA
:10D8D000421CC4F8C52083F80B1FD4F8C9309A4203
:10D8E0007FF4C2AE092304F8023CBDE694F8CD30C3
:10D8F0004B4084F8CD3094F8CE308B427FF408AFA3
:10D900005AE7D4F8C500BA190244431CC4F8C5301C
:10D9100082F80B1F94F8CE000193FFF75BF9019B8F
:10D9200084F8CE00052B7FF49FAEB4F80120B4F844
:10D930000330A4F8C120227884F8C3200022934247
