:020000040800F2
:10000000F8FF0120ED5F0A0889600A08E980080806
:1000100089600A0889600A0889600A0800000000EF
:1000200000000000000000000000000089600A08D5
:1000300089600A080000000089600A080949080868
:1000400089600A0889600A0889600A0889600A08C4
:1000500089600A0889600A0825A70808EDA608082B
:10006000B5A608087DA6080845A6080819330000AB
:1000700009330000F9320000E9320000D5320000F7
:10008000C1320000AD32000089600A0889600A08A8
:1000900089600A0889600A0889600A080DA60808AC
:1000A00089600A08E9420A0889600A08D9420A08F0
:1000B000C9420A08B9420A08A9420A089D300A083A
:1000C000C1300A08E12F0A0805300A0889600A08C9
:1000D00089600A08D91D0000CD1D0000C11D000067
:1000E000D5A5080889600A0800000000E1410A0857
:1000F000F1410A08D1410A0819420A089932000060
:1001000089600A0839F1090899420A0889600A08D1
:10011000B51D0000A91D000029420A08A17D0408A0
:1001200085320000713200005D320000493200006B
:100130003532000089600A0889600A0889600A0867
:1001400000000000000000000000000000000000AF
:10015000213200000D320000F93100009D1D000029
:100160001D2F0A08452F0A0889600A0889600A08B5
:1001700089600A0889600A0889600A08000000008E
:1001800089600A0889600A08911D0000851D000029
:1001900089600A0889600A0889600A0889600A0873
:1001A00089600A0889600A0889600A0889600A0863
:1001B00089600A0889600A0889600A08592E0A08B5
:1001C000812E0A0889600A0889600A0889600A087D
:1001D00089600A089581040889600A0889600A080C
:1001E00089600A0889600A0889600A0889600A0823
:1001F00089600A0889600A0889600A0889600A0813
:1002000089600A0889600A0889600A0889600A0802
:10021000C1410A08B1410A08A1410A0889600A08D7
:1002200089600A0889600A0889600A0800000000DD
:100230006DF3090889600A080000000089600A0857
:1002400089600A0889600A0889600A0889600A08C2
:1002500089600A0889600A0889600A0889600A08B2
:1002600089600A0889600A0889600A0889600A08A2
:1002700089600A0889600A0889600A08000000008D
:1002800089600A080000000089600A080000000078
:080290000000000089600A086B
:0828000000001E080000200882
:020000040802F0
:04000000FFFFFFFF00
:020000040804EE
:10000000124B30B41D686B6A28B943EA01430020E3
:10001000AB6230BC7047AC6A013803EB14440BD0C0
:10002000002303F14002013305EB8202DBB2526888
:10003000834204EB1244F4D3403044EA014405EB1C
:1000400080004460002030BC704700BF583200245C
:1000500030B5EFF31181802383F312880A4AD2F876
:100060000834D2F80C44D2F80804D2F80C54CAB2BE
:1000700082F31188013BA84294BF4FF40060002036
:100080001B1B184430BD00BF58320024012380F8E8
:1000900051307047014BD3F8100470475832002498
:1000A00001207047024BC3F81424C3F8181470479A
:1000B00058320024024BC3F81C24C3F820147047A4
:1000C000583200247047704700207047212870B5CF
:1000D00005D0222829D0202810D0002070BD00296A
:1000E000FBD0072AF9D1184B18791C685A799B79EB
:1000F000087100200C604A718B7170BD0029ECD032
:10010000072AEAD11148104B0C680E794D79D0F8C6
:10011000182489791C601E715D719971002ADCD0E8
:100120002146D0F814049047D7E70029D5D0022AF9
:10013000D3D1064AD2F82034002BCED00988D2F889
:100140001C049847C9E700BF00000024583200246F
:100150000020704703460A2201481A80704700BFFA
:10016000080000240346642201481A80704700BF3B
:1001700014000024012901D000207047014BD3F85E
:100180009030184700000024012901D009F0C8B8B8
:10019000014BD3F88C30184700000024014BD3F8F2
:1001A000883018470000002410B40B780A46044633
:1001B00003F00303012B05D0022B0BD000205DF8C8
:1001C000044B70478B8843B9204611465DF8044BB9
:1001D00010F0EAB88B88832BF6D0034B5DF8044B04
:1001E000D3F88030184700BF0000002438B5054B15
:1001F00004460D46DB6F98472946204609F08AFEE3
:10020000002038BD0000002438B5054B04460D46DB
:100210009B6F98472946204609F0B4FE002038BD60
:10022000000000242DE9F843884600294FD04718E4
:10023000461E284C802507F1FF39EFF3118185F325
:100240001288D4F80824C9B2D4F80C04D4F80834BD
:10025000D4F80CC481F31188634594BF4FF4006354
:100260000023121A1344012B1AD1012044F010F973
:10027000EFF3118185F31288D4F80824C9B2D4F8B9
:100280000C04D4F80834D4F80C7481F31188BB4200
:1002900094BF4FF400630023121A1344012BE4D0DF
:1002A000EFF3118285F31288D4F80C34D2B216F829
:1002B000011F234483F82414D4F80C340133C3F30E
:1002C0000A03C4F80C3482F311884E45B5D1404678
:1002D000BDE8F88358320024F8B5002390F8505058
:1002E00080F85030CDB10F4E96F8C02E032A16D1AB
:1002F000D6F8047F00F13C0429462046FFF792FF20
:10030000D6F8043F2D1A0444DB1B322B01D8002DF4
:10031000F2D1B5FA85F04009F8BD0120FCE7184696
:10032000FAE700BF58320024002280F85120D3E7BA
:1003300090F85020531C0244DBB280F8503082F811
:100340003C1090F851200AB1132B00D9C4E7704734
:10035000F8B50B4E0D46144696F8C03E032B0ED151
:10036000D6F8047F002C0ADD21462846FFF75AFF05
:10037000D6F8043F241A0544DB1B322BF2D9F8BD12
:1003800058320024F0B5056893B02B6A13B10020F1
:1003900013B0F0BD802601220DF1070C00278DF867
:1003A00007600026044603938DF8143006930B93E0
:1003B0000E931093CDF808C004928DF828208DF884
:1003C0003C20CDE907310221CDE90C670991EFF31B
:1003D0001186102383F3128803681B6A03B302A8F3
:1003E000049B02461BB1D3691432002BFBD12B6A4C
:1003F000F3B1996839B9934209D0196829B15B689A
:1004000099680029F7D01433F3E7C3E90040F6B246
:1004100086F311882268136A002BFCD10120B7E70C
:1004200002ABF6B22B6286F3118862F0F7FFF1E7B8
:100430001C60FFDE454B98422DE9F04111D003F5D9
:1004400068530833984256D00023414A1846A2F810
:10045000703FA2F87C3FC2F8743FC2F8783FBDE815
:10046000F0813B4C022300263A4F04F60C75DFF86E
:10047000EC80C4F8083FD7F8B0303146B34206F1FB
:10048000010603D0D4F88C0F57F054FF94F8903F36
:100490002846D4F88C2F414685F82430303545F86D
:1004A000102C58F081F8D4F8083F9E42E3DB00237B
:1004B00084F87E3FD4F8083F0120D4F8181FB4F820
:1004C000102FD4F8145F12FB03F201FB03F3B4F80E
:1004D0001C6FA4F8702FC4F8783FB4F8122F1E4B8D
:1004E000C4F89C1FC4F8745FA4F87C6FA4F8722F42
:1004F000C4F86C3FB3E7164C02230026154F04F6F0
:100500000C75DFF85C80C4F8083FD7F8B03031468E
:10051000B34206F1010603D0D4F88C0F57F00AFF5E
:1005200094F8903F2846D4F88C2F414685F8243023
:10053000303545F8102C57F095FED4F8083F9E4210
:10054000E3DB012384F87E3FB4E700BF1971EF00BD
:100550005832002400000024188B0A081940EF00CC
:1005600021AAEF000F4B07B5D3F8B4205208B2FB15
:10057000F1F3B3F5803F02D3012AF7D8F9E799B236
:10058000019064F071F8084941F60C03074A01989C
:10059000CA5001F5C05100220C3103B05DF804EBE4
:1005A00063F0F2BE0000002458320024D1F50508A3
:1005B0001C4B93F8C02193ED020A12B983EDF10AA6
:1005C000704793F8C22132B1052A0BD093ED850A0A
:1005D00083EDF10A704783ED850A83ED890A83ED87
:1005E000F10A7047104AF7EE007AD3F8C401D2F846
:1005F000041FD3F8D421091AD3ED855A013207EE2E
:10060000101AF8EEC76A07EE102AB8EEC77A86EE1F
:10061000876A77EEC67A67EEA57AE0EE067AB0EEE4
:10062000670ACBE7F800002058320024154BDB683E
:10063000C3F3022310B4C3F107041A1D042C28BF0E
:100640000424062A4FF0FF328CBF033B0023A24054
:10065000002821EA020101FA03F108DB09010A4B33
:10066000C9B2034483F800135DF8044B704700F0EF
:100670000F000901054BC9B2034419765DF8044B1C
:10068000704700BF00ED00E000E100E0FCEC00E09E
:100690002D4B41F287302D490022D3F8B430A1FB15
:1006A00003132B49DB0C10B52A4C013B82B0C4F874
:1006B000280704F21C70C4F81C17C4F82C27C4F8CF
:1006C0002427C4F820370DF04BF8234B06213720A0
:1006D000D3F8E82042F02002C3F8E820D3F8E8304D
:1006E00003F020030193019BFFF7A0FF1B4B4FF486
:1006F00000025A6094F85937012B14D1D4F81C37F2
:100700000221174A84F85917D96841F00101D960CC
:1007100099680A40062A06D0B2F5803F03D01A68CD
:1007200042F001021A600F4B00200F49D3F8E82E67
:1007300003F22444C3F82004C2F81002C3F81804DA
:10074000C2E9811402B010BD0000002483DE1B4307
:1007500000140040504300240044025800E100E02F
:100760000700010058320024B84A002403689B0A9D
:10077000A3F58013522B00D970470F4A134493F806
:1007800038300D2BF8D803EBC30200290B4903EBDB
:10079000420370B584B014BF0026022642790125B9
:1007A00001EB830000246946CDE90065CDE90244F0
:1007B0000CF0D8FD04B070BD188B0A08B8520024A4
:1007C0000D4B4FF6FF71D3F8B42010B50446520814
:1007D00063F04AFF00212046FFF7C8FF0749084A97
:1007E00041F610032046CA5001F5C05100221031D5
:1007F000BDE8104063F0C8BD00000024583200245A
:1008000065BA05084309012200F01F008AB0023BC7
:1008100002FA00F0082B11D8DFE803F0665A4E42C6
:10082000362A1E120500364BD3F8F4200243C3F8D3
:10083000F420D3F8F42010400190019B0AB07047D7
:100840002F4BD3F8E0200243C3F8E020D3F8E02098
:1008500010400590059BF1E7294BD3F8E4200243B3
:10086000C3F8E420D3F8E42010400290029BE5E7AF
:10087000234BD3F8D4200243C3F8D420D3F8D42098
:1008800010400690069BD9E71D4BD3F8DC200243AD
:10089000C3F8DC20D3F8DC2010400890089BCDE79B
:1008A000174BD3F8D8200243C3F8D820D3F8D82068
:1008B00010400990099BC1E7114BD3F8EC2002438B
:1008C000C3F8EC20D3F8EC2010400390039BB5E76D
:1008D0000B4BD3F8E8200243C3F8E820D3F8E82014
:1008E00010400490049BA9E7054BD3F8F020024385
:1008F000C3F8F020D3F8F02010400790079B9DE745
:10090000004402582DE9F04FBB4DBC4CBC4F2DEDBF
:10091000048B9DB007900FCD0FC40FCD2E6897F8B4
:10092000E6520FC497F8EC322660092D0BD8DFE8A9
:1009300015F040010A000A0305030A000A000A0034
:100940000A000A0040019FEDAF8AF0EE488A002BB2
:10095000AD4ADFF8E8A20CBF00210121AB4B18BF64
:1009600013460491AA4AAB49CAF81C25CAF82415B3
:1009700078EE287ADFEDA86AB5EE007AA74ADFF8AC
:10098000C0B228EE268A02F123090027C7EE279A73
:100990009FEDA39A5D460392CAF82035079BBB42A0
:1009A00040F30181039B13F8014B0393002C00F0EB
:1009B0001081002302E0152B00F00B8103EB4302B2
:1009C0004FEA4308013312F80910A142F3D18C4BCE
:1009D0001A4492F81513002900F0AE82204642F026
:1009E00061FF0646304642F079FF03780593002BFD
:1009F00040F0EF807B1C824A06939044DBB20322D6
:100A000088F8553388F85423002E00F0E2804FEA2E
:100A1000141804F00F0C08F1FF38B8F1060F00F2BB
:100A20005F81804C04EB4801B1F8B00040FA0CF152
:100A3000CA0740F155810121A044029301FA0CF14B
:100A4000DFF800B20139084065F018F998F8C010D5
:100A5000029B03220144DFF8F0C10BEBC10888F8C8
:100A6000062088F807305BF83130C5F814809C44C4
:100A7000737A4FEA9C2C029304EB4C04B4F8C80040
:100A8000FFF7C0FE029BB8F8044002221893059BB2
:100A90005BF8310014A914941592CDE9163315F0C2
:100AA00095F8049B002B00F0A080554BB3F8E4327E
:100AB00007EE903AF8EEE77AFCEEE77A17EE908AC6
:100AC0003368594A93420FD002F5806293420BD0AB
:100AD000564902F58042934218BF8B4204D002F57A
:100AE0008062934240F01F820DF050FE504BDA6955
:100AF000C2F302224E494FF6FF734E4C0969C1F30F
:100B0000C03142EAC1020499A45C00FB04F4B4FBC6
:100B1000F8F21A44120CB4FBF2F2029211B1B2FBD9
:100B2000F8F39BB2DDED027A354AF8EE677A92F877
:100B3000E62267EE886A092A29EE667AC5ED026A1E
:100B4000A7EEA87A85ED037A00F080804FF0000CC4
:100B5000029A31462846CDF804C0CDF800C03AF0DC
:100B60000BFD002F00F0BA806B68DAF84025934245
:100B700000F0E081012F00F0B180DAF858259342AF
:100B800000F0D881032F40F0A980DAF87025D31A3D
:100B900018BF0123069F01222B741835042F05F876
:100BA000072C7FF4FBAE15481DB0BDEC048BBDE8EF
:100BB000F08F0123DFF884A0164A9FED178A049373
:100BC000134BF0EE488ACAF82425CAF81C350E4BA0
:100BD000CEE6194A00200C4BCAF82425CAF8203565
:100BE0001DB0BDEC048BBDE8F08FFAFE697AFCEE17
:100BF000E77A17EE908A63E7A48B0A0804060020C0
:100C0000485400246F1203399D2A08083D540708F0
:100C1000A12A0808395807086F12833A3957002467
:100C200000007A44188B0A0800000140004001408F
:100C300000440258E42C0B08B5550708F8000020C2
:100C400034060020C85700240000FEA70121002020
:100C5000029A01913146009028463AF08DFC3368A3
:100C60000B939B0AA3F58013522B3FF67AAFB84A39
:100C7000134493F838200D2A09923FF672AFDAF840
:100C8000A835002B7FF46DAFB24B0C21DFF8F88252
:100C90009C568B460A960895AF4E01E0B04522D08F
:100CA0003078033616F8021C0028F7D00029F5D05A
:100CB00042F0F8FD05460028F0D0006860F0F2FF31
:100CC000A042EBD16B795B45E8D1ABF1040B1BF093
:100CD000FF0BE1D1089D002F7FF446AF012359E7B8
:100CE000059B6B61DDE6089D4C23099A4FF0190EB8
:100CF0000A9EDFF89882029903FB0283DFF890C214
:100D0000CAF8A85572790EFB01F40B999008CDF83A
:100D100020B001F1340B29688AF8E80508985A4494
:100D2000B4FBFCFE8344D3F8680FD1F800C0002167
:100D3000C46ACAF8A0B5A4EB0E0493F8A4BF4FF0A0
:100D4000020ECAF8A425CAF8B4C54FF48072CDF8D3
:100D500038C0BBF1010F4FF4007CCAF8AC457F4CA2
:100D60000D912C601292CDF83CE0CDF84CC0CDE94D
:100D700010111CD0089A0121043A83F8A41F1346CD
:100D8000082B0DD8DFE813F038010C000C000C0024
:100D90003C010C000C000C0009000DA90CF0E8F956
:100DA0004C230999002203FB018383F8A42FB44646
:100DB00014ACDFF8E0E1BCE80F000FC49CE80F00C2
:100DC00084E80F00089B0022654914A88DF855306F
:100DD000CAF89CE563F0D8FA3368624A934200F09F
:100DE0005681B3F1804F00F05081A2F57C429342CE
:100DF00000F05A8102F58062934200F0188102F5FA
:100E00008062934200F04E8102F58062934200F0CE
:100E10004D8102F58062934200F04A8102F57042F2
:100E2000934200F04981A2F56C42934200F0428166
:100E300002F58062934200F0458102F580629342A0
:100E400000F03E8102F59032934200F0378102F5C6
:100E50008062934200F0388102F58062934200F094
:100E60003781002B00F03281BDF91400012102907E
:100E7000FFF7DCFB029816F0BFF94C2209999DF8A8
:100E8000553002FB0182002B40F0868092F8A61FAD
:100E900001297FF466AE022182F8A61F09994C222F
:100EA00002FB0182D2F8681FCA6842F00202CA60DF
:100EB0004C22099803F01F03012102FB00882A4EEF
:100EC000284A9940D8F8683F284C186AB34218BF9E
:100ED000934220EA01000CBF012200221862A342C3
:100EE00008BF42F00102186A04F580640143A3427E
:100EF00008BF42F00102196212B91D4A934203D1A0
:100F00005A6C42F400425A6499681A4A0A40062A06
:100F10003FF427AEB2F5803F3FF423AE1A6842F0AB
:100F200001021A601DE60DF043FC134BDA69C2F3AF
:100F30000212DFE500232DE60E4653E59FED0F8AF2
:100F4000DFED0F8A03E59FED0F8AF0EE488AFEE49D
:100F5000188B0A08D42C0B085C570024AC06002020
:100F600094060020000001400004014000400140C0
:100F7000004801400700010000440258ACC5A737F3
:100F8000ACC5A736282930389B570024504300248D
:100F900040420F0051560708042B63D0082B4ED057
:100FA0000C2B31D0102B74D092F8AB1F01297FF499
:100FB000D8AD022182F8AB1F0C2B3FF679AF01A20E
:100FC00052F823F09D0E0408B10E0408B10E040877
:100FD000B10E040875100408B10E0408B10E04081F
:100FE000B10E04084F100408B10E0408B10E040835
:100FF000B10E0408191004080DA90CF02FF9CFE662
:101000000DA90CF0E9F8CBE692F8A91F01297FF4AD
:10101000A8AD022182F8A91F09994C2202FB018286
:10102000D2F8681FCA6842F01002CA6040E7032382
:10103000284A02EBC30393F8E230059314E792F8D1
:10104000A81F01297FF48DAD022182F8A81F0999FC
:101050004C2202FB0182D2F8681FCA6842F00802E3
:10106000CA6025E792F8A71F01297FF47AAD022113
:1010700082F8A71F09994C2202FB0182D2F8681F4F
:10108000CA6842F00402CA6012E70123D0E70023D5
:10109000CEE792F8AA1F01297FF463AD022182F8FE
:1010A000AA1F05E70423C3E70223C1E70523BFE71F
:1010B0000623BDE70823BBE70723B9E70B23B7E700
:1010C0000A23B5E70923B3E70C23B1E70E23AFE703
:1010D0000D23ADE7188B0A0800284DD0274A2DE9CB
:1010E000F84F0446264B006803449B0A02EB430377
:1010F000B3F8C800FFF786FBB4F804C02368BCF15E
:10110000000F37D000204FF0010B4FF0030A4FF0D3
:101110000F0900F007020BFA00FE45000224C70881
:101120001CEA0E0F4FEA82020AFA05F603EB870764
:1011300000F1010009FA02F804FA05F501FA02F2D9
:1011400015D09C6824EA06049C605C6824EA0E04BE
:101150005C60DC6824EA0604DC603C6A24EA08047B
:1011600014433C621A6822EA06022A431A603CFAD7
:1011700000F2CED1BDE8F88F704700BF188B0A0887
:101180000000FEA700284CD0264A2DE9F84F04465F
:10119000254B006803449B0A02EB4303B3F8C800E5
:1011A000FFF730FBB4F804C02368BCF1000F36D061
:1011B00000204FF0010B4FF0030A4FF00F0900F031
:1011C00007020BFA00FE45000224C7081CEA0E0FB6
:1011D0004FEA82020AFA05F603EB870700F10100E5
:1011E00009FA02F804FA05F501FA02F214D09C6833
:1011F00034439C605C6824EA0E045C60DC6824EA8A
:101200000604DC603C6A24EA080414433C621A6861
:1012100022EA06022A431A603CFA00F2CFD1BDE866
:10122000F88F7047188B0A080000FEA70048704727
:101230002858002470B4204D06460468E36931EA5A
:10124000030323D0D5F800379B1AB3F1007F23683E
:101250001FD25807F2D5E3691B05EFD54FF40062A2
:101260002023002103202262226822F4D07222600F
:10127000A26822F00102A260C6F8803086F87C10D5
:10128000C6F88430C6F8883070BC7047002070BC47
:10129000704723F4D0732022002103202360A36829
:1012A00023F00103A360C6F8802086F87C10C6F8FE
:1012B000842070BC704700BF485400240128B5EE5C
:1012C000C00A10D0F1EE10FA0BDD9FED177ADFEDBA
:1012D000177AE0EE077AFCEEE77A17EE903A98B2CA
:1012E000704700207047F1EE10FA0BDD9FED107A89
:1012F000DFED107AE0EE077AFCEEE77A17EE903A2F
:1013000098B27047EDD5F7EE006A9FED0B7ADFEDEE
:101310000B7A30EE260AE0EE077AFCEEE77A17EE5B
:10132000903A98B2704700BF00E0F9440000404294
:1013300000C079440000834400C079C400E08244C6
:10134000F8B5474E96F8044704EB8403A50006EB76
:10135000830393F80837032B77D8DFE803F0492A93
:101360001F02254406EB8505D5F80C37002B6ED1FE
:1013700096F85827944268D0013404F003018A4259
:1013800086F8041761D001EB81040222184606EBAF
:101390008404C4F80C3784F80827F8BD2B1906EB31
:1013A0008303D3F80C2772B1013A0020C3F80C274D
:1013B000F8BD2B1906EB8303D3F80C27002AF3D1D1
:1013C000022283F80827254406EB850595F8143793
:1013D000013BDBB285F81437F3B1224B0120D3F87F
:1013E000B82002F2E733B3FBF2F3C5F80C37F8BDCF
:1013F0004AF098FF48B31B4A42F20F732C44012174
:10140000D2F8B82006EB8404134484F80817B3FB21
:10141000F2F3C4F80C37F8BD124B601C0327D5F863
:101420001017D3F8B820384096F85847531E85F85F
:101430000877001B0B4418BF01209A42B3FBF2F15E
:1014400088BF0020C5F80C1730B90120F8BD013B5A
:101450000020C5F80C37F8BD0139C5F80C17F8BDE8
:10146000485400240000002438B590F83C30012B8B
:1014700000F08F80012304460D4680F83C30142A8A
:101480001DD8DFE802F0201C1C1C341C1C1C491C4D
:101490001C1C5D1C1C1C721C1C1C0B0000680BF02F
:1014A000FFFD23682869596D41F400615965596D44
:1014B00021F4806159655A6D42EA00225A65002084
:1014C00084F83C0038BD00680BF00CFF23682869E5
:1014D000996941F008019961996921F004019961C4
:1014E0009A69024300209A6184F83C00EAE70068A8
:1014F0000BF0B4FE23682869996941F40061996191
:10150000996921F4806199619A6942EA0022002078
:101510009A6184F83C00D5E700680BF05DFE236813
:101520002869D96941F00801D961D96921F004011C
:10153000D961DA6902430020DA6184F83C00C1E72E
:1015400000680BF015FE23682869D96941F4006131
:10155000D961D96921F48061D961DA6942EA00224E
:101560000020DA6184F83C00ACE700680BF0CCFDA9
:1015700023682869596D41F008015965596D21F0BA
:10158000040159655A6D024300205A6584F83C00F5
:1015900098E7022038BD00BF2DE9F04FDFF8E0B139
:1015A0008DB06C2200210BF25C7067F0CDF80BF56A
:1015B000F9604FF43172664966F064F99BF88C3A31
:1015C0003BB19BF88D2A9BF88E3A8BF85C278BF801
:1015D0005D379BF88F3A1BB1BBF8903AABF8683790
:1015E0009BF8923A3BB19BF8932A9BF8943A8BF87C
:1015F00074278BF875379BF8953A1BB1BBF8963A70
:10160000ABF880379BF8983A3BB19BF8992A9BF846
:101610009A3A8BF88C278BF88D379BF89B3A1BB145
:10162000BBF89C3AABF898374A4B00254A4A1B88CE
:1016300012881B09494C4A49C3EB12102288CBF887
:10164000AC3A1309474C484F484ECBF8A83A91FBA7
:10165000F0F1CBF8B01A0DE0072D00F0E981082D6C
:1016600000F0ED812078002840F0A78101350C348E
:10167000092D2AD0062DEFD102214FF4802CB84637
:101680000A46EC234FF0070E6170012103FB02B301
:101690002078C4F80480D3F8B02884F80AE042EA3D
:1016A0000C026172C3F8B0280028DFD046F07AFA45
:1016B000EB1DDBB210B100228371C2710135032131
:1016C00042F04EFA0C34092DD4D1294C0025DFF814
:1016D000B490DFF8B480274FDFF8B0A0264E54F85E
:1016E000083C002B00F00581D4F8E020002A00F02F
:1016F0000081EC22236002FB05B2D2F8241841F0ED
:101700000201C2F8241899689A6801F0040102F0F5
:1017100008020A43DA6845D0920105D5A18A40F251
:101720000112914200F0FB829A68520700F1EC82AC
:101730009A68120708D59A68910705D499680F4AE4
:101740000A4042F020029A600C21DBF8000725E0F5
:101750007C8C0A0820E8F11F40E8F11F60E8F11FC7
:1017600080380100A45B0024000084CB188B0A0899
:10177000185C0024200882E000210240C0FFFF7FA7
:10178000485400241CF800FC300882E0E03000FEE1
:10179000DBF80027121A052A00F2DB829A680A4257
:1017A000F6D1DA6842F400122046DA6015F032FD14
:1017B000002800F08382236840F2FF7CAA490022BF
:1017C000D3F804E00EEA0101DFF8B8E25960C3F88B
:1017D00000C09968DFF8B0C221F0A0419960996813
:1017E00041F000519960D96801F08021D960D96831
:1017F00041F00041D960196901EA0901196159698B
:1018000001F040415961996901F078419961196A83
:1018100001F07C411962596A01F07C415962D3F8A8
:10182000B01001F07C41C3F8B010D3F8B41001F04F
:101830007C41C3F8B410D3F8B81001F07C41C3F870
:10184000B810D3F8BC1001F07C41C3F8BC10196B80
:1018500001EA08011963596B39405963996B3940A2
:101860009963D96B01EA0E0E8049C3F83CE08B42C4
:10187000D3F860E01A66D3F864E05A66D3F868E0FB
:101880009A66D3F86CE0DA66D3F8A02002EA0C027C
:10189000C3F8A020D3F8A42002EA0C02C3F8A420C5
:1018A000D3F8C02002EA0C02C3F8C020D3F8C42049
:1018B00002F0F822C3F8C42000F09081B34200F097
:1018C0008D816B4B9B68DB0704D46A4B9A6802EAF4
:1018D0000A029A60EC22002302FB05B2C2F8283803
:1018E000C4E91733C2F8243884F85030002840F097
:1018F00074810135EC34032D7FF4F1AEDFF8809173
:101900004FF0000A4D46D046CDF81490D5F8E83097
:10191000002B40F06E8108F10108EC35B8F1030F9F
:10192000F4D10026DDF81490DFF860813546524F7F
:10193000DFF85CA1D9F8E830002B00F04581D9F838
:1019400008404A4A944200F05281444500F04F81D9
:1019500048488268A16849072ED499F8581001298F
:101960002AD002F01F020121092A89F8581000F23A
:10197000C48140F22121D140C90740F1BE81A16854
:1019800011F0010140F09E80D4F808E0DFF804C1B6
:101990001EEA0C0F5AD0EC2303FB05B5D5F824380A
:1019A00085F8201843F01003C5F82438D5F82838F6
:1019B00043F00103C5F82838FEE7304A002301331D
:1019C0001E2B3FF453AE12F80C1F8842F7D194F946
:1019D00001104A1E41B103EB430106EB810191F86E
:1019E00029141141C90716D403EB430124480022EE
:1019F00006EB8101D0F800C0EC30BCF1000F06D03E
:101A000091F829C44CFA02FC1CF0010F03D10132F9
:101A1000032AEFD12AE60C204FF0010C51B200FB53
:101A2000036393F83004D3F82C840CFA00FC28E606
:101A300002214FF4002CDFF860800A4621E60221E3
:101A40004FF4003CDFF854800A461AE6A16839409A
:101A500041F00101A160DBF800C78168C9062ED002
:101A600044452CD12EE000BF00F8FFFF00200240CB
:101A70000060025800630258C0FFFF7F408F0A08D1
:101A8000105C002420F8FFFF0000F0FF002102405E
:101A9000002302403F0000800000B8CF000052C782
:101AA000A168C80704D4A168394041F00101A160D0
:101AB000DBF80017A1EB0C01022900F25B8421681E
:101AC000C907EDD5EC20AD49444500FB05B0D0F881
:101AD00024C80CEA010141F48071C0F8241800D137
:101AE00042B9EC2202FB05B2D2F8241821F480118D
:101AF000C2F82418EC2202FB05B2D2F8241811F423
:101B0000805140F02283C2F828184FEA530ED9F8CA
:101B1000540099089A4A0EF0773E01F03331C263BF
:101B2000DA088E44974902F01132A3EB0E0E0164DD
:101B3000954B1C21AEEB020EC364FF2321600EEB1C
:101B40001E1E626800210EF00F3E42F0100289F85E
:101B5000581004F140016260E268BEFBF3F322F02A
:101B6000030CD9F83420C3EB03234CEA0202DFF85C
:101B700040C2AEEB0303E2600CEB460214F086FEBB
:101B8000D9F8082093683B4043F004039360002891
:101B900040F0A483D9F8E8307C4A59089C0801F049
:101BA0007731D80804F0333400F0113021445B1A47
:101BB0001B1A03EB131303F00F33A2FB0312D2091A
:101BC000C2EB02229B1A1E44013509F1EC09032DD8
:101BD0007FF4B0AE0DB0BDE8F08FFEE76C4B9B68B4
:101BE000B2681343DA073FF575AE6A4B6EE65046AE
:101BF000AFE6A8880426FEF705FED5F8E830FF22F8
:101C0000AE6159089C0801F07731D80804F03334EC
:101C100000F01130214403245B1AEC211B1A2868C0
:101C200001FB08B103EB1313A8604FF4403003F03D
:101C30000F33E8600820B3FBF2F2C2EB0222286106
:101C400001209B1A002268612B624FF48053687751
:101C5000A8622A7785F8242085F840200692C5E9F5
:101C60000B22C5E90D43D1F82438002B00F009827E
:101C7000AF68BB68980003D5BA68474B1340BB6098
:101C8000BB6813F0805F454B1FD00193BB68D90040
:101C900040F1E7810024BB685A0740F18B80EC23B8
:101CA00003FB08B3D3F82438EC2303FB08B3D3F8C1
:101CB000242842F01002C3F82428FEE7EC23012276
:101CC00003FB05B3C3F8242875E5B9681A460193E8
:101CD000334BD2F8B4200B403249B2FBF1F243F05F
:101CE0008053BB600692069B002BCFD0069B013B26
:101CF0000693069B002BF9D1C8E7EC22002302FBD8
:101D000005B585F8203857E69A6891073FF510AD7C
:101D10009968254A0A4042F010029A6008E51A685C
:101D2000500606D4214A01E0013A12D0196849064A
:101D3000FAD540221A609A68500708D59A68900729
:101D400005D49968184A0A4042F010029A600421AA
:101D5000FBE4EC22012002FB05B2D2F8241841F08A
:101D60001001C2F82418D2F828180143C2F8281824
:101D7000DA6842F40012DA601DE500BFFEF0FFFFF2
:101D8000411305083D13050829130508818080804B
:101D90000020024000230240C0FFFF5F000000243B
:101DA000C0FFFF6F400D0300C0FFFF7F00DC0C0091
:101DB000A05D0124EC2303FB08B3D3F82428D60646
:101DC0003FF572AFD3F8242822F4817242F0020268
:101DD000C3F82428BB68DB0713D4AC4B9F4200F048
:101DE000BF8203F580739F4200F0BA82A84B9B68C4
:101DF000D80706D4A7498B68EA6823F47C131343F9
:101E00008B60A54A41F203031268B3EB124F2A69B3
:101E1000C0F0A281AB6B697F134395F8242043EA9D
:101E2000413343EA0243012A03D1AA6A013A43EA51
:101E30004243EA6A22B102F47872296B0A431343DF
:101E4000F968964A0A401343FB60B868BB6800F023
:101E5000040003F00803184300F02C81AB686A69A2
:101E6000012A00F0FD811A6B22F00F021A63EC27A1
:101E700007FB08B7D7F8243807F6240623F0030336
:101E800043F00103C7F82438002C40F0908195F806
:101E900058300794012B00F0828105F108031846A1
:101EA0000493012385F8583015F0B4F9002840F068
:101EB0007781D7F824187A4A7A4B0A407A4942F057
:101EC0000202C7F82428AA689068034043F0004340
:101ED00093609368002BC0F24D81EC220020734F79
:101EE00002FB08B201460290D2F8243823F0030323
:101EF00043F00103C2F8243885F8580006E0029B3D
:101F00000C370133092B029300F062817B7A002B9E
:101F1000F5D097F901304345F1D1654B00224E1CB5
:101F200087F808A003EB810095F858300AF1010109
:101F30000892012BD0F890457A68039100F0478110
:101F4000AB680120996885F85800490700F1308195
:101F5000C2F3130EBEF1000F40F08A81C2F3846C0D
:101F6000910E00FA0CF0D3F81CA04FEA941903F17B
:101F7000300C04F01F044AEA000A09F00C004FF08C
:101F80001F09C3F81CA001EA090150F80CA009FAC6
:101F900004F9A1402AEA090949EA010140F80C10B4
:101FA0009868996800F0040001F00801014345D1E8
:101FB000D10DC2F3045A03F114044FF0070901F0E4
:101FC00004014FF0060C09FA0AF908590CFA0AFC48
:101FD000DFF8C4A020EA090040EA0C000851DAF852
:101FE000001001F07041B1F1805FD96800D0D9686C
:101FF000196E900601F0F841B1EB826F03D1196EB2
:1020000021F000411966596E01F0F841884203D170
:10201000596E21F000415966996E01F0F8418842ED
:1020200003D1996E21F000419966D96E01F0F84113
:10203000884203D1D96E21F00041D9669968C8075A
:1020400008D4D3F8C010002A21EA0E01C3F8C0104A
:10205000C0F2188100233146DDF80CA085F8583015
:102060004DE7EC23012403FB08B3D3F8242842F006
:102070001002C3F82428D3F828282243C3F82828BC
:1020800009E6C1F8283885F85830F1E5002002400B
:1020900000600258006302580010005C03C0F0FFAB
:1020A000FDEEFFFFC0FFFE3F00F8C325A45B002448
:1020B000188B0A08FB68BD4A297F1A406B6B42EAFD
:1020C000813295F8401013430129FB6000F08881AC
:1020D0003B6923F001033B613A69EB6B22F07042EC
:1020E000B34913438F423B6100F05881B14B9F428B
:1020F00000F05481B04B9B6813F4403F14BF0123A0
:102100000023002B00F0A0810CF010FBEB68B3F56E
:10211000003F00F09581B3F5403F00F08181B3F5B9
:10212000803F00F08D81A54A41F203031268B3EBB2
:10213000124FC0F06C81A24B984240F26281AB68B2
:102140009A6842F480729A6089E6D2F8281821F0E1
:102150000601C2F82818D8E4102A7FF45BAE95F87F
:102160002420687F1104AB6B41EA40310B4343F0FC
:102170001C0358E6079B01330793079B8B42FFF430
:10218000A8AEEC23002103FB08B3D3F8242883F87E
:10219000201822F0120242F01002C3F82428FEE7B1
:1021A000336887F8204843F010033360F7E784E58D
:1021B000EC2303FB08B3D3F8242842F02002C3F831
:1021C0002428EC23002203FB08B383F82028FEE731
:1021D0007C4B5FFA88F602204344314693F919207C
:1021E00042F0DAFB47680446384642F0C5FB0199E5
:1021F0004FF0240C431E0CFB031393F8D810002956
:102200007FF4E8AC01364FF0060C83F8D96083F810
:10221000D8C000283FF4DEACA3684FF480644FF4CC
:102220008072EF662B674FF400664FF480334FF4F3
:102230000057EC6705F16C046967A967C5E92223BB
:10224000C5E920675FF0E8FC204614F0C9FC204691
:1022500014F0A8FD049B6C65C5F8A430FFF75BBBC8
:10226000196B2A6A21F00F01013A0A431A63FEE54D
:1022700092FAA2FCBCFA8CFC910E0CF01F0C00FA36
:102280000CF070E64A498B422AD001F580718B42EE
:1022900026D04D4948488468896804F0E07CC943E9
:1022A00001F00101002983D048498A4239D04849C8
:1022B0008A4226D047498A427FF4CCAE64023FF579
:1022C000C9AE414A93427FF4C5AE836823F0E07300
:1022D00043EA0C0343F480038360BBE6FFF76CBB67
:1022E0003D498C680846A1F5407104F0E07CD1F8C6
:1022F0000890D1F808E149EA0E01C94301F0010153
:10230000D0E7E2013FF5A6AE2F4A93427FF4A2AE9A
:10231000836823F0E07343EA0C0343F08073836027
:1023200098E621023FF596AE274A93427FF492AE9B
:10233000019B8268D3F8B430284922F0E072B3FBE5
:10234000F1F342EA0C0C5A004CF40003836008924B
:1023500002E0089B013B0893089B002BF9D179E62A
:10236000134B144A9B6892681343DE073FF549AD4F
:10237000194940E5EC23002203FB05B5D5F82438C4
:1023800085F8202843F01003C5F82438D5F82838FC
:1023900043F00103C5F82838FFF70EBB0E4B9B68CE
:1023A00013F4403F14BF01230023AAE6FCBFFFFF44
:1023B0000020024000210240006302580010005C2F
:1023C000002D3101D45E002400600258000084CB4F
:1023D000000052C70000B8CF00230240400D0300A8
:1023E000D5E91123E96C013A2E6D0B43396943EAB3
:1023F00002434F4A33430A40134343F001033B6116
:102400006AE6AB689A6822F480729A6027E5494BC5
:10241000984207D8AB689A6822F440729A601EE529
:10242000800880E6444B98423FD9444B9842AB68C1
:102430009A6824D822F4407242F400729A600EE541
:102440001B0CB0FBF3F06EE63D4A936D03F4403392
:10245000B3F5803F5BD0B3F5003F4BD0002B5FD08E
:10246000EB68B3F5101F43D00DD8B3F5E01F3DD096
:1024700023D9B3F5001F7FF456AE400953E642F46A
:1024800040729A60EBE4B3F5201F4ED0B3F5301FD5
:102490007FF449AE2B4A41F203031268B3EB124FAB
:1024A000AFD2244BB3EB102FB4D2AB689A6822F4AE
:1024B000407242F480729A60D1E4B3F5801F07D075
:1024C0000BD9B3F5A01F03D0B3F5C01F7FF42BAE1B
:1024D0009B0C5B00B0FBF3F025E6B3F5002FF7D0C3
:1024E00023F40022B2F5802FF2D01CE600091AE690
:1024F000800918E6D36C13F040530FD0B3F1805F1E
:102500000AD0114AB3F1005F08BF1046A8E709A836
:102510000BF0CCF90B98A3E70C48A1E70C489FE718
:1025200009A80BF06FFA09989AE7C009FBE500BF0C
:102530001EF800FC21BCBE0041787D0181F0FA024A
:10254000004402580010005C00127A0000093D00AF
:102550000090D0032DE9F041D0F800E00C46DFF800
:10256000588084B0DEF804501746DFF850C0194692
:1025700005EA0805DDF82880064603932C43424609
:1025800044EA0C0CCEF804C00EF088F878B9316833
:102590000246039B30468F628021CDF800800EF00A
:1025A000ADF8003818BF012004B0BDE8F08101206B
:1025B00004B0BDE8F08100BF009800FC002001815C
:1025C000F8B5134F04460D460AE09B69DB0602D5B9
:1025D0000EF024F8D0B9D7F800375B1B0A2B08D8C7
:1025E00023682A460A2120469E69B606EDD50020BA
:1025F000F8BD636C2021002201200B4384F84020A9
:10260000636484F8411084F84220F8BD0120F8BDCD
:10261000485400242DE9F041D0F800E00C46DFF8E2
:10262000588084B0DEF804501746DFF850C01946D1
:1026300005EA0805DDF82880064603932C43424648
:1026400044EA0C0CCEF804C00EF028F878B93168D2
:102650000246039B30468F624021CDF800800EF089
:102660004DF8003818BF012004B0BDE8F08101200A
:1026700004B0BDE8F08100BF009800FC002001809C
:10268000F8B5364C05460821D4F8B40AD4F80067EA
:102690000AF0BCFA00B1F8BDD4F8F81AD4F8B40ABC
:1026A00009040AF053FA0028F5D1D4F8B43A4FF0EF
:1026B000FF31082259629A6201301F28FCD9DA6A78
:1026C0000020274941F2331722F0FF0242F0330283
:1026D000DA6298601846DA68114041F288320F4396
:1026E0003321DF600AF098F90028D4D1D4F8B42A55
:1026F0008446074640F22A5104E0D4F800379B1B79
:1027000001331ED0536B0B42536B09D11B03F4D41E
:102710000028F2D1D2F880700120D2F880C0ECE716
:10272000190714D4536B9B070ED4506B10F0200084
:1027300010D19CFA8CF33FBA0A499163C5E900377E
:10274000F8BD4FF00040F8BD02209063F8BD0820AE
:102750009063F8BD20209063F8BD00BF485400246A
:10276000C0E0FEFF3A0F001870B5114C41F20D1396
:10277000104D41F28832D4F8F81AD4F8B40A0E0495
:102780000D218660C66835402B43C3600AF044F9CA
:1027900038B1D4F8E82A034600201343C4F8E83AD5
:1027A00070BDD4F8B43A5869C0F3432070BD00BF7F
:1027B00048540024C0E0FEFFF8B500286FD0474C15
:1027C00094F8E43A012BDEB255D18B18D4F8045BAF
:1027D0000027AB42C4F8E87A50D8D4F8EC3A4FF06E
:1027E000030ED4F8B45A4FEA422C012B84F8E4EAE1
:1027F0004FF00003EF6218BF49024FF0FF37C4F8F3
:10280000DCCAC4F8D80A6F62C5F828C001331F2B90
:10281000FCD9EB6A012723F0FF03BA4243F092038D
:10282000EB62EB6843F04003EB60A8652F6540D98D
:1028300082232B4F2846C4F8E03A41F21213A960D4
:102840001221EA68174041F288323B43EB600AF0FC
:10285000E3F8D8B1D4F8B41A0122224D00238D63D5
:10286000D4F8E81A0843C4F8E80A304684F8E42AA1
:10287000C4F8E03AF8BD02263046F8BDD4F8E83A8C
:10288000304643F00073C4F8E83AF8BDD4F8B42AEF
:102890000646D36B304643F49573D363F8BD0F4AB5
:1028A0000126D2F8E83A304643F00063C2F8E83A2D
:1028B000F8BD81230A4F2846C4F8E03A41F21113CB
:1028C000A9601121EA68174041F288323B43EB606E
:1028D0000AF0A2F80028D9D0BCE700BF4854002471
:1028E000C0E0FEFFFF0FE01FF8B50121514D12F0CF
:1028F0001F04C5F8541B6FD14FEA432CBFF34F8F11
:10290000BCF1000F08D002EB0C0711464A4EC6F886
:1029100068122031B942FAD1BFF34F8FBFF36F8FE6
:10292000002A7ED095F8E41A012953D103EB000E5A
:10293000D5F8046B00270146B645C5F8E87A68D893
:10294000D5F8EC6A4FF0030ED5F8B40A012E4FF01B
:10295000FF3685F8E4EA18BF4902C762C5F8D02AF5
:102960004662C5F8D4CAC0F828C001341F2CFCD96F
:10297000C46A012624F0FF04B34244F09004C46208
:10298000C46844F04004C4608265066526D9A0226C
:102990002A4C41F21913C5F8E02A41F288328160CD
:1029A000C1680C4019212343C3600AF035F803467F
:1029B0003BB3D5F8B40A0121214C002284632A20BC
:1029C000D5F8E84A2343C5F8E83A85F8E41AC5F88B
:1029D000E02AF8BD2A20F8BD0920F8BD9022174C46
:1029E00041F21813C5F8E02A41F288328160C168CB
:1029F0000C4018212343C3600AF00EF80346002B55
:102A0000D7D1D5F8B42A1846D36B43F48D73D3636A
:102A1000F8BDD5F8E83A2A2043F00073C5F8E83A43
:102A2000F8BDD5F8E83A2A2043F00063C5F8E83A43
:102A3000F8BD00BF4854002400ED00E0C0E0FEFFF8
:102A4000FF0FE01F134B30B4D3F8600B0025D3F811
:102A5000682BD3F8644B20F01F01C3F8505B04FBD4
:102A60000202521ABFF34F8FAA420DDD013A01F163
:102A70002003094822F01F021A449342C0F85C1256
:102A8000194603F12003F8D1BFF34F8FBFF36F8FC7
:102A900030BC70474854002400ED00E00B4BD3F8E5
:102AA000502B3AB1D3F8582B00210132C3F8501BF8
:102AB000C3F8582BD3F8542B3AB1D3F85C2B002130
:102AC0000132C3F8541BC3F85C2B704748540024F0
:102AD00070B5214DD5F8EC3593F82620DAB11B6995
:102AE0009847E0B1D5F8EC3593F824208AB105F584
:102AF000BE6600241A19E0B29B69013492F82C10CA
:102B0000B6EC010A9847D5F8EC3593F824209442A6
:102B1000F0DB5B69984795F80036332B00D070BD29
:102B200095F80436002BFAD0D5F8EC3593F824301C
:102B3000042B1E46A8BF0426002BF0D00024074D0E
:102B40002346013418465DF011FC45F8040BE3B24E
:102B50009E42F6D870BD00BFF8000020000700209C
:102B60002D4C00252D49002208B504F5BE63CD602B
:102B70001A605A609A60DA60FFF7AAFF322041F0CB
:102B800087FCD4F8EC35DB689847D4F8EC3540F294
:102B9000DC5083F826509D6283F8255041F0F2F90D
:102BA000D4F8283613B11D60C4F82856D4F830364E
:102BB0001BB100221A60C4F83026D4F838361BB195
:102BC00000221A60C4F83826D4F840361BB100221F
:102BD0001A60C4F84026D4F848361BB100221A60A7
:102BE000C4F84826D4F850361BB100221A60C4F845
:102BF0005026D4F858361BB100221A60C4F8582663
:102C0000D4F860361BB100221A60C4F86026642034
:102C100041F03EFC61F022FEF800002050400058D8
:102C20002DE9F84FCB4C054694F86C1BD4F8740B87
:102C3000C1F3400145F036FA94F86C1BD4F8700BE0
:102C4000C94301F0010145F02DFA002D00F0E780A5
:102C500005F1FF39C04E4FF01008C04F5FFA89F9F7
:102C6000BF4DD4F8743B33B11A689B8851690B424D
:102C700018BF1B049361D4F8703B33B11A689B886A
:102C800051690B4218BF1B049361B4F87C3B002BC5
:102C900040F0578194F87E1BD4F8800B45F002FA7F
:102CA000FA204FF47A714FF0010C7B68C3F30803EC
:102CB000002B40F01981EFF31183002B40F01481B9
:102CC000D6F8042FD5F808E0D6F8043F9A42F7D199
:102CD000D4F8A43B9E45F3D8D4F8A0AB01FB0AF38B
:102CE000A3EB0E03B3FBFAF301FB02327B68C3F3E1
:102CF0000803002B40F0B680EFF31183002B40F067
:102D0000B180D6F8043FD5F808B0D6F804EF734583
:102D1000F7D1D4F8A4EBF345F3D8D4F8A0AB01FB7A
:102D20000AFEAEEB0B0EBEFBFAFE01FB03E39B1AA1
:102D3000B3F57A7FDAD30138B7D1D4F8743B33B125
:102D40001A689B8851690B4218BF1B049361D4F821
:102D5000703B33B11A689B8851690B4218BF1B0442
:102D60009361B4F87C3B002B40F0DF8094F87E1B2D
:102D7000D4F8800B81F0010145F094F9FA204FF46A
:102D80007A714FF0010C7B68C3F30803002B40F00D
:102D90008A80EFF31183002B40F08580D6F8042F52
:102DA000D5F808E0D6F8043F9A42F7D1D4F8A43B0E
:102DB0009E45F3D8D4F8A0AB01FB0AF3A3EB0E03B6
:102DC000B3FBFAF301FB02327B68C3F3080343BB96
:102DD000EFF311832BBBD6F8043FD5F808B0D6F833
:102DE00004EF7345F7D1D4F8A4EBF345F3D8D4F846
:102DF000A0AB01FB0AFEAEEB0B0EBEFBFAFE01FB25
:102E000003E39B1AB3F57A7FDED30138BBD109F116
:102E1000FF395FFA89F9B9F1FF0F7FF422AFBDE8FE
:102E2000F88FEFF3118A88F31288D5F808B02B6871
:102E3000DB0303D5C4F89CCBD5F808B0D6F8043F23
:102E40005FFA8AFAD4F89CEB8AF31188D4F8A0AB25
:102E5000734401FB0AFEAEEB0B0EBEFBFAFE01FB58
:102E600003E3CEE7EFF3118A88F31288D5F808B0B0
:102E70002B68DB0303D5C4F89CCBD5F808B0D6F893
:102E8000043F5FFA8AFAD4F89CEB8AF31188D4F8ED
:102E9000A0AB734401FB0AFEAEEB0B0EBEFBFAFEC9
:102EA00001FB03E343E7EFF3118E88F31288D5F8B3
:102EB00008A02B68DA0303D5C4F89CCBD5F808A08A
:102EC000D6F8043F5FFA8EFED4F89C2B8EF311885F
:102ED000D4F8A0EB1A4401FB0EF3A3EB0A03B3FBF7
:102EE000FEF301FB02326FE7EFF3118E88F31288D5
:102EF000D5F808A02B68DA0303D5C4F89CCBD5F825
:102F000008A0D6F8043F5FFA8EFED4F89C2B8EF30F
:102F10001188D4F8A0EB1A4401FB0EF3A3EB0A03CB
:102F2000B3FBFEF301FB0232E0E6D4F8983B002B42
:102F30003FF424AF0023D4F8842B136084F8953B2E
:102F40001CE7D4F8983B002B3FF4AAAE41F002FDF9
:102F5000A6E600BF485400245832002400ED00E0EB
:102F600010E000E02DE9F04FCA4C83B00523CA4EB3
:102F700094F86C1B4FF01009D4F8740BC1F34001A6
:102F8000019345F08FF894F86C1BD4F8700BC9438B
:102F9000DFF80C83C14D01F0010145F083F8D4F84E
:102FA000743B33B11A689B8851690B4218BF1B04EC
:102FB0009361D4F8703B33B11A689B8851690B4216
:102FC00018BF1B049361B4F87C3B002B40F059817F
:102FD00094F87E1BD4F8800B45F064F832204FF44F
:102FE0007A710127D8F80430C3F30803002B40F0AE
:102FF0001B81EFF31183002B40F01681D6F8042FCC
:10300000D5F808E0D6F8043F9A42F7D1D4F8A43BAB
:103010009E45F3D8D4F8A0AB01FB0AF3A3EB0E0353
:10302000B3FBFAF301FB0232D8F80430C3F3080310
:10303000002B40F0B780EFF31183002B40F0B280FB
:10304000D6F8043FD5F808B0D6F804EF7345F7D1A9
:10305000D4F8A4EBF345F3D8D4F8A0AB01FB0AFEF7
:10306000AEEB0B0EBEFBFAFE01FB03E39B1AB3F5BE
:103070007A7FD9D30138B5D1D4F8743B33B11A680B
:103080009B8851690B4218BF1B049361D4F8703BB5
:1030900033B11A689B8851690B4218BF1B049361B6
:1030A000B4F87C3B002B40F0E08094F87E1BD4F811
:1030B000800B81F0010144F0F5FF32204FF47A716A
:1030C0000127D8F80430C3F30803002B40F08B80AD
:1030D000EFF31183002B40F08680D6F8042FD5F84B
:1030E00008E0D6F8043F9A42F7D1D4F8A43B9E45B5
:1030F000F3D8D4F8A0AB01FB0AF3A3EB0E03B3FBA8
:10310000FAF301FB0232D8F80430C3F3080343BBDF
:10311000EFF311832BBBD6F8043FD5F808B0D6F8EF
:1031200004EF7345F7D1D4F8A4EBF345F3D8D4F802
:10313000A0AB01FB0AFEAEEB0B0EBEFBFAFE01FBE1
:1031400003E39B1AB3F57A7FDDD30138B9D1019B34
:103150005F1E17F0FF0301937FF421AF03B0BDE8BA
:10316000F08FEFF3118A89F31288D5F808B02B6835
:10317000DB0303D5C4F89C7BD5F808B0D6F8043F30
:103180005FFA8AFAD4F89CEB8AF31188D4F8A0ABE2
:10319000734401FB0AFEAEEB0B0EBEFBFAFE01FB15
:1031A00003E3CEE7EFF3118A89F31288D5F808B06C
:1031B0002B68DB0303D5C4F89C7BD5F808B0D6F8A0
:1031C000043F5FFA8AFAD4F89CEB8AF31188D4F8AA
:1031D000A0AB734401FB0AFEAEEB0B0EBEFBFAFE86
:1031E00001FB03E342E7EFF3118E89F31288D5F870
:1031F00008A02B68DA0303D5C4F89C7BD5F808A097
:10320000D6F8043F5FFA8EFED4F89C2B8EF311881B
:10321000D4F8A0EB1A4401FB0EF3A3EB0A03B3FBB3
:10322000FEF301FB02326EE7EFF3118E89F3128891
:10323000D5F808A02B68DA0303D5C4F89C7BD5F831
:1032400008A0D6F8043F5FFA8EFED4F89C2B8EF3CC
:103250001188D4F8A0EB1A4401FB0EF3A3EB0A0388
:10326000B3FBFEF301FB0232DEE6D4F8983B002B01
:103270003FF423AF0023D4F8842B136084F8953BEC
:103280001BE7D4F8983B002B3FF4A8AE41F062FB5B
:10329000A4E600BF485400245832002410E000E0A7
:1032A00000ED00E02DE9F043384D95B00446D5F827
:1032B000A86B3378012B07D0022B01D1336A7BB185
:1032C000002015B0BDE8F08396F904001346009184
:1032D000224695F8AC1B5FF081FA15B0BDE8F0838B
:1032E000012460F07F000DF10F074FF000084FF050
:1032F000000905938DF80F008DF81C300D93109385
:103300001293049706948DF830408DF84440CDE92F
:103310000833CDE90A12CDE90E89EFF311801023AD
:1033200083F31288D5F8A83B1B6A13B304AC069B41
:1033300022461BB1D3691432002BFBD1336A13B37D
:10334000996839B993420AD0196829B15B689968BC
:103350000029F7D01433F3E70D4AC3E90024C0B2C3
:1033600080F31188D5F8A82B136A002BFCD101201B
:10337000A7E704ABC0B2336280F3118805F6A8302A
:1033800060F04CF8EEE7024A1A60FFDE4854002471
:10339000F05F0024002800F0FF802DE9F04F8488C2
:1033A00085B0B4FA84F3202BC3F11F0200F099809A
:1033B0007A4E4FF00045DFF80C82164435FA03F3DD
:1033C00008EB820296F8D065C2F8741C019605D00D
:1033D000734A116821EA0301116093600368002CAD
:1033E00079D00021DFF8E0E16D4F00944FF0010942
:1033F000009809FA01F2024069D04FF0030A01FA7D
:1034000009FCDD684FF00F0B0AFA0CFC01EA0A0018
:1034100021F00306634C25EA0C05800006F1B04656
:10342000A342DD600BFA00F5D3F800B006F5806624
:103430002BEA0C0CC3F800C0DEF8F4C04CF0020C10
:10344000CEF8F4C0DEF8F4C00CF0020CCDF80CC0DD
:10345000DDF80CC0D6F808C02CEA050526D004F526
:103460008064A34240D0504CA3426DD04F4CA34245
:1034700076D04F4CA3426DD04E4CA34274D0DFF8AF
:103480004CC163457CD0DFF848C163457ED0DFF88E
:1034900044C163456ED0DFF840C163450CBF4FF0B7
:1034A000090C4FF00A0C0CFA00F00543B5604FF020
:1034B000B0403D6815433D607D6825EA02057D60AA
:1034C000056815430560456825EA0202426001313E
:1034D000009ACA408AD1019B984498F8B43CF02BDA
:1034E00006D805B0BDE8F08F09FA00F00543DDE726
:1034F000F021314A314B012088F8B41CD26801997F
:10350000C2F302222E4D595CC2F10704131D01F0D3
:103510001F06042C00FA06F028BF0424062B4FF0E7
:10352000FF338CBF033A0022A3406C184909DB43E8
:1035300003F0030393401B01DBB284F8003345F82A
:10354000210005B0BDE8F08F4FF0020C0CFA00F03E
:103550000543ABE74FF0040C0CFA00F00543A5E778
:103560000AFA00F00543A1E74FF0050C0CFA00F051
:1035700005439BE74FF0080C0CFA00F0054395E774
:103580004FF0060C0CFA00F005438FE74FF0070CE4
:103590000CFA00F0054389E7704700BF188B0A0852
:1035A000800000580000025800080258000C025821
:1035B000001002580014025800ED00E0F82C0B082F
:1035C00000E100E04854002400440258001802586A
:1035D000001C02580020025800240258034BD3F864
:1035E000142D136A002BFCD1704700BF48540024EF
:1035F000B0B10C49D1F8B03D102B03D1052100200A
:1036000040F078BB03EB43020A4482F8B40D20205B
:1036100082F8B50D0120034482F8B60DC1F8B03D23
:10362000704700BF4854002470B5344C82B0344B0E
:10363000D4F8802612695168994248D0A3F578439E
:10364000994254D003F58063994252D003F57843F0
:10365000994250D003F5E053994236D0294B994214
:1036600014BF4FF0FF3105210131274847F014FC0A
:10367000264BD4F8802600262548D2F8A81003F15E
:103680001002C4F81037C4F81427C4F88C1648F098
:1036900055F9034601A91C48A4F88836ADF8046022
:1036A000FCF770FE052040F0F3FE01A91648ADF8C6
:1036B0000460FCF767FE054620B19DF805301E2B1F
:1036C00007D03546284602B070BD0421CCE7002162
:1036D000CAE710490120104A104B81F8E40D0A484E
:1036E000C4F86C26C4F8703648F036FBEAE70121CE
:1036F000BAE70221B8E70321B6E700BFF8000020CF
:1037000000300140001400587C07002020410124B3
:10371000809698004854002491D60908E1E70908EA
:1037200003681878012801D000207047074A6421F7
:1037300093F9043001FB032393F8412E202AF4D19E
:10374000D3F8003E9869C0F3C03070474854002455
:1037500010B50C4CD4F8A83B1B78022B10D1D4F830
:10376000B00B44F099FCD4F8B00B08B12323C3800C
:10377000012140F0F5F9044848F0E0F8A4F8AC0B5A
:1037800010BD00BF4854002480969800054BD3F824
:10379000A82B1278022A03D1D3F8B00B47F0ACB8AB
:1037A000704700BF4854002430B5044683B001235D
:1037B0000D460DF107020848214648F0DFFB9DF851
:1037C000072035EA020304D02A432146024848F084
:1037D000F9FC03B030BD00BFF05F002438B50546EA
:1037E0000A460C460648294648F0C4F945F08001CF
:1037F000034848F0B5F8231A5842584138BD00BF75
:10380000F05F00242DE9F043384D95B00446D5F81B
:10381000A86B3378022B11D0012B03D0002015B0F8
:10382000BDE8F08396F9040013460091224695F80E
:10383000AC1B5EF0D3FF15B0BDE8F083336A002BFC
:10384000ECD10DF10F074FF000084FF000098DF893
:103850000F00012005938DF81C300D9310931293E7
:10386000049706908DF830008DF84400CDE90833B8
:10387000CDE90A12CDE90E89EFF31180102383F30D
:103880001288D5F8A83B1B6A13B304AC069B2246EA
:103890001BB1D3691432002BFBD1336A13B399687F
:1038A00039B993420AD0196829B15B68996800292F
:1038B000F7D01433F3E70E4AC3E90024C0B280F313
:1038C0001188D5F8A82B136A002BFCD10120A6E79C
:1038D00004ABC0B2336280F3118805F6A8305FF004
:1038E0009DFDEEE7024A1A60FFDE00BF4854002447
:1038F000F05F00242DE9F047046882B02578022D9E
:1039000000F08580012D04D00024204602B0BDE8DF
:10391000F08794F904704A4E032F86F8785FD4BF7D
:1039200000240124B7F1FF3F08BF44F00104002C3C
:10393000EAD10A466421034601FB0761D1F8000E73
:103940000028E1D091F841CEBCF1200FDCD1806994
:1039500010F40048D8D191F8400E0128D4D04FF08F
:10396000400C38484FF0210993F804A0D6F800E73E
:1039700081F8419E81F842CE06F6787CC1F8448EEB
:10398000A1F82A5EC1F82C0EB1F82A3E2E489BB24F
:1039900081F8405EC1F824CEFF2BC1F8340E49D81F
:1039A000B1F82ACE4FF000791FFA8CFC64204FEA60
:1039B0004A0ACDF800E0192300FB07F723485146D7
:1039C000F5193844A5F828CEFEF7C4FD40BBD5F85C
:1039D000002E1F49536895F8286E0B401D4CD5F8F2
:1039E000341E43EA0A03A14243EA064343EA0903B9
:1039F000536085F8400E04D0174B994218BF4FF022
:103A0000F2081368012443EA080313607DE7236A80
:103A1000002B7FF479AF0122144648F0ABF874E72D
:103A2000B6F87A3F0022013385F8402E9BB2A6F803
:103A30007A3F6AE74FF0FF0C4FF08079B6E700BF9E
:103A4000485400240000FFFF390E05084862002496
:103A5000009C00FCC90B0508F50C050813B53B4C90
:103A60000023D4F8882F8DF80730137803F0FD0178
:103A7000012905D194F88C1F11B90C2184F88C1FF1
:103A8000022B1ED0032B2ED001220B21304855F0E3
:103A900095FD042040F0FCFC01230DF107020021FC
:103AA0002B4855F0ADFD00283AD09DF80730482B43
:103AB00036D1284BC4F87C3F274BC4F8803F02B076
:103AC00010BDD4F8900F44F0E7FAD4F8900F08B185
:103AD0003623C380012140F043F8204847F02EFFF1
:103AE000A4F88C0FD0E71E4B46F2A81150681222A2
:103AF000D3F8403319610023372180F8883055F01E
:103B000031FDD4F8883F0D222421586855F02AFD54
:103B1000D4F8883F30226A21586855F023FDB3E776
:103B2000D4F8883F1A78022A03D0032A07D000204D
:103B3000C5E7D4F8900F46F0DFFE0020BFE7102263
:103B40003721586855F00EFDF1E700BF48540024B6
:103B5000D06300245F960908E196090880969800D2
:103B60004065002430B54CF205028DB000230446B8
:103B70000321ADF8002001AD01228DF802300B9336
:103B80008DF814208DF82820CDF808D0CDE9063323
:103B9000CDE90833CDE9035148F0D8F8204602A911
:103BA00046F0D0FE204648F0D1F89DF806000DB052
:103BB00030BD00BF084800230246117806320229B2
:103BC00004D00133062BF8D10020704703EB4303E8
:103BD00000EB4300704700BF806B00242DE9F041EB
:103BE000614C82B02422002104F5C86064F0ACFD71
:103BF000002394F86976C4F86436002F3AD15B4EFE
:103C0000D6F86C3F53B39B6A43B3594898478368CF
:103C100023B3038800255748013B844606469BB2E0
:103C20003178063603291DD00135062DF8D1002242
:103C300001780630022900F090800132062AF7D17F
:103C4000D4F86416052909D002FB01C20131C4F879
:103C5000641602200021938010705180384602B013
:103C6000BDE8F081062303FB0545B5F84236013B6C
:103C70009BB2DCE704F5CE6394F86806C4F86C36B2
:103C800010B90027394EBBE743F08CFFC4F8780623
:103C900018B183790BB1422BF3D13946364847F03E
:103CA000FBF880460028ECD0D4F86C36304A98688F
:103CB000C3F8942008B12223C3800D212B4E3FF07E
:103CC0004FFFD4F86C360025986844F0E5F92B488E
:103CD00047F034FED4F86C36014601223220998038
:103CE000C6F88C3F86F8902F40F0D2FB04239F212A
:103CF000D4F86C060DEB0302019547F0E7FE9DF842
:103D000005509DF8043006F66C702D029DF80610E3
:103D100045EA03450D43294654F046FC08BB2846B6
:103D2000FCF788FBE8B99DF8065006F66C709DF824
:103D300005202D029DF8073045EA02451D4329461E
:103D400054F090FA68B92846FCF774FB074640B96E
:103D500094F8680646F0F0FD52E7062101FB02C226
:103D600077E747464CE700BF4065002458320024FF
:103D7000C4410024806B0024B06B0024404B4C00F5
:103D8000F0B500230E680DE0BCF1050F17D9BEF1A8
:103D9000050F18D80A2C16D103EB830316F8010B74
:103DA00004EB4303A0F13005A0F1610CA0F1410E3A
:103DB000A0F13704EFB2092FE6D82C46ECE7A0F1CA
:103DC00057040A2CE8D00E601360F0BD30B50346EE
:103DD00083B0084C00250DF10600C4F8DC3EADF8B8
:103DE0000650DB6A984703462846C4F8E43E03B011
:103DF00030BD00BF583200242DE9F04FBB4C0023EA
:103E000002220926BA4D04F6244094F8BD138BB063
:103E1000C4F8004F6660C4F804042560236363613E
:103E200023616362A261E260C4E90733C4E90A3333
:103E3000002900F086811E460321AD4B84F8BD1396
:103E4000DB6B13F48078AB6818BFD4F8108023F0D4
:103E5000010308BFC4F81080012AAB6040F0DD8088
:103E6000AA6BA44B22F48032616BAA630129EA6831
:103E700003EA0203EB60EB6823F44013EB6000F00D
:103E8000A681284608F036F90746B8F1010F17D089
:103E900007B3022384F8BD33974B93F80857012DDD
:103EA00000F0088123688021012059625A6A42F497
:103EB00080029A62FCF7A4F800200BB0BDE8F08FF6
:103EC000AB6843F00603AB60AB6843F02003AB6024
:103ED000002FDED123683220DA6822F0C042DA6097
:103EE000DA6842F08042DA6013F0D2F9666846B3CD
:103EF0003A4601253946C2EBC203501C04EB83034A
:103F000083F83C20A3F84220C2B283F83D50B2426D
:103F100083F83F101965C3E91111ECD30022C7EBF8
:103F2000C703791C04EB830383F8FC71CFB283F8D9
:103F3000FD21B74283F8FF21C3F81022C3E9812293
:103F4000EDD300232568D4F80CC01946D4F810909E
:103F5000D4F82C80D4E90602019203F14002013327
:103F600005EB82020F2B5160F7D1B8F1000F40F042
:103F70002181D5F8043805F5006743F002037B6022
:103F8000AB6B23F40013AB632B6843F040032B604F
:103F90002B6843F080032B6000230128C5F8003E06
:103FA0003B683B603B6800F01C8143F003033B60CF
:103FB0001021284608F06EFA1023504A2B61D2F8DF
:103FC000001705E0D2F800375B1A052B00F2FD80E0
:103FD0002B69DB06F6D4003818BF012000223A61B5
:103FE0007A61FA6166B305F510634FF0904A4FF0BD
:103FF000006B11464FF67F3E844607E019600132A0
:104000001961C3F808E02033B2427BD01868002859
:10401000F4DA92B1C3F800A0F1E7EB68284643F068
:104020004003EB6008F066F8AB6B0746002E40F0EB
:10403000C88043F48033AB6327E7C3F800B0DEE702
:104040003B6900216FF0804223F480733B61A961DA
:104050006A61B9F1000F03D1AB6943F01003AB61A2
:10406000AA69274B1343AB61019B1BB1AB6943F0BA
:104070000803AB61B8F1010F00F0AE8000287FF4B7
:1040800008AF0123626A84F838009A4284F8BD338D
:10409000236800F0AE80D3F80428032042F0020227
:1040A000C3F8042813F0F4F8134B93F80857012DC4
:1040B0007FF4F8AE53F0C8FF00287FF4F3AE236816
:1040C0008022284640215A625A6A42F400129A62BB
:1040D000FBF796FF20210220FBF792FF40210320EF
:1040E000FBF78EFF00200BB0BDE8F08F58320024A4
:1040F00000000840BFFFBDFF406500244854002475
:1041000000383C800022604605F530634FF0904A4D
:104110004FF0006B11464FF67F3EB44607E0196042
:1041200001321961C3F808E02033624588D01E6867
:10413000002EF4DA12B1C3F800A0F1E7C3F800B022
:10414000EEE701F0FF06364B03204FF4C05584F82C
:10415000BC63D3F8E01041F00101C3F8E01005A9F9
:10416000D3F8E03006920A2203F0010308902D48AC
:104170000493049B07960595099211F027FDE36AC5
:10418000012B43D0264B06216520D3F8D82042F0DE
:104190000062C3F8D820D3F8D83003F0006303934B
:1041A000039BFCF743FA20221F4BA66A2568DA60BE
:1041B000A26941E6AB6B05F5006743F40013AB63FE
:1041C000EAE623F48033AB635FE6012006E7EB68A1
:1041D00043F48013EB6054E6AA69144B1343AB61BC
:1041E0004CE7BCF1000F3FF4E2AE43F001033B604B
:1041F000DEE684F8F4039969C4F8FC2341F0006119
:104200000B4A9961596D0A435A6544E74FF40073AC
:1042100005A904480593CDE9066611F0D7FCB1E77E
:10422000004402580000025800E100E00400004091
:104230000300001010B51A4C94F80D07C0B9194BC3
:1042400083F80D0DC3F8100D94F81037012B05D02D
:10425000022B21D0D4F814371BB910BD124BC4F86F
:10426000143712495B68A1F10C00BDE810401847F3
:1042700043F098FC94F80F270A49003AC1F8100D52
:1042800018BF012281F80D2D0028DDD02122202128
:10429000C2803FF065FCD7E7054BC4F81437E0E770
:1042A000406500244854002420030024586C002456
:1042B000FC02002499B10A6B824216D9154BD3F83F
:1042C0006427914221D35C3991421ED30B6B9842F3
:1042D000F9D38B6B9842F6D80B46184670470D4BB6
:1042E000D3F864170A6B904212D30B680BB9F4E74A
:1042F0000A6B90420B4602D38A6B9042EDD951F87B
:104300005C3F002BF4D118467047002318467047D5
:104310000A46D8E7406500242DE9F047CC0143D197
:10432000034622494FF0FF32022443F8081B7E2641
:1043300042601846DFF878802644051D6FF070470C
:10434000D8F868974FF0010A013E494608E0A342B9
:104350001CD0631C45F8043C321B1C460435CAB112
:104360000B6BA34202D88B6BA34204D22046FFF70B
:10437000A1FF014690B10A794B6B002AE7D1A34215
:1043800004D0E6D2631C45F8042CE5E7631C45F82D
:10439000047CE1E7C8F86817BDE8F087321B631CAE
:1043A000494645F804ACD8E78026C3E7F8FFFF0F7D
:1043B00040650024F0B5154D83B00E4695F8703772
:1043C000022B0DD1070AC4B2D5F8A409002301229B
:1043D00001A9384405F0EAFF012806D003B0F0BD7A
:1043E000C0F3D41700F07F04EEE795F87037022B86
:1043F000019B04D133F81430336003B0F0BD53F89F
:10440000243023F07043336003B0F0BD40650024D6
:104410000E4A002310B50E4CC2F8C809C2F8DC4998
:104420000C4CA2F8CC19C2F8D4490B4CC2F8D039C4
:10443000A2F8CE39C2F8D84982F8E039282202FB26
:1044400003F4035301339942F9D110BD40650024B0
:1044500040420F0020A10700A01CE9FF036870B5CF
:104460005E6A26B133462522BDE8704018470446EF
:104470000D4601F1250600E023689B682046984719
:104480000028F9D02368204615F8011B1B689847BF
:10449000B542F1D170BD00BF036870B55E6A26B148
:1044A00033461922BDE87040184704460D4601F115
:1044B000190600E023689B68204698470028F9D039
:1044C0002368204615F8011B1B689847B542F1D1B7
:1044D00070BD00BF2DE9F0470023194D84B0074699
:1044E00095F9E99905F51F664FF0B60A00EB01084A
:1044F00005F549651C46D6F800C0304600226946DD
:10450000E036BCF1000F14D09CF838C0BCF1140F99
:104510000FD019F1020F01D0CC450AD1CDE90244E8
:10452000CDE90078ADF808A08DF80D4038F024FBF7
:104530000346B542DFD1184604B0BDE8F08700BF9E
:1045400040650024B5EE400A10B4F1EE10FA0CD02C
:10455000F5EE400AF1EE10FA07D0094B094C0A4972
:104560001A46C0E90034816006E0084B084C064951
:104570001A46C0E9003481600C305DF8044B1047E6
:1045800009300908DD1F00004D27090851360908C8
:104590002520000090B10B4BB0F5167FF2EE047AA7
:1045A00093ED8B7AA8BF4FF4167027EE277A07EEAB
:1045B000900AF8EEE77A87EE270A70479FED020A25
:1045C000704700BFF8000020000000002DE9F04F08
:1045D000A04FB2EE045AA04AB7F85C1707F560681E
:1045E000B7F85A3707EE901A9C4C06EE103AB8EE20
:1045F000677A04F58476B8EE466A04F6040B2DED6E
:10460000068B92F8913CB6EE009A85B0DFED94AA45
:1046100007EE903AB2F8923C67EE096A0A2BF8EE80
:10462000E77AB8BF0A23C7EE855A07EE903AB2F888
:10463000943C08EE103A92F8903C0022B8EEE70A5B
:10464000B8EEC88AC7F8102E88ED010AB4EE480A01
:10465000F1EE10FA30FE088AF4EEC86AC8ED005A8E
:10466000F1EE10FA38FE268AC6EE887A082B88ED1D
:10467000028AA8BF0823B1F57A7FF7EE006A38BF37
:104680001346C7F80C3EFBFE677AF4EE667AF1EE4D
:1046900010FA48BFF0EE667AFDEEE77AF8EEE75AD8
:1046A00017EE905AC4ED377AC6EE077A67EEA57A10
:1046B00086EEA76ADFED6B7AC7EE256A84ED386A6D
:1046C000C6EEA78A80EE280AC4ED398A61F072FD31
:1046D0000228B8BF022088EE280A8146C4F8E80004
:1046E00061F068FD2328D4ED3C7A9FED5F8AA8BF76
:1046F0002320B9F1230FA8BF4FF02309C4F8EC0021
:104700004845B8BF4846012DA0EB09028246B8BF14
:1047100001250132F5EE407AF1EE10FA29D1534924
:1047200000239FED53AA07EE903A0193F8EEE79A23
:10473000CDE9021269EEAA9AB0EE690A64F0D8F9DE
:10474000F0EE408AB0EE690A64F0DAF9019BA8EE57
:10475000880A0299013368EE8A8A0831039A242B69
:1047600041ED018A20EE0A0A01ED020ADBD1DFEDFC
:10477000417A002346F80CAC46F8045C92FBF5F154
:1047800046F8081C314646E905390133A1EC018A97
:10479000482BFAD1384806F590730021D0F800C0B4
:1047A00040680131C3F800C0586008332429F8D1AB
:1047B00006F515765E45ADD1DFF8C4900025DFED36
:1047C0002F8AC4ED3C7A08EB0500CA460026D7F8CC
:1047D0000C3E00F124049E4230DA07EE906A98ED18
:1047E000016A74300421F8EEE76AD8ED027A0136E6
:1047F00077EEC67A36EE897A67EE877A07EE103A58
:10480000B7F85A37B8EEC77A00EE903A87EE870AC3
:10481000F8EE600A30EE060AAAEC010A98ED001ADA
:1048200084ED178AA6EEA81A84ED168A84ED158AFF
:1048300084ED148A64F058F92046C8E705F59075B0
:1048400009F12009B5F5587FBDD105B0BDEC068B47
:10485000BDE8F08FF800002040650024F011002032
:10486000C3B8B23D0000904200000000E0190020F3
:1048700072F97F3FBC297E3FF8900A08CDCC4C3EB0
:104880000C0F00202DE9F04FDFF8A8810127644CC0
:10489000DFF8A4A12DED028B9FED628A85B0FEB2F8
:1048A000592118F8010B32463FF056F8054600280A
:1048B00000F09C8000684FF0010BE560504518BF88
:1048C000B0F1804F04F824BC0CBF0123002304F88E
:1048D000233C5DF0B3F9002314F8232C07EE900A73
:1048E00028689A424FF40052F8EE677A44F8043C84
:1048F00014BF59464FF4007144F8103C44F80C1CA6
:1049000044ED077A44F8142C5DF098F9464A0346C2
:1049100018F8010CA2FB032324F818BCDB0824F8C8
:1049200016BC04ED088A44F8083C43F03BF92061CA
:1049300010B15923C6718371DFF800B19BF89C3C1C
:10494000012B6AD0022B0CBF422102216A7A43F06C
:1049500019FA28685DF072F90021024628465FF0D6
:1049600083FE14F8233C002B4AD0304B0022214612
:10497000284623605FF008FD28685FF0E5FE814669
:10498000A8B100219BF89D2C01238A424FF004021C
:10499000019314BF0B460223CDE9021269466A79DE
:1049A000009308F0DFFC6979484608F0B1FDE26841
:1049B0004FF0FF3554F80C3C013E1D484FF4005CAD
:1049C00011682B44F6B290F8F0098B6201220023A3
:1049D000B042CD624A6124F8182C24F8162C44F811
:1049E000043C44E905C301D13EF048FF01373834A7
:1049F000052F7FF454AF05B0BDEC028BBDE8F08FFE
:104A0000DFF83CE0221DDFF83CC021462846A360C9
:104A1000C4E900EC5FF0B8FCAEE7222196E700BFE6
:104A2000241B0020000000001F85EB511D1A000010
:104A3000F0110020D8710024000C004040650024D3
:104A4000551B0000F11C00000C480D4BD0F8B81CA1
:104A500010B48A1E0B4C2231C0F8A83CB0F8C43CFC
:104A60001B01A4FB03C3DB08A3F5B06322F8023FDC
:104A70009142F3D15DF8044B704700BF40650024BC
:104A8000FD910608CDCCCCCCF0B5294C85B00546BF
:104A900004F6D443C4F8B83CFFF7D6FF1A21254AE0
:104AA000254B402084F8A21CC4F8AC2CC4F8B03CC0
:104AB0003AF0DAF8002838D0002D94F8113D94F837
:104AC000122D4FF0030614BF4FF4E1314FF4E121F2
:104AD000002B4FF0000394F8137D0CBF1D460225F8
:104AE0009A4290F9040000914FF0400114BF302227
:104AF0001A469F4218BF45F00105019615430F4A1B
:104B000002953AF010F9C4F8280D48B10C4813F09A
:104B10003FFC94F82D3D84F82C0D0BB984F82D6DD5
:104B2000D4F8280D003818BF012005B0F0BD00BF33
:104B3000406500245D2B060889320608B127060867
:104B40009D33060870B5084C251D2E4614F8010B40
:104B500038F05CF928B10379B44205F8013BF5D18E
:104B600070BDFF23F8E700BF707200242DE9F04705
:104B70001C4F01264FF03D094FF0000807F10805D2
:104B8000B24617F8010B43F00DF8044690B180F8D7
:104B90000690C671FB7803F07F02012A17D013F04C
:104BA000800F20460CD185F8048043F06FFA85F819
:104BB00005802C6001360835052EE2D1BDE8F0876E
:104BC00085F804A043F068FA85F805A0F1E71B0614
:104BD00005D4012120463EF0C3FFFB78DFE743F018
:104BE0005BFAF6E7787200242E4BF0EE607A9FEDC8
:104BF0002E4AF0EE410AB3F85A3707EE103ABAEEF1
:104C0000EF7A70B5B4EEC70AF1EE10FA06DDF4EEF5
:104C1000C77AF1EE10FA2ED5B0EE470AB5EEC00A0B
:104C2000F1EE10FA2CDDF5EEC07AF1EE10FA27DD88
:104C300027EE807A67EEE77AE0EE007A87EE271AB1
:104C400000F10C0200F19C01184C194D194EB5EE03
:104C5000400A42F80C4C42F8045CF1EE10FA04DD14
:104C6000B5EEC01AF1EE10FA0DDC42F8086C3032E5
:104C70008A42ECD170BDB0EE440AB0EE441ADFE7D0
:104C80009FED091ADCE70C4B104682ED034A42F80F
:104C9000083C82ED024A82ED014A82ED004A63F04F
:104CA00013FFE4E7F8000020000000005136090877
:104CB0004D27090825200000DD1F00000A4491420D
:104CC00016D030B441F2210511F8014B082380EAD7
:104CD000042010F4004F4FEA400485EA40000CBF66
:104CE000A0B280B2013BF4D18A42EDD130BC704712
:104CF000704700BFF0B42E4B02282E4D1F69D5F827
:104D0000006742D02C4B04241F40294A4CF25031FA
:104D1000042C11D0D2F8103124EA030313F0040F4D
:104D20000CBF0123002363B1D5F800379B1B8B42D6
:104D3000EED90320F0BC70471369C3F38003002B46
:104D4000F2D137F000420DD10128194A27D0D2F80C
:104D50001011C90316D54FF480311846F0BCC2F8C3
:104D6000141170471549002F4FF00100D1F8783D1C
:104D700043EA0703C1F8783D0D4B0EDAC3F814215E
:104D8000F0BC70471846F0BC7047D3F810710A4B5E
:104D90000B4C1F4047F00047B7E75F61CAE7116956
:104DA000C803EFD54FF4803118465161C2E700BF08
:104DB00000200052485400240000EE1740650024F3
:104DC00004000080F8B52E4E96F8742D012A4DD0BF
:104DD00000F17843012705460C46B3F5801F86F89D
:104DE000747D33D3A0F10163B3F5801F3CD200235F
:104DF0000220C6F8783DFFF77DFF18BB214A022745
:104E0000D2F80C313B43C2F80C312146BFF36F8F0F
:104E1000BFF34F8F2B1B04F120000A68CA500431E6
:104E20008142FAD1BFF36F8FBFF34F8F3846FFF740
:104E300061FF012F134A1BD0D2F80C3123F002037B
:104E4000C2F80C31002386F8743DF8BD00233846C3
:104E5000C6F8783DFFF74EFF0028F3D1094AD36822
:104E600043F00203D360D0E73846F8BD0220F8BD16
:104E7000D36823F00203D360002386F8743DE4E78F
:104E800040650024002000522DE9F041214D00230F
:104E9000214E4FF0050895F87F2D05F67C5506F557
:104EA000376486F86C2B15F8010B5F1C20BB206063
:104EB000032F04F104043B46F5D196F86C1BD6F899
:104EC000700BC94301F0010143F0ECF896F86C1B3C
:104ED000D6F8740B81F00201C1F3400143F0E2F80F
:104EE00096F86C1BD6F8780B81F00401BDE8F04110
:104EF000C1F3800143F0D6B842F054FE0121FBB269
:104F0000206010B180F80680C37120683EF028FE52
:104F1000CEE700BF40650024485400242DE9F0414D
:104F20002A4C82B02A4DB4F8846DA5F87C6BEEB99A
:104F300094F8800D42F036FE94F8812DC5F8800B70
:104F4000003A18BF012285F87E2B48B194F8821DE3
:104F50002D220029C28014BF112101213EF000FE44
:104F6000002002B0BDE8F04143F0FAB894F8808D1B
:104F700000222D2140463EF0EFFC0746404642F01D
:104F800011FE00B117B902B0BDE8F0812D22C5F8BD
:104F9000980B4FF00008C280797AFCF79DF80D4A13
:104FA000CDF804803946A4F8866D05F68430B2FB4E
:104FB000F6F3C3F34F049BB2009436F0DDFAD5F854
:104FC000843BC3F8008085F8958BDCE740650024BE
:104FD0004854002440420F002DE9F84F254B00268D
:104FE00093F8942D03F68B5703F6A85483F8882D75
:104FF0005FFA86FB4FF0010917F8010F01360BEB42
:10500000090A49464FF000085FFA8AFA52463EF014
:10501000A3FC054640B3387804F80E8C04F80D8CD8
:1050200004F80FBC04F8109C44F8045C42F0BAFD8C
:1050300018B180F8069080F807A0697AFCF74CF860
:105040000D4A002128465FF00FFB0C4B221D214624
:10505000236028460A4BC4E901385FF095F94246BF
:105060006979286836F03CFA082E04F11C04BFD197
:10507000BDE8F88F4065002440420F0021B50708C5
:10508000FD51070870B52C4C00222C4B022194F8DE
:10509000C00EC4F8B83EC4F8782EC4F87C2EC4F80C
:1050A000802EC4F8B42EA4F8BC2E3EF055FC002887
:1050B00035D0234B0546066803F160015A7C12B1D6
:1050C0005A6896422CD018338B42F7D1002394F8BB
:1050D000C00EC4F8A45D84F8983D42F063FD08B1A9
:1050E0000223C380697A0026FBF7F6FF2846154A9B
:1050F00000215FF0B9FA144A1448154B111FC4F887
:10510000A80D2846C4F8AC3DC4F8B06D5FF03CF97A
:10511000324669792868BDE8704036F0E1B970BD63
:1051200030465CF08BFDB36A0A4A0133B0FBF3F002
:1051300082F84403CAE700BF4065002400FFFF0077
:105140003406002040420F00EC720024255207086C
:10515000B1530708000000242DE9F04FBD4E85B083
:10516000044696F8E6C2BCF1030FACF105032AD859
:10517000DFF8EC820122032B88F8E42A30D90023DF
:10518000B54F204688F8543AFBF7BCFBC7F8EC054E
:10519000D7F8EC35002B00F094800022012183F831
:1051A000244083F8251083F826209A6244B12C33DA
:1051B000AA4A1C4412F8011B03F8011BA342F9D1AF
:1051C00005B0BDE8F08FDAB2042AD1D9A44A002193
:1051D000032B82F8E41A6FD99F4F82F8541AD7E74D
:1051E00096F8EF3288F8542A012B7DD0BCF1080FD5
:1051F00001D0022B78D09B4F9B4D96F8EEE20FCF5B
:10520000BEF100090FC50FCF18BF4FF00109D7F845
:1052100000A0BCF1070F904F0FC5944BC5F800A03C
:1052200087F80496C8F8343A57D8BCF1040F00F256
:10523000FF808F4B0025DFF864A2019303975FFA8C
:1052400085FBAC424FF0030105F101050BF10109AB
:105250002DDD019A5FFA89F912F8013B1846019297
:105260004A4602933EF078FB029B07461846002F01
:1052700000F0C78042F096FC024659463846CAF80C
:10528000142022B14FF0030382F80790937196F82F
:10529000E6223B7A5BF018FF002800F0B2804FF066
:1052A0000103042D0AF1180A0AF8073CC7D1039F2D
:1052B0006D4BC7F8EC356BE70123674F82F8543A22
:1052C00066E76C4D6C4C0FCD0FC40FCD0FC42B682F
:1052D00044F82039C7F8EC4572E7BCF1080FA8D1B3
:1052E000664BC8F85C3AA4E74FF0000996F8EE3236
:1052F000594FB3EB0903DFF8A8E1614D07F23C5ABF
:1053000018BF0123C8F8584A87F804365D4B83F864
:10531000C29E83F8F4CEBEE80F000FC5BEE80F00B2
:105320000FC5DEF8003049464FF46072564845F824
:10533000503B63F009FA4E4BCDE901342C46D8F8C6
:10534000582A4A4557DD019B13F8016B30460193FB
:105350003EF088FB8346304642F024FC9BF8085020
:10536000484B064605F0010B97F804160BF1010BAC
:1053700083F8C1BE09B185F00105002E4AD0B1798C
:10538000A9B1A1F142025142514181B93F4A0120E4
:105390003F4D3C4BC8F8042A029C3E4AC8F80C5AC0
:1053A00083F8C20EC8F8082AC7F8EC15F0E64FEAF1
:1053B0004B1B304645F004F909F101094BF001019E
:1053C0004FF00303E66060602574616186F8079022
:1053D000B37130463EF0C4FBEB0730460ED542F0C9
:1053E00055FEE268B9F1040F04F120040AF1180A2D
:1053F0004AF8042CA3D1029C2149D5E742F04CFE87
:10540000EFE723490023234A039FC8F83C1AC8F852
:10541000382A4EE74FEA4B1B304645F0D1F809F1E8
:1054200001094BF00101E660606025746161D0E71D
:1054300096F8ED32184A012BC8F85C2A06D0022BE8
:1054400008BFBEF1000F0CBF0123002388F8603AAB
:10545000EFE600BF48540024F80000203057002435
:10546000F011002024910A08141C00206D070A087E
:105470003957002400910A0804740024A5B10808D3
:10548000E41B002040650024A0990124A12A0808FB
:10549000992A08089D2A0808D9B10808340600206E
:1054A00048910A08F8B5724F97F81F0D42F07AFB41
:1054B00097F8205D60B12F2304462021C3803EF081
:1054C0004FFB0A203EF05EFD204645F06FF818B90C
:1054D000D7F8F83EDA0100D5F8BD013D092DFBD81B
:1054E00097F81E4DD4B9402039F0BEFB0028F3D008
:1054F00090F9043097F8A11C092BC8BF143B0A2966
:105500003B4493F8FC4E00F0A58093F8083F97F8D1
:10551000122D002A08BF1C46002CDDD0204642F088
:1055200041FB0546002800F08D802F230121C38018
:105530003EF016FB0121084642F0BCFD2B68AA880C
:105540009A613C203EF0A4FF0021012042F0B2FD10
:1055500097F8203D002B38D00026464C94F86C1B61
:10556000D4F8700BC94301F0010142F09BFD94F89F
:105570006C1BD4F8780B81F00401C1F3800142F078
:1055800091FD7820002D39D0AB8801362A681B04A4
:1055900093613EF0F7FC94F86C1BD4F8700B01F0AB
:1055A000010142F07FFD94F86C1BD4F8780BC1F335
:1055B000800142F077FD2B68AA8878209A613EF03E
:1055C000E1FC97F8203D9E42C8DB97F81E3D8BBB5F
:1055D00097F81F3D002B7FF47FAF97F8213D012BFB
:1055E0007FF47AAFD7F8F83E13F080737FF474AF8E
:1055F00087F8203DBDE8F84052F05EBC78200136C7
:105600003EF0C0FC94F86C1BD4F8700B01F0010163
:1056100042F048FD94F86C1BD4F8780BC1F380017C
:1056200042F040FD78203EF0ADFC97F8203D9E42D0
:1056300094DBCAE732203EF02BFF284600213EF0E3
:105640008FFAC5E701213EF08BFA0121084642F0AE
:1056500031FD76E7D7F8203F5B057FF53DAF14F0CD
:1056600059F800287FF438AF002C7FF457AF33E7A8
:1056700040650024485400240823484002E0013BD0
:10568000D0B209D010F0800F4FEA4002F7D082F07C
:10569000D500013BC0B2F5D1704700BF30B4002344
:1056A00005688D4210D011F8014B0822634002E0DA
:1056B000E3B2013AF5D013F0800F4FEA4304F7D07C
:1056C00084F0D503DBB2F4E76A1C02602B7030BCB7
:1056D000704700BF344870B490F8243FA3F1300104
:1056E000092958D800F6247400F63370224612F8BF
:1056F000015FA5F13001092904D88242F7D10020C9
:1057000070BC7047141B022C4BDD2848002101E0BF
:1057100010F8013B01EB8101161A044603EB41032B
:10572000022EA3F1300303F0FF01F1DC204B03FB59
:1057300001F1A2424FF000030ED903EB830314F8EA
:10574000016B5B00A242A3F13003334403F0FF037B
:10575000F3D1184800FB03F32E2D06D01648A0FB0A
:10576000032370BC01EB9300704701320425002431
:1057700004EB84041078013D303864000928A4B299
:10578000204401D8013284B215F0FF05F0D1642223
:1057900002FB0433E2E700211D4600F624720B46AB
:1057A000DAE70021054CC4E7406500246574002455
:1057B0008096980040420F00ABAAAAAA6474002405
:1057C0002DE9F047041E0D4612DB092C26DC0B46A2
:1057D000814A82480021A0FB04605970C00800EB98
:1057E0008000A4EB4000125C28461A70BDE8F087E8
:1057F00064422D23092C01F8013B24D8764A774BCB
:105800000020A3FB046348702846DB0803EB8303F6
:10581000A4EB4303D35C0B70BDE8F0876F4B632CA4
