:020000040800F2
:10000000F0FF01206D56060855FE00089190040887
:10001000E5560608E5560608E55606080000000005
:1000200000000000000000000000000051FE000879
:100030004DFE00080000000049FE0008C5540408F9
:10004000E5560608E5560608E5560608E55606088C
:10005000E5560608E5560608D9B70408A1B704080E
:1000600069B7040831B70408F9B6040875F3050840
:1000700065F3050855F3050845F3050831F3050850
:100080001DF3050809F30508E55606080000000001
:10009000000000000000000000000000C1B60408DD
:1000A000D53E0408253F0408C53E04084D3F04081A
:1000B000153F0408053F0408F53E0408DD46060820
:1000C000E5460608D1460608D9460608E55606085C
:1000D000E556060875560408BD55040800000000E2
:1000E00089B60408E55606080D170108000000004F
:1000F000000000000000000000000000F5F205080C
:1001000000000000E5560608E53E0408E55606082E
:1001100000000000000000000000000000000000DF
:10012000E1F20508CDF20508B9F20508A5F20508C7
:1001300091F205080000000000000000000000002F
:10014000000000000000000000000000E5F70008CB
:100150007DF2050869F2050855F205080555040801
:10016000C5460608CD460608000000000000000055
:10017000000000000000000000000000000000007F
:1001800000000000E5560608000000000000000026
:08019000E5560608E5560608D5
:08019800CC510600010000003B
:08280000082800080040000850
:04400000FFFFFFFFC0
:108000002DE9F041484D494E2B6886B004460139B0
:10801000A6FB030389B29B0C0027013B0291206859
:10802000ADF8043001A91646ADF80C70ADF8067035
:108030008DF80E700FF024FD237AADF808706022E1
:1080400001929A07CDE90477D4F8008067793CD58E
:10805000DB0003F008030422ADF81230ADF808206D
:1080600001AA3946404603963BF0C0FD0C2F12D8BA
:10807000DFE807F038111111431111114E111111E0
:108080000700B8F81C3023F400631B041B0C43F4F6
:108090000063A8F81C302268B2F844306FEA43430A
:1080A0006FEA53439BB2A2F84430138811469BB247
:1080B00043F0010321F8343B6379AA60C818002219
:1080C0006860CA5006B0BDE8F0815B0003F00203AF
:1080D0000122ADF810304FF48073ADF80620ADF8F2
:1080E0001430BDE7B8F8183023F008031B041B0C4C
:1080F00043F00803A8F81830CDE7B8F8183023F497
:1081000000631B041B0C43F40063A8F81830C2E79B
:10811000B8F81C3023F008031B041B0C43F00803C1
:10812000A8F81C30B7E700BF3831002083DE1B43BE
:1081300070B4C3080D4CE25C00F00706B24004EBDB
:10814000D004D2B20020C6F108038B4228BF0B46F0
:10815000C3F108052A419840C91A40EA02004FF0CD
:10816000000614F8012FEED170BC70479431002046
:10817000084AD2E9443199420AD0D118013391F822
:1081800018110170C3F30A03C2F8103101207047BF
:108190000020704738310020044BD3E94430C01A26
:1081A000C0F30A00C0F50060704700BF38310020FE
:1081B000012380F85130704707B501A8FFF7D8FFB9
:1081C0000028FAD09DF8040003B05DF804FB034BCF
:1081D000D3E94430C01AC0F30A0070473831002098
:1081E00001207047024BC3F81829C3F81C197047C7
:1081F00038310020024BC3F82029C3F824197047F6
:10820000383100207047704730B4114DD5E9442310
:108210009A1AC2F30A020A44B2F5006F13D8A9B140
:1082200001444A1E013810F8014FE918824203F157
:10823000010381F81841C3F30A03F4D1C5F81431DE
:10824000002030BC7047022030BC70470846F8E779
:1082500038310020212838B50C4605D022282ED0F0
:10826000202813D0002038BD0029FBD0072AF9D1DF
:108270001A4BD3F8280993F82C1993F82D2993F861
:108280002E39206021716271A371EBE70029E9D0DA
:10829000072AE7D1114DD5F81C391BB10968D5F86B
:1082A00018099847206821796279A379C5F82809C7
:1082B00085F82C1985F82D2985F82E39D2E7002963
:1082C000D0D0022ACED1054AD2F82439002BC9D009
:1082D0000988D2F820099847C4E700BF3831002048
:1082E000024B0020C3F83009704700BF383100202E
:1082F000044B00200522C3F83029C3F82409C3F831
:108300001C09704738310020704700BF704700BF1C
:10831000704700BF704700BF704700BF704700BF85
:10832000704700BF042301480B807047980100206C
:1083300010B4074A074B92F83409122403F11402CF
:108340000C8001280CBF184610465DF8044B70479E
:10835000383100209C010020A0B182680D4B12B181
:1083600007229A7070471978DA6003294FF00400E9
:108370000CBF80214FF48071C3E901111A611A7595
:1083800098707047034B41F2E47101225A545A70BD
:10839000704700BF149C00200378022B10D00069A6
:1083A00008B9012070470C4B1B78032B0EBF0B4BF9
:1083B00080B24FF6F773984294BF002001207047B7
:1083C0000549436841F650028A58B3EB422F2CBF4F
:1083D00001200020704700BF149C0020F7FFFF0F12
:1083E0000378022B14D030B4104A4368006941F678
:1083F000480402F5C2511559096841F63C042B4066
:1084000012595B0A023801FB0030104430BC70473F
:10841000064B426841F6340141F63000595818586D
:1084200000EB410000EB5220704700BF149C00207D
:10843000004870477C310020034B93F8400003282C
:1084400094BF0020012070473831002070B5144CD3
:1084500094F83839002BFBD1F9B101444E1E451E6A
:1084600002E001203CF08EFFD4F83C39D4F84029DA
:108470000133C3F30A039342F3D0D4F83C29D4F870
:108480003C3915F8011F22440133C3F30A03B542F6
:1084900082F84419C4F83C39E6D1002070BD00BF11
:1084A00038310020094B0846D3F8301910B559B1BE
:1084B000D3F83039052B07D1054C002AE36C03DDD6
:1084C0001146FFF7C3FFE36C10BD00BF3831002039
:1084D0003042002010B590F85010002380F8503042
:1084E00079B10B4CD4F830296AB1D4F83029052A77
:1084F0000BD1084C3C30E36CFFF7A8FFE36C012084
:1085000010BD0120FCE71046FAE71846F8E700BF67
:108510003831002030420020002280F85120D9E775
:1085200090F85020531C0244DBB280F8503082F89F
:108530003C1090F851200AB1132B00D9CAE77047BC
:1085400070B505682B6A92B013B1002012B070BDEF
:108550000DF10702CDE9063303938DF814300B9328
:108560000E93109301238026089102920221049316
:108570008DF828308DF83C3000220023CDE90C2303
:1085800004468DF807600991EFF31186102383F3F9
:10859000128803681B6A03B3049B02A802461BB13E
:1085A000D3691432002BFBD12B6AF3B1996839B926
:1085B000934209D0196829B15B6899680029F7D0FE
:1085C0001433F3E7C3E90040F6B286F3118822685A
:1085D000136A002BFCD10120B8E702ABF6B22B6284
:1085E00086F3118856F080FFF1E71C60FFDE00BFC4
:1085F0003E4B98422DE9F0410ED003F56853083305
:1086000098424BD03A4B0020C3E92F00A3F8B800A2
:10861000A3F8C400BDE8F081354C364FDFF8DC80AC
:108620000223236504F154060025FB6AAB42294668
:1086300005F1010503D0D4F8D40051F015FD94F8EC
:10864000D830D4F8D42086F82430326230464146FF
:1086500051F040FE236D9D4206F13006E5DB00231C
:1086600084F8C630D4E91703216DB4F85820B4F863
:108670006450C4F8E43012FB01F203FB01F3A4F8E8
:10868000B820B4F85A101C4AA4F8C450C4E92F0307
:10869000A4F8BA10C4F8B4200120BBE7144C154F5D
:1086A000DFF85C800223236504F154060025FB6A91
:1086B000AB42294605F1010503D0D4F8D40051F0AE
:1086C000D3FC94F8D830D4F8D42086F82430326221
:1086D0003046414651F060FC236D9D4206F1300664
:1086E000E5DB012384F8C630BCE700BF1971EF0059
:1086F00030420020980100207C8206081940EF00DB
:1087000021AAEF002DE9F04FBB4DDFF81C83064690
:108710000FCD08F1E8042DED048B0FC40FCD0FC46D
:1087200098F81A312A6822608BB0022B98F8202121
:10873000029600F03A82032B00F03082002B00F00A
:108740003982DFEDAE7AF0EE678A002AAC49AD4A95
:10875000C8F8F820AC48AD4BC8F800010EBF0022A5
:1087600001220B46039237EEA87AF5EE006AC6EEB8
:10877000879AA74DC8F8FC30A5F1230B05F16007D7
:108780004FF0000A9FEDA38A9FEDA39A27EE888AF7
:10879000029B534540F394811BF8014B002C00F0E1
:1087A000B081002302E0152B00F0AB8103EB430204
:1087B0004FEA4309B95CA14203F10103F3D14244FA
:1087C00092F8A911002900F0038220463BF018FE20
:1087D000064630463BF034FE0178002940F0918196
:1087E000C1440AF1010300930322DBB289F8E931A5
:1087F00089F8E821002E00F084814FEA141909F16C
:10880000FF39B9F1040F04F00F0C00F2AE81834C74
:1088100004EB4901B1F85C0040FA0CF111F00101E0
:1088200000F0A381012101FA0CFC0CF1FF3C0CEAE1
:108830000000A14401935CF061FD99F868C0DFF885
:10884000ECE1019B60440EEBC00C03228CF8073076
:108850008CF806205EF83000C5F814C000F13F43E4
:1088600003F57E0304EB9324012194F87030727AAF
:1088700003F01F045B09032B01FA04F100F0878168
:10888000042B00F07F81022B00F07781BCF80440BC
:10889000B4FA84F3C3F11F03C3F3CC0100EB8101ED
:1088A00003F00703D1F820C09B004FF00F0E0EFA23
:1088B00003FE2CEA0E0CC1F820C0D1F820C002FA49
:1088C00003F343EA0C0305AA0B621146022301924B
:1088D000CDE905430FF030FB019A039B002B00F01C
:1088E0002B81B8F81831346807EE903AF8EEE77A41
:1088F0004B4BFCEEE77AD3F800C017EE900ABCFBB6
:10890000F0F303F57F43FF331B0CBCFBF3F3B3FB26
:10891000F0F001381FFA80FE07EE903ABCFBF3F34B
:10892000B8EE677A2188DFF808C167EE087A013B64
:10893000C5ED027A69EE677A6445E7EE287A9BB264
:1089400089B2C5ED037A11D0364884420ED0B4F115
:10895000804F0BD0ACF57C4C644507D00CF5806C97
:10896000644503D00CF5806C644502D121F07001A0
:1089700089B2DFF8C0C0644500F0CD800CF5806C92
:10898000644500F0C88021F440710CF56C4C89B24C
:1089900064452180C4F82CE0238540F0E980002361
:1089A00023860120A082337A96F805900021CDE934
:1089B00007114FF0600CADF8181009919907CDF828
:1089C00014C040F1AD80DB0003F008030421ADF8D2
:1089D0002230ADF81810494620463BF007F9B9F1AE
:1089E0000C0F31D8DFE809F0843030307B30303084
:1089F00072303030280000BFB48206086F1203398D
:108A0000C52A0408C92A04082D790308C973030874
:108A1000784300206F12833A00007A447C82060873
:108A2000383100200004014030420020444400203E
:108A30000000014000100040A38B23F400631B04DE
:108A40001B0C43F40063A3833368B3F844206FEA3C
:108A500042426FEA524292B2A3F844201A88194661
:108A600092B242F0010221F8342B70796B600C183D
:108A700000222C600A50BAF1000F00F08D80D8F867
:108A80004C118B4200F08F80BAF1010F00F084800E
:108A9000D8F864118B4200F08680BAF1030F7BD1C5
:108AA000D8F87C21D31A18BF0123DDF800A02B745D
:108AB0000122BAF1040F6A7405F118057FF468AE5B
:108AC00044480BB0BDEC048BBDE8F08FA38B23F0C2
:108AD00008031B041B0C43F00803A383B4E7238B98
:108AE00023F400631B041B0C43F400632383ABE7F4
:108AF000238B23F008031B041B0C43F00803238380
:108B0000A2E7354A354B0020C8E93F320BB0BDEC37
:108B1000048BBDE8F08F2180C4F82CE0238540E76A
:108B20005B0003F002034FF48071ADF82030ADF824
:108B30001600ADF824104EE7B0EE690A01925CF021
:108B4000D9FD274B3468D3F800C0019AFCEEC07AF7
:108B50004FF6FE7E17EE903ABCFBF3F303F57F432E
:108B6000FF331B0CBCFBF3F3D6E6696105AAB4E640
:108B70001C4B9C423FF413AF13E71B4B5C6C21432F
:108B8000596483E6184B1C6B214319637EE6164B30
:108B90001C6C2143196479E6012386E7DFED137A23
:108BA000DFED138AD1E513467FE7DFED127AF0EEB1
:108BB000678ACAE5104BDFED117A114AC8F8F83020
:108BC00001230393C8F80021044BF0EE678ACAE53D
:108BD0000E46FEE518430020E9770308C52A04087D
:108BE000383100200004014000380240ACC5A737EE
:108BF000ACC5A73628293038C92A04086F12833A31
:108C00002D790308114B70B51C68054600680E46A7
:108C100064080FF095F8B4FBF6F1B1F5803F03D38B
:108C2000012CFAD96408F6E72246284689B23BF0BF
:108C300087FA0749074BC1F8F83C28460022BDE8EF
:108C4000704001F6F8413BF089B900BF383100208F
:108C50003042002025EE0108214B93F8C02E03F589
:108C6000506191ED020A1AB91E4B83ED660A7047F6
:108C700093F8C22E4AB1052A11D003F56C6393ED27
:108C8000150A184B83ED660A704703F56C6383ED94
:108C9000150A83ED190A134B83ED660A7047D3F862
:108CA000C40ED96CD3F8D42E091A07EE901A0132EB
:108CB000B8EEE77A07EE902AF8EEE77A03F56C63F0
:108CC000C7EE276AF7EE007A77EEE67A93ED157A2B
:108CD00067EE877AE0EE267AB0EE670AC4E700BF57
:108CE000304200205C51002010B5044C04480A4674
:108CF00021460DF0A9FE204610BD00BF3C540020C7
:108D0000C4EF060810B5044C04480A4621460DF08D
:108D10009BFE204610BD00BF3C540020D0EF06084B
:108D200010B5044C04480A4621460DF08DFE20463D
:108D300010BD00BF3C540020E0EF060810B5044C05
:108D400004480A4621460DF07FFE204610BD00BFB4
:108D50003C540020ECEF060810B5044C04480A46C9
:108D600021460DF071FE204610BD00BF3C5400208E
:108D7000F8EF06082DE9F843194C94F84060042EEA
:108D80000546894690461F4608D0082E02D000208E
:108D9000BDE8F8830DF02CFD0228F8D1E06F40F01B
:108DA00049F994F8363093B9690211200DF08EFD1F
:108DB00098B90C4BC4F81C90DA6C25620523C4E901
:108DC0000A87226384F840300120BDE8F8832946F1
:108DD00011200DF07BFD0028EBD00DF0BFFDD6E794
:108DE000383100203042002070B51D4C94F84030DE
:108DF000042B06460D4608D0082B21D1A36B8342D5
:108E00002CD00DF0F5FC02281AD1E06F40F012F9D9
:108E1000002137200DF05AFD294617200DF056FD90
:108E2000B0B994F836306BB9710219200DF04EFDCF
:108E300070B90823C4E90E6584F84030022070BD83
:108E4000012070BD314619200DF040FD0028F0D002
:108E50000DF084FD0DF0B8FD032070BD022070BD43
:108E6000383100202DE9F0412C4C05468846174644
:108E70001E4694F84000042835D0082806D1A36B7C
:108E8000AB4206D00DF0B4FC0228F2D00120BDE8C0
:108E9000F0814FF0FC0C626F2148117B214B80F870
:108EA00013C2C3F8588051B1526942B194F8FC2002
:108EB000002A0CBF4FF480724FF4007201E04FF4AF
:108EC00080721A661849194843F06AFC0122062389
:108ED000C4E90785C4E90A7684F8242084F8403080
:108EE0000020BDE8F081E06F40F0A4F894F836303F
:108EF0005BB9690218200DF0E9FC40B994F84030E4
:108F0000082BC6D04FF0FE0CC5E72946F2E70DF05E
:108F100025FD0DF059FD0320B9E700BF38310020D1
:108F20002853002098010020C8010020AC31002007
:108F300070B5214DD5F8143293F82620DAB11B69AB
:108F40009847E0B1D5F8143293F824208AB105F59A
:108F5000067600241A19E0B29B6992F82C10B6EC40
:108F6000010A9847D5F8143293F82420013494422A
:108F7000F0DB5B69984795F82832332B00D070BD41
:108F800095F82932002BFAD0D5F8143293F8243012
:108F9000042B1E46A8BF0426002BF0D00024074D4A
:108FA0002346184654F06CFE0134E3B29E4245F865
:108FB000040BF6D870BD00BF285300205455002084
:108FC0002DE9F04FC34C94F84C1283B00546C1F321
:108FD0004001D4F8540240F039F894F84C12D4F817
:108FE0005002C94301F0010140F030F86B1EDBB2C2
:108FF0000193002D00F0E180B74EDFF8E482B74D19
:109000000127D4F8543233B11A689B8851690B4256
:1090100014BF53831383D4F8503233B11A689B883A
:1090200051690B4214BF53831383B4F85C32002B95
:1090300040F05A8194F85E12D4F8600240F006F8CD
:10904000DFF8A0E24FF0FA0C4FF010094FF47A70FD
:10905000DEF80430C3F30803002B40F01081EFF377
:109060001183002B40F00B81F26CA968F36C9A42DB
:10907000FAD1D4F870329942F6D8D4F86CA200FB39
:109080000AF35B1AB3FBFAF300FB0232DEF804309A
:10909000C3F30803002B40F0B380EFF31183002BE0
:1090A00040F0AE80F36CD5F808B0F16C8B42F9D18A
:1090B000D4F870128B45F5D8D4F86CA200FB0AF1F5
:1090C000A1EB0B01B1FBFAF100FB03139B1AB3F503
:1090D0007A7FDBD3BCF1010CBAD1D4F8543233B16E
:1090E0001A689B8851690B4214BF53831383D4F8C9
:1090F000503233B11A689B8851690B4214BF5383B5
:109100001383B4F85C32002B40F0D88094F85E12E0
:10911000D4F8600281F001013FF098FFDFF8C4E16C
:109120004FF0FA0C4FF010094FF47A70DEF804306B
:10913000C3F30803002B40F08380EFF31183002B6F
:109140007ED1F26CA968F36C9A42FAD1D4F87032ED
:109150009942F6D8D4F86CA200FB0AF35B1AB3FB71
:10916000FAF300FB0232DEF80430C3F308033BBB22
:10917000EFF3118323BBF36CD5F808B0F16C8B428D
:10918000F9D1D4F870128B45F5D8D4F86CA200FB55
:109190000AF1A1EB0B01B1FBFAF100FB03139B1ADF
:1091A000B3F57A7FDFD3BCF1010CBFD1019B013B4A
:1091B000DBB2FF2B01937FF424AF03B0BDE8F08F47
:1091C000EFF3118A89F31288D5F808B02B68DB0316
:1091D00044BFC4F86872D5F808B0F36CD4F86812CC
:1091E0005FFA8AFA8AF31188D4F86CA20B4400FB68
:1091F0000AF1A1EB0B01B1FBFAF100FB0313CEE77F
:10920000EFF3118A89F31288D5F808B02B68D903D7
:1092100044BFC4F86872D5F808B0F36CD4F868128B
:109220005FFA8AFA8AF31188D4F86CA20B4400FB27
:109230000AF1A1EB0B01B1FBFAF100FB031345E7C7
:10924000EFF3118189F31288D5F808A02B68DA03AF
:1092500044BFC4F86872D5F808A0F36CD4F868224B
:10926000C9B281F31188D4F86C121A4400FB01F3DF
:10927000A3EB0A03B3FBF1F300FB023273E7EFF356
:10928000118189F31288D5F808A02B68DB0344BF4D
:10929000C4F86872D5F808A0F36CD4F86822C9B293
:1092A00081F31188D4F86C121A4400FB01F3A3EB8C
:1092B0000A03B3FBF1F300FB0232E7E6D8F81830FB
:1092C000002B3FF42BAFD8F804200023136088F85C
:1092D000153023E7285300203042002010E000E042
:1092E0003831002000ED00E0D8F81830002B3FF4B2
:1092F000A7AED8F80420B4F86412044BB3FBF1F322
:109300005B10136088F815709AE600BF40420F00AA
:109310002DE9F04FC14CC24E94F84C12D4F85402CF
:10932000DFF80483BF4D83B0C1F340013FF08EFEF0
:1093300094F84C12D4F85002C94301F001013FF0F7
:1093400085FE052301930127D4F8543233B11A68FE
:109350009B8851690B4214BF53831383D4F8503256
:1093600033B11A689B8851690B4214BF538313832E
:10937000B4F85C32002B40F05B8194F85E12D4F8B4
:1093800060023FF063FEDFF8A4E24FF0320C4FF0D2
:1093900010094FF47A70DEF80430C3F30803002B91
:1093A00040F01081EFF31183002B40F00B81F26C41
:1093B000A968F36C9A42FAD1D4F870329942F6D87F
:1093C000D4F86CA200FB0AF35B1AB3FBFAF300FBC0
:1093D0000232DEF80430C3F30803002B40F0B38000
:1093E000EFF31183002B40F0AE80F36CD5F808B09A
:1093F000F16C8B42F9D1D4F870128B45F5D8D4F8C2
:109400006CA200FB0AF1A1EB0B01B1FBFAF100FB2E
:1094100003139B1AB3F57A7FDBD3BCF1010CBAD1ED
:10942000D4F8543233B11A689B8851690B4214BF87
:1094300053831383D4F8503233B11A689B8851692F
:109440000B4214BF53831383B4F85C32002B40F0FB
:10945000D88094F85E12D4F8600281F001013FF0E8
:10946000F5FDDFF8C8E14FF0320C4FF010094FF472
:109470007A70DEF80430C3F30803002B40F08380D9
:10948000EFF31183002B7ED1F26CA968F36C9A4242
:10949000FAD1D4F870329942F6D8D4F86CA200FB15
:1094A0000AF35B1AB3FBFAF300FB0232DEF8043076
:1094B000C3F308033BBBEFF3118323BBF36CD5F875
:1094C00008B0F16C8B42F9D1D4F870128B45F5D805
:1094D000D4F86CA200FB0AF1A1EB0B01B1FBFAF18D
:1094E00000FB03139B1AB3F57A7FDFD3BCF1010CA9
:1094F000BFD1019B013B13F0FF0301937FF424AF25
:1095000003B0BDE8F08FEFF3118A89F31288D5F824
:1095100008B02B68DB0344BFC4F86872D5F808B004
:10952000F36CD4F868125FFA8AFA8AF31188D4F8D7
:109530006CA20B4400FB0AF1A1EB0B01B1FBFAF1A9
:1095400000FB0313CEE7EFF3118A89F31288D5F8F5
:1095500008B02B68D90344BFC4F86872D5F808B0C6
:10956000F36CD4F868125FFA8AFA8AF31188D4F897
:109570006CA20B4400FB0AF1A1EB0B01B1FBFAF169
:1095800000FB031345E7EFF3118189F31288D5F847
:1095900008A02B68DA0344BFC4F86872D5F808A0A5
:1095A000F36CD4F86822C9B281F31188D4F86C1234
:1095B0001A4400FB01F3A3EB0A03B3FBF1F300FB36
:1095C000023273E7EFF3118189F31288D5F808A00E
:1095D0002B68DB0344BFC4F86872D5F808A0F36CAD
:1095E000D4F86822C9B281F31188D4F86C121A44F5
:1095F00000FB01F3A3EB0A03B3FBF1F300FB023220
:10960000E7E6D8F81830002B3FF42BAFD8F8042049
:109610000023136088F8153023E700BF285300208B
:109620003042002010E000E03831002000ED00E082
:10963000D8F81830002B3FF4A6AED8F80420B4F8C0
:109640006412044BB3FBF1F35B10136088F81570E0
:1096500099E600BF40420F000E4B30B4DB68427801
:1096600001780D4CDB43C3F30223C3F10403DBB2E7
:1096700002FA03F360181B0101F01F0501224909DA
:1096800003F0F003AA4080F8003344F8212030BCF6
:10969000704700BF00ED00E000E100E030B5036876
:1096A0005A4D5B4C1A882868B0FBF1F0A34200F1D8
:1096B000FF3083B080B292B211D056498B420ED0A7
:1096C000B3F1804F0BD0A1F580318B4207D001F56B
:1096D00080618B4203D001F580618B4202D122F080
:1096E000700292B24C498B4268D001F580618B4286
:1096F00043D022F4407201F56C4192B24FF6FF74F0
:109700008B421A80DC62188564D100221A860122FD
:109710009A821A883E4992B242F001028B421A8024
:1097200063D0B3F1804F62D03C4A934261D002F5DE
:10973000806293425FD002F5806293425DD002F571
:10974000806293425BD002F58062934259D002F569
:109750009632934257D002F58062934213D002F5BD
:109760008062934208BF09220ED04FF0012301A866
:109770000193FFF771FF03B030BD4FF6FF711A8000
:10978000D9621885C3E70822254B03EBC20301A861
:1097900093F87D408DF8044001224FF480738DF8DA
:1097A0000520ADF80630FFF757FF1B2CE3D11D4B0A
:1097B000019301A8FFF750FF03B030BD01214FF620
:1097C000FF741A80DC62188599821A8892B20A4363
:1097D0001A80A9E70F4A934297D001229A821A88E9
:1097E00092B242F001021A809BE70022CCE70122EC
:1097F000CAE70222C8E70322C6E70422C4E705221B
:10980000C2E70622C0E70722BEE700BF38310020CA
:10981000000001400004014000100040000400402E
:109820007C8206081901000100F01F024009012393
:10983000032803FA02F304D004280CD0022805D030
:109840007047074A116C0B4313647047044A516C0C
:109850000B4353647047024A116B0B431363704709
:109860000038024000285FD00368374A2DE9F041F4
:1098700003F13F4404F57E0402EB9422012492F8A4
:10988000702002F01F055209032A04FA05F456D08D
:10989000042A4FD0022A48D08588B5FA85F0C0F155
:1098A0001F00C0F3CC0603EB860600F00700820021
:1098B0000F24306A944020EA04003062306A01FAD2
:1098C00002F20243002132624FF0010E0A464FF0CD
:1098D000030C02270EFA02F838EA050002F1010231
:1098E0001CD118680CFA01F420EA0400186018680A
:1098F00007FA01F606431E609E6826EA04069E608B
:1099000098689860586820EA08005860586858605D
:10991000D86820EA0400D860D868D860102A01F11D
:109920000201D7D1BDE8F0817047084A556C2C433D
:109930005464B1E7054A156B2C431463ACE7034A42
:10994000156C2C431464A7E77C820608003802409B
:1099500000487047A4440020002877D0F0B58388E1
:10996000B3FA83F3202B83B00446C3F11F0258D00F
:10997000374D384E15444FF0004006EB820230FA66
:1099800003F395F8C850C2F8741205D0324A116832
:1099900021EA030111605361204600213AF082FF61
:1099A000A38822682C49B3FA83F7C7F11F0404F097
:1099B000FC0000F1804000F59C3004F00304A4009A
:1099C00002F13F434FF00F0C82680CFA04FC22EACC
:1099D0000C02826003F57E038268C3F38723A340F1
:1099E000134383600A681D484FF00043FB4022EA9E
:1099F00003020A604A6822EA03024A600A681A43BC
:109A00000A608A6822EA03028A60CA6822EA0302BC
:109A1000CA6002682E441343036096F8B432F02BF8
:109A200001D803B0F0BD0E4B5B5D8DF80430F02122
:109A300003224FF4807301A886F8B4128DF8052034
:109A4000ADF80630FFF708FE03B0F0BD704700BF69
:109A50007C82060828530020003C0140083C01405D
:109A60006CF006082DE9F041764CD4F808331E78E6
:109A7000012E84B01AD194F8C927013A1A7194F8CA
:109A8000CA5704F54277002D08BF682538464FF0C5
:109A9000000833460DF10502752184F80C538DF84A
:109AA000058043F0CFFA0546002848D1D4F80833A2
:109AB00002221A7094F8C73723B90025284604B04B
:109AC000BDE8F08194F8C6175F4842F0E3FF054611
:109AD0000028F2D094F8C7073EF046FF94F8C43748
:109AE000C4F810030133DBB210B12422C3718271B8
:109AF00009213AF0D7FED4F810033FF0A1FA94F808
:109B0000C807002848D1514AD36C632BFCD9504870
:109B1000504F514EDFF8308142F0F4FFA4F80C03AF
:109B200002E057F8046F5EB34046B0470346002892
:109B3000F7D0454884F8D43343F000FABEE73846FE
:109B400043F0FCF93346414638460DF1060243F036
:109B500079FA9DF8063003F07E038DF8063008B1DF
:109B6000682B2DD09DF8053003F07E03682B8DF80F
:109B7000053028D0702BA1D1042384F8D4339DE77D
:109B800094F8C70741F076FF94F8C807002894D0EE
:109B900041F070FF354691E73EF0E6FE94F8C43799
:109BA000C4F8A0030133DBB210B15A22C371827131
:109BB00009213AF077FED4F8A0033FF041FAA2E77A
:109BC00084F8D4637AE7062302261F4884F8D46316
:109BD000194602AA43F036FAD8B19DF80D309DF827
:109BE0000B209DF80910B3405200324003F00403EB
:109BF000134301F0010213430BD0012B1DD0022BA4
:109C000017D003F00303032B13D0032042F0ACF86A
:109C100054E70D4801230DF107020C2143F012FA1D
:109C20000028F2D09DF8073013F00F03EDD0042B7D
:109C300003D0012384F8D53340E7002384F8D533DB
:109C40003CE700BF2853002030560020304200205F
:109C500040420F0054830608B5B60508024B5A6F00
:109C6000136A002BFCD1704738310020B0B10C4989
:109C7000D1F8D437102B03D1052100203AF0B2BF20
:109C800003EB43020A4482F8D807202082F8D90760
:109C90000120034482F8DA07C1F8D437704700BFC7
:109CA00028530020F0B53E4CD4F808231378012B3C
:109CB00095B006D0022B01D1136AE3B1002015B094
:109CC000F0BD92F904506A1CF8D0022DF6DC0DF1BB
:109CD0000E06024694F80C13009628465AF042F9F4
:109CE0000028EBD028465AF0EDF90028E6D09DF880
:109CF0000E0015B0F0BD60F07F0001210DF10F05E1
:109D00008DF80F0000260DF10E000027CDE9083375
:109D1000CDE90E6705938DF81C300D9310931293C7
:109D2000049506910B918DF830108DF844100A902F
:109D3000EFF31180102383F31288D4F808331B6AE1
:109D40000BB3069B04AD29461BB1CB691431002B24
:109D5000FBD1136A0BB39A683AB98B420AD01A68DE
:109D60002AB15B689A68002AF7D01433F3E70D4AEA
:109D7000C3E90025C0B280F31188D4F80823136A20
:109D8000002BFCD1B3E704ABC0B2136280F311889F
:109D900004F5427055F0A8FBEFE7024A1A60FFDEB7
:109DA00028530020305600202DE9F04F2DED028B76
:109DB000AA4C95B01E2204F6080000215EF0AAF815
:109DC00094F828381BB194F8293884F8083894F8A6
:109DD0002A381BB194F82B3884F80D3894F82C38B5
:109DE0001BB194F82D3884F8123894F82E381BB132
:109DF00094F82F3884F8173894F830381BB194F859
:109E0000313884F81C3894F832381BB194F8333860
:109E100084F8213894F83A380393013B5FB2DBB2FF
:109E200002937B1C00F0B0808D4B8E4E53F8372090
:109E3000019203EBC7034FF0000A1B7908EE103ABA
:109E4000B146D046D34699F800503946284645B326
:109E500043F062FB034628461D4613B33EF084FDE3
:109E60000BF107031321DBB220B14FF0000C83711B
:109E700080F807C03AF016FD99F8000043F07AFB2D
:109E800008F1010389F802805FFA83F84FF00703B5
:109E900089F804304FF0010389F80100AA4689F8D7
:109EA00003300BF1010BBBF1060F09F10509CAD113
:109EB00018EE100AFFF7B8FC6B4A6C4B51680B4068
:109EC00043F44033536017B9BAF1000F0BD1684D1A
:109ED0004820FFF7A9FC284602215AF015FCAB6880
:109EE00043F00103AB606049614B4A68B4F8340841
:109EF00042F400024A605A6822F480525A609A6B17
:109F000022F4401242F480129A63DA6842F460024A
:109F1000DA609D6B85F44012C2F3015202EB8202BB
:109F20001F2101FA02FC25EA0C054FF0110C0CFA76
:109F300002F22A439A63DA6842F0E062DA609D6BCB
:109F4000C5F30152C2F10402D2B202EB8202914087
:109F50004FF0120C25EA01050CFA02F22A439A632B
:109F6000E8B1B4F83628C4F84008AAB1B4F83838D3
:109F7000C4F844286BB13F499B1A91FBF3F3C4F832
:109F80004838BAF1000F0DD115B0BDEC028BBDE819
:109F9000F08F394B1B88EEE7384B1A88E6E7384BD1
:109FA0001888DEE7019D414628465AF0ADFB06F1D0
:109FB0001E0E012117E0EB6823EA0B031A43EA6047
:109FC0004B1E03EB83031F22062902FA03F90CFA46
:109FD00003F329D86A6B22EA0902134301466B6333
:109FE000053676454ED0F378481CC0B2002BF7D02A
:109FF00096F801C03379ACF10A0202EB42024FF04D
:10A00000070A0CEB4C09BCF1090F0AFA02FB03FA30
:10A0100002F20AFA09FACED82A6903FA09F322EA07
:10A020000A0213432B61CBE7CA1FA1F10D0302EB18
:10A0300082024FF01F0A03EB83030C290AFA02F98C
:10A040000AFA03F10CFA02F200F284802B6B23EA85
:10A0500009031A4301462A63C2E700BF28530020C0
:10A0600078830608305B002000230140E030FCFFCD
:10A0700000200140803801002E7AFF1F2C7AFF1F3C
:10A080002A7AFF1F019A0299936843F40073936040
:10A09000936843F48073936093683C4443F00103F6
:10A0A00093601746022094F93B283BF051FB04468D
:10A0B00000283FF469AF466830463BF037FB2A4A38
:10A0C000431E242101FB032393F89C50002D7FF4B1
:10A0D0005BAF039983F89D10062283F89C2000282B
:10A0E0003FF452AF30463BF021FB53F07BFE6068FB
:10A0F0000DF0F0FD05A80DF0AFFDB8F1010F8CBF1C
:10A100004FF480630023A2680B933B4617480197E6
:10A110004C3305924FF400674FF48072069307901A
:10A120004FF4003360680A9505A94FF40056CDE955
:10A130000E23CDE90C76CDE908580DF09FFD62683D
:10A14000019F136843F001031360BB6843F0804331
:10A15000BB6019E7EA6A0CFA03F322EA010213432F
:10A160000146EB623CE700BF98010020745B0020D1
:10A170002DE9F84F2E4F00EB800407EBC404D4F810
:10A180005C682EB1054694F8710800F0FF0820B114
:10A190004FF000084046BDE8F88F89469A4693463E
:10A1A0003BF0C4F84FEA49010123C9B284F87218A0
:10A1B00084F873B884F8753884F8768884F874382D
:10A1C00084F8713884F87088B288C4F878A891054A
:10A1D0008146C4F87CA81DD43388DA0510D442F235
:10A1E0000F7405E03BF0A2F8A0EB0903A34215DCD5
:10A1F00033889B05F6D433889BB243F48073338055
:10A20000B3889BB243F440734FF00108B3804046DB
:10A21000BDE8F88F98464046BDE8F88FB7F8D038CB
:10A2200001339BB22846A7F8D03859F0F9FCB1E7C2
:10A23000285300200128B5EEC00A10D0F1EE10FA24
:10A240000BDD9FED177ADFED177AE0EE077AFCEE73
:10A25000E77A17EE903A98B2704700207047F1EE17
:10A2600010FA0BDD9FED107ADFED107AE0EE077A41
:10A27000FCEEE77A17EE903A98B27047EDD5F7EE1C
:10A28000007A30EE270A9FED0A7ADFED0A7AE0EED7
:10A29000077AFCEEE77A17EE903A98B2704700BF63
:10A2A00000E0F9440000404200C0794400008344CB
:10A2B00000C079C400E0824470B5464E96F8D2489A
:10A2C00004EB840306EB8303A50093F8D438032B37
:10A2D0006ED8DFE803F059291E02254406EB8505F8
:10A2E000D5F8D808002870D196F824399C425FD060
:10A2F000013404F00302934286F8D22858D002EBCE
:10A30000820406EB84040223C4F8D80884F8D43805
:10A3100070BD2B1906EB8303D3F8D82872B1013A2C
:10A32000C3F8D828002070BD2B1906EB8303D3F89F
:10A33000D828002AF3D1022283F8D428254406EB3A
:10A34000850595F8E038013BDBB285F8E0388BBB3A
:10A35000214B96F82469D3F8C012D5F8DC08621CAA
:10A3600002F003024B1E0324B242034485F8D44892
:10A37000B3FBF1F0C5F8D8081AD0994218D80138C3
:10A38000C5F8D808012070BD42F0B0FF80B1124B73
:10A390002C44D3F8C02206EB8404012102F51C539F
:10A3A00084F8D4180F33B3FBF2F3C4F8D83870BD77
:10A3B000012070BD084BD3F8C022012002F2E73320
:10A3C000B3FBF2F3C5F8D83870BD0138C5F8D8082A
:10A3D000002070BD2853002098010020F0B52D4CBE
:10A3E0002D4BD4F8402912695168994283B04CD062
:10A3F000A3F5784399424AD003F58063994214BF8C
:10A400004FF0FF3102212548013100F1D40642F01E
:10A4100041FBD4F840392248D3F8A830C4F84C396D
:10A4200006F11003C4F8D439C4F8D06942F06AFBCD
:10A430000027034601A9A6F1D400A4F84839ADF8D5
:10A440000470FEF77DF805203AF09CFF01A9A6F103
:10A45000D400ADF80470FEF773F8054620B19DF8FE
:10A4600005301E2B03D03D46284603B0F0BD0D4AF3
:10A470000D4BC4F82C290121A6F1D40084F8381A18
:10A48000C4F8303942F05AFDEEE70021BBE7012164
:10A49000B9E700BF28530020003001406C5C002069
:10A4A00080969800E12B0608753306082DE9F04FD9
:10A4B000424D95F8D433122B93B003D0002013B043
:10A4C000BDE8F08F05F54279BC213D4F484642F08A
:10A4D00043FB484601223C2142F040FCD7F84CB0F7
:10A4E000D5F808030DF1060A02AE4FF0BC080024AF
:10A4F0000DF107020123089200210022CDE902A4F8
:10A50000CDE90644CDE90C128DF806808DF8144093
:10A510000B940E941094049309938DF828308DF8C1
:10A520003C30EFF31181102383F31288D5F8083300
:10A530001B6A002B35D0049B002B3AD03346DA69D6
:10A540001433002AFBD1006A002834D082683AB95B
:10A55000984209D002682AB140688268002AF7D080
:10A560001430F3E7C0E90096C9B281F31188D5F839
:10A570000803036A002BFCD1F96C9DF807205FFAF1
:10A580008BF35B1A312B01D89107B1D5530795D4C2
:10A590000C4A0D4B0D49C5F8A413C5E9BE23012093
:10A5A0008DE70662C9B281F31188484654F09CFFDA
:10A5B000DDE73346C7E7C0F80090FFDE28530020F0
:10A5C00030420020C9C105087135060800007A3DF7
:10A5D00003681A78012A01D00020704793F90430EB
:10A5E000044A03EB830302EBC30393F87108C0B280
:10A5F000704700BF2853002010B50C4CD4F83C3AEB
:10A600001B78022B10D1D4F8440A3EF019FDD4F87F
:10A61000440A08B12323C38001213AF043F90448D6
:10A6200042F070FAA4F8400A10BD00BF2853002081
:10A6300080969800054BD3F83C2A1278022A03D161
:10A64000D3F8440A41F0F6B9704700BF2853002000
:10A6500030B583B00D46012301460DF107020446D3
:10A66000074842F0EFFC9DF8072035EA020304D0CA
:10A6700003482A43214642F07BFD03B030BD00BFB2
:10A68000645D002038B505460A460C460648294652
:10A6900042F064FB45F08001034842F05DFA231A62
:10A6A0005842584138BD00BF645D0020F0B53B4CB6
:10A6B000D4F83C5A2B78022B95B018D0012B02D03D
:10A6C000002015B0F0BD95F904506B1CF8D0022D98
:10A6D000F6DC0091134694F8401A0246284659F0D9
:10A6E00041FC0028ECD0284659F0ECFCE9E72B6A45
:10A6F000002BE5D10DF10F0C8DF80F000026012085
:10A700000027CDE90833CDE90A12CDE90E6705939C
:10A710008DF81C300D9310931293CDF810C0069055
:10A720008DF830008DF84400EFF31180102383F38F
:10A730001288D4F83C3A1B6A13B3069B04AE324627
:10A740001BB1D3691432002BFBD12B6A13B3996868
:10A7500039B993420AD0196829B15B689968002910
:10A76000F7D01433F3E70E4AC3E90026C0B280F3F2
:10A770001188D4F83C2A136A002BFCD10120A0E7F1
:10A7800004ABC0B22B6280F3118804F63C2054F075
:10A79000ABFEEEE7024A1A60FFDE00BF285300203E
:10A7A000645D002070B503681D78022D14D0012D62
:10A7B00001D0002070BD044693F904000A4B421CEE
:10A7C00083F8085BF5D00228F3DC0A4603F6083369
:10A7D0002179BDE87040CBE41B6A002BE9D101224E
:10A7E00042F0BCFA012070BD2853002013B53A4C4A
:10A7F0000023D4F8182B8DF80730137803F0FD01EF
:10A80000012905D194F81C1B11B90C2184F81C1BDB
:10A81000022B1ED0032B2ED001220B212F4850F0EB
:10A8200071FD04203AF0AEFD2C4801230DF1070222
:10A83000002150F089FD002839D09DF80730482BC1
:10A8400035D1274BC4F80C3B264BC4F8103B02B063
:10A8500010BDD4F8200B3EF0F3FBD4F8200B08B168
:10A860003623C38001213AF01DF81F4842F04AF90F
:10A87000A4F81C0BD0E7D4F8C83F506846F2A811E2
:10A880001961002380F888301222372150F00EFD24
:10A89000D4F8183B0D225868242150F007FDD4F855
:10A8A000183B302258686A2150F000FDB4E7D4F814
:10A8B000183B1A78022A03D0032A07D00020C6E7E3
:10A8C000D4F8200B41F0B6F80020C0E758681022F9
:10A8D000372150F0EBFCF1E728530020405E0020C8
:10A8E000A7B3050829B405088096980010B58CB068
:10A8F00000234CF20502044601A9CDE90633CDE957
:10A900000833ADF800208DF8023003220B930123A9
:10A91000CDE903128DF814308DF82830CDF808D029
:10A9200042F006FB204602A941F03AFF204642F0E1
:10A93000FFFA9DF806000CB010BD00BF08480023C8
:10A9400002461178022902F1060204D00133062BD7
:10A95000F7D10020704703EB430300EB430070473F
:10A96000706500202DE9F041614C82B0242204F58D
:10A97000A87000215DF0CEFA94F879710023C4F834
:10A980007431002F3CD15B4ED6F8B43063B39B6A70
:10A9900053B359489847836833B303885748013BFA
:10A9A0009BB28446064600253178032906F1060647
:10A9B0001ED00135062DF7D100220178022900F1C1
:10A9C000060000F08F800132062AF6D1D4F8741107
:10A9D000052909D0481C02FB01C2C4F874010220F9
:10A9E0000021938010705180384602B0BDE8F0819C
:10A9F000062303FB0545B5F85231013B9BB2DBE76B
:10AA000094F8780104F5C073C4F87C3110B9394E5C
:10AA10000027B9E73DF0A8FFC4F8880118B1837991
:10AA20000BB1422BF3D13648394642F033F8804619
:10AA30000028ECD0D4F87C312F4A9868C3F89420D1
:10AA400008B12223C380092139F02CFFD4F87C31CE
:10AA5000284E98683EF0F4FA2A48D4F87C5142F027
:10AA600051F80123A8803220C6F8D45086F8D83097
:10AA70003AF088FC0423D4F87C0100250DEB030296
:10AA80009F21019542F016F99DF805509DF804307C
:10AA90009DF806102D0245EA03450D43294606F1AF
:10AAA000B4004FF017FC08BB2846FDF7A1FDE8B93C
:10AAB0009DF806509DF805209DF807302D0245EAC7
:10AAC00002451D43294606F1B4004FF065FA68B906
:10AAD0002846FDF78DFD074640B994F8780140F00F
:10AAE000C9FF51E7062101FB02C278E747464BE761
:10AAF0002064002030420020E442002070650020E5
:10AB0000A0650020404B4C00F0B40D6800240CE020
:10AB1000BCF1050F18D8A0F137030A2B14D104EBB0
:10AB2000840415F8010B03EB4404A0F13003DEB2FA
:10AB3000092EA0F16107A0F1410CF0D9052FE7D84B
:10AB4000A0F157030A2BEAD00D601460F0BC7047E7
:10AB50002DE9F041C44BC54EC54DC64C0822C3F883
:10AB60008820336B82B043F00103336307464FF410
:10AB7000C052284640F2023388466946CDE9002398
:10AB80000DF0DAF96B6AC4F8FC8723F470436B624A
:10AB90006B6AC4F8047843F420436B626B6AB6496D
:10ABA000C4F8001823F470236B626B6AB348C4F8CE
:10ABB000180243F420236B62736CB149C4F81C1271
:10ABC00043F480437364736BAE48AF49C4F8280202
:10ABD00043F0800302257363AC4F84F82052AC4EDF
:10ABE000AC4DC4F86C124FF0A043C4F82432AA4A0A
:10ABF000C4F8347203F53463A1F5D071C4F870520F
:10AC0000C4F83862C4F87432C4F83C120123DFF887
:10AC1000B8C2C4F830C207F51077A5F5E465A6F50B
:10AC2000A066A1F58C61C4F87872C4F82C52C4F8FF
:10AC3000E46284F8233205F5A075536106F5B07619
:10AC4000C4F8A81284F82A331946944B944AC4F8DD
:10AC5000B052A7F5BC67A035C4F8BC62914EC4F8E9
:10AC6000B872C4F8C03207F5D45703F56953C4F875
:10AC7000C4524FF050250020DFF850E2C4F8E8221B
:10AC8000ACF5687C02F5A042C4F8EC72C4F8F0623E
:10AC900007F5A04706F5A046C4F8F432C4F8F85208
:10ACA000A3F5485304F50675C4E9C076C4F8FC2240
:10ACB000C4F82433C4F8ACE2C4F8B4C202462B464C
:10ACC00084F82C03402683F81C21A3F822210132AA
:10ACD000042AC3E9496083F81D1183F81F01C3F8F2
:10ACE000300103F12803EED1002211462B4640200B
:10ACF00083F87423A3F87A230132042AC3E9DF011D
:10AD000083F8751383F87713C3F8881303F12803C6
:10AD1000EED14FF0A04364489A6822F001029A6095
:10AD2000DA6842F04002DA600CF0C4F994F821329B
:10AD30000022212161F317420BB142F4801294F8F2
:10AD40001B12D4F8243201299A6300F0E480DA68F7
:10AD5000D4F82463D4F82802C2F3076121F060011B
:10AD600041F0400161F31F620021DA603160026846
:10AD700061F3CC22026094F82322012A00F0B8800B
:10AD800010214A480CF0E8FC48480CF0CBFCD4F801
:10AD9000280294F8193200224FF0FF31026142611B
:10ADA0008161C26153B305F11407414E114607EBAF
:10ADB00083074FEA830C4FF0FF0E56F8042F1368F9
:10ADC000002BACBF00234FF09043B74213601161DA
:10ADD000C2F808E0F1D105F1500336496344002779
:10ADE000FF2651F8042F1568002DACBF00254FF049
:10ADF00090459942156017619660F2D1036994F805
:10AE00001B1243F480730129036161D0D4F824221A
:10AE100029480023936100294FF0FF336FF08041F0
:10AE200051615360516114BF00231023906143F4BA
:10AE300070139069D4F8001843F4605343F008038A
:10AE4000034393619368096843F001039360884763
:10AE50001A4B1B4ADA6068461A4B0093FEF7FCFB5C
:10AE600002B0BDE8F08100BF00E100E00038024020
:10AE700000000240206400205C040020080401005F
:10AE80004000400100080050000B00502009005015
:10AE900040090050200B0050003C0140C00500500C
:10AEA000001000500030005044660020386600203A
:10AEB0004C660020886600200008008000ED00E05D
:10AEC0000005FA054302000100090050200500506A
:10AED000D4F82422144B03636FF08041134D0023F8
:10AEE0004FF0FF30936151615060516195619EE771
:10AEF00001680F4A0F4E41F0030101608021596241
:10AF00009E62C3F80421E022C3F80821C0F2400287
:10AF1000C3F80C2134E79A6822F03E0141F02A017F
:10AF200061F307029A6012E70301810000080080C4
:10AF3000A00040008000200010B5184C94F80D08C7
:10AF400088B9174B83F86D00186794F81038012BF7
:10AF50001FD0D4F8143803B312495B68BDE8104021
:10AF6000A1F10C0018473DF0FFFC94F80F280C49A4
:10AF7000003A18BF012281F86D2008670028E4D04C
:10AF80002122C280202139F08DFC94F81038012B49
:10AF9000DFD1054BC4F81438DEE710BD2064002073
:10AFA00038310020386C00207804002099B10A6BF9
:10AFB000824216D9154BD3F85428914221D35C39DB
:10AFC00091421ED30B6B9842F9D38B6B9842F6D803
:10AFD0000B46184670470D4BD3F854180A6B904235
:10AFE00012D30B680BB9F4E70A6B90420B4602D3FD
:10AFF0008A6B9042EDD951F85C3F002BF4D1184692
:10B0000070470023184670470A46D8E7206400209E
:10B010002DE9F047CC0143D10346224A43F8082BDF
:10B020004FF0FF324260022418467E26DFF8788017
:10B03000D8F858982644013E051D49466FF07047E0
:10B040004FF0010A08E0A3421CD0631C45F8043C01
:10B05000321B1C460435CAB10B6BA34202D88B6B62
:10B06000A34204D22046FFF7A1FF014690B10A791E
:10B070004B6B002AE7D1A34204D0E6D245F8042C5A
:10B08000631CE5E745F8047C631CE1E7C8F8581841
:10B09000BDE8F08745F804AC321B631C4946D8E78D
:10B0A0008026C3E7F8FFFF0F2064002070B44479C6
:10B0B00041BB03684FF400524FF400762025022173
:10B0C0003CBB1A8C22F001021204120C1A841A8B57
:10B0D000188C22F0F30280B2120420F00A00120C45
:10B0E000014342F0010241F001011A8319841A8BD5
:10B0F00022F00C021204120C1A831A8B92B270BC4A
:10B100001A83704700220368164615461146002C24
:10B11000D7D0042C21D0082C38D0198C21F48051A0
:10B120000904090C19849C8B1D8C45F6FF7040F6B0
:10B13000FF4128402140024342F4805241F4807193
:10B1400099831A849A8B22F440621204120C9A8317
:10B150009A8B92B270BC9A8370471A8C22F01002BC
:10B160001204120C1A84188B198C89B240F6FF4213
:10B1700021F0A00102400D4342F4807245F0100519
:10B180001A831D841A8B22F44062B3E71A8C22F4CE
:10B1900080721204120C1A84998B1A8C21F0F3011C
:10B1A00092B2090422F42062090C324342F4807204
:10B1B00041F0010199831A849A8B22F00C02C4E7B2
:10B1C00010B5044600680CF0BBFD0C4B1A68204615
:10B1D00052084FF6FF7138F0B3FF20460021FFF709
:10B1E00065FF0749074BC1F8FC3C20460022BDE83B
:10B1F000104001F6FC4138F0B1BE00BF38310020EC
:10B20000304200203BC001080E4A10B50E4CC2F877
:10B2100074480E4CC2F86C4800230D4CC2F860080C
:10B22000A2F86418C2F86838A2F86638C2F8704804
:10B2300082F87838282202FB03F403530133994241
:10B24000F9D110BD2064002040420F0020A107006A
:10B25000A01CE9FF036870B55E6A26B1334625225B
:10B26000BDE87040184704460D4601F1250600E090
:10B2700023689B68204698470028F9D0236815F872
:10B28000011B1B6820469847B542F1D170BD00BF35
:10B29000036870B55E6A26B133461922BDE8704076
:10B2A000184704460D4601F1190600E023689B6823
:10B2B000204698470028F9D0236815F8011B1B6821
:10B2C00020469847B542F1D170BD00BF2DE9F04747
:10B2D000164D0746002095F9819805F6880684B03A
:10B2E00007EB010805F6283504464FF0B60A336827
:10B2F000ABB193F83830142B11D019F1020F01D0F3
:10B300004B450CD1002269463046CDE90244CDE9D7
:10B310000078ADF808A08DF80D4031F033F8E03634
:10B32000B542E4D104B0BDE8F08700BF206400203E
:10B33000B5EE400AF1EE10FA04D0F5EE400AF1EE57
:10B3400010FA07D1074B0849084A8260C0E900316A
:10B350000C301847064B0749044A8260C0E90031A7
:10B36000F6E700BF014D0508FD3B0508613B0508F8
:10B37000BD440508B53B050890B10B4BB0F5167FF1
:10B3800093ED007AF2EE047AA8BF4FF4167027EE20
:10B39000277A07EE900AF8EEE77A87EE270A7047D9
:10B3A0009FED020A704700BF5C51002000000000C2
:10B3B0009FED737A9FED736A60EE877AF4EEC07A40
:10B3C000F1EE10FA98BFB0EE670A60EE067AC7EEAB
:10B3D000A06AFDEEE67A17EE903A2033402B00F299
:10B3E000C080DFED697AF4EEE76AF1EE10FAF0EE74
:10B3F000667A0ADDDFED655AB0EE677AB4EEE57A7B
:10B40000F1EE10FA77EEC67AF6DC9FED617AF4EE93
:10B41000C77AF1EE10FA0CD5DFED5A5A9FED5D6A4E
:10B42000B0EE677AB4EEC67AF1EE10FA77EEA57A4E
:10B43000F6D49FED597AF4EEC77AF1EE10FA00F3E4
:10B4400088809FED567AF4EEC77AF1EE10FA44BF89
:10B450009FED4F7A77EE677A67EEA75A9FED505AC5
:10B460009FED507A9FED506AA5EE857A27EEA55A9A
:10B47000A5EE876AB6EE007AE5EE067A27EE877AC1
:10B480009FED456A76EE867AFDEEE75A15EE903A24
:10B490002033402B62D8F4EEC66AF1EE10FA0CDDD0
:10B4A000DFED385A9FED396AF0EE676AF4EEC66A4E
:10B4B000F1EE10FA77EEE57AF6DCDFED356AF4EEC0
:10B4C000E67AF1EE10FA0CD5DFED2E5A9FED316AD7
:10B4D000F0EE676AF4EEC66AF1EE10FA77EEA57A3E
:10B4E000F6D4DFED2D6AF4EEE67AF1EE10FA3BDDEC
:10B4F000DFED256A76EEE77A67EEA75A9FED285AC8
:10B500009FED286ADFED286AA5EE856A27EEA55A29
:10B51000E5EE866AB8EE006AE5EE267A67EE867A90
:10B52000C7EE016AB7EE006A76EE865A76EE666A74
:10B5300086EE257A67EE277A66EE876AC0ED057A91
:10B54000C0ED077A80ED047A80ED067AC0ED086AD6
:10B5500070479FED0D7A77EE677A7DE7DFED137A1E
:10B56000DEE79FED127A8BE7DFED0C6AF4EEE67A08
:10B57000F1EE10FA44BFDFED066A76EEE77ABBE73C
:10B580003333F33EDB0FC940DB0F4940E4CB1641B8
:10B59000DB0F49C0E4CB16C1DB0FC93FDB0FC9BFCE
:10B5A00092E741B99730083C15A82ABE0000000078
:10B5B0002DE9F04FA84AA94CB2F8C012B2F8BE3239
:10B5C0002DED068B07EE901A0AEE103A94F8FD3E28
:10B5D000DFEDA3AAF8EE679A07EE903AB4F8FE3EC4
:10B5E000F8EEE77AF2EE046A0A2B87EEA67AB8BF85
:10B5F0000A239246002285B004F62837C4F8382B77
:10B6000004F6087904F6187B04F5736607EE903AA1
:10B61000B4F8003F87ED007A08EE103AF8EEE78ABA
:10B62000B8EEC88AB6EE009AF4EE488A29EE890A86
:10B63000F1EE10FAC8BFB0EE688A94F8FC3EC7ED90
:10B64000018AB4EEC80AF1EE10FAD8BFB0EE408A13
:10B65000082BA8BF0823B1F57A7F38BF134680EEC8
:10B66000080AC4F8343B87ED028A5AF0D1F8B7EEE5
:10B67000007AB4EE470AF1EE10FA48BFB0EE470A7E
:10B68000FDEEC07AB8EE4AAAF8EEE76A17EE905AD5
:10B69000CAEE297A04F60C73C4F8045F67EEA67A42
:10B6A00087EE276A89EEA67ADFED6E7A89ED006A69
:10B6B000C7EE279A88EEA90AC3ED009A5AF046F918
:10B6C0000228B8BF022088EE290A8046C4F8100F6D
:10B6D0005AF03CF92328A8BF2320B8F1230FA8BFB4
:10B6E0004FF023084045C4F8140FB8BF404609F294
:10B6F0002473012DA0EB0801DBED007A9FED5A8A3F
:10B7000000938146B8BF01250131F5EE407AF1EE94
:10B7100010FA2CD1554A9FED56AA019500230296A6
:10B720001D46164607EE905AF8EEE79A039169EE29
:10B73000AA9A0135B0EE690A4DF0FEFBF0EE408AA0
:10B74000B0EE690A4DF084FBA8EE880A242D039917
:10B7500020EE0A0A68EE8A8A86ED000AC6ED018AA2
:10B7600006F10806DED1DDE90156DFED427A91FBF4
:10B77000F5F2002346E9053846F8082C46F80C9CFB
:10B7800046F8045C32460133482BA2EC018AFAD118
:10B790003948D0F804C1D0F8080106F590730022AA
:10B7A0000132242AC3F800C0586003F10803F7D11E
:10B7B000009B06F515769E42A7D1DFF8C490DFED19
:10B7C0002F8ACBED007A0026B819CB464FF000083F
:10B7D000D4F8343B984500F1240531DA07EE908A1D
:10B7E00097ED016AF8EEE76AD7ED027A36EE897ACC
:10B7F00077EEC67A743067EE877A07EE103AB8EEC5
:10B80000C77ABAF8BE3287EE870A042108F1010828
:10B8100000EE903A30EE060AF8EE600AABEC010A50
:10B8200097ED001A85ED178AA6EEA81A85ED168AFF
:10B8300085ED158A85ED148A4DF09AFC2846C7E7F8
:10B8400006F59076B6F5587F09F12009BCD105B010
:10B85000BDEC068BBDE8F08F28530020206400204B
:10B86000C3B8B23D0000904200000000387A0020CA
:10B8700072F97F3FBC297E3F7C820608CDCC4C3ECE
:10B880005C6F00202DE9F04F2DED028BDFF89C81DD
:10B89000DFF89CA19FED608A85B008F13004012794
:10B8A000FEB218F8010B3246592138F0FFFD05466B
:10B8B000002800F08C800368A0600122B3F1804F63
:10B8C00004F8282C00F08E80544A934200F08A80BD
:10B8D000DAF8003007EE903AF8EE677A002180201F
:10B8E0004F4A44F8100CA2FB0323DB08002244F863
:10B8F0000C3C4FF4005C012344E906C218F8010C2B
:10B9000044ED087A04F8271C04ED098A44F8082C51
:10B9100024F81C3C24F81A3C3DF026F8E06010B1F5
:10B920005923C6718371DFF80C9199F84436012BC5
:10B930006FD0022B0CBF422102216A7A3DF000F940
:10B94000DAF800102846FDF7A9FE14F8273C002B72
:10B9500051D02146334B41F8043D0022284638F0AF
:10B96000FDFA99F845362868002B4FF0010B14BFFB
:10B9700000230223CDF808B06979ADF8063004231E
:10B98000ADF804100DEB0301ADF80C300BF0CEFF59
:10B9900054F8103CA16899F828070968013E013B5A
:10B9A0009BB2F6B20B854FF0FF3200234FF40055E7
:10B9B000B042CA62A1F814B044E9065324F81CBC92
:10B9C00024F81ABC44F8083C01D138F0B5F8013726
:10B9D000052F04F138047FF463AF05B0BDEC028B92
:10B9E000BDE8F08FDAF8003007EE903A0121F8EE6A
:10B9F000677A084674E70C48DFF83CC044F8040C4A
:10BA000063602246211F2846C4F800C038F0A6FA19
:10BA1000A7E7222191E700BF00000000000C0040D2
:10BA20001F85EB514132040875330408587B002010
:10BA300038310020187500205D3B04080C480D4B80
:10BA4000D0F8441710B40C4CC0F834378A1E223199
:10BA5000B0F850371B01A4FB03C3DB08A3F5B063A8
:10BA600022F8023F9142F3D15DF8044B704700BFCA
:10BA700018750020E5510208CDCCCCCCF0B5274C90
:10BA800085B004F5EC630546C4F84437FFF7D6FFEC
:10BA9000234A244BC4F838271A21402084F82E1753
:10BAA000C4F83C3733F01CFA002835D094F89D37A1
:10BAB00094F89E7794F89F6790F904001A4A002D35
:10BAC00014BF4FF4E1314FF4E121002B14BF0223E6
:10BAD0000023002F14BF30250025002E18BF43F08F
:10BAE00001032B430325CDE901530091002340219D
:10BAF00033F053FAC4F8B40748B10C480DF034F9E8
:10BB000094F8B93784F8B8070BB984F8B957D4F862
:10BB1000B407003818BF012005B0F0BD187500202B
:10BB2000C956020801C102083D5B020815C202089D
:10BB300070B5084C251D2E4614F8010B30F040FE60
:10BB400028B1037905F8013BB442F5D170BDFF235C
:10BB5000F8E700BFD47C00202DE9F0471D4F0126F7
:10BB600007F10805B2464FF03D094FF0000817F8FD
:10BB7000010B3CF0F9FE044690B180F80690C671C6
:10BB8000FB7803F07F02012A18D013F0800F2046C3
:10BB90000DD185F804803DF04DFA85F805802C60C4
:10BBA0000136052E05F10805E1D1BDE8F08785F8DD
:10BBB00004A03DF045FA85F805A0F0E71B0605D482
:10BBC0000121204638F06EFEFB78DEE73DF038FAC2
:10BBD000F6E700BFDC7C00202DE9F04F0C68B64E84
:10BBE000B64F25883668B6FBF2F2013B013ABC42FB
:10BBF00096B283B09BB2AAB211D0B14DAC420ED076
:10BC0000B4F1804F0BD0A5F58035AC4207D005F5D7
:10BC10008065AC4203D005F58065AC4202D122F0CC
:10BC2000700292B2A74DAC4211D005F58065AC42CE
:10BC30000DD022F4407205F56C4592B2AC422280E0
:10BC4000E362268540F021810023238602E02280E2
:10BC5000E36226850126A6820B7A4A7913F0020553
:10BC600072D00021DB0003F008038E460191884664
:10BC70000F468C460E464FF480654FF0400A4FF059
:10BC8000040B0C2A08D8DFE802F0CC070707A0074E
:10BC900007071807070771000C2A3DD8DFE812F0E4
:10BCA000EC003C003C003C00B8003C003C003C0088
:10BCB0003C003C003C003C008C00218CDFF8FC8107
:10BCC00021F480710904090C2184218CB4F80490BA
:10BCD000A68B89B226F0730621F4007136040F4357
:10BCE000360C444547EA0C211FFA89F946F06006F4
:10BCF00000F0D080724FBC4200F0CC800023A4F84A
:10BD00000490A683E3632184A38B23F008031B0420
:10BD10001B0C43F00803A383B4F844306FEA434399
:10BD20006FEA53439BB2A4F84430238821469BB268
:10BD300043F0010321F8343B00238D18C0E900547F
:10BD40008B5003B0BDE8F08F5B004FF4806703F0C9
:10BD5000020C0197AA462B46AB464FF480414FF4A4
:10BD6000805E4FF010084FF480778AE7238C534EA3
:10BD700023F480531B041B0C2384238CB4F804800D
:10BD8000A78B9BB227F4E64723F400533F044EEA07
:10BD900003053F0CB44245EA0C3347F4C0471FFA91
:10BDA00088F500F0848006F58066B4427FD00021DB
:10BDB000A580A78321642384A38B23F400631B0441
:10BDC0001B0C43F40063A383A6E7218C3B4E21F0B8
:10BDD00010010904090C2184218CA788258B89B2C4
:10BDE00025F4E64521F020012D0448EA01012D0C3F
:10BDF000B44241EA0C11BFB245F4C0456FD006F51C
:10BE00008066B4426BD00023A7802583A36321847E
:10BE1000238B23F400631B041B0C43F40063238374
:10BE20007AE7218CDFF894E021F001010904090C84
:10BE30002184258CB4F80480B4F8189025F002050C
:10BE400029F073092D044FEA09494CEA06012D0C2B
:10BE50004FEA1949744545EA01061FFA88F849F086
:10BE6000600931D016498C422ED00023A4F80480FA
:10BE7000A4F8189063632684238B23F008031B0423
:10BE80001B0C43F00803238346E70D4B9C423FF411
:10BE9000DBAEDFE621F4006141EA032323F4806393
:10BEA00029F4405943EA050149EA0E0926E725F439
:10BEB00080450D437BE700BF383100200000014082
:10BEC00000040140001000404FF6F375354028F49F
:10BED00040782B4348EA070843EA0B06C5E721F000
:10BEE000800141EA031323F04001019B27F44067DE
:10BEF00041EA0A011F4386E72F4B9FED304AB3F812
:10BF0000BE3207EE103ABAEEEF7AF0EE607AB4EE97
:10BF1000C70AF1EE10FA70B5F0EE404AF0EE410AB1
:10BF200006DDF4EEC77AF1EE10FA3CD5F0EE474AA2
:10BF3000F5EEC04AF1EE10FA3ADDF5EEC07AF1EE18
:10BF400010FA35DD27EEA47A67EEE77AE4EEA47AFC
:10BF500087EE271A1A4C1B4D1B4E00F10C0200F104
:10BF60009C0142E9026542F80C4CF5EEC04AF1EE44
:10BF700010FA14DDB5EEC01AF1EE10FA0FDD134B16
:10BF800042F8083C82ED034A82ED024A82ED014A02
:10BF900082ED004AB0EE640A1046FFF709FA30322B
:10BFA0008A42DED170BDF0EE444AB0EE441AD1E7C9
:10BFB0009FED021ACEE700BF2853002000000000CA
:10BFC000014D0508613B0508FD3B0508B53B05082B
:10BFD0000A44914215D030B441F2210511F8014BC9
:10BFE000082380EA042010F4004F85EA40040ABFC9
:10BFF0004000A0B280B2013BF5D18A42EED130BC04
:10C00000704770472DE9F041214E224F96F8EF37E7
:10C0100087F84C3206F2EC7607F5147500244FF0E1
:10C02000050816F8010B20BB28600134032C05F12C
:10C030000405F6D197F84C12D7F85002C94301F025
:10C0400001013DF003F897F84C12D7F8540281F043
:10C050000201C1F340013CF0F9FF97F84C12D7F808
:10C06000580281F00401BDE8F041C1F380013CF0C9
:10C07000EDBF3CF079FC013401212860E3B210B13E
:10C0800080F80680C371286838F00CFCCEE700BF4A
:10C090001875002028530020F8B5244C244EB4F81D
:10C0A000F457A6F85C52E5B994F8F0073CF05CFC54
:10C0B00094F8F127C6F86002003A18BF012286F80A
:10C0C0005E2248B194F8F2172D22002914BF1121E5
:10C0D0000121C28038F0E6FBBDE8F84000203DF0C9
:10C0E00013B894F8F077002238462D2138F0DEF9A5
:10C0F000044638463CF038FCB0B1ACB10D4F2D22AF
:10C10000B861C280617AFDF7ADFB0B49B1FBF5F177
:10C110002046C1F34F0289B2A6F86452FBF770FFC4
:10C120007A68002313607B75F8BD00BF1875002086
:10C13000285300203831002040420F002DE9F84FED
:10C14000244C94F8003884F8F63704F2F777002688
:10C1500004F614045FFA86FB0BF101085FFA88F815
:10C16000012117F8010F42460E448A4638F09EF925
:10C170004FF00009054638B3387804F80E9C04F8EF
:10C180000D9C04F80FBC04F810AC44F8045C3CF0BF
:10C19000EBFB18B180F806A080F80780697AFDF7FC
:10C1A00061FB0D492846FDF779FA0C4B23600C4BD7
:10C1B000221D21462846C4E9013937F0CFFE6979AE
:10C1C00028684A462EF04CFE082E04F11C04C1D10A
:10C1D000BDE8F88F1875002040420F0099AE0308A3
:10C1E0008171030870B52B4C2B4B94F82C09C4F8C3
:10C1F000243900220221C4F8E428C4F8E828C4F84D
:10C20000EC28C4F82029A4F8282938F04FF9002890
:10C2100034D0224B0168054603F160005A7C12B10C
:10C220005A6891422BD018338342F7D1002394F8F7
:10C230002C09C4F8105884F804383CF095FB08B178
:10C240000223C380697AFDF70DFB28461449FDF7E8
:10C2500025FA144A1449C4F814180026111F284658
:10C26000124BC4F81838C4F81C6837F077FE6979A7
:10C2700028683246BDE870402EF0F2BD70BD0B8DCF
:10C280000B4A0C4912689BB20133B2FBF3F381F8FD
:10C290000433CBE71875002000FFFF00784300202F
:10C2A00040420F00307D0020A97103084573030848
:10C2B00038310020980100202DE9F04FC84E96F843
:10C2C0001AC1BCF1030F85B00446ACF105032BD8AD
:10C2D000C44F4FF00108032B87F8848D32D9002317
:10C2E000204687F89039FCF70DFADFF824B3CBF835
:10C2F0001402DBF81432002B00F09D800022012193
:10C3000083F8244083F8251083F826209A6244B1EC
:10C310002C33B54A1C4412F8011B03F8011B9C4244
:10C32000F9D105B0BDE8F08FDAB2032AD0D9AD4A11
:10C330000021032B82F8841D77D9DFF8D4B282F86C
:10C340009019D6E796F8233187F89089012B00F0F1
:10C35000A080022B7BD0A54BDFF8B8E203931D46EB
:10C36000BEE80F000FC5BEE80F000FC596F822818A
:10C37000DEF80020DFF898B22A60B8F1000218BF9A
:10C3800001229B4B8BF82922BCF1070FC7F87039AB
:10C3900000F20681BCF1040F00F24281DFF87892CE
:10C3A000CDF808B0A9F12303002500935FFA85FAC0
:10C3B0000AF101085FFA88F8AC4242464FF00301E7
:10C3C00005F101052CDD009810F8013B009018469E
:10C3D000019338F06BF8019B83461846BBF1000FC0
:10C3E00000F0E6803CF0C0FA034651465846C9F8D2
:10C3F000143023B14FF003029A7183F807809BF841
:10C40000083096F81A2151F0C1FD002800F0D080C4
:10C410004FF00103042D89F8113009F11809C5D135
:10C42000DDE902B3CBF8143263E70123DFF8E0B1B2
:10C4300082F890395DE76F4D6F4C0FCD0FC40FCD73
:10C440000FC42B6844F82039CBF8144269E796F8FA
:10C450002231002B3FF47FAFBCF1080F19D1DFF878
:10C46000B4E1DFF8ACB1BEE80F0007F51665AC46E5
:10C47000ACE80F00BEE80F00ACE80F00DEF80020CB
:10C480005B4B0395CCF800208BF82982C7F87039F4
:10C490008AE0DFF888E1594D96F82261DFF870B143
:10C4A000DFF87491C7F89449BEE80F000FC5BEE8E5
:10C4B0000F000FC500212846DEF8003040F8843B0D
:10C4C000761A18BF01264FF44C72884687F8D0C9F7
:10C4D0008BF8296287F892195BF01CFDA9F1230300
:10C4E000CDE9003405F56D754446D7F89439A3427B
:10C4F00050DD009B13F8016B0093304638F05CF878
:10C50000824630463CF030FA9AF808809BF82912AF
:10C5100008F0010A0AF1010A064687F891A909B153
:10C5200088F00108002E4DD0B17981B142290ED09A
:10C53000334B3449344AC7F84839012387F89239D4
:10C54000019CC7F84019C7F8442900236AE7304620
:10C550003FF090F84FEA4A11013441F009014FF0E1
:10C56000030369616860EE6085F81080F471B3714F
:10C57000304638F097F918F0010F30460DD03CF0F6
:10C5800059FDEB68C9F81430042C05F1200509F1B8
:10C590001809AAD1019C194B44E73CF051FDF0E782
:10C5A000BCF1080F7FF4FAAE184BC7F89839F5E6DE
:10C5B000154B134AC7F87439DDF808B0C7F8782965
:10C5C00000232FE730463FF055F84FEA4A1A4AF069
:10C5D0000901013469616860EE6085F81080C7E781
:10C5E00030420020187500204C430020787E002047
:10C5F000C1C7050888830608B87E0020487E002051
:10C60000C12A0408C92A0408C52A040831C004083C
:10C6100028530020AC83060878430020D083060806
:10C6200096F82131064AC7F89829012B05D0022B2C
:10C6300006BFB8FA88F35B09002387F89C39ADE69A
:10C6400061C00408F8B56E4F97F8AB0797F8AC5780
:10C650003CF08AF960B12F23C3802021044638F0D2
:10C6600021F90A2038F006FC20463EF0F9FF18B9FF
:10C67000D7F8883DDA0000D5F8BD013D092DFBD87B
:10C6800097F8AA47D4B9402032F02AFC0028F3D00A
:10C6900090F9043097F82D17092BC8BF143B3B4481
:10C6A0000A2993F88C4D00F09D8093F8983D97F8F7
:10C6B0009E27002A08BF1C46002CDDD020463CF0F7
:10C6C00053F90546002800F085802F23C3800121FF
:10C6D00038F0E8F8012108463CF0C0FC2B68AA8835
:10C6E0001A833C2038F04EFE002101203CF0B6FCBD
:10C6F00097F8AC37002B4CD0424C00261FE02B683B
:10C70000AA885A8338F0B6FB94F84C12D4F8500239
:10C7100001F001013CF09AFC94F84C12D4F8580254
:10C72000C1F380013CF092FC2B68AA881A83782020
:10C7300038F0A0FB97F8AC3701369E4229DA94F81E
:10C740004C12D4F85002C94301F001013CF07EFCC8
:10C7500094F84C12D4F8580281F00401C1F380011E
:10C760003CF074FC7820002DC9D1782038F082FB91
:10C7700094F84C12D4F8500201F001013CF066FC30
:10C7800094F84C12D4F85802C1F380013CF05EFCDE
:10C79000CDE797F8AA37ABB997F8AB37002B7FF402
:10C7A0006BAF97F8AD37012B7FF466AFD7F8883DB4
:10C7B00013F080537FF460AF87F8AC37BDE8F840E2
:10C7C0004DF074BA322038F0DDFD2846002138F0F3
:10C7D00069F8E1E7012138F065F8012108463CF0ED
:10C7E0003DFC7EE7D7F8B03D5B057FF545AF0DF02A
:10C7F0000DFA00287FF440AF002C7FF45FAF3BE7D9
:10C80000187500202853002048400822430010F0EB
:10C81000800F08BF400083F0D50314BFD8B2C0B268
:10C82000013AF3D1704700BF30B405688D424FF034
:10C83000000211D011F8013B08245A40530012F0B5
:10C84000800F08BF520083F0D50314BFDAB2D2B212
:10C85000013CF3D18D42EDD16B1C03602A7030BCDA
:10C86000704700BF70B4344890F8B43DA3F1300174
:10C87000092957D800F6B454224600F6C35012F8DE
:10C88000015FA5F13001092904D88242F7D10020C7
:10C8900070BC7047141B022C4ADD2848002101E0BF
:10C8A00010F8013B01EB810103EB4103161A303B09
:10C8B000022E044603F0FF01F2DC214B03FB01F1E1
:10C8C000A2424FF000030DD903EB830314F8016B70
:10C8D0005B00303B3344A24203F0FF03F4D119481C
:10C8E00000FB03F32E2D06D01748A0FB032301EB1A
:10C8F000930070BC7047013204200024157804EBCB
:10C900008404303D6400092D00F1FF30A4B202D848
:10C910002C44A4B2013210F0FF00EFD1642202FBDC
:10C920000433E1E700211D4600F6B4520B46D9E777
:10C93000064C0021C4E700BF18750020CD820020FE
:10C940008096980040420F00ABAAAAAACC82002091
:10C950002DE9F047041E0D4612DB092C26DC824A25
:10C960000B468248A0FB0410C00800EB8000A4EB3B
:10C9700040000021125C1A7059702846BDE8F0870B
:10C9800064422D23092C01F8013B24D8764A774BC9
:10C99000A3FB0403DB0803EB8303A4EB43030020A6
:10C9A000D35C48700B702846BDE8F0876F4B632C52
:10C9B000A3FB04264FEAD60621DC6B4A0B466B49E3
:10C9C000A1FB0601C90801EB8101A6EB4101515C05
:10C9D00003F8011BC5E7654A632CA2FB04364FEA46
:10C9E000D60637D8604A614BA3FB0603DB0803EB8E
:10C9F0008303A6EB4303D35C01F8013BC7E7A3FB2A
:10CA00000627B4F57A7F4FEAD7070DD2564A0B4670
:10CA10005649A1FB0701C90801EB8101A7EB4101C0
:10CA2000515C03F8011BCAE7A3FB072842F20F720F
:10CA300094424FEAD80836D84B4A0B464B49A1FBE3
:10CA40000801C90801EB8101A8EB4101515C03F821
:10CA5000011BDDE7A2FB0637B4F57A7F4FEAD70763
:10CA60000CD2414A414BA3FB0703DB0803EB8303D2
:10CA7000A7EB4303D35C01F8013BB4E7A2FB073803
:10CA800042F20F739C424FEAD80821D8364A374BFE
:10CA9000A3FB0803DB0803EB8303A8EB4303D35C8E
:10CAA00001F8013BDEE7324AA3FB080994424FEA52
:10CAB000D90921D82C4A0B462C49A1FB0901C908E8
:10CAC00001EB8101A9EB4101515C03F8011BB5E7C2
:10CAD000274BA2FB08099C424FEAD90921D8224AD8
:10CAE000224BA3FB0903DB0803EB8303A9EB4303FE
:10CAF000D35C01F8013BCAE71E4AA3FB0903944239
:10CB00004FEAD30A21D80B461849174AA1FB0A015C
:10CB1000C90801EB8101AAEB4101515C03F8011B3B
:10CB2000CAE7144BA2FB09029C424FEAD20A13D86F
:10CB30000E4B0D4AA3FB0A03DB0803EB8303AAEBAE
:10CB40004303D35C01F8013BCAE70A22BAFBF2F0C7
:10CB50004BF0F2FB0346D7E70A22BAFBF2F04BF0A8
:10CB6000EBFB0146E4E700BF10F00608CDCCCCCCCF
:10CB70009F8601003F420F0083B50C4616460546CE
:10CB800032F07AF9204632F077F90021204B08463E
:10CB9000002E08BF1E463CF061FA002101203CF047
:10CBA0005DFA284638F03AFEB0B1012100203CF091
:10CBB00055FA284638F02AFE0746204638F02AFE65
:10CBC0000028FAD03946204638F02CFE3846B047C7
:10CBD000002108463CF042FA204638F01FFE0028AB
:10CBE000DFD0012100203CF039FA204638F00EFE5B
:10CBF00001462846019138F00DFE01990028F8D031
:10CC0000284638F00FFE002108463CF027FAC8E716
:10CC100041D00308F0B50023C1E90033C1E9023374
:10CC20000B61D0E900258DB007AEDFF898E0C2F3C4
:10CC3000056C37464CFA03F0C0073C4604D513F8A0
:10CC40000E0004F8010B27460133062BF2D11B4CD2
:10CC5000DFF874E0C2F303200023205C3B708DF802
:10CC60002400C2F3073C0DF125074CFA03F0C0077E
:10CC70003C4604D513F80E0004F8010B2746013397
:10CC8000082BF2D100233B70C5F3435CC5F343444A
:10CC900009AB0846C5F34F05C2F30351CDE90215B0
:10CCA0000193CDE9044C02F00F0305490096C2F34D
:10CCB00003124BF099FE0DB0F0BD00BF5CF006080A
:10CCC00038F0060864F0060850F0060870B5094C04
:10CCD000D4F8C42D054662B10026D4F8C40D2D2128
:10CCE000013640F06FFAAE42F7DBBDE8704040F02D
:10CCF000D7BC70BD187500202DE9F04F5FFA81F99F
:10CD0000002185B00746084616463CF0A7F90021E9
:10CD100001203CF0A3F93BF07BFC022E0AD0042E4C
:10CD200044F6C01818BF4FF49648B9F1030F07D95D
:10CD300000200CE0B9F1FF0F4FF41648F5D103269F
:10CD4000BE4D95F8C83D2BB90020C5F8CC0D05B0F7
:10CD5000BDE8F08F032EBA4C0DD0A144002299F803
:10CD60002501032137F0A2FB0028EDD0C4F8D80438
:10CD7000037A9A07E8D495F8C80D84F8F36C00227A
:10CD8000032137F093FBC4F8DC080028DCD0AD4A5F
:10CD9000AD4BC4F8943402F1480003234FF4806192
:10CDA000A4F89834C4F8A804002302F24C404FF0D1
:10CDB000010A032EC4F89C84C4F8C034C4F8A0143B
:10CDC000C4F8B434C4F8B034C4F8AC04C4F8A4143F
:10CDD000C4F8BC34C4F8B83484F8E43CA4F8E0AC3B
:10CDE000C4F8EC3CA4F8F03C84F8F23C91460ED038
:10CDF000D4F8D8B49BF804003BF0B6FDC4F8D404D2
:10CE0000584611F0B5FF5146484611F0C5FF322093
:10CE100038F0B8FA012E09D1D4F8DC084146FBF706
:10CE2000F1FED4F8D804FEF7CBF90AE0022E3BD18C
:10CE3000D4F8D80411F08BFFD4F8DC084146FBF796
:10CE4000E1FEC5F8CC9D4FF0060A022E11D0D5F8B0
:10CE5000CC0D38F0E3FC60B1012100203CF0FEF87D
:10CE6000D5F8CC0D38F0DAFC014600287FD13CF033
:10CE7000F5F8384638F0D2FC80B1012108463CF084
:10CE8000EDF84FF0050B4FF00008384638F0C6FCBF
:10CE90000146002874D101203CF0E0F8042ED6D0E1
:10CEA000052038F06FFAD0E7032E58D14FF0000A72
:10CEB0005146664884F8F4AC20225BF02BF88DF8DC
:10CEC0000FA04FF0010A9DF80F30032B09D95D48E0
:10CED000012111F061FFD4F8DC084146FBF792FE16
:10CEE000AFE79DF80F3003EB430304EBC30393F864
:10CEF00059316BB39DF80F3003EB430304EBC303CD
:10CF0000D3F85C3123B39DF80F30234493F8250107
:10CF1000F0B10022032137F0C9FA8346C0B111F005
:10CF200016FF9DF80F3094F8F42C03EB430304EB49
:10CF3000C30305EBC201D3F85C31C1F8D03D9BF8C7
:10CF400008300132DB0748BF81F8D4AD84F8F42CF7
:10CF50009DF80F300133DBB28DF80F30B3E7042EAC
:10CF60007FF46FAFD4F8D80411F0F1FE54E7D5F890
:10CF7000CC0D38F04BFC0146384638F053FC6FE7D7
:10CF8000384638F043FC95F8FE3D01468BB924281D
:10CF900003D14FF0010385F8FE3D012E04D1384640
:10CFA000019138F03FFC0199D5F8CC0D38F03AFCEE
:10CFB0006BE7012B06D14D280CBF0223002385F817
:10CFC000FE3DEAE7022B06D13C280CBF03230023D9
:10CFD00085F8FE3DE1E7032B10D10A2802D985F838
:10CFE000FE8DDAE7042385F8F10D85F8F08D85F8DC
:10CFF000F38D85F8F20D85F8FE3DCEE7042B09D1BF
:10D0000095F8F23D85F8FF0D434085F8F23D85F82F
:10D01000FEBDC2E7052BC0D195F8F03D95F8F19D16
:10D0200095F8F20D4B4513D25A1C2B44484085F815
:10D03000F20D85F8F02D83F8F41DAEE71875002089
:10D0400030420020C4460020F4830608E882002015
:10D050008842C4D195F8FF3D85F8FEADF42B9CD1F4
:10D06000B9F1000F99D12421384685F8FE9D38F09A
:10D07000D9FB4D21384638F0D5FB3E21384638F0F3
:10D08000D1FB4946384638F0CDFBF421384638F01C
:10D09000C9FBF421384638F0C5FB032E1BD0D4F869
:10D0A000D804437901689D080223AB40DB439BB25F
:10D0B0000B828D892B408B810079202111F036FE67
:10D0C000D4F8D8044A46494636F048FFD4F8D83454
:10D0D00018680AF035FE0022D4F8DC08114636F054
:10D0E0003DFFD4F8DC3818680AF02AFE01202EE64D
:10D0F00010B5036804469B6801219847FF2301226D
:10D10000A373627310BD00BF70B51D4C0968D4F8DD
:10D11000045E1C4ED4F8004ED6EDC27ADFED1A6ADA
:10D12000491B00EE901A0168F8EEE00A091B60EE58
:10D13000A70A00EE101A20EEA07AB8EEC00A1C462C
:10D14000A0EE007AB1EE400AF1EEC77A67EEA67A59
:10D15000FCEEE77AC2ED007A4BF00CFE9FED0B7A05
:10D16000DFED0B7AE0EE077AFDEEE77A17EE902A14
:10D17000002ABCBF02F50C42A032226070BD00BF85
:10D1800018750020980100202C7D8E3FA00CB3451F
:10D1900000A00C4638B50F4C94F81F1E01F03F015B
:10D1A0008B1C024601F10A0584F81D3E84F81A5EC4
:10D1B00004F6186084F81B2E08311FF09FF82544F0
:10D1C00085F8160E94F81A3E1C44000A84F8170ECF
:10D1D00038BD00BF187500202DE9F04FCB4DCC4C69
:10D1E000DFF83C938DB04FF00008009005F6A86B77
:10D1F00054F80B0C002800F0FC8038F00FFB0646BA
:10D20000002800F0BD81D9F84C3044F8073CE026F6
:10D210000023C04F04F8033CA4F10B0A06FB08F6F8
:10D2200054F80B0C38F0FAFA002800F0E28054F8B9
:10D230000B0C38F0EBFA14F8023C5A1E01460B2A8C
:10D240000DD8DFE812F01F003A00450052008200BE
:10D250009900E10012012F013A016F018501242993
:10D260000CD0009A3AB995F88A2E8A4240F076811D
:10D27000012204F8032C0D2BD2D184E0012304F801
:10D28000023CCDE700234D29C4F8C53084F8CD30E9
:10D2900084F8CE3004D0582908D004F8023CBFE707
:10D2A000022204F8022C84F8C430B9E7032304F8FE
:10D2B000023C022384F8C430B2E704233C2904F87A
:10D2C000023C0AD03E290CD0002304F8023CA7E718
:10D2D0000A233C2904F8023CF4D1002304F8013C61
:10D2E0009EE7012304F8013C9AE7D4F8C500BB1976
:10D2F0000344421CC4F8C52083F8931894F8CD0069
:10D30000022A81EA000184F8CD1089D12378C02B4C
:10D31000DAD86278FF2A08D1052BD5D9012384F801
:10D32000C430072304F8023C7AE7A4F8C1200022A5
:10D330009342C4F8C93014BF0523062384F8C320E0
:10D34000C4F8C52004F8023C6AE7D4F8C500BB194C
:10D350000344421CC4F8C52083F8931894F8CD0008
:10D36000D4F8C93041409A4284F8CD107FF458AFC8
:10D37000062304F8023C53E794F8CD308B42A3D146
:10D380000D2304F8023C14F8017C002F40F0EC80DF
:10D39000614B08940FCB04AE86E80F00D4F8C93077
:10D3A000D4F8D100ADF82A7023440993B4F8C13001
:10D3B000ADF8283094F8C3308DF82C3001238DF867
:10D3C0002D30324603AB08A9039732F04BF848B131
:10D3D000049B059394F8C420504B04933146504667
:10D3E0002EF0D0FF039E002304F8023C002E40F0F4
:10D3F000BF8008F10108B8F1030F04F1E0047FF4E5
:10D40000F7AE0DB0BDE8F08FD4F8C500BA190244EC
:10D41000431CC4F8C53082F8931894F8CD2094F8D2
:10D42000CE0001934A4084F8CD20FFF7EDF9019B2F
:10D4300084F8CE00072B7FF4F3AEB4F80530C02B90
:10D440003FF642AFB4F80320A4F8C120A27884F8D4
:10D45000C32000229342C4F8C93014BF0823092313
:10D46000C4F8C52004F8023CDAE694F8CE00FFF7D1
:10D47000CBF994F8CD3084F8CE004B40D4F8C500F9
:10D4800084F8CD30BB190344421CC4F8C52083F88E
:10D490009318D4F8C9309A427FF4C2AE092304F835
:10D4A000023CBDE694F8CD304B4084F8CD3094F882
:10D4B000CE308B427FF408AF5AE7D4F8C500BA19D2
:10D4C0000244431CC4F8C53082F8931894F8CE0087
:10D4D0000193FFF799F9019B84F8CE00052B7FF4A7
:10D4E0009FAEB4F80120B4F80330A4F8C12022782C
:10D4F00084F8C32000229342C4F8C93014BF0B2320
:10D500000C23C4F8C52004F8023C89E618750020F5
:10D51000B36C0020206400202484060800920120BF
:10D520003042002094F8CE00FFF76EF984F8CE0068
:10D53000D4F8C500BB190344421CC4F8C52083F8C5
:10D540009318D4F8C9309A427FF46AAE0C23A4E64B
:10D5500094F8CE308B427FF4B7AE11E7232904BF95
:10D56000022204F8032C86E6002304F8023C40E77C
:10D5700054F80B0C31F080FC54F80B0CB04738E732
:10D5800014F8030C00283FF434AFD9F84C3054F8A9
:10D59000072C9B1A632B7FF62CAF012829D0022879
:10D5A0007FF427AF54F80B3CC5F8903E0122C5F834
:10D5B000943EC5F89C3E40230F4885F88C2EA5F874
:10D5C000A43E0E4A0E4BC5F8982EC5F8C43DC5F8CA
:10D5D000E83EC5F8A0BE40F067F84FF4005031F0C7
:10D5E00039FF084840F056F885F8EC6E85F8ED6E86
:10D5F000FFE63EF065FBFCE674F00608712A0408BD
:10D60000B0830020AAF0060830B443780578827809
:10D61000C47801792B441A44144442798379C0793F
:10D6200021440A4413441844FF2804D9030A53FA36
:10D6300080F0FF28FAD8C0F1FF00C0B230BC7047BC
:10D6400000F11901002310F8012B134488429BB20A
:10D65000F9D1FF2B04D9DAB202EB1323FF2BFAD84E
:10D66000C3F1FF00C0B270472DE9F84FF74EF84DF7
:10D670009FEDF87AD5EDBD7A9FEDF75ADFEDF75AB9
:10D6800096F8343F06F62C74D4ED004AD4ED523AA5
:10D6900094ED534A94ED5D6AD4ED5E6A67EEA47A28
:10D6A000F6EE004A67EE877A2DED068B27EEA77A15
:10D6B000B7EE008A27EE247AF0EE484AE7EE454AB4
:10D6C000032BB0EE645AF0EE484AE7EE654A67EE87
:10D6D000857AF0EE445AB0EE635A27EE247AA7EE2C
:10D6E000865AE7EEA65A67EEA34A67EE847AE7EE1B
:10D6F000064AE7EE267AA7EE635AE7EE445A36EE7C
:10D70000646A76EEE77A84ED525A84ED5D6AC4ED80
:10D71000535AC4ED5E7A00F08982042B40F02185D3
:10D72000002022F0EBFF012022F0E8FF94ED504AA8
:10D73000D4ED5B6AD4ED533A94ED5E5ADFEDC84AFE
:10D74000C848DFEDCE2A9FEDC82ADFF82C8364EEAF
:10D75000047A98ED046AE6EEA67AF1EEE75AF4EE62
:10D76000C87AF1EE10FAC8BF23EE847A65EEA44AB7
:10D77000CABFA5EE267A9FEDC13A87EE273AFDEEA5
:10D78000E47A17EE901A0E29A8BF0E214A1C024413
:10D7900000EB010E92F8B8C19EF8B83192F8C8714A
:10D7A0009EF8C82107EE901AACEB030CF8EEE75A8E
:10D7B00007EE90CA74EEE55AF8EEE74A07EE903AA3
:10D7C000BF1AF8EEE77A07EE107AE4EEA57AF8EEE3
:10D7D000C74A07EE102AB8EEC77AF4EEE27AA5EE51
:10D7E000A47AF1EE10FAB8BFF0EE627A67EE827AB0
:10D7F000B4EEE27A66EEA76AF1EE10FAB8BFB0EEC8
:10D80000627A63EE266AF1EE475AF4EEE56AF1EECB
:10D8100010FA24EE274A00F1A885B4EEE67AF1EE7C
:10D8200010FA98BFF0EE476A23EE044AD4ED004A9E
:10D83000F4EEC45AF1EE10FA64EEA66A08DCB4EE17
:10D84000C47AF1EE10FA8CBFF0EE445AF0EE475A6B
:10D8500095F8283294ED522A94ED5D4A64EEA55A6B
:10D860004E2BA5EE862AA6EE864A73EEE50A35EE25
:10D87000663A33D1DFED7D2ADFED7D1A67EEA27ABD
:10D8800027EE227A63EE228A20EEA28A24EE220A72
:10D8900026EEA11A62EE222A65EEA11AFDEEE77AC3
:10D8A000BDEEC77AFDEEE88ABDEEC88ABDEEC00ABD
:10D8B000FDEEE22ABDEEC11AFDEEE11AC5ED8F7A4A
:10D8C00085ED907AC5ED8B8A85ED8C8A85ED8D0A84
:10D8D000C5ED8E2A85ED911AC5ED921AD4EDB62AC2
:10D8E000D4EDB71A94ED097ADFED647ADFED618A41
:10D8F00036EE621AB7EE008AE1EE212AF0EEC61A81
:10D9000036EE621AC4EDB62AF0EEC12AB0EE481A1D
:10D91000A2EEC71AB2EE087A61EE871AB4EEE71AE1
