:020000040800F2
:1000000000000120ED8105088982050811420408DD
:1000100075420408898205088982050800000000ED
:1000200000000000000000000000000089820508B8
:100030008982050800000000898205085D12040815
:100040008982050889820508898205088982050850
:100050008982050889820508C5430408BD43040850
:10006000B5430408AD430408A5430408C5360000A1
:10007000B5360000A5360000953600008136000038
:100080006D3600005936000089820508898205080E
:100090008982050889820508898205089D4304082C
:1000A0007D4C0508754D05086D4C05089D4D0508EE
:1000B000654D0508554D0508454D05086D6A05084F
:1000C000796A0508556A0508616A05088982050884
:1000D00089820508AD190000A119000095190000DA
:1000E0009543040889820508898205085D4C050846
:1000F0008D4C050889820508B54C05084536000079
:1001000089820508F5380508354D050889820508F6
:10011000891900007D190000C54C050829DA00087E
:10012000313600001D36000009360000F5350000AC
:10013000E1350000000000000000000000000000A9
:10014000000000000000000000000000C1DE000808
:10015000CD350000B9350000A5350000711900004B
:100160003D6A0508496A05088982050889820508EB
:10017000898205088982050800000000000000004F
:10018000898205088982050889820508898205080F
:100190008982050889820508000000008982050817
:1001A0000000000000000000000000008982050837
:1001B000898205088982050800000000000000000F
:1001C000000000000000000000000000000000002F
:1001D0000000000000000000000000008982050807
:0801E000047D05000100000090
:1001E8000E020100020000007864012080640120F2
:1001F80000000000E0DE06087C6401201402010013
:10020800050000009C4201208864012000000000D5
:10021800E2DE0608846401202320010010000000AB
:1002280014640120946401200000000049DC0408E3
:10023800906401200D10010070000000B4620120DC
:10024800A864012000000000C17F0308A464012005
:10025800FD01010024000000386201201C65012016
:1002680000000000C7E60308186501201602150003
:100278003F000000C061012044650120000000002B
:10028800EDD8040840650120061001003000000088
:100298008C610120886501200000000061DA0408F3
:1002A80084650120FB010100010000008861012034
:1002B800BC65012000000000BDD90408B865012014
:1002C800FC0101000900000054600120C465012000
:1002D80000000000C5D90408C0650120F70101002D
:1002E8000600000028600120D465012000000000FD
:1002F800E8DE0608D0650120F901010004000000CD
:1003080018600120E06501200000000001DB0408FE
:10031800DC6501201102010008000000D05F012007
:10032800E865012000000000EEDE0608E465012013
:100338001212010004000000C85F0120F4650120CA
:1003480000000000F6DE0608F06501201830010004
:1003580020000000A05F0120FC65012000000000D3
:10036800DDEA0408F865012019000100100000000A
:100378005C5F01202066012000000000FADE06080C
:100388001C660120E803010006000000305F012020
:10039800346601200000000049DB040830660120B3
:1003A8002A02010006000000285F012040660120A3
:1003B800000000000ADF06083C6601200002010078
:1003C8000B0000007C5C01204C660120000000004E
:1003D800A1DB040848660120FF2101000500000098
:1003E800085C01205C6601200000000079D904083F
:1003F800586601200812040014000000145C012053
:100408006866012000000000BDDB04086466012066
:1004180013020100040000009442012080660120BC
:100428000000000010DF06087C660120FA010100C8
:1004380003000000685B01208866012000000000BE
:100448005DDB040884660120FE010100160000003F
:10045800E84B0120906601200000000031DC040810
:100468008C660120050201000C00000014A1012087
:100478004CA201200000000014DF060848A2012059
:10048800020201000300000098AC012094B301208F
:10049800000000000000000090B3012037100100A8
:1004A800300000006CB201209CB301200000000065
:1004B80020DF060898B301201E0001000900000093
:1004C80074AC0120D0B301200000000050DF060802
:1004D800CCB301201B2001001400000034A401202B
:1004E800E0B30120000000004D8A0108DCB30120C0
:1004F800210201006801000070A40120F8B3012066
:1005080000000000F18C0108F4B301200B30010059
:100518001E0000009CA3012064B50120000000001B
:100528005ADF060860B501201F600100C400000002
:10053800ECA7012088B501200000000078DF06083C
:1005480084B50120123001000D00000078AD0120B3
:1005580050B60120000000003CE006084CB601201F
:100568002F1001003400000044AD012064B60120C2
:10057800000000004CE0060860B601201C020200E2
:10058800200000004CC2012028C801200000000003
:10059800D9EB040824C80120283001001600000007
:1005A8006CC201204CC801200000000019EB0408AF
:1005B80048C80120261001000800000084C201205C
:1005C80068C801200000000019DC040864C8012084
:1005D800052001000C00000078B9012074C8012032
:1005E8000000000080E0060870C80120012001001A
:1005F8000C00000064B9012084C80120000000003C
:100608008CE0060880C801200E000600A803000040
:100618006CC4012094C801200000000041DA0408DD
:1006280090C801200C4006002C010000B4B701203E
:1006380040CC012000000000F1D904083CCC012086
:100648000A900100220000004CB7012070CD012063
:10065800000000000DDB04086CCD01201310010020
:100668000400000068BA012098CD012000000000B5
:1006780098E0060894CD0120000101000600000062
:1006880024B70120A0CD012000000000A9DB040848
:100698009CCD0120020104001800000008B70120C9
:1006A800ACCD012000000000CDD80408A8CD012061
:1006B8002322010010000000E0B60120C8CD01206F
:1006C800000000009CE00608C4CD012020020100C3
:1006D800C200000014D70120B0DA01200000000099
:1006E800B8E00608ACDA0120EC031D00AE000000FB
:1006F80020D10120E8D8012000000000B9DA040860
:10070800E4D80120101001000C000000D8D8012006
:100718009CD9012000000000ACE0060898D901200F
:10072800EB03200000010000D8D70120ACD901203C
:100738000000000000000000A8D9012034000100DA
:10074800080000000CD7012078DB01200000000021
:100758001DD9040874DB01202A000800800000006D
:100768008CD6012084DB012000000000F1D80408A9
:1007780080DB0120EA03010016000000E8D0012018
:1007880008DC0120000000007AE1060804DC0120F2
:10079800E90301002000000000D1012024DC012031
:1007A8000000000090E1060820DC01202B00120068
:1007B800240000006CDC012048DC0120000000005F
:1007C8003569020844DC0120292014007800000063
:1007D80054D5012094DC0120000000000000000036
:1007E80090DC0120F62101000C000000B0F001208F
:1007F800D8F0012000000000B0E10608D4F0012084
:10080800F831010002000000ACF00120E8F00120FE
:1008180000000000BCE10608E4F00120020001002D
:100828000C000000A0F00120F0F001200000000002
:1008380000000000ECF0012006120400180000007F
:1008480088F0012000F10120000000002DEB0408D1
:10085800FCF001201D020200060000002CEE012021
:100868001CF10120000000000000000018F1012028
:10087800ED13010070000000F4E1012028F10120CF
:100888000000000089D9040824F10120EE3301009A
:10089800640000008CE101209CF1012000000000B0
:1008A80065DB040898F1012025002A00A002000059
:1008B8008CE3012004F20120000000000000000089
:1008C80000F201203800010007000000DCDF0120F1
:1008D800A8F4012000000000BEE10608A4F40120ED
:1008E8002902010040000000C8F401204CF6012054
:1008F80000000000C6E1060848F6012028020400AE
:100908000400000048FE012004000220000000004E
:100918003DDA040800000220270204000400000059
:1009280044FE01200C0002200000000031DA040817
:10093800080002201F020800100000004CFE0120E1
:10094800140002200000000031D904081000022021
:100958001A02010049000000C4F701202800022003
:10096800000000006DEC04082400022016100100AD
:10097800040000008800022090000220000000000F
:1009880006E206088C0002202C0201000400000088
:100998002C010220C0010220000000000AE2060823
:1009A800BC0102201B02010010000000D801022037
:1009B800C801022000000000DDD90408C40102209B
:1009C8000902010001000000283702202437022014
:1009D800000000000EE20608203702201E02010077
:1009E80006000000383702203037022000000000DF
:0809F80010E206082C37022072
:08280000082800080040000850
:04400000FFFFFFFFC0
:10800000026C03463AB11A6CD20608D50022012050
:1080100083F83C207047426480F83C20F3E71A6CF8
:1080200049494A4811401A6841F00201F0B4196404
:108030004168474D21F44031416041685C6821430B
:1080400041605168186921F48071D3F808C0DF6875
:10805000516054689E6A44EA0024AE4254605468F9
:1080600024F040745460506840EA0C0050609068FE
:1080700020F400609060916841EA0701916054D05B
:108080009068DC6A20F07060906091680E439660A2
:10809000906820F040509060916821439160906812
:1080A0009C6920F002009060916841EA440191606F
:1080B00093F82010002941D05468596A44F40064B0
:1080C000481E5460516821F460415160516841EA92
:1080D00040315160D06A0025DC6920F470005E698F
:1080E000611ED0622846D46A44EA0154D46294687E
:1080F00024F400749460946893F8301044EA4124A6
:108100009460946824F480649460916841EA8621C4
:1081100091605D641A6C22F0030242F001021A645D
:10812000002283F83C20F0BC7047916821F0706118
:108130009160916821F040519160B0E7516821F45D
:1081400000615160C6E700BFFDEEFFFF0023014064
:108150000100000F0129F0B42A4C4FF000062A4D0F
:1081600094BF002701272368EE626662A6626763F8
:10817000676B47EA42076763EE63EC6B002A38D10E
:1081800044F49574EC631C6824F001041C601C68C2
:10819000E407FCD4490289085960D8601968EAB933
:1081A00021F04001196019498B421DD018494FF444
:1081B0007410C860196841F01E011960596941F0D6
:1081C00080015961196841F00101196022B90E4A14
:1081D000D36A43F00803D362F0BC704741F040011A
:1081E00019600A498B42E1D14FF0746041F8500C9C
:1081F000E0E744F01A04EC63EC6A44F00804EC6233
:10820000C1E700BF00310120002C0140586402404A
:1082100000640240124B30B49D6B6B6A28B943EA8C
:1082200001430020AB6230BC7047AC6A013803EBFD
:1082300014440BD0002303F14002013305EB82020A
:10824000DBB25268834204EB1244F4D3403044EA78
:10825000014405EB80004460002030BC704700BF43
:1082600000310120037870B42BB30246C0F1010540
:10827000531912F8014FDBB2002CF9D101335B0026
:108280000E4C03220B8084F83C3484F83D240178A2
:1082900079B1022300265A1CE518023354FA82F2FF
:1082A00085F83C14DBB282F83C6410F8011F002909
:1082B000F1D170BC70470223E2E700BF003101201A
:1082C000826D136A5B681B78FF2B08D090F8F03042
:1082D000013BDBB280F8F0301BB101207047002079
:1082E0007047126A0220526813707047F0B40F4B47
:1082F000C40800F0070700221E5D03EBD005BE4056
:10830000F6B2C7F1080300278B4228BF0B46C3F122
:1083100008049A40C91A46FA04F415F8016F42EAB3
:108320000402EED11046F0BC704700BF7C3601203D
:1083300030B5EFF31181802383F312880A4AD2F813
:108340003036D2F83446D2F83006D2F83456CAB2B3
:1083500082F31188013BA84294BF4FF400600020D3
:108360001B1B184430BD00BF00310120012380F8E1
:1083700051307047014BD3F8380670470031012067
:1083800001207047024BC3F83C26C3F840167047E3
:1083900000310120024BC3F84426C3F84816704749
:1083A0000031012070477047212870B505D0222880
:1083B00029D0202810D0002070BD0029FBD0072A2A
:1083C000F9D1184B18791C685A799B7908710020EB
:1083D0000C604A718B7170BD0029ECD0072AEAD17C
:1083E0001148104B0C680E794D79D0F840268979E8
:1083F0001C601E715D719971002ADCD02146D0F895
:108400003C069047D7E70029D5D0022AD3D1064AA7
:10841000D2F84836002BCED00988D2F844069847C7
:10842000C9E700BF00000120003101200020704793
:1084300003460A2201481A80704700BF0800012045
:108440000346642201481A80704700BF14000120CF
:10845000012901D000207047014BD3F89030184714
:1084600000000120012901D007F0AEBE014BD3F876
:108470008C30184700000120014BD3F88830184792
:108480000000012010B40B780A46044603F00303F1
:10849000012B05D0022B0BD000205DF8044B704758
:1084A0008B8843B9204611465DF8044B0DF004BE9D
:1084B0008B88832BF6D0034B5DF8044BD3F88030C8
:1084C000184700BF0000012038B5054B04460D4693
:1084D000DB6F98472946204609F072F9002038BD25
:1084E0000000012038B5054B04460D469B6F9847A8
:1084F0002946204609F09CF9002038BD00000120E3
:10850000F0B4002452004E1C2746030FB0F1204F58
:108510004FEA001003F1300503F1370334BF0D5566
:108520000B5537550234A242EFD1F0BC704700BF63
:10853000024808B5FFF796FE014808BDB8220608B4
:108540003C350120024808B5FFF78CFE014808BD04
:10855000C82206083C3501200B481A220B4B006844
:108560001B680A80C01801D109487047094B0822CE
:10857000094910B51C68FFF7C3FF042207492046CC
:10858000FFF7BEFF024810BD107AF01F187AF01FE7
:10859000B0000120147AF01FB2000120C2000120B7
:1085A000024808B5FFF75EFE014808BDD422060860
:1085B0003C350120024808B5FFF754FE014808BDCC
:1085C000E02206083C350120042301480B80704757
:1085D000CC000120004870476436012000487047F5
:1085E00064360120034B93F86005032894BF0020F4
:1085F0000120704700310120034B93F860050328E8
:1086000094BF00200120704700310120034B93F8F4
:108610006005003818BF0120704700BF00310120FD
:10862000034B93F86005003818BF0120704700BF66
:108630000031012098B182680C4B12B107229A7068
:10864000704718780421DA6003281A611A750CBF84
:1086500080224FF480729970C3E901227047034B66
:10866000012241F2E4715A705A547047A8860120E1
:108670000378022B0FD0006908B9012070470E4B18
:108680001B78032B12D080B24FF6F773984294BF39
:10869000002001207047084941F6500243688A587B
:1086A000B3EB422F2CBF012000207047034B9842B0
:1086B00094BF002001207047A8860120F7FFFF0F1C
:1086C00030B40378022B13D0104A41F648014368B6
:1086D00041F63C04555802F5C25100692B40096827
:1086E000023812595B0A01FB003030BC104470475D
:1086F000064B41F6300441F6340142681859595886
:1087000000EB410030BC00EB52207047A8860120EE
:10871000826D0346126A52681278FF2A0AD190F8D5
:10872000F020002A02F1FF3214BF0120022083F85A
:10873000F02070470020704738B540F48062074C45
:108740000B4640F2FF55012100F03F00A563A360F6
:10875000E2604AF021FFA56338BD00BF002C014054
:108760002DE9F843884600294FD04718461E284C6B
:10877000802507F1FF39EFF3118185F31288D4F8D2
:108780003026C9B2D4F83406D4F83036D4F834C61A
:1087900081F31188634594BF4FF400630023121ADC
:1087A0001344012B1AD1012038F04EFDEFF3118153
:1087B00085F31288D4F83026C9B2D4F83406D4F838
:1087C0003036D4F8347681F31188BB4294BF4FF42D
:1087D00000630023121A1344012BE4D0EFF311823B
:1087E00085F31288D4F83436D2B216F8011F234428
:1087F00083F84C16D4F834360133C3F30A03C4F8B3
:10880000343682F311884E45B5D14046BDE8F88331
:1088100000310120F8B5002390F8505080F8503016
:10882000BDB10E4A1278032A15D10D4E00F13C0459
:10883000376829462046FFF793FF33682D1A044412
:10884000DB1B322B01D8002DF3D1B5FA85F040099E
:10885000F8BD0120FCE71846FAE700BFC04101203F
:10886000F8410120002280F85120D3E790F85020F1
:10887000531C0244DBB280F8503082F83C1090F870
:1088800051200AB1132B00D9C4E77047F8B50A4B41
:108890000D4614461B78032B0DD1084E3768002C6B
:1088A00009DD21462846FFF75BFF3368241A05449B
:1088B000DB1B322BF3D9F8BDC0410120F841012068
:1088C00030B500238DB013490825012202938DF89D
:1088D00014300DF10704099301F294500B9381F8C1
:1088E0002C560DEB05018DF82820CDE907330A4BF6
:1088F000CDE9034206933CF073F908483CF090FB45
:108900009DF80700A0F1FF00B0FA80F040090DB01B
:1089100030BD00BF00310120C18200089436012023
:108920002DE9F04103798AB02B4E002B14BF0122B0
:10893000002286F88C2504D186F860350AB0BDE89F
:10894000F08106F29457044690F9001038463CF046
:108950004DFAA4789CBB4FF00108204B2048C6F884
:108960009C456C46C6F8283686F8A0853CF07EFA11
:1089700003461C4D4FF47A70A6F8983538F064FC25
:10898000D6F89C053BF082FB0FCD0FC40FCD0FC472
:1089900095E8030084E80300694638463CF020F976
:1089A00038463CF03DFB104B002286F860851B6882
:1089B00086F85425C6F850350AB0BDE8F081204647
:1089C0003BF02AFA044608B12023C3800D2120463B
:1089D0003BF0C8FABFE700BF003101203C36012060
:1089E000801A060088AD0508F841012070B595226F
:1089F00092B040F0400504468DF80920080E0A0C9C
:108A00008DF80810090A002301AE8DF804508DF886
:108A1000050006250DF103008DF806208DF80710DE
:108A200001221749039604938DF818308DF82C30E5
:108A30000F93119305958DF840200C91CDE90733E4
:108A4000CDE90D33CDE90902FFF73AFF24B180F0FB
:108A5000010010F0FF0F10D10A4C082303A904F203
:108A6000945084F82C363CF0BBF804F294503CF05F
:108A7000D7FA9DF8030012B070BDFF2012B070BD90
:108A8000118700080031012030B500238DB0104956
:108A90000546012202938DF814300DF10704099365
:108AA00001F294500B9381F82C5602A98DF82820DE
:108AB000CDE90733074BCDE9034206933CF090F82C
:108AC00005483CF0ADFA9DF807000DB030BD00BF81
:108AD00000310120118700089436012070B590B054
:108AE0001C4D0024FD2201260DF1030301A905F20E
:108AF00094508DF803200693C5F85C458DF810401E
:108B0000059407948DF824400F94039608968DF8E9
:108B10003860CDE90144CDE90A44CDE90C443CF08C
:108B20005FF805F294503CF07BFA3046FFF7ACFF5B
:108B3000FF2809D0084A20460923126885F86035C5
:108B4000C5F8502510B070BD0423022085F86035AB
:108B500010B070BD00310120F841012070B506460B
:108B600090B008200D46FFF78FFFFF2823D0FE2886
:108B700002D0022010B070BD00240222012301A9FE
:108B80000E4808928DF838300296039501948DF8BE
:108B9000104007948DF824400F94CDE90544CDE9A9
:108BA0000A44CDE90C443CF01BF804483CF038FA88
:108BB000204610B070BD012010B070BD9436012069
:108BC0003D4B98422DE9F0410FD003F5685308332F
:108BD000984249D00023394A1846A2F86C30A2F8CE
:108BE0007830C2E91C33BDE8F081344C0223002602
:108BF000334F04F10805DFF8D0806360D7F8D03038
:108C00003146B34206F1010603D0D4F8880048F09B
:108C1000BFFF94F88C302846D4F88820414685F868
:108C20002430303545F8102C49F0ECF863689E424A
:108C3000E4DB002384F87A30636801206169A2894B
:108C4000256912FB03F201FB03F3268BA4F86C20C9
:108C50006367E2891B4BC4F898102567A4F8786015
:108C6000A4F86E20A366BEE7144C02230026144F1E
:108C700004F10805DFF854806360D7F8D03031463E
:108C8000B34206F1010603D0D4F8880048F080FF13
:108C900094F88C302846D4F88820414685F8243052
:108CA000303545F8102C48F00BFF63689E42E4DB3A
:108CB000012384F87A30BFE71971EF00F8410120F1
:108CC00000000120B0AD05081940EF0021AAEF0017
:108CD00010B50C4648F0D2FD50B9074B93F89C30C4
:108CE000012B4FF012030CBF04480548238010BD30
:108CF00012230448238010BDF8410120FC0001200C
:108D0000E8000120D400012010B5074C04F2945073
:108D10003CF086F90A2038F08BFAD4F89C05BDE8BF
:108D200010403BF0B3B900BF003101202DE9F843FA
:108D30001C4C05468946904694F860651F46042EF3
:108D400008D0082E02D00020BDE8F883FFF7C6FE49
:108D50000228F8D1D4F89C053BF046F994F8563532
:108D6000B3B969021120FFF741FEB8B90E4A0523D5
:108D70000120C4F83C951268C4F84055C4F84885F1
:108D8000C4F84C75C4F8502584F86035BDE8F88304
:108D900029461120FFF72AFE0028E7D0FFF7B4FF8D
:108DA000D1E700BF00310120F841012010B50D4C82
:108DB000002394F82E26C4F85C3512B10A4AC2F892
:108DC000A0304AF0F5FD20B10423022084F860357C
:108DD00010BD054A0923126884F86035C4F850258F
:108DE00010BD00BF00310120F841012070B50F4DCA
:108DF00004460E4695F86035042B0BD0082B07D19E
:108E0000D5F8583583420ED0FFF7D0FF022801D0A5
:108E1000012070BD08230220C5F85C65C5F85845DF
:108E200085F8603570BD022070BD00BF00310120A3
:108E300010B50AF00FFE104C58B194F86035032BB2
:108E400013D894F854350133DBB2072B84F854352A
:108E500003D9002384F8603510BD084B01221B683C
:108E600084F86025C4F8503510BD05483BF0FEFF7E
:108E7000A4F89805E5E700BF00310120F841012082
:108E8000801A060070B51F4C06460D4694F86035F2
:108E9000042B09D0082B25D1D4F8583583422FD084
:108EA000FFF71CFE02281DD1D4F89C053BF09CF86E
:108EB00000213720FFF79AFD29461720FFF796FD7E
:108EC000C0B994F856357BB971021920FFF78EFDB1
:108ED00080B908230220C4F85C55C4F8586584F8AA
:108EE000603570BD012070BD31461920FFF77EFD51
:108EF0000028EED0FFF708FFFFF79AFF032070BDB0
:108F0000022070BD0031012070B50379234C002B85
:108F100014BF0123002384F88C3503D1002384F887
:108F2000603570BD1E4D0021032095F9A7203BF050
:108F30002BFB0028F2D0466830463BF08FFC84F8CB
:108F40002D060028EAD095F8A5303046003B18BF22
:108F5000012384F82E364AF0ADF80AF07BFD38B9CB
:108F600094F8543584F86005013384F8543570BDA5
:108F70004AF046FE40B194F854350022013384F89B
:108F8000602584F8543570BD2A68012384F854059F
:108F9000C4F8502584F8603570BD00BF0031012051
:108FA000F841012010B54AF02BFE58B10C4C94F852
:108FB00054350133DBB2072B84F8543503D9002331
:108FC00084F8603510BD0AF045FD0028F7D0054B48
:108FD00001221B6884F86025C4F8503510BD00BF1D
:108FE00000310120F84101202DE9F84F904C94F810
:108FF0008C55002D00F0028194F8602502278D4EDB
:10900000531E082B3ED8DFE803F03436A73D6649EF
:10901000153D05004AF0CCFC002840F00181D4F851
:1090200050353268FA33934229D2FFF7BBFF94F8E8
:109030006025E5E74AF0BCFC0028F0D0D4F85C35A8
:109040000022012B84F8542540F2EE80D4F8581504
:10905000013B94F82E560131C4F85C35C4F858151C
:1090600015B1744BC3F8A0200823054684F8603579
:1090700011E084F860754AF09BFC00284DD194F80B
:109080006025531EDBB2022B3CD9082A18BF042AE4
:109090000CBF012500252846BDE8F88F236B002B67
:1090A00037D1644B0722D4F848551B6884F86025F3
:1090B000C4F85035002DEED0D4F84C350120D4F84A
:1090C0003C25D4F84015A847D9E7D4F85035326884
:1090D000643393421DD2D4F82C80B8F1000FF4D140
:1090E0004AF066FC0028A2D00423D4F8485584F83E
:1090F000548584F86035002D00F090804046D4F807
:109100004C35DCE74B4BD4F850251B689B1AC82B19
:1091100079D800252846BDE8F88F4AF0C5F8002820
:10912000ADD196F8A930002BA3F10203B3FA83F373
:1091300014BF022201225B0984F8552584F85635B4
:109140004AF0B2F800287FF470AFD6F8F820032375
:10915000C4F8642584F860354AF0A6F800288ED15A
:10916000344A4FF0040EC4F85C05032392F8DCB0D7
:10917000B2F8DE10D2F8E00084F86AB5D2F8E070F8
:109180004FEA106CD2F8E060A4F868153F0CD2F8F2
:10919000E0A0360A92F8E49092F8E55092F8E500E3
:1091A000D2F8E88025FA0EF5B2F8EEB000F00F0024
:1091B000B2F8EE10B2F8EE20C1F30B1184F86BC5D3
:1091C00002F00F0C84F86C7541EA1B21724684F89A
:1091D0006D6501F00F0184F86EA584F86F9501F5B7
:1091E000FA6184F8745584F87505C4F87085A4F89C
:1091F000761584F878C584F860E543E7284684F856
:109200006055BDE8F88FFFF7CDFE94F86055082D46
:1092100018BF042D0CBF012500253CE705463AE7A1
:10922000042384F8603536E7FAD1FFF7BFFD26E75F
:1092300000310120F84101202DE9F8430546884618
:1092400017461E462A4C94F86005042835D0082895
:1092500007D1D4F85835AB4206D0FFF73FFC0228BF
:10926000F1D00120BDE8F883FC22224BDFF88C907E
:10927000214883F80821C9F838813BF0E1FC002837
:1092800009F588711C4814BF4FF400734FF48073C4
:10929000C9F840313BF0A4FC012206230020C4F8A9
:1092A0003C85C4F84055C4F84875C4F84C6584F84A
:1092B000442584F86035BDE8F883D4F89C053AF07D
:1092C00093FE94F8563553B969021820FFF78EFBC8
:1092D00038B994F86035082BC6D0FE22C5E7294678
:1092E000F3E7FFF711FDFFF7A3FD0320BAE700BF87
:1092F00000310120F84101209436012000000120B6
:109300002DE9F04FD84C95B094F88C65002E00F004
:10931000998194F8602504F29457DFF8508304F2A1
:109320007C59531E082B00F2A080DFE813F03400B4
:109330005E0029019E008C00AF001B009E0009000A
:10934000FFF7BEFA002840F05782D4F85035D8F81D
:109350000020FA33934280F08580FFF769FD94F88E
:109360006025DEE7FFF7ACFA0028EED0D4F85C35D4
:109370000022012B84F8542540F26382D4F858254A
:10938000013B082106460132C4F85C3584F86015BB
:10939000C4F8582552E1D4F89C053AF025FE002186
:1093A0000846FFF723FB0546FFF7AEFC012D59D118
:1093B0004FF0000AD4F89C0584F855A53AF014FE45
:1093C00040F2AB110820FFF711FB052800F0908157
:1093D000012800F05181FFF797FC94F85535002BD8
:1093E00000F02B82022384F86035D4F89C053AF013
:1093F000FBFD94F8553500213720022B0CBF4FF0B0
:1094000080450D46FFF7F2FA29202946FFF7EEFACC
:109410000546FFF779FC2DBB94F85535022B00F07B
:10942000988184F85655D4F89C053AF0DDFD00216A
:109430000920FFF7DBFA002871D0FFF765FC94F8EC
:109440006025531E11E04FF40071D4F83C05FFF77E
:1094500085FB012800F03081022800F035810028CA
:1094600000F0618194F86025531EDBB2022B00F2FC
:10947000DF807E4BD4F850251B689B1AC82B00F266
:10948000E7800026304615B0BDE8F08FD4F894355B
:1094900077481D6A3BF0D4FB002800F02C81B5FA18
:1094A00085F56D09002DDDD004A800250DF10F0311
:1094B00002224FF0010A05A9059038460792ADF83F
:1094C000105006958DF820508DF8345013958DF876
:1094D00048A0CDE90B3ACDE90955CDE90E55CDE9C6
:1094E00010553BF07DFB38463BF09AFD9DF80F3060
:1094F00003F01F03052B00F08881FFF799FCD4F8D7
:1095000048B5BBF1000F00F0F0802A465046D4F871
:109510004C35D4F84015D84794F8602501E7102160
:109520004846FFF71BFB8246002886D101217F2099
:10953000FEF7DCFE012805467FF47FAF504602218E
:10954000FEF7D4FE002800F0388101287FF475AFC3
:1095500016213A20FEF7CAFE01308002C4F86405E5
:10956000FFF7D2FBD4F89C053AF03EFD00210A201B
:10957000FFF73CFA002840F01981032384F8603596
:10958000102105A8FFF7EAFA00287FF46BAF9DF8D9
:1095900021309DF822201B019DF815009DF81650E2
:1095A00002F00F01DBB245EA0025DDF81D0043EAB9
:1095B00012139DF81C2000BA84F8781503F5FA639D
:1095C0009DF81710C4F87005A4F8763513099DF8B6
:1095D000140002F00F0284F87435069BA4F8685555
:1095E000C4F86C3584F8752584F86A0584F86B1521
:1095F000FFF78AFB94F8563573B9D4F89C053AF016
:10960000F3FC4FF400711020FFF7F0F90546FFF767
:109610007BFB002D7FF4A1AE16483BF027FC002217
:109620000423A4F89805C4F85C251A4684F860352C
:10963000082A18BF042A0CBF01260026304615B0A0
:10964000BDE8F08F304684F8606515B0BDE8F08F56
:10965000FFF7EEFB94F86065042E18BF082E0CBFD0
:1096600001260026EAE700BF00310120F841012071
:109670009436012040787D01042304AA05A98DF8C1
:109680003400784807930692CDF814A08DF820A0F6
:10969000CDF838A0CDE909AACDE90BAA3BF0A0FA94
:1096A00070483BF0BDFC9DF81330AB2B7FF493AEBC
:1096B000022384F855358EE6D4F85035D8F80020CA
:1096C00064339342BFF4CEAEFFF71EFBFFF7B0FB4F
:1096D000D4F848554DB10022D4F84C35D4F8401593
:1096E0001046A84794F860251BE694F8602518E614
:1096F00084F855556FE694F844550246D4F83C1565
:109700004FF48073384601EB05213BF06FFC94F871
:1097100044250132D2B2A2F1020584F84425B5FAFB
:1097200085F56D09BEE60190FFF7EEFA0423019876
:10973000D4F8485584F8540584F86035002D3FF47A
:109740007DAFD4F84C35D4F83C25D4F84015A84763
:1097500088E6D4F89C053AF047FC29463A20FFF702
:1097600045F90DF1100C04220123824605A9384663
:1097700005958DF820500E95CDF818C007928DF8FC
:109780003430CDE90955CDE90B553BF029FA38467F
:109790003BF046FCBAF1000F08D1FFF7B5FA049B85
:1097A0001BBAC3F3807384F856353CE6FFF7ACFA76
:1097B000FFF73EFB94F86025B3E504212C20FEF76B
:1097C00095FD032182464E20FEF790FD83460C2135
:1097D0003620FEF78BFD0BF1020B421C05FA0AF551
:1097E00002FA0BF2A2FB0501420A42EAC152C4F896
:1097F0006425FFF789FAB5E60190FFF785FA04239F
:10980000019884F86035064618E7174B0722D4F80C
:1098100048651B6884F86025C4F85035002E3FF475
:109820000DAFD4F84C355046D4F83C25D4F840154B
:10983000B04794F86025531E17E61E4684F860353D
:10984000FCE608D0042384F86035FFF75DFA94F84D
:109850006025531E09E6FFF741F902287FF402AEA6
:10986000EBE500BF94360120F8410120154BDB6881
:10987000C3F3022310B4C3F107041A1D042C28BF3C
:109880000424062A4FF0FF328CBF033B0023A24082
:10989000002821EA020101FA03F108DB09010A4B61
:1098A000C9B2034483F800135DF8044B704700F01D
:1098B0000F000901054BC9B2034419765DF8044B4A
:1098C000704700BF00ED00E000E100E0FCEC00E0CC
:1098D00030B5264C0022264841F28731D4F84C316D
:1098E00083B0244DA0FB030304F58670C4F80C512B
:1098F000DB0C013BC4E94612C4E944320BF0C2F868
:109900001D4B062137201A6C42F020021A641B6C92
:1099100003F020030193019BFFF7A8FFD4F80C315B
:109920004FF400001549164A4860D96841F001011A
:10993000D96099680A40062A06D0B2F5803F03D064
:109940001A6842F001021A600E4B41F2DC0200205C
:109950000D499A5803F24C64C3F84806C2F8100245
:10996000C3F84006C2E9811403B030BDF8410120BC
:1099700083DE1B43001400400038024000E100E099
:1099800007000100003101204843012038B50F4B8A
:109990000F4AD3F84C31A2FB03239B09013BB3F1DF
:1099A000807F10D20B4A0024F0200B49072553601A
:1099B00081F82300214694604FF0FF301560FFF7D7
:1099C00055FF204638BD012038BD00BFF8410120B9
:1099D000D34D621010E000E000ED00E043090122E9
:1099E00000F01F0084B0013B02FA00F0032B0BD8FB
:1099F000DFE803F015021E0C124B5A6C02435A6446
:109A00005A6C10400090009B04B070470D4B1A6BCD
:109A100002431A631A6B10400390039BF4E7094B4F
:109A20005A6B02435A635A6B10400290029BEBE759
:109A3000044B1A6C02431A641A6C10400190019B8B
:109A4000E2E700BF0038024070B51D4D2B6893F867
:109A50002620C2B11B699847C0B12B6893F8242017
:109A60007AB12E1D00241A19E0B29B69013492F8D4
:109A70002C10B6EC010A98472B6893F824209442E6
:109A8000F1DB5B6998472B7D332B00D070BD2B7EBB
:109A9000002BFBD02B6893F82430042B1E46A8BF64
:109AA0000426002BF2D00024064D2346013418462C
:109AB0004BF030FB45F8040BE3B29E42F6D870BD84
:109AC000E0010020FC0100202DE9F041D0F800E089
:109AD0000C46DFF8588084B0DEF804501746DFF8F3
:109AE00050C0194605EA0805DDF8288006460393AC
:109AF0002C43424644EA0C0CCEF804C00CF0DEFEC7
:109B000078B931680246039B30468F624021CDF818
:109B100000800CF003FF003818BF012004B0BDE83E
:109B2000F081012004B0BDE8F08100BF009800FC86
:109B300000200180F8B5134F04460D460AE09B69EA
:109B4000DB0602D50CF07AFED0B9D7F850395B1B92
:109B50000A2B08D823682A460A2120469E69B606A1
:109B6000EDD50020F8BD636C2021002201200B43BD
:109B700084F84020636484F8411084F84220F8BDE2
:109B80000120F8BDF8410120F0B589B00D4604462A
:109B90003AF0F6FB031E1CDB164A2046164E1A440A
:109BA00006EB830392F86070C3F854593AF00EFC48
:109BB0003E440023A588114A03A920680793CDE9F4
:109BC0000533CDE903520CF027FF96F89439F02BBA
:109BD00001D809B0F0BD0A4AF0230321D05786F816
:109BE00094390190FFF742FE01980DF0CDFE09B0C7
:109BF000F0BD00BF88AD0508F8410120000011103C
:109C000054230608B0B10C49D1F89C39102B03D16C
:109C1000052100203AF08ABB03EB43020A4482F894
:109C2000A009202082F8A1090120034482F8A2099A
:109C3000C1F89C39704700BFF84101208078E1E706
:109C40002DE9F04F634C87B01E22002104F51D6002
:109C500050F074FE94F8F0391BB194F8F13984F89F
:109C6000D03994F8F2391BB194F8F33984F8D53926
:109C700094F8F4391BB194F8F53984F8DA3994F88A
:109C8000F6391BB194F8F73984F8DF3994F8F839CC
:109C90001BB194F8F93984F8E43994F8FA391BB116
:109CA00094F8FB3984F8E93994F8023A013B5FB241
:109CB000DBB2019702933B46013300F09C81464E94
:109CC000B0220023454802FB076106F5207AA0F187
:109CD00038050393703106F53E794FF0CDFE039BB6
:109CE00001222E46984602FA07FB1F46307880B3C1
:109CF0003B4A302103E091452BD012F8081F8842DF
:109D0000F9D1517811EA0B0FF5D03AF085F8FB1D27
:109D1000DBB210B100228371C27103213AF022F943
:109D200031780023302201E01AF83320914200F00C
:109D300065810133102BF7D10023012208F10100C6
:109D4000072186F8028073705FFA80F81346F2707C
:109D5000317101370536062FC8D194F80C0A012657
:109D60000393FFF73BFE4FF44031DFF878B0002259
:109D7000C4F82C8AC4F8141A5846D4F8081AC4F83F
:109D8000286AC4F8206A84F8406AC4F8182AC4F81B
:109D9000382AC4F83C2AC4F81C2A84F8302AC4F8AB
:109DA000342AC4F8242AC4F8101AFEF729F9019BB2
:109DB000002B40F02981039B002B00F02581ABF1A3
:109DC00008004CF0A7FE012305F11E0C4FF0000E19
:109DD0000DE000BFF841012088AD0508004C0120CE
:109DE00008B00508084C01200535AC4547D0EA7895
:109DF000002AF9D094F84C1A5A1C68780129D2B27A
:109E00002F79CDF810E036D04FF00101092884F801
:109E10004C1A40F245814FF003096FF01D06D4F84B
:109E2000101A4FF0070A19FB0066D1F80C900AFAD5
:109E300006FA07FA06F629EA0A07CF60CF683E431A
:109E4000CE60062B4FF0050600F218816FF0040774
:109E500016FB03731F274E6B9F4000FA03F326EA9D
:109E600007064E634E6B33434B63B94B994200F088
:109E7000298184F84CEA05351346AC45B7D1019BDE
:109E800002200299234493F9032A3AF07DFB054608
:109E9000002800F0B08040683AF0E0FC0022062183
:109EA0003AF0ECFC002800F0A680686800263AF042
:109EB000D5FCA84F4CF046F8B8F1010F6A684FF492
:109EC00000638CBF4FF480613146A8684FF40055A1
:109ED000C4F8681A4FF48071C4F8582A4FF400325D
:109EE000C4F86C3A0323C4F85C0A3846C4F8803AD4
:109EF000C4F8606AC4F8646AC4F87C6AC4F8846A06
:109F0000C4F8886AC4F8705AC4F8741AC4F8782A75
:109F10000DF098FC94F84C3AC4F8487A012B059659
:109F2000C4F890BA67D00123D4F8105A84F84C3A98
:109F3000AB68DE0713D4D4F84C318749AA68B3FB69
:109F4000F1F342F0010203EB4303AA600593059B82
:109F50002BB1059B013B0593059B002BF9D1AB6809
:109F6000D80748D5D4F8502A7C4B134043F480736B
:109F7000C4F8503A6B68590507D5D4F8503A23F421
:109F8000405343F48053C4F8503AD4F8503A13F491
:109F9000805300F0CF80D4F8543A23F00603C4F87D
:109FA000543A6F4800236F496FF02202C4F8980AB0
:109FB0006D4884F84C3A4346C4F8941A05F14C01B4
:109FC000C4F8A40A2A606E68684A46F08066614850
:109FD0006E60AE6846F48076AE600DF0ABFB644B0D
:109FE0005A68D20640F08F80D4F8103A9A6812F07E
:109FF000405F00F09A8007B0BDE8F08F5D4A02EB49
:10A00000C30393F8843298E6B02200215A484826C8
:10A0100050F094FCB0220021574850F08FFC4C4B7C
:10A02000304684F8BC6AC4F8B83AFFF7D7FC4FF45E
:10A03000403000230121D4F8B82AC4F8C40A4F489C
:10A04000C4F8D81AC4F8D01A84F8F01AC4F8C83A78
:10A05000C4F8E83AC4F8EC3AC4F8CC3AC4F8DC3AAC
:10A0600084F8E03AC4F8E43AC4F8D43AC4F8C02A10
:10A07000FDF7C6FF40484CF04DFDA4E60C2B2CD854
:10A080006FF0220716FB03731F270E6B9F4000FA29
:10A0900003F326EA07060E630E6B33430B63E4E615
:10A0A000D4F8101A00EB400A4FF007090E6907FABE
:10A0B0000AF709FA0AF926EA09060E610E6937431A
:10A0C0000F61BEE6122818D011287FF4D2AE2849BD
:10A0D0004B6843F400034B60CBE66FF0400716FB80
:10A0E00003731F27CE6A9F4000FA03F326EA070690
:10A0F000CE62CE6A3343CB62B7E61D494B6843F468
:10A1000080034B60B5E6D4F8102A11498A4214D076
:10A110005B68DB063FF56FAF194B9A427FF46BAF7C
:10A120009A6812F0405F7FF466AF9A6842F080420E
:10A130009A6060E7C4F8543A33E7936813F0405FDD
:10A1400003D1936843F080439360094B5B6852E707
:10A1500000200140504C012040420F00FEF8FFFF5C
:10A16000790601087D060108690601081C02002025
:10A170000023014088AD0508B04C0120B84C0120F7
:10A18000002201402DE9F041D0F800E00C46DFF854
:10A19000588084B0DEF804501746DFF850C01946E6
:10A1A00005EA0805DDF82880064603932C4342465D
:10A1B00044EA0C0CCEF804C00CF080FB78B931688E
:10A1C0000246039B30468F628021CDF800800CF060
:10A1D000A5FB003818BF012004B0BDE8F0810120C4
:10A1E00004B0BDE8F08100BF009800FC00200181B0
:10A1F00038B590F83C30012B00F08D800D460223DD
:10A200000121044680F83D3080F83C10142A1ED805
:10A21000DFE802F0251D1D1D371D1D1D4A1D1D1DDA
:10A220005C1D1D1D6F1D1D1D0B00294600680AF0D9
:10A23000C3F923682869596D41F400615965596D66
:10A2400021F4806159655A6D42EA00225A65002363
:10A250000122184684F83D2084F83C3038BD294658
:10A2600000680AF099FA23682869996941F00801A1
:10A270009961996921F0040199619A6902439A618F
:10A28000E5E7294600680AF051FA236828699969C8
:10A2900041F400619961996921F4806199619A6939
:10A2A00042EA00229A61D2E7294600680AF008FAD9
:10A2B00023682869D96941F00801D961D96921F079
:10A2C0000401D961DA690243DA61C0E7294600680E
:10A2D0000AF0CAF923682869D96941F40061D96193
:10A2E000D96921F48061D961DA6942EA0022DA6130
:10A2F000ADE7294600680AF08BF923682869596D93
:10A3000041F008015965596D21F0040159655A6DF4
:10A3100002435A659BE7022038BD00BF0128B5EE15
:10A32000C00A10D0F1EE10FA0BDD9FED177ADFEDC9
:10A33000177AE0EE077AFCEEE77A17EE903A98B2D9
:10A34000704700207047F1EE10FA0BDD9FED107A98
:10A35000DFED107AE0EE077AFCEEE77A17EE903A3E
:10A3600098B27047EDD5F7EE006A9FED0B7ADFEDFE
:10A370000B7A30EE260AE0EE077AFCEEE77A17EE6B
:10A38000903A98B2704700BF00E0F94400004042A4
:10A3900000C079440000834400C079C400E08244D6
:10A3A000F8B53D4E96F8684B04EB8403A70006EB26
:10A3B000830393F86C3B032B44D8DFE803F0461B80
:10A3C0000F023C4406EB8404D4F8703B002B58D0B9
:10A3D000013B0025C4F8703B2846F8BD3B1906EB4D
:10A3E0008303D3F8702B7AB1013A0025C3F8702BA0
:10A3F0002846F8BD3B1906EB8303D3F8702B002ADF
:10A40000F2D1022283F86C2B3C4406EB840494F8CE
:10A41000783B013BDBB284F8783B4BBB0323D4F899
:10A42000740B84F86C3B50F0A7FCC4F8700B064624
:10A4300050F092FC80F00100002E0CBF002500F0CF
:10A44000010525BB01252846F8BD3BF0E7FA054686
:10A450000028F7D03C44012342F2107006EB84043C
:10A4600084F86C3B50F088FCC4F8700B2846F8BDAB
:10A4700001254FF47A7050F07FFCC4F8700B284629
:10A48000F8BD50F015FC80F00100C5B2B0E7013E08
:10A49000C4F8706BACE700BFF841012003689B0A69
:10A4A000A3F58013522B00D970470E4A134470B5A0
:10A4B00093F8004384B00D2C12D800294FF000030C
:10A4C00009494FF0010514BF1E460226427901EBEF
:10A4D00084106946CDE90065CDE902330AF092F9AE
:10A4E00004B070BD88AD0508B44D012033492DE995
:10A4F000F84F91F8A9101C46012507460229DFF8FC
:10A50000C4A0104619464FF00002DFF8BC9018BFF7
:10A510007F02CAF82C50FDF71DFE294A630240F263
:10A52000FF5BC9F824204FF40075C9F828304FF4B8
:10A530008A62D9F82C30012110205E4643F0930343
:10A54000C9F82C30C9F838B0C9F808504D46C9F8D8
:10A550000C2049F021F8012CC9F838B04FF00A045A
:10A560008CBF4FF052084FF051084FF000093946A8
:10A570004046FEF7E1F8013C034640F277420121F4
:10A580003720E4B223B91846CAF82830BDE8F88F5E
:10A59000AE63C5F80890EA6048F0FEFFAE6303467C
:10A5A00008B1002CE3D1002BEDD000221846CAF8E8
:10A5B0002C20CAF82830BDE8F88F00BFF8410120F0
:10A5C00000E1F50500310120002C01402DE9F843A0
:10A5D000DFF8748004460F46914698F860551E4691
:10A5E000042D08D0082D02D00020BDE8F883FEF726
:10A5F000DDFB0228F8D101233A4620460021FFF76F
:10A6000075FF68B1FEF7CEFCD8F84845002CEBD0BA
:10A610000022D8F84C35D8F840151046A047E3E79B
:10A62000084A05230120C8F83C751268C8F840455F
:10A63000C8F84895C8F84C65C8F8502588F86035C2
:10A64000BDE8F883F8410120003101202A492DE9B5
:10A65000F04F91F8A9100124DFF8A8B007460229AD
:10A6600083B0CBF830409A4618BF4702012B4FF019
:10A670000A04224D40F2FF568CBF4FF059084FF0AC
:10A6800058084FF00009009239464046FEF754F84A
:10A69000013C034640F2774201213720E4B2BBB9C6
:10A6A0000098514601220193154CFDF753FD1349C3
:10A6B0004FEA4A220020019B4C628A62CA6A42F039
:10A6C0009102CA62CBF82800184603B0BDE8F08FAB
:10A6D000AE63C5F80890EA6048F05EFFAE630346DB
:10A6E00008B1002CD0D1002BDAD000221846CBF8CC
:10A6F000302003B0BDE8F08FF8410120002C01406C
:10A7000000E1F505003101202DE9F84F05460E4620
:10A7100090461F46394C94F8600504280CD0082850
:10A7200007D1D4F85835AB4206D0FEF73FFB0228DC
:10A73000F1D00120BDE8F88FDFF8C8A0C4F83C656F
:10A74000DAF8A090C4F84055C9F34F234FEA5922D4
:10A750000F2B2BD8D4F85CB5BBF1000F26D094F8A2
:10A760002E1619B3B9F5005F41D025484FF4007299
:10A77000314648444FF080F909F50072C2F34F2387
:10A78000CAF8A020520A102B31D0BBF1010F2ED0F5
:10A79000D4F858250BF1FF33042102200132C4F80C
:10A7A0005C3584F86015C4F85825C3E701234FF0E1
:10A7B00001092846062532460021C4F84885C4F818
:10A7C0004C7584F8449584F86055FFF73FFF0028E6
:10A7D000B0D0FEF7E7FBD4F848556DB14846D4F841
:10A7E0004C35D4F840150022A8470320A2E792B2C6
:10A7F000034E013AAD1ADAE703209BE7003101204E
:10A80000A8660120F841012070B52A4C82B02A4B7D
:10A81000226E12695168994247D0A3F57843994254
:10A8200045D003F58063994214BF4FF0FF310221F8
:10A83000013122483AF0DAFA214B226E00262148F3
:10A84000D2F8A81003F11002E166C4E93C323AF0F4
:10A850000DFB0546314601AA02231848A4F86850AA
:10A86000ADF804603AF062FB052036F0EDFC01AA79
:10A87000314602231148ADF804603AF057FB054613
:10A8800020B19DF805301E2B03D03546284602B076
:10A8900070BD0D4901200D4A0D4B81F87C0F074812
:10A8A000C4E913233AF0C2FBF0E70021C0E701211D
:10A8B000BEE700BFE001002000300140440200205C
:10A8C0000000002080969800F84101204D05050801
:10A8D0004DFA040803681878012801D00020704759
:10A8E00093F90430074A03EB430302EB431393F855
:10A8F000D52F202AF3D1D3F8943F9869C0F3C03004
:10A90000704700BFF841012010B50A4CA3681B78BE
:10A91000022B0DD1206939F0B9FB206908B123233E
:10A92000C380012139F01EFB03483AF09FFAA08151
:10A9300010BD00BFF052012080969800044B9A6829
:10A940001278022A02D118693AF024B9704700BF80
:10A95000F052012030B5044683B001230D460DF1BD
:10A960000702084821463AF027FC9DF8072035EAFF
:10A97000020304D02A43214602483AF0FBFE03B00A
:10A9800030BD00BFF852012038B505460A460C46D6
:10A99000064829463AF0D6FA45F0800103483AF0D5
:10A9A00079FA231A5842584138BD00BFF8520120A5
:10A9B00070B50D4C1346A5682A78022A07D00A46BE
:10A9C000014604F10800BDE870403AF0F5BB2A6A80
:10A9D0000AB1002070BD0A46014604F108003AF0B1
:10A9E00081FA012070BD00BFF052012003680122EE
:10A9F0001B78022B01D03AF00BBE3AF0CBBA13B55C
:10AA00003A4C0023D4F8E0208DF80730137803F097
:10AA1000FD01012905D194F8E41011B90C2184F845
:10AA2000E410022B1ED0032B2ED001220B21304824
:10AA300048F0E2F9042036F007FC01230DF107028B
:10AA400000212B4848F0FAF9002839D09DF807304A
:10AA5000482B35D1274BC4F8D430274BC4F8D83015
:10AA600002B010BDD4F8E80039F010FBD4F8E800CB
:10AA700008B13623C380012139F074FA1F483AF037
:10AA8000F5F9A4F8E400D0E7D4F8903546F2A8111F
:10AA90005068122219610023372180F8883048F06D
:10AAA0007FF9D4F8E0300D222421586848F078F975
:10AAB000D4F8E03030226A21586848F071F9B4E7E0
:10AAC000D4F8E0301A78022A03D0032A07D00020F5
:10AAD000C6E7D4F8E8003AF05DF80020C0E710229D
:10AAE0003721586848F05CF9F1E700BFF0520120C7
:10AAF000D05301209B2E05081D2F05088096980035
:10AB000030B54CF205028DB0002304460321ADF8A8
:10AB1000002001AD01228DF802300B938DF8142036
:10AB20008DF82820CDF808D0CDE90633CDE90833DB
:10AB3000CDE903513AF074FA204602A93AF050F8F0
:10AB400020463AF06DFA9DF806000DB030BD00BF0A
:10AB500008480023024611780632022904D0013346
:10AB6000062BF8D10020704703EB430300EB4300B2
:10AB7000704700BF405B01202DE9F041604C82B07E
:10AB80002422002104F505604FF0D8FE002394F83C
:10AB90007978C4F87438002F39D15A4EB36E53B354
:10ABA0009B6A43B358489847836823B303880025BA
:10ABB0005648013B844606469BB231780636032947
:10ABC0001DD00135062DF8D100220178063002296A
:10ABD00000F090800132062AF7D1D4F874180529C4
:10ABE00009D002FB01C20131C4F87418022000210F
:10ABF000938010705180384602B0BDE8F081062382
:10AC000003FB0545B5F85238013B9BB2DCE704F580
:10AC1000086394F87808C4F87C3810B90027394ED6
:10AC2000BCE739F0F9F8C4F8880818B183790BB19A
:10AC3000422BF3D1394636483AF0D8F880460028FE
:10AC4000ECD0D4F87C38304A9868C3F8942008B126
:10AC50002223C3800D212B4E39F084F9D4F87C389F
:10AC60000025986839F012FA2A483AF0FFF8D4F82B
:10AC70007C380146012232209980C6F8883086F857
:10AC80008C2036F0E1FA04239F21D4F87C080DEBE8
:10AC9000030201953AF026F99DF805509DF804301D
:10ACA00006F168002D029DF8061045EA03450D43A4
:10ACB000294647F0A7F808BB2846FDF781FFE8B909
:10ACC0009DF8065006F168009DF805202D029DF8BC
:10ACD000073045EA02451D43294646F0F1FE68B9B2
:10ACE0002846FDF76DFF074640B994F8780839F01B
:10ACF00071FF53E7062101FB02C277E747464DE7A4
:10AD0000F0520120F841012060420120405B012007
:10AD1000705B0120404B4C002DE9F04F0423BC4CEC
:10AD2000402141F2F40504F64C6704F138064FF077
:10AD3000A042E363E1640023022194F8F5038BB0A1
:10AD4000C4F838746651A263A366A3646366E365BE
:10AD500021656164C4E91533002800F06181032195
:10AD60001F46164684F8F513936823F00103936099
:10AD7000F368304643F04003F36008F07DFEB36BA8
:10AD8000012F054643F48033B36317D005B3022384
:10AD900084F8F5339F4B93F89C50012D00F0FC8014
:10ADA000A36B8021012059625A6A42F480029A62A0
:10ADB000FDF730FA00200BB0BDE8F08FB36843F028
:10ADC0000603B360B36843F02003B360002DDED107
:10ADD000A36B3220DA6822F0C042DA60DA6842F00F
:10ADE0008042DA600CF0DEFDE06B50B32A460127AA
:10ADF0002946C2EBC203561C04EB830383F874207C
:10AE0000A3F87A20F2B283F87570824283F8771043
:10AE1000C3F88810C3E91F11EBD300221146C2EB1F
:10AE2000C203561C04EB830383F83422F2B283F886
:10AE30003512824283F83712C3F84812C3E98F11E2
:10AE4000EDD30022A36BD4F844C01646D4F8488052
:10AE5000D4F864E0D4E91471019102F140010132A7
:10AE600003EB81010F2A4E60F7D19A6BBEF1000F00
:10AE700040F0408122F400129A631A6842F04002C6
:10AE80001A601A6842F080021A600022012F03F54E
:10AE90000066C3F8002ED3F80028C3F80028D3F8C2
:10AEA000002800F01E81032F00F01B8142F00302F6
:10AEB000C3F800284FF48461574A196102E0013A4F
:10AEC00000F02F8119698F06F9D41021524A1961B7
:10AED00002E0013A00F023811969C906F9D4002182
:10AEE00031617161F161E0B103F510624FF0904A98
:10AEF0004FF0006B0F464FF67F399C4607E0176016
:10AF000001311761C2F808902032814260D0136885
:10AF1000002BF4DA11B1C2F800A0F1E7C2F800B0DA
:10AF2000EEE73269B8F1010F22F48072326100F06D
:10AF3000EA8000216FF0804299615A61B8F1000FF8
:10AF400003D19A6942F010029A619969334A0A431F
:10AF50009A61019A1AB19A6942F008029A61BEF1A7
:10AF6000010F00F0CB80002D7FF411AF0121E26DC5
:10AF700084F870508A4284F8F51300F0D480736826
:10AF8000032043F0020373600CF00CFD214B93F897
:10AF90009C50012D7FF404AF46F070FC00287FF434
:10AFA000FFAEA36B8022284640215A625A6A42F4BF
:10AFB00000129A62FDF72EF920210220FDF72AF9EE
:10AFC00040210320FDF726F900200BB0BDE8F08FEB
:10AFD000002163460CF530624FF0904A4FF0006B51
:10AFE0000F464FF67F39844607E01760013117613D
:10AFF000C2F808902032614593D010680028F4DA36
:10B0000011B1C2F800A0F1E7C2F800B0EEE700BF4E
:10B0100000310120F8410120400D030000383C8040
:10B0200000F0FF054B4B03204FF4C05684F8F45357
:10B030001A6B42F001021A630A221B6B069105A9E2
:10B0400003F00103089044480493049B0795059678
:10B0500009920BF0E1FC636E012B71D03D4B062190
:10B0600043205A6B42F080025A635A6B02F080020E
:10B070000292029A5A6C42F480425A645B6C03F466
:10B0800080430393039BFEF7F1FBA66B0323334A34
:10B090000821916084F8F533226DB368012AA76C0A
:10B0A00023F00103B3607FF463AEB26B2C4B22F448
:10B0B0008032E16EB2630129F26803EA0203F360B1
:10B0C000F36823F44013F36003D1F36843F480136F
:10B0D000F360304608F0D0FC012F05467FF456AEF1
:10B0E0006CE6BCF1000F3FF4E3AE42F00102C3F89E
:10B0F0000028DFE642F400129A63C6E69969194A0D
:10B100000A439A612FE718490020184A31636FF00B
:10B110008041376B3A4332639861596115E70125E5
:10B12000DDE60125D1E684F82C549969C4F834246D
:10B1300041F000610E4A9961596D0A435A651EE754
:10B140004FF4007305A904480593CDE906550BF0AB
:10B1500063FC83E7003802400000024000E100E0A9
:10B16000BFFFBDFF0400004000018000030001009C
:10B170000300001010B51A4C94F81909C0B9194B06
:10B1800083F88D05C3F8900594F81C39012B05D080
:10B19000022B21D0D4F820391BB910BD124BC4F8B2
:10B1A000203912495B68A1F10C00BDE81040184736
:10B1B00038F032FE94F81B290A49003AC1F890058C
:10B1C00018BF012281F88D250028DDD02122202101
:10B1D000C28038F0C7FED7E7054BC4F82039E0E756
:10B1E000F05201200031012084010120145C012073
:10B1F0006001012099B10A6B824216D9154BD3F830
:10B200006429914221D35C3991421ED30B6B984241
:10B21000F9D38B6B9842F6D80B46184670470D4B06
:10B22000D3F864190A6B904212D30B680BB9F4E798
:10B230000A6B90420B4602D38A6B9042EDD951F8CB
:10B240005C3F002BF4D11846704700231846704726
:10B250000A46D8E7F05201202DE9F047CC0143D14E
:10B26000034622494FF0FF32022443F8081B7E2692
:10B2700042601846DFF878802644051D6FF070475D
:10B28000D8F868994FF0010A013E494608E0A34208
:10B290001CD0631C45F8043C321B1C460435CAB163
:10B2A0000B6BA34202D88B6BA34204D22046FFF75C
:10B2B000A1FF014690B10A794B6B002AE7D1A34266
:10B2C00004D0E6D2631C45F8042CE5E7631C45F87E
:10B2D000047CE1E7C8F86819BDE8F087321B631CFD
:10B2E000494645F804ACD8E78026C3E7F8FFFF0FCE
:10B2F000F05201200E4A002310B50E4CC2F870091E
:10B30000C2F884490C4CA2F87419C2F87C490B4C61
:10B31000C2F87839A2F87639C2F8804982F88839BB
:10B32000282202FB03F4035301339942F9D110BDE3
:10B33000F052012040420F0020A10700A01CE9FFAD
:10B340002DE9F0470023194D84B0074695F99199EE
:10B3500005F698164FF0B60A00EB010805F63845D9
:10B360001C46D6F800C0304600226946E036BCF1E3
:10B37000000F14D09CF838C0BCF1140F0FD019F195
:10B38000020F01D0CC450AD1CDE90244CDE90078C5
:10B39000ADF808A08DF80D402DF0BEF80346B5427B
:10B3A000DFD1184604B0BDE8F08700BFF05201209D
:10B3B00090B10B4BB0F5167FF2EE047A93ED4E7A16
:10B3C000A8BF4FF4167027EE277A07EE900AF8EE22
:10B3D000E77A87EE270A70479FED020A704700BFA1
:10B3E000E0010020000000002DE9F04FA44CB2EE77
:10B3F000045AA44AB4F81C1404F52C67B4F81A349F
:10B4000004F6986B07EE901A04F6A86A06EE103A56
:10B4100004F56C66B8EE677AB8EE466A2DED068BD9
:10B4200092F8393CB6EE009A85B0DFED97AA07EEA8
:10B43000903AB2F83A3C67EE096A0A2BF8EEE77ADE
:10B44000B8BF0A23C7EE855A07EE903AB2F83C3CE3
:10B4500008EE103A92F8383C0022B8EEE70AB8EE4F
:10B46000C88AC4F8D02A87ED010AB4EE480AF1EE82
:10B4700010FA30FE088AF4EEC86AC7ED005AF1EE01
:10B4800010FA38FE268AC6EE887A082B87ED028AE3
:10B49000A8BF0823B1F57A7FF7EE006A38BF1346DC
:10B4A000C4F8CC3A04F69C63FBFE677AF4EE667A45
:10B4B000F1EE10FA48BFF0EE667AFDEEE77AF8EEAC
:10B4C000E75A17EE905AC6EE077AC4F8945E67EE14
:10B4D000A57A86EEA76ADFED6D7AC7EE256A8BED59
:10B4E000006A0BF2247BC6EEA78A80EE280AC3ED21
:10B4F000008A4CF05FFF0228B8BF022088EE280ABD
:10B500008046C4F8A00E4CF055FF2328DAED007AEF
:10B510009FED5F8AA8BF2320B8F1230FA8BF4FF08B
:10B520002308C4F8A40E4045B8BF4046012DA0EB47
:10B5300008028146B8BF01250132F5EE407AF1EEEE
:10B5400010FA29D1534900239FED53AA07EE903AF0
:10B550000193F8EEE79ACDE9021269EEAA9AB0EEED
:10B56000690A4FF0C9FBF0EE408AB0EE690A4FF06D
:10B57000A3FB019BA8EE880A0299013368EE8A8A30
:10B580000831039A242B41ED018A20EE0A0A01EDCD
:10B59000020ADBD1DFED417A002346F80C9C46F825
:10B5A000045C92FBF5F146F8081C314646E9053883
:10B5B0000133A1EC018A482BFAD1394806F5907382
:10B5C0000021D0F854C3D0F858030131C3F800C0AB
:10B5D000586008332429F8D106F515765E45ACD1BC
:10B5E000DFF8C4900026DFED2F8ACAED007AB81983
:10B5F000CA464FF00008D4F8CC3A00F1240598452B
:10B6000031DA07EE908A97ED016A74300421F8EE82
:10B61000E76AD7ED027A08F1010877EEC67A36EECE
:10B62000897A67EE877A07EE103AB4F81A34B8EEE2
:10B63000C77A00EE903A87EE870AF8EE600A30EE9D
:10B64000060AAAEC010A97ED001A85ED178AA6EE04
:10B65000A81A85ED168A85ED158A85ED148A4FF0B6
:10B660008FFB2846C7E706F5907609F12009B6F565
:10B67000587FBCD105B0BDEC068BBDE8F08F00BF94
:10B68000E0010020F0520120C3B8B23D000090421A
:10B69000000000008817002072F97F3FBC297E3F20
:10B6A00088AD0508CDCC4C3EB40C00202DE9F04F00
:10B6B000DFF89C810127614CDFF898A12DED028B0A
:10B6C0009FED5F8A85B0FEB2592118F8010B324612
:10B6D00034F03CF80546002800F09680036801210C
:10B6E000DFF874B14FF4005C534518BFB3F1804FDD
:10B6F000E060DBED537A0CBF01230023F8EE677A9C
:10B7000004ED088A002B04F8233CDBF84C3114BF0D
:10B7100008464FF480701A464A4B44F80C0CA3FBC1
:10B720000223002218F8010CDB0844ED077A04F824
:10B73000241C44F8083C24F8181C24F8161C44F86F
:10B74000042C44E905C238F067FB206110B159238D
:10B75000C6718371DFF8049199F8443C012B6AD0DB
:10B76000022B0CBF422102216A7A38F0A7FBDBF8DA
:10B770004C210021284649F04DFC14F8233C002BB5
:10B780004CD0314B002221462846236049F00EFB65
:10B79000286849F099FC8346A8B1002199F8452C06
:10B7A00001238A424FF00402019314BF0B46022387
:10B7B000CDE9021269466A79009309F023F86979A4
:10B7C000584609F0EFF854F80C3C4FF0FF3CE268A3
:10B7D000013E1E4803EB0C011268F6B290F8B00669
:10B7E000012391624FF400550021B042C2F82CC0F1
:10B7F000536124F8183C24F8163C44F8041C44E92E
:10B80000055101D133F038FE01373834052F7FF46C
:10B810005AAF05B0BDEC028BBDE8F08FDFF840E019
:10B82000221DDFF840C021462846A360C4E900EC91
:10B8300049F0BCFAACE7222196E700BFCC18002003
:10B84000000000001F85EB51ED150000D81200200C
:10B85000305F0120000C0040F8410120F05201202F
:10B8600025170000E11800000C480D4BD0F8601CB3
:10B8700010B48A1E0B4C2231C0F8503CB0F86C3C1E
:10B880001B01A4FB03C3DB08A3F5B06322F8023F4E
:10B890009142F3D15DF8044B704700BFF052012094
:10B8A0009D670208CDCCCCCCF0B5294C85B00546BF
:10B8B00004F67C43C4F8603CFFF7D6FF1A21254A02
:10B8C000254B402084F84A1CC4F8542CC4F8583C3A
:10B8D0002EF0C0FE002838D0002D94F8B93C94F822
:10B8E000BA2C4FF0030614BF4FF4E1314FF4E121BD
:10B8F000002B4FF0000394F8BB7C0CBF1D460225C3
:10B900009A4290F9040000914FF0400114BF302298
:10B910001A469F4218BF45F00105019615430F4A8C
:10B9200002952EF0F6FEC4F8D00C48B10C480FF08A
:10B93000D9FE94F8D53C84F8D40C0BB984F8D56CB6
:10B94000D4F8D00C003818BF012005B0F0BD00BFFE
:10B95000F0520120AD100208950F0208AD0C02084C
:10B96000090A020870B5084C251D2E4614F8010B73
:10B970002CF01CFF28B10379B44205F8013BF5D146
:10B9800070BDFF23F8E700BFC85F01202DE9F04735
:10B990001C4F01264FF03D094FF0000807F1080544
:10B9A000B24617F8010B38F037FA044690B180F828
:10B9B0000690C671FB7803F07F02012A17D013F0BE
:10B9C000800F20460CD185F8048038F00DFB85F8F7
:10B9D00005802C6001360835052EE2D1BDE8F087E0
:10B9E00085F804A038F052FB85F805A0F1E71B06A6
:10B9F00005D40121204638F0B5FAFB78DFE738F0AE
:10BA000045FBF6E7D05F0120364BF0EE607AB3F8E5
:10BA10001A3407EE103ABAEEEF7A2DE9F041B4EE9F
:10BA2000C70A2DED048BF1EE10FADFED2F8AB0EE90
:10BA3000408AF0EE419A06DDF4EEC70AF1EE10FA04
:10BA400032D5B0EE478AB5EEC08AF1EE10FA30DD9D
:10BA5000F5EEC07AF1EE10FA2BDD27EE887A67EE6C
:10BA6000E77AE8EE087A87EE279A00F10C0400F1F5
:10BA70009C051E4E1E4FDFF88080B5EE408A44F8CC
:10BA80000C6C44F8047CF1EE10FA04DDB5EEC09ABB
:10BA9000F1EE10FA10DC44F8088C3034AC42ECD1F2
:10BAA000BDEC048BBDE8F081B0EE688AB0EE689A18
:10BAB000DBE79FED0D9AD8E70E4BB0EE491AF0EE9A
:10BAC000690A0421B0EE480A204644F8083CC4ED57
:10BAD000038AC4ED028AC4ED018AC4ED008A4FF0E6
:10BAE0004FF9DAE7E0010020000000006179040866
:10BAF0005D790408B51C0000011D00000A44914254
:10BB000016D030B441F2210511F8014B082380EA28
:10BB1000042010F4004F4FEA400485EA40000CBFB7
:10BB2000A0B280B2013BF4D18A42EDD130BC704763
:10BB3000704700BF30B40023314D32494CF25034CD
:10BB4000C5F8203D304AD1F8500904E0D1F8503909
:10BB50001B1AA3420FD8D368DB03F7D4D16811F4C2
:10BB6000F9710BD1D06810F0010002D00123084612
:10BB7000D36030BC7047032030BC7047D3689B074C
:10BB800005D5D5F8203D43F02003C5F8203D1E4BD8
:10BB9000DB68DC0605D5D5F8203D43F01003C5F879
:10BBA000203D194BDB68980605D5D5F8203D43F0BC
:10BBB0000803C5F8203D144BDB68590605D5D5F8B8
:10BBC000203D43F00403C5F8203D0F4BDB681A0607
:10BBD00005D5D5F8203D43F00203C5F8203D0A4BBA
:10BBE000DB68DB0505D5D5F8203D43F04003C5F8FB
:10BBF000203D054B4FF4F9720120DA6030BC7047EC
:10BC0000F0520120F8410120003C02402DE9F041B2
:10BC1000204C00234FF0050894F82B2D04F62857EC
:10BC200004F62C5584F8242D17F8010B5E1C20BB5C
:10BC30002860032E05F104053346F5D194F8241D40
:10BC4000D4F82C0DC94301F0010138F07DFA94F8C5
:10BC5000241DD4F8300D81F00201C1F3400138F009
:10BC600073FA94F8241DD4F8340D81F00401BDE872
:10BC7000F041C1F3800138F067BA38F0CDF8012106
:10BC8000F3B2286010B180F80680C371286838F0DC
:10BC900069F9CEE7F0520120F0B5294C83B0B4F831
:10BCA0003C5DA4F83E5DEDB994F8380D38F0B4F879
:10BCB00094F8392DC4F8400D003A18BF012284F8D9
:10BCC000442D48B194F83A1D2D220029C28014BF9A
:10BCD0001121012138F046F9002003B0BDE8F04001
:10BCE00038F03ABA94F8387D00222D21384633F0E6
:10BCF0002DFD0646384638F08FF800B10EB903B076
:10BD0000F0BD2D22C4F85C0D02210027C280727A9A
:10BD100038F0D4F80B4AA4F8605D314604F6485078
:10BD20000197B2FBF5F3C3F34F059BB200952BF0DF
:10BD3000D5FAD4F8483D1F6084F8597DDFE700BF8D
:10BD4000F052012040420F002DE9F84F264B00260B
:10BD500093F86C2D03F6635703F5586483F8622D4E
:10BD60005FFA86FB4FF0010917F8010F01360BEB64
:10BD7000090A49464FF000085FFA8AFA524633F042
:10BD8000E5FC054648B3387804F80E8C04F80D8CB1
:10BD900004F80FBC04F8109C44F8045C38F03CF83C
:10BDA000022118B180F8069080F807A06A7A38F06E
:10BDB00085F80E4A0021284649F02CF90C4B221D2B
:10BDC0002146236028460B4BC4E9013848F0EEFFBA
:10BDD0004246697928682BF035FA082E04F11C04D4
:10BDE000BED1BDE8F88F00BFF052012040420F00E5
:10BDF000857203089D0B030870B52C4C00222C4B58
:10BE0000022194F8980EC4F8903EC4F8502EC4F85D
:10BE1000542EC4F8582EC4F88C2EA4F8942E33F067
:10BE200095FC002836D0234B0546016803F16000DD
:10BE30005A7C12B15A6891422DD018338342F7D1FF
:10BE4000002394F8980EC4F87C5D84F8703D37F0B8
:10BE5000E3FF08B10223C38000266A7A022138F08A
:10BE60002DF831462846144A49F0D4F8134B144AA9
:10BE70002846C4F8803D134B111FC4F8886DC4F8E0
:10BE8000843D48F093FF324669792868BDE87040E8
:10BE90002BF0D8B970BD8A6A0B4801320B49D0F833
:10BEA0004C31B3FBF2F381F8A831C9E7F05201201D
:10BEB00000FFFF008C19002040420F00C50B030853
:10BEC00074600120510D0308F84101200000012099
:10BED0002DE9F04FDFF860B39BF89E4E2DED048BFB
:10BEE000032CA1B0A4F10503039000F29880012275
:10BEF000BE49032B81F8602D00F2C0809BF8A73E5D
:10BF0000DFF80093012B89F8A42700F0C4819A1E62
:10BF100053425341082C08BF0023002B40F0BB8143
:10BF2000B34E09F244759BF8A67EDFF810830FCE5E
:10BF30000FC50FCED6F800C03E1E0FC518BF012694
:10BF4000AC4B072CC5F800C088F81860C9F8543706
:10BF500000F25082042C00F22F840023DFF8E0A2CC
:10BF60000493A54B0593A54BCDE90638DDE90332D3
:10BF7000934240F31D849DF810300321069A5D1C06
:10BF80000A9312F8016BEDB2069230462A4633F05E
:10BF9000DDFB0446002800F0E081304637F03CFF2E
:10BFA000059B586110B10323C57183719BF89E3EB8
:10BFB0002046089338F0C8FA94F808800346002811
:10BFC00000F0C68199F8B0270992002A40F0D28289
:10BFD0004768002F00F0C1819B6838460C9338F009
:10BFE0003DFC2A4603210B9038F048FC002800F065
:10BFF000B48199F8B46725688148CAF89470002E16
:10C0000000F0EB830022034603E00132B24200F06D
:10C01000E4831968B8338D42F7D1D6B2E5E3DAB2DA
:10C02000042A7FF664AF71490022032B81F8602D4A
:10C0300042D8744B0122DFF8048283F8A427D8F891
:10C040000030002B3ED001210022039883F82510F8
:10C0500083F82400014683F826209A6248B12C33E5
:10C06000694A1944084612F8011B03F8011B98425B
:10C07000F9D121B0BDEC048BBDE8F08FDFF88491DD
:10C080000023624E09F2747589F8A4379BF8A47EE8
:10C090000FCE0FC50FCE36680FC52E60092C1DD8E8
:10C0A000DFE814F0EB001C003B0435041C001C000E
:10C0B0001C001C001C00EB00524BDFF8808183F851
:10C0C000A427BCE7524D534C0FCD0FC40FCD0FC466
:10C0D0002B6844F82039C8F80040CAE79FED4E8A23
:10C0E000F0EE488A002F4D4A4D4B0EBF0021012132
:10C0F00013464C4A06914C49C9F88427C9F88C1755
:10C1000078EE887ADFED496AB5EE007AC9F88837AB
:10C1100028EE268A394B384C4FF0000A87EE279AD2
:10C120000593CDF82890039B534540F3A080059BD1
:10C130000AF10109032113F8016B5FFA89F5304612
:10C140002A46059333F002FB0746002800F02E85AF
:10C15000304637F061FE606110B10323C571837111
:10C160007A7A022137F0AAFE069B002B00F02E817E
:10C17000BBF89C3E4FF6FF7207EE903A2C4BF8EE60
:10C18000E77AD3F84C51FCEEE77A17EE903AB5FB1C
:10C19000F3F10A44120CB5FBF2F2B2FBF3F3049292
:10C1A0009DED047ADFED237AB8EE477A9BF89E2E58
:10C1B000092A67EE086A67EEE67AC4ED026AE7EEDE
:10C1C000287AC4ED037A00F01C8100269BB2049A01
:10C1D00039462046019600962BF080F8BAF1000F00
:10C1E00000F0EF806168044B2FE000BFD0230020F7
:10C1F000D4B10508855205088C19002099610120E9
:10C20000901A0020D8120020906101201CB205086D
:10C21000B0B10508006201206F1203392DE7030851
:10C22000DD0D030831E70308391003086F12833A64
:10C23000F841012000007A44F0520120E001002082
:10C24000B02A0020A34200F0BC805A6818338A420A
:10C25000F8D1012383F001030122B9F1040FCA468A
:10C26000237404F1180404F8072C7FF45CAFAF4F7B
:10C27000DFF8F482C8F80070E1E60123AC4A9FEDD4
:10C28000AD8A0693AC4BF0EE488AC9F88C27C9F802
:10C290008437AA4B34E700279BF8A63E8BF8404F23
:10C2A000A74DDC1B039BA74E18BF0124C9F8A83774
:10C2B000DFF8B4828BF8CD7E88F81840DFF8ACA2A6
:10C2C0000FCD0FC60FCD0FC62B6839464FF44C72F9
:10C2D0009D4846F880394EF031FB9C4BCDE904383F
:10C2E000D9F8A837BB4268DD049B13F8014B204600
:10C2F000049333F0B1FA0546204637F08DFD95F8EA
:10C300000880059B044608F00105197E01358BF86D
:10C31000CC5E09B188F00108002C00F04E81A179B3
:10C3200029B3A1F142035942594101BB824A0B464C
:10C3300087480121C9F82427DDF814807F4AC9F80D
:10C340002C078BF8CD1EC9F82827C8F8003076E6F0
:10C3500099F8B037002B40F00D817D490023774AD2
:10C36000DDF81C80C9F85C17C9F85827EDE76D01A6
:10C37000204638F005F8013745F001014FF003037E
:10C38000CAF80C40CAF804008AF81080CAF81410E1
:10C39000E771A371204637F0E5FD18F0010F204644
:10C3A00011D037F021FEDAF80C30042F0AF1200A00
:10C3B00006F1180646F8043C92D1DDF81480614B72
:10C3C000C3E7002346E737F061FEECE7FAFE497A5F
:10C3D000FCEEE77A5F4B4FF6FF71D3F84C5117EE46
:10C3E000902A0B46B5FBF2F20A44120CB5FBF2F2AE
:10C3F0000492D5E6082C7FF4B0AD574BC9F8AC37A2
:10C40000ABE5012100209BB2049A019139460090CE
:10C4100020462AF063FF3B6818461D4609EE903A15
:10C4200048F052FE079000283FF4D8AE4B4AD2F8AD
:10C430006C39002B7FF4D2AE28460C2548F058FE0C
:10C44000474EA846054609970894464F01E0BE426C
:10C450001BD03878033717F8021C0028F7D00029C2
:10C46000F5D033F01DF804460028F0D0006848F0FD
:10C470003FFE8542EBD163794345E8D1A8F104083A
:10C4800018F0FF08E1D1089CA8E6DDE90847334B26
:10C490001922049DC3F86C4919EE903A797902FB90
:10C4A00005F52E4E3433880822681944DFF8C0C0E1
:10C4B00086F8AC094344126807980068C6F87829E2
:10C4C00012924FF48072C6F8643916924FF40072DB
:10C4D000C36A179206F67812C6F86819002122601E
:10C4E000079A119192F83C20B5FBFCF5CDE91411A7
:10C4F0005B1B0221012A1391C6F8703900F02982D2
:10C50000079D0122A8F1040385F83D1085F83C2021
:10C51000082B00F21782DFE813F0AD0215021502B6
:10C520001502A90215021502150212024C1A00206A
:10C53000391003086F12833A31E703082DE7030827
:10C54000F8B10508EC190020802D00209961012028
:10C5500029E70308F841012095E70308D0230020CC
:10C56000FF610120C0610120E0010020B030002007
:10C5700040420F006769002F3FF4EFAEA3693846D1
:10C580000C9338F06BF9CD4B2422451E0B9002FB27
:10C59000053595F8C8313A2B00F0C581206848F080
:10C5A000A7FD02463A210B98D2B238F067F900286D
:10C5B0003FF4D3AE002309931BE56D01204637F00D
:10C5C000DFFE013745F00101CAF80C40CAF804004B
:10C5D0008AF81080CAF81410DCE699F8B027CAF877
:10C5E0005430002A00F019829846DAF89830C3F8DF
:10C5F000A870CAF89470099B002B00F079820AF1A8
:10C6000018000F9007F0DAFD99F8B0370F98002B5B
:10C6100000F05782AA494FF4907322684FF0030C40
:10C6200003FB0613DAF898104C32C1F8B030CAF8A0
:10C630001C300C9BCAF81820CAF83C30CAF848C015
:10C64000089B40214FF4806C082B4FF00403CAF87C
:10C6500020104FF48051CAF844304FF000030CBF53
:10C6600006221222CAE91333CAE909334FF4003310
:10C67000CAF838204FF48042CAF84030099BCAF803
:10C680003420CAE90BC1002B00F00C829DF8343035
:10C69000CAF89470022B00F229818A4A8A4902EB77
:10C6A0008303089AD3F8CC33082AB1FBF3F308BF0D
:10C6B0005F2203F1230318BF1322CAF85C30DAF8B3
:10C6C000983050469A8048F04DFD99F8B0370BB13C
:10C6D000099B33B90B9890229AF811307B4949F0A5
:10C6E0000BFC18EE102A4146284607F085FBB8F1EE
:10C6F000010F00F0C881B8F1040F00F06081B8F1BB
:10C70000100F00F06382B8F1400F00F07482B8F5AA
:10C71000807F00F07E82B8F5806F00F08282B8F5ED
:10C72000805F00F0A182B8F5803F00F0A5826A6DBD
:10C7300005F11800082342F400626A656449042286
:10C74000644FC95CFF5C0B58BA4023EA02030B50EC
:10C750002B6843F001032B600E9B002B00F08E81B1
:10C760002B6A43EA88032B620A9B9E420BD16B6CB7
:10C7700043F400436B642B6843F080032B602B6809
:10C7800043F001032B60079B1B7E002B40F083814D
:10C79000049A012305990AF1A00A01320AF8913C92
:10C7A0004B7401F11803042A049205937FF4DEAB65
:10C7B000DDF81C80484BC8E59BF8A53E474A012B95
:10C7C000C9F8AC2705D0022B08BF002F0CBF0123EE
:10C7D000002389F8B037FFF7C0BBB823721C03FBF6
:10C7E000069389F8B427C3F8B857B82399F8B42743
:10C7F0000A9906FB0303013A8AF81110CAF8983027
:10C8000020790A9237F008FB079B08F001011B7E94
:10C8100001310BB188F001084901CAF8084041F024
:10C820000E01CAF81410627A37F048FB0A9B9E4248
:10C8300000F06F81089B063B0D93002360220AF1F4
:10C840006401CAF8803008EE101ACAF86420CAE9F8
:10C850001A33CAE91C33CAE91E3318F002030E93D7
:10C860004FEA480347D0012203F00203CAF86C20C4
:10C87000CAF87830002302224FF480300A21CAF827
:10C880007030CAF88410CAF89020CAE9220362798D
:10C890000C2A3FF6A2AE0B4B99F8B01703EB8203BC
:10C8A000D3F8D883CAF8548000297FF49EAE054B94
:10C8B00003EB4202B2F80C14B1E000BF000001200B
:10C8C0005020002088AD050800D012132D2D000047
:10C8D0005CB2050850B205081C1A0020C9E703081D
:10C8E000ACC5A737ACC5A736282930388D2313220D
:10C8F000CAF85C30E3E601214FF4807203F00203D2
:10C90000CAF86810CAF87C20CAF87430B2E71FED84
:10C910000C8A5FED0C8AFFF7E5BB1FED0D8AF0EE88
:10C92000488AFFF7DFBB206848F0E2FB95F8C93181
:10C9300083427FF433AE01230993FFF75ABB11A959
:10C9400007F092FE07990122002381F83D2081F82B
:10C950003C303E4618ADDFF808C30FCE0FC596E851
:10C960000F0085E80F00B349002218A88DF86580F4
:10C97000C1F800C0A1F5166348F018FA3968002321
:10C98000AD4A52F83320914200F01A8101330E2B48
:10C99000F6D1002040B201210490FCF767FF049813
:10C9A0000AF0F2FF9DF865200C2A10D8DFE802F0AB
:10C9B000570F0F0F500F0F0F490F0F0F4200AA69AB
:10C9C00005F11800012342F00802AA61B6E6079BB0
:10C9D0001B6802F01F010122186A8A40974D20EA65
:10C9E0000200AB421862196A42EA01021A6200F0C0
:10C9F000D880934A934200F0D4809968914A0A40C3
:10CA0000062A3FF4EBABB2F5803F3FF4E7AB1A6880
:10CA100042F001021A60FFF7E1BB90461146DAF8D6
:10CA20009820AAF80C10B2F8B43023EA0103A2F857
:10CA3000B430E0E5079B1B68D96841F01001D9606C
:10CA4000C7E7079B1B68D96841F00801D960C0E7B8
:10CA5000079B1B68D96841F00401D960B9E7079BBF
:10CA60001B68D96841F00201D960B2E711A907F04B
:10CA700027FE67E711A907F059FE63E72B6A43EA2F
:10CA800008032B6270E6AA6905F11800002342F042
:10CA90000802AA6152E623684FF6FF7162793433C7
:10CAA000995075E6FBB21821024627F0FF00103BB3
:10CAB000B3FBF1F107F094FB3B6843F010033B60DC
:10CAC000E4E50C9A5821DFF89CC1CAF83C20049A8E
:10CAD00001FB02C12268CAF84830CAF89C1002F172
:10CAE0003403CAF81C1062791344CAF81830A7E559
:10CAF0003A68FBB2182127F0FF0022F00102103B38
:10CB00003A60B3FBF1F107F0B1FB0B9849F01AFA68
:10CB100075E500224FF0FF311346ADF86020199201
:10CB20001B928DF870201A91434A52F83320954297
:10CB300069D001330E2BF7D10020089B9A1F0D926C
:10CB4000FCF74CFF2B6840499DF8342023F001038B
:10CB5000D1ED537A022A2B60F8EE677A3ED83B4932
:10CB6000DFED3B6A01EB820292EDF37AB8EE477A91
:10CB700087EE870A30EE260A4BF01CFC089B013832
:10CB8000082BADF8600014BF13225F22002318A900
:10CB900028461A921B938DF87030199307F092FA79
:10CBA0004BE65A6C42F400425A6426E7DDF82890BE
:10CBB000284A294BC9F88C27C9F88837FFF758BB92
:10CBC000224A02EBC30393F86103E3E6AA6905F185
:10CBD0001800022342F40062AA61AFE59FED1F7ABC
:10CBE0009FED1B0AA7EE870A4BF0E4FB01381322E6
:10CBF000ADF86000CAE7AA6905F11800032342F006
:10CC00000802AA619AE5114A02EBC30393F8600394
:10CC100093E7EA6905F11800042342F00802EA618B
:10CC20008CE5EA6905F11800052342F00802EA6183
:10CC300084E500BF302D0020E4B00508000001406D
:10CC40000004014007000100F841012088AD0508FB
:10CC50000AD7233CE50E03082DE70308FCF4B234A1
:10CC6000E90E030850290020EA6905F1180006239F
:10CC700042F40062EA6161E56A6D05F1180007237C
:10CC800042F008026A6559E570B5534E96F8C70C34
:10CC900037F0C2F896F8C85C60B12F230446202113
:10CCA000C38037F05FF90A2034F0C2FA204637F02B
:10CCB0005DFB18B9D6F8443FDA0000D570BD013DE0
:10CCC000092DFBD896F8C64CCCB940202DF0C2FCFB
:10CCD0000028F3D090F9043096F8491C092BC8BFFE
:10CCE000143B0A29334493F8484F67D093F8543FD4
:10CCF00096F8BA2C002A08BF1C46002CDED020462D
:10CD000037F08AF8054608B12F23C3800121284651
:10CD100037F028F90121084637F060FA012128464A
:10CD200037F012FA3C2034F08FFA0021012037F05E
:10CD300055FA96F8C83C1BB300240021013408467C
:10CD400037F04CFA0021022037F048FA002128463B
:10CD500037F0FAF9782034F06BFA0121002037F02F
:10CD60003DFA0121022037F039FA0121284637F037
:10CD7000EBF9782034F05CFA96F8C83C9C42DCDB96
:10CD800096F8C63C93B996F8C73C002B96D196F816
:10CD9000C93C012B92D1D6F8443F13F080538DD17A
:10CDA00086F8C83CBDE8704040F06CBD322034F0DD
:10CDB0004BFA2846002137F0D5F8E4E7D6F86C3F67
:10CDC0005B057FF57BAF0FF043FD00287FF476AF66
:10CDD000002C94D172E700BFF05201200823484094
:10CDE00002E0013BD0B209D010F0800F4FEA4002C0
:10CDF000F7D082F0D500013BC0B2F5D1704700BF3B
:10CE000030B4002305688D4210D011F8014B082280
:10CE1000634002E0E3B2013AF5D013F0800F4FEA2D
:10CE20004304F7D084F0D503DBB2F4E76A1C026058
:10CE30002B7030BC704700BF344870B490F8703F1E
:10CE4000A3F13001092958D800F5776400F67F7006
:10CE5000224612F8015FA5F13001092904D8824267
:10CE6000F7D1002070BC7047141B022C4BDD284802
:10CE7000002101E010F8013B01EB8101161A044684
:10CE800003EB4103022EA3F1300303F0FF01F1DCB9
:10CE9000204B03FB01F1A2424FF000030ED903EB3C
:10CEA000830314F8016B5B00A242A3F13003334407
:10CEB00003F0FF03F3D1184800FB03F32E2D06D037
:10CEC0001648A0FB032370BC01EB930070470132AE
:10CED0000425002404EB84041078013D30386400FC
:10CEE0000928A4B2204401D8013284B215F0FF050C
:10CEF000F0D1642202FB0433E2E700211D4600F575
:10CF000077620B46DAE70021054CC4E7F0520120B6
:10CF1000616201208096980040420F00ABAAAAAA45
:10CF20006062012038B5041E0D4611DB092C1FDCA0
:10CF30000846134B0021134AA3FB04C34170DB08CE
:10CF400003EB8303A4EB4303D35C0370284638BD93
:10CF500064422D230846092C00F8013BE9D9084B0F
:10CF600001460A22A3FB0430C0083BF0BDF8E0E70D
:10CF700003480A22A0FB0430C0083BF0B5F8D8E70C
:10CF8000CDCCCCCCF82206080C461646054683B517
:10CF90002DF02CFB20462DF029FB0021204B0846CC
:10CFA000002E08BF1E4637F019F90021012037F086
:10CFB00015F9284634F092F9B0B10121002037F07C
:10CFC0000DF9284634F082F90746204634F082F9FC
:10CFD0000028FAD03946204634F0A6F93846B04742
:10CFE0000021084637F0FAF8204634F077F9002897
:10CFF000DFD00121002037F0F1F8204634F066F947
:10D0000001462846019134F065F901990028F8D0CD
:10D01000284634F089F90021084637F0DFF8C8E7E0
:10D02000F37E0308F0B500228DB0DFF8ACE007AF67
:10D0300013460A61BC46C1E90022C1E90222D0E9D7
:10D040000020C2F3056646FA03F46546E40704D5FA
:10D0500013F80E4005F8014BAC460133062BF2D114
:10D060001B4DC2F303240023C2F3073E2C5D0DF1D8
:10D0700025068CF80030DFF864C08DF824404EFAA5
:10D0800003F43546E40704D513F80C4005F8014BCA
:10D090002E460133082BF2D10025C0F3435CC0F3C8
:10D0A0004343C0F34F0435700846C2F3035509A942
:10D0B00000970394CDE9043CCDE9011502F00F037C
